{"abi":[{"anonymous":false,"inputs":[{"indexed":true,"internalType":"address","name":"admin","type":"address"}],"name":"AdminRegistered","type":"event"},{"anonymous":false,"inputs":[{"indexed":true,"internalType":"uint256","name":"id","type":"uint256"},{"indexed":true,"internalType":"address","name":"complainant","type":"address"},{"indexed":false,"internalType":"string","name":"ipfsHash","type":"string"},{"indexed":false,"internalType":"string","name":"description","type":"string"}],"name":"ComplaintCreated","type":"event"},{"anonymous":false,"inputs":[{"indexed":true,"internalType":"uint256","name":"id","type":"uint256"},{"indexed":false,"internalType":"string","name":"response","type":"string"}],"name":"ComplaintResolved","type":"event"},{"anonymous":false,"inputs":[{"indexed":true,"internalType":"uint256","name":"complaintId","type":"uint256"},{"indexed":true,"internalType":"address","name":"accessor","type":"address"},{"indexed":false,"internalType":"enum ComplaintSystem.Action","name":"action","type":"uint8"},{"indexed":false,"internalType":"uint256","name":"timestamp","type":"uint256"}],"name":"TransactionAdded","type":"event"},{"anonymous":false,"inputs":[{"indexed":true,"internalType":"address","name":"user","type":"address"}],"name":"UserRegistered","type":"event"},{"inputs":[{"internalType":"uint256","name":"_complaintId","type":"uint256"}],"name":"accessComplaint","outputs":[],"stateMutability":"nonpayable","type":"function"},{"inputs":[],"name":"complaintCount","outputs":[{"internalType":"uint256","name":"","type":"uint256"}],"stateMutability":"view","type":"function"},{"inputs":[{"internalType":"uint256","name":"","type":"uint256"}],"name":"complaints","outputs":[{"internalType":"uint256","name":"id","type":"uint256"},{"internalType":"address","name":"complainant","type":"address"},{"internalType":"string","name":"description","type":"string"},{"internalType":"enum ComplaintSystem.ComplaintStatus","name":"status","type":"uint8"},{"components":[{"internalType":"string","name":"ipfsHash","type":"string"},{"internalType":"string","name":"name","type":"string"}],"internalType":"struct ComplaintSystem.File","name":"file","type":"tuple"},{"internalType":"uint256","name":"timestamp","type":"uint256"}],"stateMutability":"view","type":"function"},{"inputs":[{"internalType":"string","name":"_ipfsHash","type":"string"},{"internalType":"string","name":"_description","type":"string"},{"internalType":"string","name":"fileName","type":"string"}],"name":"createComplaint","outputs":[],"stateMutability":"nonpayable","type":"function"},{"inputs":[{"internalType":"uint256","name":"_complaintId","type":"uint256"}],"name":"getComplaintById","outputs":[{"components":[{"internalType":"uint256","name":"id","type":"uint256"},{"internalType":"address","name":"complainant","type":"address"},{"internalType":"string","name":"description","type":"string"},{"internalType":"enum ComplaintSystem.ComplaintStatus","name":"status","type":"uint8"},{"components":[{"internalType":"string","name":"ipfsHash","type":"string"},{"internalType":"string","name":"name","type":"string"}],"internalType":"struct ComplaintSystem.File","name":"file","type":"tuple"},{"internalType":"uint256","name":"timestamp","type":"uint256"}],"internalType":"struct ComplaintSystem.Complaint","name":"","type":"tuple"}],"stateMutability":"view","type":"function"},{"inputs":[{"internalType":"uint256","name":"_complaintId","type":"uint256"}],"name":"getRepliesById","outputs":[{"components":[{"internalType":"address","name":"senderAddress","type":"address"},{"internalType":"string","name":"replyText","type":"string"},{"internalType":"uint256","name":"timestamp","type":"uint256"}],"internalType":"struct ComplaintSystem.Reply[]","name":"","type":"tuple[]"}],"stateMutability":"view","type":"function"},{"inputs":[{"internalType":"uint256","name":"_complaintId","type":"uint256"}],"name":"getTransactionsById","outputs":[{"components":[{"internalType":"address","name":"accessor","type":"address"},{"internalType":"enum ComplaintSystem.Action","name":"actionType","type":"uint8"},{"internalType":"uint256","name":"timestamp","type":"uint256"}],"internalType":"struct ComplaintSystem.Transaction[]","name":"","type":"tuple[]"}],"stateMutability":"view","type":"function"},{"inputs":[],"name":"getUnresolvedComplaints","outputs":[{"components":[{"internalType":"uint256","name":"id","type":"uint256"},{"internalType":"address","name":"complainant","type":"address"},{"internalType":"string","name":"description","type":"string"},{"internalType":"enum ComplaintSystem.ComplaintStatus","name":"status","type":"uint8"},{"components":[{"internalType":"string","name":"ipfsHash","type":"string"},{"internalType":"string","name":"name","type":"string"}],"internalType":"struct ComplaintSystem.File","name":"file","type":"tuple"},{"internalType":"uint256","name":"timestamp","type":"uint256"}],"internalType":"struct ComplaintSystem.Complaint[]","name":"","type":"tuple[]"}],"stateMutability":"view","type":"function"},{"inputs":[{"internalType":"address","name":"_user","type":"address"}],"name":"getUserComplaints","outputs":[{"components":[{"internalType":"uint256","name":"id","type":"uint256"},{"internalType":"address","name":"complainant","type":"address"},{"internalType":"string","name":"description","type":"string"},{"internalType":"enum ComplaintSystem.ComplaintStatus","name":"status","type":"uint8"},{"components":[{"internalType":"string","name":"ipfsHash","type":"string"},{"internalType":"string","name":"name","type":"string"}],"internalType":"struct ComplaintSystem.File","name":"file","type":"tuple"},{"internalType":"uint256","name":"timestamp","type":"uint256"}],"internalType":"struct ComplaintSystem.Complaint[]","name":"","type":"tuple[]"}],"stateMutability":"view","type":"function"},{"inputs":[{"internalType":"address","name":"_user","type":"address"}],"name":"getUserReplies","outputs":[{"components":[{"internalType":"address","name":"senderAddress","type":"address"},{"internalType":"string","name":"replyText","type":"string"},{"internalType":"uint256","name":"timestamp","type":"uint256"}],"internalType":"struct ComplaintSystem.Reply[]","name":"","type":"tuple[]"}],"stateMutability":"view","type":"function"},{"inputs":[{"internalType":"address","name":"","type":"address"}],"name":"isAdmin","outputs":[{"internalType":"bool","name":"","type":"bool"}],"stateMutability":"view","type":"function"},{"inputs":[{"internalType":"address","name":"","type":"address"}],"name":"isUser","outputs":[{"internalType":"bool","name":"","type":"bool"}],"stateMutability":"view","type":"function"},{"inputs":[],"name":"registerAdmin","outputs":[],"stateMutability":"nonpayable","type":"function"},{"inputs":[],"name":"registerUser","outputs":[],"stateMutability":"nonpayable","type":"function"},{"inputs":[{"internalType":"uint256","name":"","type":"uint256"},{"internalType":"uint256","name":"","type":"uint256"}],"name":"replies","outputs":[{"internalType":"address","name":"senderAddress","type":"address"},{"internalType":"string","name":"replyText","type":"string"},{"internalType":"uint256","name":"timestamp","type":"uint256"}],"stateMutability":"view","type":"function"},{"inputs":[{"internalType":"uint256","name":"_complaintId","type":"uint256"},{"internalType":"string","name":"_replyText","type":"string"}],"name":"replyToComplaint","outputs":[],"stateMutability":"nonpayable","type":"function"},{"inputs":[{"internalType":"uint256","name":"_complaintId","type":"uint256"},{"internalType":"string","name":"_response","type":"string"}],"name":"resolveComplaint","outputs":[],"stateMutability":"nonpayable","type":"function"},{"inputs":[{"internalType":"uint256","name":"","type":"uint256"},{"internalType":"uint256","name":"","type":"uint256"}],"name":"transactions","outputs":[{"internalType":"address","name":"accessor","type":"address"},{"internalType":"enum ComplaintSystem.Action","name":"actionType","type":"uint8"},{"internalType":"uint256","name":"timestamp","type":"uint256"}],"stateMutability":"view","type":"function"}],"devdoc":{"kind":"dev","methods":{},"version":1},"evm":{"assembly":"    /* \"ComplaintSystem.sol\":60:5990  contract ComplaintSystem {... */\n  mstore(0x40, 0x80)\n  callvalue\n  dup1\n  iszero\n  tag_1\n  jumpi\n  0x00\n  dup1\n  revert\ntag_1:\n  pop\n  dataSize(sub_0)\n  dup1\n  dataOffset(sub_0)\n  0x00\n  codecopy\n  0x00\n  return\nstop\n\nsub_0: assembly {\n        /* \"ComplaintSystem.sol\":60:5990  contract ComplaintSystem {... */\n      mstore(0x40, 0x80)\n      callvalue\n      dup1\n      iszero\n      tag_1\n      jumpi\n      0x00\n      dup1\n      revert\n    tag_1:\n      pop\n      jumpi(tag_2, lt(calldatasize, 0x04))\n      shr(0xe0, calldataload(0x00))\n      dup1\n      0x4d3820eb\n      gt\n      tag_21\n      jumpi\n      dup1\n      0x7e69e912\n      gt\n      tag_22\n      jumpi\n      dup1\n      0x7e69e912\n      eq\n      tag_16\n      jumpi\n      dup1\n      0xa9a9ddf1\n      eq\n      tag_17\n      jumpi\n      dup1\n      0xd395fc04\n      eq\n      tag_18\n      jumpi\n      dup1\n      0xdeb514ff\n      eq\n      tag_19\n      jumpi\n      dup1\n      0xf7ddd7a4\n      eq\n      tag_20\n      jumpi\n      jump(tag_2)\n    tag_22:\n      dup1\n      0x4d3820eb\n      eq\n      tag_12\n      jumpi\n      dup1\n      0x4eaf9db6\n      eq\n      tag_13\n      jumpi\n      dup1\n      0x5ab6f71b\n      eq\n      tag_14\n      jumpi\n      dup1\n      0x6d7196eb\n      eq\n      tag_15\n      jumpi\n      jump(tag_2)\n    tag_21:\n      dup1\n      0x24d7806c\n      gt\n      tag_23\n      jumpi\n      dup1\n      0x24d7806c\n      eq\n      tag_7\n      jumpi\n      dup1\n      0x26019e7f\n      eq\n      tag_8\n      jumpi\n      dup1\n      0x2edea294\n      eq\n      tag_9\n      jumpi\n      dup1\n      0x3ae7db25\n      eq\n      tag_10\n      jumpi\n      dup1\n      0x4209fff1\n      eq\n      tag_11\n      jumpi\n      jump(tag_2)\n    tag_23:\n      dup1\n      0x0da3f37e\n      eq\n      tag_3\n      jumpi\n      dup1\n      0x152e1e32\n      eq\n      tag_4\n      jumpi\n      dup1\n      0x168f7a4b\n      eq\n      tag_5\n      jumpi\n      dup1\n      0x204f257c\n      eq\n      tag_6\n      jumpi\n    tag_2:\n      0x00\n      dup1\n      revert\n        /* \"ComplaintSystem.sol\":1913:2393  function createComplaint(string memory _ipfsHash, string memory _description, string memory fileName) external onlyUser {... */\n    tag_3:\n      tag_24\n      0x04\n      dup1\n      calldatasize\n      sub\n      dup2\n      add\n      swap1\n      tag_25\n      swap2\n      swap1\n      tag_26\n      jump\t// in\n    tag_25:\n      tag_27\n      jump\t// in\n    tag_24:\n      stop\n        /* \"ComplaintSystem.sol\":4199:4847  function getUserReplies(address _user) external view returns (Reply[] memory) {... */\n    tag_4:\n      tag_28\n      0x04\n      dup1\n      calldatasize\n      sub\n      dup2\n      add\n      swap1\n      tag_29\n      swap2\n      swap1\n      tag_30\n      jump\t// in\n    tag_29:\n      tag_31\n      jump\t// in\n    tag_28:\n      mload(0x40)\n      tag_32\n      swap2\n      swap1\n      tag_33\n      jump\t// in\n    tag_32:\n      mload(0x40)\n      dup1\n      swap2\n      sub\n      swap1\n      return\n        /* \"ComplaintSystem.sol\":5848:5987  function getComplaintById(uint256 _complaintId) external view returns (Complaint memory) {... */\n    tag_5:\n      tag_34\n      0x04\n      dup1\n      calldatasize\n      sub\n      dup2\n      add\n      swap1\n      tag_35\n      swap2\n      swap1\n      tag_36\n      jump\t// in\n    tag_35:\n      tag_37\n      jump\t// in\n    tag_34:\n      mload(0x40)\n      tag_38\n      swap2\n      swap1\n      tag_39\n      jump\t// in\n    tag_38:\n      mload(0x40)\n      dup1\n      swap2\n      sub\n      swap1\n      return\n        /* \"ComplaintSystem.sol\":920:962  mapping(uint256 => Reply[]) public replies */\n    tag_6:\n      tag_40\n      0x04\n      dup1\n      calldatasize\n      sub\n      dup2\n      add\n      swap1\n      tag_41\n      swap2\n      swap1\n      tag_42\n      jump\t// in\n    tag_41:\n      tag_43\n      jump\t// in\n    tag_40:\n      mload(0x40)\n      tag_44\n      swap4\n      swap3\n      swap2\n      swap1\n      tag_45\n      jump\t// in\n    tag_44:\n      mload(0x40)\n      dup1\n      swap2\n      sub\n      swap1\n      return\n        /* \"ComplaintSystem.sol\":92:131  mapping(address => bool) public isAdmin */\n    tag_7:\n      tag_46\n      0x04\n      dup1\n      calldatasize\n      sub\n      dup2\n      add\n      swap1\n      tag_47\n      swap2\n      swap1\n      tag_30\n      jump\t// in\n    tag_47:\n      tag_48\n      jump\t// in\n    tag_46:\n      mload(0x40)\n      tag_49\n      swap2\n      swap1\n      tag_50\n      jump\t// in\n    tag_49:\n      mload(0x40)\n      dup1\n      swap2\n      sub\n      swap1\n      return\n        /* \"ComplaintSystem.sol\":2401:2807  function resolveComplaint(uint256 _complaintId, string memory _response) external onlyAdmin {... */\n    tag_8:\n      tag_51\n      0x04\n      dup1\n      calldatasize\n      sub\n      dup2\n      add\n      swap1\n      tag_52\n      swap2\n      swap1\n      tag_53\n      jump\t// in\n    tag_52:\n      tag_54\n      jump\t// in\n    tag_51:\n      stop\n        /* \"ComplaintSystem.sol\":969:998  uint256 public complaintCount */\n    tag_9:\n      tag_55\n      tag_56\n      jump\t// in\n    tag_55:\n      mload(0x40)\n      tag_57\n      swap2\n      swap1\n      tag_58\n      jump\t// in\n    tag_57:\n      mload(0x40)\n      dup1\n      swap2\n      sub\n      swap1\n      return\n        /* \"ComplaintSystem.sol\":4855:5544  function getUnresolvedComplaints() external view returns (Complaint[] memory) {... */\n    tag_10:\n      tag_59\n      tag_60\n      jump\t// in\n    tag_59:\n      mload(0x40)\n      tag_61\n      swap2\n      swap1\n      tag_62\n      jump\t// in\n    tag_61:\n      mload(0x40)\n      dup1\n      swap2\n      sub\n      swap1\n      return\n        /* \"ComplaintSystem.sol\":138:176  mapping(address => bool) public isUser */\n    tag_11:\n      tag_63\n      0x04\n      dup1\n      calldatasize\n      sub\n      dup2\n      add\n      swap1\n      tag_64\n      swap2\n      swap1\n      tag_30\n      jump\t// in\n    tag_64:\n      tag_65\n      jump\t// in\n    tag_63:\n      mload(0x40)\n      tag_66\n      swap2\n      swap1\n      tag_50\n      jump\t// in\n    tag_66:\n      mload(0x40)\n      dup1\n      swap2\n      sub\n      swap1\n      return\n        /* \"ComplaintSystem.sol\":1656:1775  function registerUser() external {... */\n    tag_12:\n      tag_67\n      tag_68\n      jump\t// in\n    tag_67:\n      stop\n        /* \"ComplaintSystem.sol\":860:913  mapping(uint256 => Transaction[]) public transactions */\n    tag_13:\n      tag_69\n      0x04\n      dup1\n      calldatasize\n      sub\n      dup2\n      add\n      swap1\n      tag_70\n      swap2\n      swap1\n      tag_42\n      jump\t// in\n    tag_70:\n      tag_71\n      jump\t// in\n    tag_69:\n      mload(0x40)\n      tag_72\n      swap4\n      swap3\n      swap2\n      swap1\n      tag_73\n      jump\t// in\n    tag_72:\n      mload(0x40)\n      dup1\n      swap2\n      sub\n      swap1\n      return\n        /* \"ComplaintSystem.sol\":1783:1905  function registerAdmin() external {... */\n    tag_14:\n      tag_74\n      tag_75\n      jump\t// in\n    tag_74:\n      stop\n        /* \"ComplaintSystem.sol\":2815:2946  function accessComplaint(uint256 _complaintId) external {... */\n    tag_15:\n      tag_76\n      0x04\n      dup1\n      calldatasize\n      sub\n      dup2\n      add\n      swap1\n      tag_77\n      swap2\n      swap1\n      tag_36\n      jump\t// in\n    tag_77:\n      tag_78\n      jump\t// in\n    tag_76:\n      stop\n        /* \"ComplaintSystem.sol\":806:853  mapping(uint256 => Complaint) public complaints */\n    tag_16:\n      tag_79\n      0x04\n      dup1\n      calldatasize\n      sub\n      dup2\n      add\n      swap1\n      tag_80\n      swap2\n      swap1\n      tag_36\n      jump\t// in\n    tag_80:\n      tag_81\n      jump\t// in\n    tag_79:\n      mload(0x40)\n      tag_82\n      swap7\n      swap6\n      swap5\n      swap4\n      swap3\n      swap2\n      swap1\n      tag_83\n      jump\t// in\n    tag_82:\n      mload(0x40)\n      dup1\n      swap2\n      sub\n      swap1\n      return\n        /* \"ComplaintSystem.sol\":5552:5700  function getTransactionsById(uint256 _complaintId) external view returns (Transaction[] memory) {... */\n    tag_17:\n      tag_84\n      0x04\n      dup1\n      calldatasize\n      sub\n      dup2\n      add\n      swap1\n      tag_85\n      swap2\n      swap1\n      tag_36\n      jump\t// in\n    tag_85:\n      tag_86\n      jump\t// in\n    tag_84:\n      mload(0x40)\n      tag_87\n      swap2\n      swap1\n      tag_88\n      jump\t// in\n    tag_87:\n      mload(0x40)\n      dup1\n      swap2\n      sub\n      swap1\n      return\n        /* \"ComplaintSystem.sol\":3541:4191  function getUserComplaints(address _user) external view returns (Complaint[] memory) {... */\n    tag_18:\n      tag_89\n      0x04\n      dup1\n      calldatasize\n      sub\n      dup2\n      add\n      swap1\n      tag_90\n      swap2\n      swap1\n      tag_30\n      jump\t// in\n    tag_90:\n      tag_91\n      jump\t// in\n    tag_89:\n      mload(0x40)\n      tag_92\n      swap2\n      swap1\n      tag_62\n      jump\t// in\n    tag_92:\n      mload(0x40)\n      dup1\n      swap2\n      sub\n      swap1\n      return\n        /* \"ComplaintSystem.sol\":2954:3219  function replyToComplaint(uint256 _complaintId, string memory _replyText) external {... */\n    tag_19:\n      tag_93\n      0x04\n      dup1\n      calldatasize\n      sub\n      dup2\n      add\n      swap1\n      tag_94\n      swap2\n      swap1\n      tag_53\n      jump\t// in\n    tag_94:\n      tag_95\n      jump\t// in\n    tag_93:\n      stop\n        /* \"ComplaintSystem.sol\":5708:5840  function getRepliesById(uint256 _complaintId) external view returns (Reply[] memory) {... */\n    tag_20:\n      tag_96\n      0x04\n      dup1\n      calldatasize\n      sub\n      dup2\n      add\n      swap1\n      tag_97\n      swap2\n      swap1\n      tag_36\n      jump\t// in\n    tag_97:\n      tag_98\n      jump\t// in\n    tag_96:\n      mload(0x40)\n      tag_99\n      swap2\n      swap1\n      tag_33\n      jump\t// in\n    tag_99:\n      mload(0x40)\n      dup1\n      swap2\n      sub\n      swap1\n      return\n        /* \"ComplaintSystem.sol\":1913:2393  function createComplaint(string memory _ipfsHash, string memory _description, string memory fileName) external onlyUser {... */\n    tag_27:\n        /* \"ComplaintSystem.sol\":1171:1177  isUser */\n      0x01\n        /* \"ComplaintSystem.sol\":1171:1189  isUser[msg.sender] */\n      0x00\n        /* \"ComplaintSystem.sol\":1178:1188  msg.sender */\n      caller\n        /* \"ComplaintSystem.sol\":1171:1189  isUser[msg.sender] */\n      0xffffffffffffffffffffffffffffffffffffffff\n      and\n      0xffffffffffffffffffffffffffffffffffffffff\n      and\n      dup2\n      mstore\n      0x20\n      add\n      swap1\n      dup2\n      mstore\n      0x20\n      add\n      0x00\n      keccak256\n      0x00\n      swap1\n      sload\n      swap1\n      0x0100\n      exp\n      swap1\n      div\n      0xff\n      and\n        /* \"ComplaintSystem.sol\":1163:1226  require(isUser[msg.sender], \"Only user can call this function\") */\n      tag_101\n      jumpi\n      mload(0x40)\n      0x08c379a000000000000000000000000000000000000000000000000000000000\n      dup2\n      mstore\n      0x04\n      add\n      tag_102\n      swap1\n      tag_103\n      jump\t// in\n    tag_102:\n      mload(0x40)\n      dup1\n      swap2\n      sub\n      swap1\n      revert\n    tag_101:\n        /* \"ComplaintSystem.sol\":2078:2079  0 */\n      0x00\n        /* \"ComplaintSystem.sol\":2058:2067  _ipfsHash */\n      dup4\n        /* \"ComplaintSystem.sol\":2052:2075  bytes(_ipfsHash).length */\n      mload\n        /* \"ComplaintSystem.sol\":2052:2079  bytes(_ipfsHash).length > 0 */\n      gt\n        /* \"ComplaintSystem.sol\":2044:2100  require(bytes(_ipfsHash).length > 0, \"No file provided\") */\n      tag_105\n      jumpi\n      mload(0x40)\n      0x08c379a000000000000000000000000000000000000000000000000000000000\n      dup2\n      mstore\n      0x04\n      add\n      tag_106\n      swap1\n      tag_107\n      jump\t// in\n    tag_106:\n      mload(0x40)\n      dup1\n      swap2\n      sub\n      swap1\n      revert\n    tag_105:\n        /* \"ComplaintSystem.sol\":2111:2130  uint256 complaintId */\n      0x00\n        /* \"ComplaintSystem.sol\":2133:2147  complaintCount */\n      0x05\n      0x00\n        /* \"ComplaintSystem.sol\":2133:2149  complaintCount++ */\n      dup2\n      sload\n      dup1\n      swap3\n      swap2\n      swap1\n      tag_108\n      swap1\n      tag_109\n      jump\t// in\n    tag_108:\n      swap2\n      swap1\n      pop\n      sstore\n        /* \"ComplaintSystem.sol\":2111:2149  uint256 complaintId = complaintCount++ */\n      swap1\n      pop\n        /* \"ComplaintSystem.sol\":2186:2303  Complaint(complaintId, msg.sender, _description, ComplaintStatus.Pending, File(_ipfsHash, fileName), block.timestamp) */\n      mload(0x40)\n      dup1\n      0xc0\n      add\n      0x40\n      mstore\n      dup1\n        /* \"ComplaintSystem.sol\":2196:2207  complaintId */\n      dup3\n        /* \"ComplaintSystem.sol\":2186:2303  Complaint(complaintId, msg.sender, _description, ComplaintStatus.Pending, File(_ipfsHash, fileName), block.timestamp) */\n      dup2\n      mstore\n      0x20\n      add\n        /* \"ComplaintSystem.sol\":2209:2219  msg.sender */\n      caller\n        /* \"ComplaintSystem.sol\":2186:2303  Complaint(complaintId, msg.sender, _description, ComplaintStatus.Pending, File(_ipfsHash, fileName), block.timestamp) */\n      0xffffffffffffffffffffffffffffffffffffffff\n      and\n      dup2\n      mstore\n      0x20\n      add\n        /* \"ComplaintSystem.sol\":2221:2233  _description */\n      dup5\n        /* \"ComplaintSystem.sol\":2186:2303  Complaint(complaintId, msg.sender, _description, ComplaintStatus.Pending, File(_ipfsHash, fileName), block.timestamp) */\n      dup2\n      mstore\n      0x20\n      add\n        /* \"ComplaintSystem.sol\":2235:2258  ComplaintStatus.Pending */\n      0x00\n        /* \"ComplaintSystem.sol\":2186:2303  Complaint(complaintId, msg.sender, _description, ComplaintStatus.Pending, File(_ipfsHash, fileName), block.timestamp) */\n      0x01\n      dup2\n      gt\n      iszero\n      tag_110\n      jumpi\n      tag_111\n      tag_112\n      jump\t// in\n    tag_111:\n    tag_110:\n      dup2\n      mstore\n      0x20\n      add\n        /* \"ComplaintSystem.sol\":2260:2285  File(_ipfsHash, fileName) */\n      mload(0x40)\n      dup1\n      0x40\n      add\n      0x40\n      mstore\n      dup1\n        /* \"ComplaintSystem.sol\":2265:2274  _ipfsHash */\n      dup8\n        /* \"ComplaintSystem.sol\":2260:2285  File(_ipfsHash, fileName) */\n      dup2\n      mstore\n      0x20\n      add\n        /* \"ComplaintSystem.sol\":2276:2284  fileName */\n      dup6\n        /* \"ComplaintSystem.sol\":2260:2285  File(_ipfsHash, fileName) */\n      dup2\n      mstore\n      pop\n        /* \"ComplaintSystem.sol\":2186:2303  Complaint(complaintId, msg.sender, _description, ComplaintStatus.Pending, File(_ipfsHash, fileName), block.timestamp) */\n      dup2\n      mstore\n      0x20\n      add\n        /* \"ComplaintSystem.sol\":2287:2302  block.timestamp */\n      timestamp\n        /* \"ComplaintSystem.sol\":2186:2303  Complaint(complaintId, msg.sender, _description, ComplaintStatus.Pending, File(_ipfsHash, fileName), block.timestamp) */\n      dup2\n      mstore\n      pop\n        /* \"ComplaintSystem.sol\":2160:2170  complaints */\n      0x02\n        /* \"ComplaintSystem.sol\":2160:2183  complaints[complaintId] */\n      0x00\n        /* \"ComplaintSystem.sol\":2171:2182  complaintId */\n      dup4\n        /* \"ComplaintSystem.sol\":2160:2183  complaints[complaintId] */\n      dup2\n      mstore\n      0x20\n      add\n      swap1\n      dup2\n      mstore\n      0x20\n      add\n      0x00\n      keccak256\n        /* \"ComplaintSystem.sol\":2160:2303  complaints[complaintId] = Complaint(complaintId, msg.sender, _description, ComplaintStatus.Pending, File(_ipfsHash, fileName), block.timestamp) */\n      0x00\n      dup3\n      add\n      mload\n      dup2\n      0x00\n      add\n      sstore\n      0x20\n      dup3\n      add\n      mload\n      dup2\n      0x01\n      add\n      exp(0x0100, 0x00)\n      dup2\n      sload\n      dup2\n      0xffffffffffffffffffffffffffffffffffffffff\n      mul\n      not\n      and\n      swap1\n      dup4\n      0xffffffffffffffffffffffffffffffffffffffff\n      and\n      mul\n      or\n      swap1\n      sstore\n      pop\n      0x40\n      dup3\n      add\n      mload\n      dup2\n      0x02\n      add\n      swap1\n      dup2\n      tag_113\n      swap2\n      swap1\n      tag_114\n      jump\t// in\n    tag_113:\n      pop\n      0x60\n      dup3\n      add\n      mload\n      dup2\n      0x03\n      add\n      exp(0x0100, 0x00)\n      dup2\n      sload\n      dup2\n      0xff\n      mul\n      not\n      and\n      swap1\n      dup4\n      0x01\n      dup2\n      gt\n      iszero\n      tag_115\n      jumpi\n      tag_116\n      tag_112\n      jump\t// in\n    tag_116:\n    tag_115:\n      mul\n      or\n      swap1\n      sstore\n      pop\n      0x80\n      dup3\n      add\n      mload\n      dup2\n      0x04\n      add\n      0x00\n      dup3\n      add\n      mload\n      dup2\n      0x00\n      add\n      swap1\n      dup2\n      tag_117\n      swap2\n      swap1\n      tag_114\n      jump\t// in\n    tag_117:\n      pop\n      0x20\n      dup3\n      add\n      mload\n      dup2\n      0x01\n      add\n      swap1\n      dup2\n      tag_118\n      swap2\n      swap1\n      tag_114\n      jump\t// in\n    tag_118:\n      pop\n      pop\n      pop\n      0xa0\n      dup3\n      add\n      mload\n      dup2\n      0x06\n      add\n      sstore\n      swap1\n      pop\n      pop\n        /* \"ComplaintSystem.sol\":2349:2359  msg.sender */\n      caller\n        /* \"ComplaintSystem.sol\":2319:2385  ComplaintCreated(complaintId, msg.sender, _ipfsHash, _description) */\n      0xffffffffffffffffffffffffffffffffffffffff\n      and\n        /* \"ComplaintSystem.sol\":2336:2347  complaintId */\n      dup2\n        /* \"ComplaintSystem.sol\":2319:2385  ComplaintCreated(complaintId, msg.sender, _ipfsHash, _description) */\n      0xb538e4e93715cf36354d0368248193865bc355a0b9906e40e3eeb2298af70869\n        /* \"ComplaintSystem.sol\":2361:2370  _ipfsHash */\n      dup7\n        /* \"ComplaintSystem.sol\":2372:2384  _description */\n      dup7\n        /* \"ComplaintSystem.sol\":2319:2385  ComplaintCreated(complaintId, msg.sender, _ipfsHash, _description) */\n      mload(0x40)\n      tag_119\n      swap3\n      swap2\n      swap1\n      tag_120\n      jump\t// in\n    tag_119:\n      mload(0x40)\n      dup1\n      swap2\n      sub\n      swap1\n      log3\n        /* \"ComplaintSystem.sol\":2033:2393  {... */\n      pop\n        /* \"ComplaintSystem.sol\":1913:2393  function createComplaint(string memory _ipfsHash, string memory _description, string memory fileName) external onlyUser {... */\n      pop\n      pop\n      pop\n      jump\t// out\n        /* \"ComplaintSystem.sol\":4199:4847  function getUserReplies(address _user) external view returns (Reply[] memory) {... */\n    tag_31:\n        /* \"ComplaintSystem.sol\":4261:4275  Reply[] memory */\n      0x60\n        /* \"ComplaintSystem.sol\":4288:4314  Reply[] memory userReplies */\n      0x00\n        /* \"ComplaintSystem.sol\":4329:4343  complaintCount */\n      sload(0x05)\n        /* \"ComplaintSystem.sol\":4317:4344  new Reply[](complaintCount) */\n      0xffffffffffffffff\n      dup2\n      gt\n      iszero\n      tag_122\n      jumpi\n      tag_123\n      tag_124\n      jump\t// in\n    tag_123:\n    tag_122:\n      mload(0x40)\n      swap1\n      dup1\n      dup3\n      mstore\n      dup1\n      0x20\n      mul\n      0x20\n      add\n      dup3\n      add\n      0x40\n      mstore\n      dup1\n      iszero\n      tag_125\n      jumpi\n      dup2\n      0x20\n      add\n    tag_126:\n      tag_127\n      tag_128\n      jump\t// in\n    tag_127:\n      dup2\n      mstore\n      0x20\n      add\n      swap1\n      0x01\n      swap1\n      sub\n      swap1\n      dup2\n      tag_126\n      jumpi\n      swap1\n      pop\n    tag_125:\n      pop\n        /* \"ComplaintSystem.sol\":4288:4344  Reply[] memory userReplies = new Reply[](complaintCount) */\n      swap1\n      pop\n        /* \"ComplaintSystem.sol\":4355:4379  uint256 userRepliesCount */\n      0x00\n        /* \"ComplaintSystem.sol\":4399:4408  uint256 i */\n      dup1\n        /* \"ComplaintSystem.sol\":4394:4677  for (uint256 i = 0; i < complaintCount; i++) {... */\n    tag_129:\n        /* \"ComplaintSystem.sol\":4418:4432  complaintCount */\n      sload(0x05)\n        /* \"ComplaintSystem.sol\":4414:4415  i */\n      dup2\n        /* \"ComplaintSystem.sol\":4414:4432  i < complaintCount */\n      lt\n        /* \"ComplaintSystem.sol\":4394:4677  for (uint256 i = 0; i < complaintCount; i++) {... */\n      iszero\n      tag_130\n      jumpi\n        /* \"ComplaintSystem.sol\":4487:4492  _user */\n      dup5\n        /* \"ComplaintSystem.sol\":4458:4492  complaints[i].complainant == _user */\n      0xffffffffffffffffffffffffffffffffffffffff\n      and\n        /* \"ComplaintSystem.sol\":4458:4468  complaints */\n      0x02\n        /* \"ComplaintSystem.sol\":4458:4471  complaints[i] */\n      0x00\n        /* \"ComplaintSystem.sol\":4469:4470  i */\n      dup4\n        /* \"ComplaintSystem.sol\":4458:4471  complaints[i] */\n      dup2\n      mstore\n      0x20\n      add\n      swap1\n      dup2\n      mstore\n      0x20\n      add\n      0x00\n      keccak256\n        /* \"ComplaintSystem.sol\":4458:4483  complaints[i].complainant */\n      0x01\n      add\n      0x00\n      swap1\n      sload\n      swap1\n      0x0100\n      exp\n      swap1\n      div\n      0xffffffffffffffffffffffffffffffffffffffff\n      and\n        /* \"ComplaintSystem.sol\":4458:4492  complaints[i].complainant == _user */\n      0xffffffffffffffffffffffffffffffffffffffff\n      and\n      sub\n        /* \"ComplaintSystem.sol\":4454:4666  if (complaints[i].complainant == _user) {... */\n      tag_132\n      jumpi\n        /* \"ComplaintSystem.sol\":4518:4527  uint256 j */\n      0x00\n        /* \"ComplaintSystem.sol\":4513:4651  for (uint256 j = 0; j < replies[i].length; j++) {... */\n    tag_133:\n        /* \"ComplaintSystem.sol\":4537:4544  replies */\n      0x04\n        /* \"ComplaintSystem.sol\":4537:4547  replies[i] */\n      0x00\n        /* \"ComplaintSystem.sol\":4545:4546  i */\n      dup4\n        /* \"ComplaintSystem.sol\":4537:4547  replies[i] */\n      dup2\n      mstore\n      0x20\n      add\n      swap1\n      dup2\n      mstore\n      0x20\n      add\n      0x00\n      keccak256\n        /* \"ComplaintSystem.sol\":4537:4554  replies[i].length */\n      dup1\n      sload\n      swap1\n      pop\n        /* \"ComplaintSystem.sol\":4533:4534  j */\n      dup2\n        /* \"ComplaintSystem.sol\":4533:4554  j < replies[i].length */\n      lt\n        /* \"ComplaintSystem.sol\":4513:4651  for (uint256 j = 0; j < replies[i].length; j++) {... */\n      iszero\n      tag_134\n      jumpi\n        /* \"ComplaintSystem.sol\":4618:4625  replies */\n      0x04\n        /* \"ComplaintSystem.sol\":4618:4628  replies[i] */\n      0x00\n        /* \"ComplaintSystem.sol\":4626:4627  i */\n      dup4\n        /* \"ComplaintSystem.sol\":4618:4628  replies[i] */\n      dup2\n      mstore\n      0x20\n      add\n      swap1\n      dup2\n      mstore\n      0x20\n      add\n      0x00\n      keccak256\n        /* \"ComplaintSystem.sol\":4629:4630  j */\n      dup2\n        /* \"ComplaintSystem.sol\":4618:4631  replies[i][j] */\n      dup2\n      sload\n      dup2\n      lt\n      tag_136\n      jumpi\n      tag_137\n      tag_138\n      jump\t// in\n    tag_137:\n    tag_136:\n      swap1\n      0x00\n      mstore\n      keccak256(0x00, 0x20)\n      swap1\n      0x03\n      mul\n      add\n        /* \"ComplaintSystem.sol\":4584:4631  userReplies[userRepliesCount++] = replies[i][j] */\n      mload(0x40)\n      dup1\n      0x60\n      add\n      0x40\n      mstore\n      swap1\n      dup2\n      0x00\n      dup3\n      add\n      0x00\n      swap1\n      sload\n      swap1\n      0x0100\n      exp\n      swap1\n      div\n      0xffffffffffffffffffffffffffffffffffffffff\n      and\n      0xffffffffffffffffffffffffffffffffffffffff\n      and\n      0xffffffffffffffffffffffffffffffffffffffff\n      and\n      dup2\n      mstore\n      0x20\n      add\n      0x01\n      dup3\n      add\n      dup1\n      sload\n      tag_140\n      swap1\n      tag_141\n      jump\t// in\n    tag_140:\n      dup1\n      0x1f\n      add\n      0x20\n      dup1\n      swap2\n      div\n      mul\n      0x20\n      add\n      mload(0x40)\n      swap1\n      dup2\n      add\n      0x40\n      mstore\n      dup1\n      swap3\n      swap2\n      swap1\n      dup2\n      dup2\n      mstore\n      0x20\n      add\n      dup3\n      dup1\n      sload\n      tag_142\n      swap1\n      tag_141\n      jump\t// in\n    tag_142:\n      dup1\n      iszero\n      tag_143\n      jumpi\n      dup1\n      0x1f\n      lt\n      tag_144\n      jumpi\n      0x0100\n      dup1\n      dup4\n      sload\n      div\n      mul\n      dup4\n      mstore\n      swap2\n      0x20\n      add\n      swap2\n      jump(tag_143)\n    tag_144:\n      dup3\n      add\n      swap2\n      swap1\n      0x00\n      mstore\n      keccak256(0x00, 0x20)\n      swap1\n    tag_145:\n      dup2\n      sload\n      dup2\n      mstore\n      swap1\n      0x01\n      add\n      swap1\n      0x20\n      add\n      dup1\n      dup4\n      gt\n      tag_145\n      jumpi\n      dup3\n      swap1\n      sub\n      0x1f\n      and\n      dup3\n      add\n      swap2\n    tag_143:\n      pop\n      pop\n      pop\n      pop\n      pop\n      dup2\n      mstore\n      0x20\n      add\n      0x02\n      dup3\n      add\n      sload\n      dup2\n      mstore\n      pop\n      pop\n        /* \"ComplaintSystem.sol\":4584:4595  userReplies */\n      dup5\n        /* \"ComplaintSystem.sol\":4596:4614  userRepliesCount++ */\n      dup5\n      dup1\n      tag_146\n      swap1\n      tag_109\n      jump\t// in\n    tag_146:\n      swap6\n      pop\n        /* \"ComplaintSystem.sol\":4584:4615  userReplies[userRepliesCount++] */\n      dup2\n      mload\n      dup2\n      lt\n      tag_147\n      jumpi\n      tag_148\n      tag_138\n      jump\t// in\n    tag_148:\n    tag_147:\n      0x20\n      mul\n      0x20\n      add\n      add\n        /* \"ComplaintSystem.sol\":4584:4631  userReplies[userRepliesCount++] = replies[i][j] */\n      dup2\n      swap1\n      mstore\n      pop\n        /* \"ComplaintSystem.sol\":4556:4559  j++ */\n      dup1\n      dup1\n      tag_149\n      swap1\n      tag_109\n      jump\t// in\n    tag_149:\n      swap2\n      pop\n      pop\n        /* \"ComplaintSystem.sol\":4513:4651  for (uint256 j = 0; j < replies[i].length; j++) {... */\n      jump(tag_133)\n    tag_134:\n      pop\n        /* \"ComplaintSystem.sol\":4454:4666  if (complaints[i].complainant == _user) {... */\n    tag_132:\n        /* \"ComplaintSystem.sol\":4434:4437  i++ */\n      dup1\n      dup1\n      tag_150\n      swap1\n      tag_109\n      jump\t// in\n    tag_150:\n      swap2\n      pop\n      pop\n        /* \"ComplaintSystem.sol\":4394:4677  for (uint256 i = 0; i < complaintCount; i++) {... */\n      jump(tag_129)\n    tag_130:\n      pop\n        /* \"ComplaintSystem.sol\":4783:4799  userRepliesCount */\n      dup1\n        /* \"ComplaintSystem.sol\":4770:4781  userReplies */\n      dup3\n        /* \"ComplaintSystem.sol\":4763:4800  mstore(userReplies, userRepliesCount) */\n      mstore\n        /* \"ComplaintSystem.sol\":4828:4839  userReplies */\n      dup2\n        /* \"ComplaintSystem.sol\":4821:4839  return userReplies */\n      swap3\n      pop\n      pop\n      pop\n        /* \"ComplaintSystem.sol\":4199:4847  function getUserReplies(address _user) external view returns (Reply[] memory) {... */\n      swap2\n      swap1\n      pop\n      jump\t// out\n        /* \"ComplaintSystem.sol\":5848:5987  function getComplaintById(uint256 _complaintId) external view returns (Complaint memory) {... */\n    tag_37:\n        /* \"ComplaintSystem.sol\":5919:5935  Complaint memory */\n      tag_151\n      tag_152\n      jump\t// in\n    tag_151:\n        /* \"ComplaintSystem.sol\":5955:5965  complaints */\n      0x02\n        /* \"ComplaintSystem.sol\":5955:5979  complaints[_complaintId] */\n      0x00\n        /* \"ComplaintSystem.sol\":5966:5978  _complaintId */\n      dup4\n        /* \"ComplaintSystem.sol\":5955:5979  complaints[_complaintId] */\n      dup2\n      mstore\n      0x20\n      add\n      swap1\n      dup2\n      mstore\n      0x20\n      add\n      0x00\n      keccak256\n        /* \"ComplaintSystem.sol\":5948:5979  return complaints[_complaintId] */\n      mload(0x40)\n      dup1\n      0xc0\n      add\n      0x40\n      mstore\n      swap1\n      dup2\n      0x00\n      dup3\n      add\n      sload\n      dup2\n      mstore\n      0x20\n      add\n      0x01\n      dup3\n      add\n      0x00\n      swap1\n      sload\n      swap1\n      0x0100\n      exp\n      swap1\n      div\n      0xffffffffffffffffffffffffffffffffffffffff\n      and\n      0xffffffffffffffffffffffffffffffffffffffff\n      and\n      0xffffffffffffffffffffffffffffffffffffffff\n      and\n      dup2\n      mstore\n      0x20\n      add\n      0x02\n      dup3\n      add\n      dup1\n      sload\n      tag_154\n      swap1\n      tag_141\n      jump\t// in\n    tag_154:\n      dup1\n      0x1f\n      add\n      0x20\n      dup1\n      swap2\n      div\n      mul\n      0x20\n      add\n      mload(0x40)\n      swap1\n      dup2\n      add\n      0x40\n      mstore\n      dup1\n      swap3\n      swap2\n      swap1\n      dup2\n      dup2\n      mstore\n      0x20\n      add\n      dup3\n      dup1\n      sload\n      tag_155\n      swap1\n      tag_141\n      jump\t// in\n    tag_155:\n      dup1\n      iszero\n      tag_156\n      jumpi\n      dup1\n      0x1f\n      lt\n      tag_157\n      jumpi\n      0x0100\n      dup1\n      dup4\n      sload\n      div\n      mul\n      dup4\n      mstore\n      swap2\n      0x20\n      add\n      swap2\n      jump(tag_156)\n    tag_157:\n      dup3\n      add\n      swap2\n      swap1\n      0x00\n      mstore\n      keccak256(0x00, 0x20)\n      swap1\n    tag_158:\n      dup2\n      sload\n      dup2\n      mstore\n      swap1\n      0x01\n      add\n      swap1\n      0x20\n      add\n      dup1\n      dup4\n      gt\n      tag_158\n      jumpi\n      dup3\n      swap1\n      sub\n      0x1f\n      and\n      dup3\n      add\n      swap2\n    tag_156:\n      pop\n      pop\n      pop\n      pop\n      pop\n      dup2\n      mstore\n      0x20\n      add\n      0x03\n      dup3\n      add\n      0x00\n      swap1\n      sload\n      swap1\n      0x0100\n      exp\n      swap1\n      div\n      0xff\n      and\n      0x01\n      dup2\n      gt\n      iszero\n      tag_159\n      jumpi\n      tag_160\n      tag_112\n      jump\t// in\n    tag_160:\n    tag_159:\n      0x01\n      dup2\n      gt\n      iszero\n      tag_161\n      jumpi\n      tag_162\n      tag_112\n      jump\t// in\n    tag_162:\n    tag_161:\n      dup2\n      mstore\n      0x20\n      add\n      0x04\n      dup3\n      add\n      mload(0x40)\n      dup1\n      0x40\n      add\n      0x40\n      mstore\n      swap1\n      dup2\n      0x00\n      dup3\n      add\n      dup1\n      sload\n      tag_163\n      swap1\n      tag_141\n      jump\t// in\n    tag_163:\n      dup1\n      0x1f\n      add\n      0x20\n      dup1\n      swap2\n      div\n      mul\n      0x20\n      add\n      mload(0x40)\n      swap1\n      dup2\n      add\n      0x40\n      mstore\n      dup1\n      swap3\n      swap2\n      swap1\n      dup2\n      dup2\n      mstore\n      0x20\n      add\n      dup3\n      dup1\n      sload\n      tag_164\n      swap1\n      tag_141\n      jump\t// in\n    tag_164:\n      dup1\n      iszero\n      tag_165\n      jumpi\n      dup1\n      0x1f\n      lt\n      tag_166\n      jumpi\n      0x0100\n      dup1\n      dup4\n      sload\n      div\n      mul\n      dup4\n      mstore\n      swap2\n      0x20\n      add\n      swap2\n      jump(tag_165)\n    tag_166:\n      dup3\n      add\n      swap2\n      swap1\n      0x00\n      mstore\n      keccak256(0x00, 0x20)\n      swap1\n    tag_167:\n      dup2\n      sload\n      dup2\n      mstore\n      swap1\n      0x01\n      add\n      swap1\n      0x20\n      add\n      dup1\n      dup4\n      gt\n      tag_167\n      jumpi\n      dup3\n      swap1\n      sub\n      0x1f\n      and\n      dup3\n      add\n      swap2\n    tag_165:\n      pop\n      pop\n      pop\n      pop\n      pop\n      dup2\n      mstore\n      0x20\n      add\n      0x01\n      dup3\n      add\n      dup1\n      sload\n      tag_168\n      swap1\n      tag_141\n      jump\t// in\n    tag_168:\n      dup1\n      0x1f\n      add\n      0x20\n      dup1\n      swap2\n      div\n      mul\n      0x20\n      add\n      mload(0x40)\n      swap1\n      dup2\n      add\n      0x40\n      mstore\n      dup1\n      swap3\n      swap2\n      swap1\n      dup2\n      dup2\n      mstore\n      0x20\n      add\n      dup3\n      dup1\n      sload\n      tag_169\n      swap1\n      tag_141\n      jump\t// in\n    tag_169:\n      dup1\n      iszero\n      tag_170\n      jumpi\n      dup1\n      0x1f\n      lt\n      tag_171\n      jumpi\n      0x0100\n      dup1\n      dup4\n      sload\n      div\n      mul\n      dup4\n      mstore\n      swap2\n      0x20\n      add\n      swap2\n      jump(tag_170)\n    tag_171:\n      dup3\n      add\n      swap2\n      swap1\n      0x00\n      mstore\n      keccak256(0x00, 0x20)\n      swap1\n    tag_172:\n      dup2\n      sload\n      dup2\n      mstore\n      swap1\n      0x01\n      add\n      swap1\n      0x20\n      add\n      dup1\n      dup4\n      gt\n      tag_172\n      jumpi\n      dup3\n      swap1\n      sub\n      0x1f\n      and\n      dup3\n      add\n      swap2\n    tag_170:\n      pop\n      pop\n      pop\n      pop\n      pop\n      dup2\n      mstore\n      pop\n      pop\n      dup2\n      mstore\n      0x20\n      add\n      0x06\n      dup3\n      add\n      sload\n      dup2\n      mstore\n      pop\n      pop\n      swap1\n      pop\n        /* \"ComplaintSystem.sol\":5848:5987  function getComplaintById(uint256 _complaintId) external view returns (Complaint memory) {... */\n      swap2\n      swap1\n      pop\n      jump\t// out\n        /* \"ComplaintSystem.sol\":920:962  mapping(uint256 => Reply[]) public replies */\n    tag_43:\n      mstore(0x20, 0x04)\n      dup2\n      0x00\n      mstore\n      keccak256(0x00, 0x40)\n      dup2\n      dup2\n      sload\n      dup2\n      lt\n      tag_173\n      jumpi\n      0x00\n      dup1\n      revert\n    tag_173:\n      swap1\n      0x00\n      mstore\n      keccak256(0x00, 0x20)\n      swap1\n      0x03\n      mul\n      add\n      0x00\n      swap2\n      pop\n      swap2\n      pop\n      pop\n      dup1\n      0x00\n      add\n      0x00\n      swap1\n      sload\n      swap1\n      0x0100\n      exp\n      swap1\n      div\n      0xffffffffffffffffffffffffffffffffffffffff\n      and\n      swap1\n      dup1\n      0x01\n      add\n      dup1\n      sload\n      tag_175\n      swap1\n      tag_141\n      jump\t// in\n    tag_175:\n      dup1\n      0x1f\n      add\n      0x20\n      dup1\n      swap2\n      div\n      mul\n      0x20\n      add\n      mload(0x40)\n      swap1\n      dup2\n      add\n      0x40\n      mstore\n      dup1\n      swap3\n      swap2\n      swap1\n      dup2\n      dup2\n      mstore\n      0x20\n      add\n      dup3\n      dup1\n      sload\n      tag_176\n      swap1\n      tag_141\n      jump\t// in\n    tag_176:\n      dup1\n      iszero\n      tag_177\n      jumpi\n      dup1\n      0x1f\n      lt\n      tag_178\n      jumpi\n      0x0100\n      dup1\n      dup4\n      sload\n      div\n      mul\n      dup4\n      mstore\n      swap2\n      0x20\n      add\n      swap2\n      jump(tag_177)\n    tag_178:\n      dup3\n      add\n      swap2\n      swap1\n      0x00\n      mstore\n      keccak256(0x00, 0x20)\n      swap1\n    tag_179:\n      dup2\n      sload\n      dup2\n      mstore\n      swap1\n      0x01\n      add\n      swap1\n      0x20\n      add\n      dup1\n      dup4\n      gt\n      tag_179\n      jumpi\n      dup3\n      swap1\n      sub\n      0x1f\n      and\n      dup3\n      add\n      swap2\n    tag_177:\n      pop\n      pop\n      pop\n      pop\n      pop\n      swap1\n      dup1\n      0x02\n      add\n      sload\n      swap1\n      pop\n      dup4\n      jump\t// out\n        /* \"ComplaintSystem.sol\":92:131  mapping(address => bool) public isAdmin */\n    tag_48:\n      mstore(0x20, 0x00)\n      dup1\n      0x00\n      mstore\n      keccak256(0x00, 0x40)\n      0x00\n      swap2\n      pop\n      sload\n      swap1\n      0x0100\n      exp\n      swap1\n      div\n      0xff\n      and\n      dup2\n      jump\t// out\n        /* \"ComplaintSystem.sol\":2401:2807  function resolveComplaint(uint256 _complaintId, string memory _response) external onlyAdmin {... */\n    tag_54:\n        /* \"ComplaintSystem.sol\":1047:1054  isAdmin */\n      0x00\n        /* \"ComplaintSystem.sol\":1047:1066  isAdmin[msg.sender] */\n      dup1\n        /* \"ComplaintSystem.sol\":1055:1065  msg.sender */\n      caller\n        /* \"ComplaintSystem.sol\":1047:1066  isAdmin[msg.sender] */\n      0xffffffffffffffffffffffffffffffffffffffff\n      and\n      0xffffffffffffffffffffffffffffffffffffffff\n      and\n      dup2\n      mstore\n      0x20\n      add\n      swap1\n      dup2\n      mstore\n      0x20\n      add\n      0x00\n      keccak256\n      0x00\n      swap1\n      sload\n      swap1\n      0x0100\n      exp\n      swap1\n      div\n      0xff\n      and\n        /* \"ComplaintSystem.sol\":1039:1104  require(isAdmin[msg.sender], \"Only admin can call this function\") */\n      tag_181\n      jumpi\n      mload(0x40)\n      0x08c379a000000000000000000000000000000000000000000000000000000000\n      dup2\n      mstore\n      0x04\n      add\n      tag_182\n      swap1\n      tag_183\n      jump\t// in\n    tag_182:\n      mload(0x40)\n      dup1\n      swap2\n      sub\n      swap1\n      revert\n    tag_181:\n        /* \"ComplaintSystem.sol\":2547:2570  ComplaintStatus.Pending */\n      0x00\n        /* \"ComplaintSystem.sol\":2512:2570  complaints[_complaintId].status == ComplaintStatus.Pending */\n      0x01\n      dup2\n      gt\n      iszero\n      tag_185\n      jumpi\n      tag_186\n      tag_112\n      jump\t// in\n    tag_186:\n    tag_185:\n        /* \"ComplaintSystem.sol\":2512:2522  complaints */\n      0x02\n        /* \"ComplaintSystem.sol\":2512:2536  complaints[_complaintId] */\n      0x00\n        /* \"ComplaintSystem.sol\":2523:2535  _complaintId */\n      dup5\n        /* \"ComplaintSystem.sol\":2512:2536  complaints[_complaintId] */\n      dup2\n      mstore\n      0x20\n      add\n      swap1\n      dup2\n      mstore\n      0x20\n      add\n      0x00\n      keccak256\n        /* \"ComplaintSystem.sol\":2512:2543  complaints[_complaintId].status */\n      0x03\n      add\n      0x00\n      swap1\n      sload\n      swap1\n      0x0100\n      exp\n      swap1\n      div\n      0xff\n      and\n        /* \"ComplaintSystem.sol\":2512:2570  complaints[_complaintId].status == ComplaintStatus.Pending */\n      0x01\n      dup2\n      gt\n      iszero\n      tag_187\n      jumpi\n      tag_188\n      tag_112\n      jump\t// in\n    tag_188:\n    tag_187:\n      eq\n        /* \"ComplaintSystem.sol\":2504:2604  require(complaints[_complaintId].status == ComplaintStatus.Pending, \"Complaint is already resolved\") */\n      tag_189\n      jumpi\n      mload(0x40)\n      0x08c379a000000000000000000000000000000000000000000000000000000000\n      dup2\n      mstore\n      0x04\n      add\n      tag_190\n      swap1\n      tag_191\n      jump\t// in\n    tag_190:\n      mload(0x40)\n      dup1\n      swap2\n      sub\n      swap1\n      revert\n    tag_189:\n        /* \"ComplaintSystem.sol\":2649:2673  ComplaintStatus.Resolved */\n      0x01\n        /* \"ComplaintSystem.sol\":2615:2625  complaints */\n      0x02\n        /* \"ComplaintSystem.sol\":2615:2639  complaints[_complaintId] */\n      0x00\n        /* \"ComplaintSystem.sol\":2626:2638  _complaintId */\n      dup5\n        /* \"ComplaintSystem.sol\":2615:2639  complaints[_complaintId] */\n      dup2\n      mstore\n      0x20\n      add\n      swap1\n      dup2\n      mstore\n      0x20\n      add\n      0x00\n      keccak256\n        /* \"ComplaintSystem.sol\":2615:2646  complaints[_complaintId].status */\n      0x03\n      add\n      0x00\n        /* \"ComplaintSystem.sol\":2615:2673  complaints[_complaintId].status = ComplaintStatus.Resolved */\n      0x0100\n      exp\n      dup2\n      sload\n      dup2\n      0xff\n      mul\n      not\n      and\n      swap1\n      dup4\n      0x01\n      dup2\n      gt\n      iszero\n      tag_192\n      jumpi\n      tag_193\n      tag_112\n      jump\t// in\n    tag_193:\n    tag_192:\n      mul\n      or\n      swap1\n      sstore\n      pop\n        /* \"ComplaintSystem.sol\":2707:2719  _complaintId */\n      dup2\n        /* \"ComplaintSystem.sol\":2689:2731  ComplaintResolved(_complaintId, _response) */\n      0xa0e3a0a30e4ae091855116dfb1b3a775ab1b158763b0a44710be60283214ca73\n        /* \"ComplaintSystem.sol\":2721:2730  _response */\n      dup3\n        /* \"ComplaintSystem.sol\":2689:2731  ComplaintResolved(_complaintId, _response) */\n      mload(0x40)\n      tag_194\n      swap2\n      swap1\n      tag_195\n      jump\t// in\n    tag_194:\n      mload(0x40)\n      dup1\n      swap2\n      sub\n      swap1\n      log2\n        /* \"ComplaintSystem.sol\":2742:2799  _addTransaction(_complaintId, msg.sender, Action.Resolve) */\n      tag_196\n        /* \"ComplaintSystem.sol\":2758:2770  _complaintId */\n      dup3\n        /* \"ComplaintSystem.sol\":2772:2782  msg.sender */\n      caller\n        /* \"ComplaintSystem.sol\":2784:2798  Action.Resolve */\n      0x01\n        /* \"ComplaintSystem.sol\":2742:2757  _addTransaction */\n      tag_197\n        /* \"ComplaintSystem.sol\":2742:2799  _addTransaction(_complaintId, msg.sender, Action.Resolve) */\n      jump\t// in\n    tag_196:\n        /* \"ComplaintSystem.sol\":2401:2807  function resolveComplaint(uint256 _complaintId, string memory _response) external onlyAdmin {... */\n      pop\n      pop\n      jump\t// out\n        /* \"ComplaintSystem.sol\":969:998  uint256 public complaintCount */\n    tag_56:\n      sload(0x05)\n      dup2\n      jump\t// out\n        /* \"ComplaintSystem.sol\":4855:5544  function getUnresolvedComplaints() external view returns (Complaint[] memory) {... */\n    tag_60:\n        /* \"ComplaintSystem.sol\":4913:4931  Complaint[] memory */\n      0x60\n        /* \"ComplaintSystem.sol\":4944:4967  uint256 unresolvedCount */\n      0x00\n        /* \"ComplaintSystem.sol\":4987:4996  uint256 i */\n      dup1\n        /* \"ComplaintSystem.sol\":4982:5158  for (uint256 i = 0; i < complaintCount; i++) {... */\n    tag_199:\n        /* \"ComplaintSystem.sol\":5006:5020  complaintCount */\n      sload(0x05)\n        /* \"ComplaintSystem.sol\":5002:5003  i */\n      dup2\n        /* \"ComplaintSystem.sol\":5002:5020  i < complaintCount */\n      lt\n        /* \"ComplaintSystem.sol\":4982:5158  for (uint256 i = 0; i < complaintCount; i++) {... */\n      iszero\n      tag_200\n      jumpi\n        /* \"ComplaintSystem.sol\":5070:5093  ComplaintStatus.Pending */\n      0x00\n        /* \"ComplaintSystem.sol\":5046:5093  complaints[i].status == ComplaintStatus.Pending */\n      0x01\n      dup2\n      gt\n      iszero\n      tag_202\n      jumpi\n      tag_203\n      tag_112\n      jump\t// in\n    tag_203:\n    tag_202:\n        /* \"ComplaintSystem.sol\":5046:5056  complaints */\n      0x02\n        /* \"ComplaintSystem.sol\":5046:5059  complaints[i] */\n      0x00\n        /* \"ComplaintSystem.sol\":5057:5058  i */\n      dup4\n        /* \"ComplaintSystem.sol\":5046:5059  complaints[i] */\n      dup2\n      mstore\n      0x20\n      add\n      swap1\n      dup2\n      mstore\n      0x20\n      add\n      0x00\n      keccak256\n        /* \"ComplaintSystem.sol\":5046:5066  complaints[i].status */\n      0x03\n      add\n      0x00\n      swap1\n      sload\n      swap1\n      0x0100\n      exp\n      swap1\n      div\n      0xff\n      and\n        /* \"ComplaintSystem.sol\":5046:5093  complaints[i].status == ComplaintStatus.Pending */\n      0x01\n      dup2\n      gt\n      iszero\n      tag_204\n      jumpi\n      tag_205\n      tag_112\n      jump\t// in\n    tag_205:\n    tag_204:\n      sub\n        /* \"ComplaintSystem.sol\":5042:5147  if (complaints[i].status == ComplaintStatus.Pending) {... */\n      tag_206\n      jumpi\n        /* \"ComplaintSystem.sol\":5114:5131  unresolvedCount++ */\n      dup2\n      dup1\n      tag_207\n      swap1\n      tag_109\n      jump\t// in\n    tag_207:\n      swap3\n      pop\n      pop\n        /* \"ComplaintSystem.sol\":5042:5147  if (complaints[i].status == ComplaintStatus.Pending) {... */\n    tag_206:\n        /* \"ComplaintSystem.sol\":5022:5025  i++ */\n      dup1\n      dup1\n      tag_208\n      swap1\n      tag_109\n      jump\t// in\n    tag_208:\n      swap2\n      pop\n      pop\n        /* \"ComplaintSystem.sol\":4982:5158  for (uint256 i = 0; i < complaintCount; i++) {... */\n      jump(tag_199)\n    tag_200:\n      pop\n        /* \"ComplaintSystem.sol\":5168:5207  Complaint[] memory unresolvedComplaints */\n      0x00\n        /* \"ComplaintSystem.sol\":5226:5241  unresolvedCount */\n      dup2\n        /* \"ComplaintSystem.sol\":5210:5242  new Complaint[](unresolvedCount) */\n      0xffffffffffffffff\n      dup2\n      gt\n      iszero\n      tag_209\n      jumpi\n      tag_210\n      tag_124\n      jump\t// in\n    tag_210:\n    tag_209:\n      mload(0x40)\n      swap1\n      dup1\n      dup3\n      mstore\n      dup1\n      0x20\n      mul\n      0x20\n      add\n      dup3\n      add\n      0x40\n      mstore\n      dup1\n      iszero\n      tag_211\n      jumpi\n      dup2\n      0x20\n      add\n    tag_212:\n      tag_213\n      tag_152\n      jump\t// in\n    tag_213:\n      dup2\n      mstore\n      0x20\n      add\n      swap1\n      0x01\n      swap1\n      sub\n      swap1\n      dup2\n      tag_212\n      jumpi\n      swap1\n      pop\n    tag_211:\n      pop\n        /* \"ComplaintSystem.sol\":5168:5242  Complaint[] memory unresolvedComplaints = new Complaint[](unresolvedCount) */\n      swap1\n      pop\n        /* \"ComplaintSystem.sol\":5253:5273  uint256 currentIndex */\n      0x00\n        /* \"ComplaintSystem.sol\":5293:5302  uint256 i */\n      dup1\n        /* \"ComplaintSystem.sol\":5288:5499  for (uint256 i = 0; i < complaintCount; i++) {... */\n    tag_214:\n        /* \"ComplaintSystem.sol\":5312:5326  complaintCount */\n      sload(0x05)\n        /* \"ComplaintSystem.sol\":5308:5309  i */\n      dup2\n        /* \"ComplaintSystem.sol\":5308:5326  i < complaintCount */\n      lt\n        /* \"ComplaintSystem.sol\":5288:5499  for (uint256 i = 0; i < complaintCount; i++) {... */\n      iszero\n      tag_215\n      jumpi\n        /* \"ComplaintSystem.sol\":5376:5399  ComplaintStatus.Pending */\n      0x00\n        /* \"ComplaintSystem.sol\":5352:5399  complaints[i].status == ComplaintStatus.Pending */\n      0x01\n      dup2\n      gt\n      iszero\n      tag_217\n      jumpi\n      tag_218\n      tag_112\n      jump\t// in\n    tag_218:\n    tag_217:\n        /* \"ComplaintSystem.sol\":5352:5362  complaints */\n      0x02\n        /* \"ComplaintSystem.sol\":5352:5365  complaints[i] */\n      0x00\n        /* \"ComplaintSystem.sol\":5363:5364  i */\n      dup4\n        /* \"ComplaintSystem.sol\":5352:5365  complaints[i] */\n      dup2\n      mstore\n      0x20\n      add\n      swap1\n      dup2\n      mstore\n      0x20\n      add\n      0x00\n      keccak256\n        /* \"ComplaintSystem.sol\":5352:5372  complaints[i].status */\n      0x03\n      add\n      0x00\n      swap1\n      sload\n      swap1\n      0x0100\n      exp\n      swap1\n      div\n      0xff\n      and\n        /* \"ComplaintSystem.sol\":5352:5399  complaints[i].status == ComplaintStatus.Pending */\n      0x01\n      dup2\n      gt\n      iszero\n      tag_219\n      jumpi\n      tag_220\n      tag_112\n      jump\t// in\n    tag_220:\n    tag_219:\n      sub\n        /* \"ComplaintSystem.sol\":5348:5488  if (complaints[i].status == ComplaintStatus.Pending) {... */\n      tag_221\n      jumpi\n        /* \"ComplaintSystem.sol\":5459:5469  complaints */\n      0x02\n        /* \"ComplaintSystem.sol\":5459:5472  complaints[i] */\n      0x00\n        /* \"ComplaintSystem.sol\":5470:5471  i */\n      dup3\n        /* \"ComplaintSystem.sol\":5459:5472  complaints[i] */\n      dup2\n      mstore\n      0x20\n      add\n      swap1\n      dup2\n      mstore\n      0x20\n      add\n      0x00\n      keccak256\n        /* \"ComplaintSystem.sol\":5420:5472  unresolvedComplaints[currentIndex++] = complaints[i] */\n      mload(0x40)\n      dup1\n      0xc0\n      add\n      0x40\n      mstore\n      swap1\n      dup2\n      0x00\n      dup3\n      add\n      sload\n      dup2\n      mstore\n      0x20\n      add\n      0x01\n      dup3\n      add\n      0x00\n      swap1\n      sload\n      swap1\n      0x0100\n      exp\n      swap1\n      div\n      0xffffffffffffffffffffffffffffffffffffffff\n      and\n      0xffffffffffffffffffffffffffffffffffffffff\n      and\n      0xffffffffffffffffffffffffffffffffffffffff\n      and\n      dup2\n      mstore\n      0x20\n      add\n      0x02\n      dup3\n      add\n      dup1\n      sload\n      tag_222\n      swap1\n      tag_141\n      jump\t// in\n    tag_222:\n      dup1\n      0x1f\n      add\n      0x20\n      dup1\n      swap2\n      div\n      mul\n      0x20\n      add\n      mload(0x40)\n      swap1\n      dup2\n      add\n      0x40\n      mstore\n      dup1\n      swap3\n      swap2\n      swap1\n      dup2\n      dup2\n      mstore\n      0x20\n      add\n      dup3\n      dup1\n      sload\n      tag_223\n      swap1\n      tag_141\n      jump\t// in\n    tag_223:\n      dup1\n      iszero\n      tag_224\n      jumpi\n      dup1\n      0x1f\n      lt\n      tag_225\n      jumpi\n      0x0100\n      dup1\n      dup4\n      sload\n      div\n      mul\n      dup4\n      mstore\n      swap2\n      0x20\n      add\n      swap2\n      jump(tag_224)\n    tag_225:\n      dup3\n      add\n      swap2\n      swap1\n      0x00\n      mstore\n      keccak256(0x00, 0x20)\n      swap1\n    tag_226:\n      dup2\n      sload\n      dup2\n      mstore\n      swap1\n      0x01\n      add\n      swap1\n      0x20\n      add\n      dup1\n      dup4\n      gt\n      tag_226\n      jumpi\n      dup3\n      swap1\n      sub\n      0x1f\n      and\n      dup3\n      add\n      swap2\n    tag_224:\n      pop\n      pop\n      pop\n      pop\n      pop\n      dup2\n      mstore\n      0x20\n      add\n      0x03\n      dup3\n      add\n      0x00\n      swap1\n      sload\n      swap1\n      0x0100\n      exp\n      swap1\n      div\n      0xff\n      and\n      0x01\n      dup2\n      gt\n      iszero\n      tag_227\n      jumpi\n      tag_228\n      tag_112\n      jump\t// in\n    tag_228:\n    tag_227:\n      0x01\n      dup2\n      gt\n      iszero\n      tag_229\n      jumpi\n      tag_230\n      tag_112\n      jump\t// in\n    tag_230:\n    tag_229:\n      dup2\n      mstore\n      0x20\n      add\n      0x04\n      dup3\n      add\n      mload(0x40)\n      dup1\n      0x40\n      add\n      0x40\n      mstore\n      swap1\n      dup2\n      0x00\n      dup3\n      add\n      dup1\n      sload\n      tag_231\n      swap1\n      tag_141\n      jump\t// in\n    tag_231:\n      dup1\n      0x1f\n      add\n      0x20\n      dup1\n      swap2\n      div\n      mul\n      0x20\n      add\n      mload(0x40)\n      swap1\n      dup2\n      add\n      0x40\n      mstore\n      dup1\n      swap3\n      swap2\n      swap1\n      dup2\n      dup2\n      mstore\n      0x20\n      add\n      dup3\n      dup1\n      sload\n      tag_232\n      swap1\n      tag_141\n      jump\t// in\n    tag_232:\n      dup1\n      iszero\n      tag_233\n      jumpi\n      dup1\n      0x1f\n      lt\n      tag_234\n      jumpi\n      0x0100\n      dup1\n      dup4\n      sload\n      div\n      mul\n      dup4\n      mstore\n      swap2\n      0x20\n      add\n      swap2\n      jump(tag_233)\n    tag_234:\n      dup3\n      add\n      swap2\n      swap1\n      0x00\n      mstore\n      keccak256(0x00, 0x20)\n      swap1\n    tag_235:\n      dup2\n      sload\n      dup2\n      mstore\n      swap1\n      0x01\n      add\n      swap1\n      0x20\n      add\n      dup1\n      dup4\n      gt\n      tag_235\n      jumpi\n      dup3\n      swap1\n      sub\n      0x1f\n      and\n      dup3\n      add\n      swap2\n    tag_233:\n      pop\n      pop\n      pop\n      pop\n      pop\n      dup2\n      mstore\n      0x20\n      add\n      0x01\n      dup3\n      add\n      dup1\n      sload\n      tag_236\n      swap1\n      tag_141\n      jump\t// in\n    tag_236:\n      dup1\n      0x1f\n      add\n      0x20\n      dup1\n      swap2\n      div\n      mul\n      0x20\n      add\n      mload(0x40)\n      swap1\n      dup2\n      add\n      0x40\n      mstore\n      dup1\n      swap3\n      swap2\n      swap1\n      dup2\n      dup2\n      mstore\n      0x20\n      add\n      dup3\n      dup1\n      sload\n      tag_237\n      swap1\n      tag_141\n      jump\t// in\n    tag_237:\n      dup1\n      iszero\n      tag_238\n      jumpi\n      dup1\n      0x1f\n      lt\n      tag_239\n      jumpi\n      0x0100\n      dup1\n      dup4\n      sload\n      div\n      mul\n      dup4\n      mstore\n      swap2\n      0x20\n      add\n      swap2\n      jump(tag_238)\n    tag_239:\n      dup3\n      add\n      swap2\n      swap1\n      0x00\n      mstore\n      keccak256(0x00, 0x20)\n      swap1\n    tag_240:\n      dup2\n      sload\n      dup2\n      mstore\n      swap1\n      0x01\n      add\n      swap1\n      0x20\n      add\n      dup1\n      dup4\n      gt\n      tag_240\n      jumpi\n      dup3\n      swap1\n      sub\n      0x1f\n      and\n      dup3\n      add\n      swap2\n    tag_238:\n      pop\n      pop\n      pop\n      pop\n      pop\n      dup2\n      mstore\n      pop\n      pop\n      dup2\n      mstore\n      0x20\n      add\n      0x06\n      dup3\n      add\n      sload\n      dup2\n      mstore\n      pop\n      pop\n        /* \"ComplaintSystem.sol\":5420:5440  unresolvedComplaints */\n      dup4\n        /* \"ComplaintSystem.sol\":5441:5455  currentIndex++ */\n      dup4\n      dup1\n      tag_241\n      swap1\n      tag_109\n      jump\t// in\n    tag_241:\n      swap5\n      pop\n        /* \"ComplaintSystem.sol\":5420:5456  unresolvedComplaints[currentIndex++] */\n      dup2\n      mload\n      dup2\n      lt\n      tag_242\n      jumpi\n      tag_243\n      tag_138\n      jump\t// in\n    tag_243:\n    tag_242:\n      0x20\n      mul\n      0x20\n      add\n      add\n        /* \"ComplaintSystem.sol\":5420:5472  unresolvedComplaints[currentIndex++] = complaints[i] */\n      dup2\n      swap1\n      mstore\n      pop\n        /* \"ComplaintSystem.sol\":5348:5488  if (complaints[i].status == ComplaintStatus.Pending) {... */\n    tag_221:\n        /* \"ComplaintSystem.sol\":5328:5331  i++ */\n      dup1\n      dup1\n      tag_244\n      swap1\n      tag_109\n      jump\t// in\n    tag_244:\n      swap2\n      pop\n      pop\n        /* \"ComplaintSystem.sol\":5288:5499  for (uint256 i = 0; i < complaintCount; i++) {... */\n      jump(tag_214)\n    tag_215:\n      pop\n        /* \"ComplaintSystem.sol\":5516:5536  unresolvedComplaints */\n      dup2\n        /* \"ComplaintSystem.sol\":5509:5536  return unresolvedComplaints */\n      swap4\n      pop\n      pop\n      pop\n      pop\n        /* \"ComplaintSystem.sol\":4855:5544  function getUnresolvedComplaints() external view returns (Complaint[] memory) {... */\n      swap1\n      jump\t// out\n        /* \"ComplaintSystem.sol\":138:176  mapping(address => bool) public isUser */\n    tag_65:\n      mstore(0x20, 0x01)\n      dup1\n      0x00\n      mstore\n      keccak256(0x00, 0x40)\n      0x00\n      swap2\n      pop\n      sload\n      swap1\n      0x0100\n      exp\n      swap1\n      div\n      0xff\n      and\n      dup2\n      jump\t// out\n        /* \"ComplaintSystem.sol\":1656:1775  function registerUser() external {... */\n    tag_68:\n        /* \"ComplaintSystem.sol\":1721:1725  true */\n      0x01\n        /* \"ComplaintSystem.sol\":1700:1706  isUser */\n      dup1\n        /* \"ComplaintSystem.sol\":1700:1718  isUser[msg.sender] */\n      0x00\n        /* \"ComplaintSystem.sol\":1707:1717  msg.sender */\n      caller\n        /* \"ComplaintSystem.sol\":1700:1718  isUser[msg.sender] */\n      0xffffffffffffffffffffffffffffffffffffffff\n      and\n      0xffffffffffffffffffffffffffffffffffffffff\n      and\n      dup2\n      mstore\n      0x20\n      add\n      swap1\n      dup2\n      mstore\n      0x20\n      add\n      0x00\n      keccak256\n      0x00\n        /* \"ComplaintSystem.sol\":1700:1725  isUser[msg.sender] = true */\n      0x0100\n      exp\n      dup2\n      sload\n      dup2\n      0xff\n      mul\n      not\n      and\n      swap1\n      dup4\n      iszero\n      iszero\n      mul\n      or\n      swap1\n      sstore\n      pop\n        /* \"ComplaintSystem.sol\":1756:1766  msg.sender */\n      caller\n        /* \"ComplaintSystem.sol\":1741:1767  UserRegistered(msg.sender) */\n      0xffffffffffffffffffffffffffffffffffffffff\n      and\n      0x54db7a5cb4735e1aac1f53db512d3390390bb6637bd30ad4bf9fc98667d9b9b9\n      mload(0x40)\n      mload(0x40)\n      dup1\n      swap2\n      sub\n      swap1\n      log2\n        /* \"ComplaintSystem.sol\":1656:1775  function registerUser() external {... */\n      jump\t// out\n        /* \"ComplaintSystem.sol\":860:913  mapping(uint256 => Transaction[]) public transactions */\n    tag_71:\n      mstore(0x20, 0x03)\n      dup2\n      0x00\n      mstore\n      keccak256(0x00, 0x40)\n      dup2\n      dup2\n      sload\n      dup2\n      lt\n      tag_246\n      jumpi\n      0x00\n      dup1\n      revert\n    tag_246:\n      swap1\n      0x00\n      mstore\n      keccak256(0x00, 0x20)\n      swap1\n      0x02\n      mul\n      add\n      0x00\n      swap2\n      pop\n      swap2\n      pop\n      pop\n      dup1\n      0x00\n      add\n      0x00\n      swap1\n      sload\n      swap1\n      0x0100\n      exp\n      swap1\n      div\n      0xffffffffffffffffffffffffffffffffffffffff\n      and\n      swap1\n      dup1\n      0x00\n      add\n      0x14\n      swap1\n      sload\n      swap1\n      0x0100\n      exp\n      swap1\n      div\n      0xff\n      and\n      swap1\n      dup1\n      0x01\n      add\n      sload\n      swap1\n      pop\n      dup4\n      jump\t// out\n        /* \"ComplaintSystem.sol\":1783:1905  function registerAdmin() external {... */\n    tag_75:\n        /* \"ComplaintSystem.sol\":1850:1854  true */\n      0x01\n        /* \"ComplaintSystem.sol\":1828:1835  isAdmin */\n      0x00\n        /* \"ComplaintSystem.sol\":1828:1847  isAdmin[msg.sender] */\n      dup1\n        /* \"ComplaintSystem.sol\":1836:1846  msg.sender */\n      caller\n        /* \"ComplaintSystem.sol\":1828:1847  isAdmin[msg.sender] */\n      0xffffffffffffffffffffffffffffffffffffffff\n      and\n      0xffffffffffffffffffffffffffffffffffffffff\n      and\n      dup2\n      mstore\n      0x20\n      add\n      swap1\n      dup2\n      mstore\n      0x20\n      add\n      0x00\n      keccak256\n      0x00\n        /* \"ComplaintSystem.sol\":1828:1854  isAdmin[msg.sender] = true */\n      0x0100\n      exp\n      dup2\n      sload\n      dup2\n      0xff\n      mul\n      not\n      and\n      swap1\n      dup4\n      iszero\n      iszero\n      mul\n      or\n      swap1\n      sstore\n      pop\n        /* \"ComplaintSystem.sol\":1886:1896  msg.sender */\n      caller\n        /* \"ComplaintSystem.sol\":1870:1897  AdminRegistered(msg.sender) */\n      0xffffffffffffffffffffffffffffffffffffffff\n      and\n      0xac0f15283d37631c15b481bc07dc402bcfc030956bcd94b5585f71d92e84c3da\n      mload(0x40)\n      mload(0x40)\n      dup1\n      swap2\n      sub\n      swap1\n      log2\n        /* \"ComplaintSystem.sol\":1783:1905  function registerAdmin() external {... */\n      jump\t// out\n        /* \"ComplaintSystem.sol\":2815:2946  function accessComplaint(uint256 _complaintId) external {... */\n    tag_78:\n        /* \"ComplaintSystem.sol\":2882:2938  _addTransaction(_complaintId, msg.sender, Action.Access) */\n      tag_250\n        /* \"ComplaintSystem.sol\":2898:2910  _complaintId */\n      dup2\n        /* \"ComplaintSystem.sol\":2912:2922  msg.sender */\n      caller\n        /* \"ComplaintSystem.sol\":2924:2937  Action.Access */\n      0x00\n        /* \"ComplaintSystem.sol\":2882:2897  _addTransaction */\n      tag_197\n        /* \"ComplaintSystem.sol\":2882:2938  _addTransaction(_complaintId, msg.sender, Action.Access) */\n      jump\t// in\n    tag_250:\n        /* \"ComplaintSystem.sol\":2815:2946  function accessComplaint(uint256 _complaintId) external {... */\n      pop\n      jump\t// out\n        /* \"ComplaintSystem.sol\":806:853  mapping(uint256 => Complaint) public complaints */\n    tag_81:\n      mstore(0x20, 0x02)\n      dup1\n      0x00\n      mstore\n      keccak256(0x00, 0x40)\n      0x00\n      swap2\n      pop\n      swap1\n      pop\n      dup1\n      0x00\n      add\n      sload\n      swap1\n      dup1\n      0x01\n      add\n      0x00\n      swap1\n      sload\n      swap1\n      0x0100\n      exp\n      swap1\n      div\n      0xffffffffffffffffffffffffffffffffffffffff\n      and\n      swap1\n      dup1\n      0x02\n      add\n      dup1\n      sload\n      tag_251\n      swap1\n      tag_141\n      jump\t// in\n    tag_251:\n      dup1\n      0x1f\n      add\n      0x20\n      dup1\n      swap2\n      div\n      mul\n      0x20\n      add\n      mload(0x40)\n      swap1\n      dup2\n      add\n      0x40\n      mstore\n      dup1\n      swap3\n      swap2\n      swap1\n      dup2\n      dup2\n      mstore\n      0x20\n      add\n      dup3\n      dup1\n      sload\n      tag_252\n      swap1\n      tag_141\n      jump\t// in\n    tag_252:\n      dup1\n      iszero\n      tag_253\n      jumpi\n      dup1\n      0x1f\n      lt\n      tag_254\n      jumpi\n      0x0100\n      dup1\n      dup4\n      sload\n      div\n      mul\n      dup4\n      mstore\n      swap2\n      0x20\n      add\n      swap2\n      jump(tag_253)\n    tag_254:\n      dup3\n      add\n      swap2\n      swap1\n      0x00\n      mstore\n      keccak256(0x00, 0x20)\n      swap1\n    tag_255:\n      dup2\n      sload\n      dup2\n      mstore\n      swap1\n      0x01\n      add\n      swap1\n      0x20\n      add\n      dup1\n      dup4\n      gt\n      tag_255\n      jumpi\n      dup3\n      swap1\n      sub\n      0x1f\n      and\n      dup3\n      add\n      swap2\n    tag_253:\n      pop\n      pop\n      pop\n      pop\n      pop\n      swap1\n      dup1\n      0x03\n      add\n      0x00\n      swap1\n      sload\n      swap1\n      0x0100\n      exp\n      swap1\n      div\n      0xff\n      and\n      swap1\n      dup1\n      0x04\n      add\n      mload(0x40)\n      dup1\n      0x40\n      add\n      0x40\n      mstore\n      swap1\n      dup2\n      0x00\n      dup3\n      add\n      dup1\n      sload\n      tag_256\n      swap1\n      tag_141\n      jump\t// in\n    tag_256:\n      dup1\n      0x1f\n      add\n      0x20\n      dup1\n      swap2\n      div\n      mul\n      0x20\n      add\n      mload(0x40)\n      swap1\n      dup2\n      add\n      0x40\n      mstore\n      dup1\n      swap3\n      swap2\n      swap1\n      dup2\n      dup2\n      mstore\n      0x20\n      add\n      dup3\n      dup1\n      sload\n      tag_257\n      swap1\n      tag_141\n      jump\t// in\n    tag_257:\n      dup1\n      iszero\n      tag_258\n      jumpi\n      dup1\n      0x1f\n      lt\n      tag_259\n      jumpi\n      0x0100\n      dup1\n      dup4\n      sload\n      div\n      mul\n      dup4\n      mstore\n      swap2\n      0x20\n      add\n      swap2\n      jump(tag_258)\n    tag_259:\n      dup3\n      add\n      swap2\n      swap1\n      0x00\n      mstore\n      keccak256(0x00, 0x20)\n      swap1\n    tag_260:\n      dup2\n      sload\n      dup2\n      mstore\n      swap1\n      0x01\n      add\n      swap1\n      0x20\n      add\n      dup1\n      dup4\n      gt\n      tag_260\n      jumpi\n      dup3\n      swap1\n      sub\n      0x1f\n      and\n      dup3\n      add\n      swap2\n    tag_258:\n      pop\n      pop\n      pop\n      pop\n      pop\n      dup2\n      mstore\n      0x20\n      add\n      0x01\n      dup3\n      add\n      dup1\n      sload\n      tag_261\n      swap1\n      tag_141\n      jump\t// in\n    tag_261:\n      dup1\n      0x1f\n      add\n      0x20\n      dup1\n      swap2\n      div\n      mul\n      0x20\n      add\n      mload(0x40)\n      swap1\n      dup2\n      add\n      0x40\n      mstore\n      dup1\n      swap3\n      swap2\n      swap1\n      dup2\n      dup2\n      mstore\n      0x20\n      add\n      dup3\n      dup1\n      sload\n      tag_262\n      swap1\n      tag_141\n      jump\t// in\n    tag_262:\n      dup1\n      iszero\n      tag_263\n      jumpi\n      dup1\n      0x1f\n      lt\n      tag_264\n      jumpi\n      0x0100\n      dup1\n      dup4\n      sload\n      div\n      mul\n      dup4\n      mstore\n      swap2\n      0x20\n      add\n      swap2\n      jump(tag_263)\n    tag_264:\n      dup3\n      add\n      swap2\n      swap1\n      0x00\n      mstore\n      keccak256(0x00, 0x20)\n      swap1\n    tag_265:\n      dup2\n      sload\n      dup2\n      mstore\n      swap1\n      0x01\n      add\n      swap1\n      0x20\n      add\n      dup1\n      dup4\n      gt\n      tag_265\n      jumpi\n      dup3\n      swap1\n      sub\n      0x1f\n      and\n      dup3\n      add\n      swap2\n    tag_263:\n      pop\n      pop\n      pop\n      pop\n      pop\n      dup2\n      mstore\n      pop\n      pop\n      swap1\n      dup1\n      0x06\n      add\n      sload\n      swap1\n      pop\n      dup7\n      jump\t// out\n        /* \"ComplaintSystem.sol\":5552:5700  function getTransactionsById(uint256 _complaintId) external view returns (Transaction[] memory) {... */\n    tag_86:\n        /* \"ComplaintSystem.sol\":5626:5646  Transaction[] memory */\n      0x60\n        /* \"ComplaintSystem.sol\":5666:5678  transactions */\n      0x03\n        /* \"ComplaintSystem.sol\":5666:5692  transactions[_complaintId] */\n      0x00\n        /* \"ComplaintSystem.sol\":5679:5691  _complaintId */\n      dup4\n        /* \"ComplaintSystem.sol\":5666:5692  transactions[_complaintId] */\n      dup2\n      mstore\n      0x20\n      add\n      swap1\n      dup2\n      mstore\n      0x20\n      add\n      0x00\n      keccak256\n        /* \"ComplaintSystem.sol\":5659:5692  return transactions[_complaintId] */\n      dup1\n      sload\n      dup1\n      0x20\n      mul\n      0x20\n      add\n      mload(0x40)\n      swap1\n      dup2\n      add\n      0x40\n      mstore\n      dup1\n      swap3\n      swap2\n      swap1\n      dup2\n      dup2\n      mstore\n      0x20\n      add\n      0x00\n      swap1\n    tag_267:\n      dup3\n      dup3\n      lt\n      iszero\n      tag_268\n      jumpi\n      dup4\n      dup3\n      swap1\n      0x00\n      mstore\n      keccak256(0x00, 0x20)\n      swap1\n      0x02\n      mul\n      add\n      mload(0x40)\n      dup1\n      0x60\n      add\n      0x40\n      mstore\n      swap1\n      dup2\n      0x00\n      dup3\n      add\n      0x00\n      swap1\n      sload\n      swap1\n      0x0100\n      exp\n      swap1\n      div\n      0xffffffffffffffffffffffffffffffffffffffff\n      and\n      0xffffffffffffffffffffffffffffffffffffffff\n      and\n      0xffffffffffffffffffffffffffffffffffffffff\n      and\n      dup2\n      mstore\n      0x20\n      add\n      0x00\n      dup3\n      add\n      0x14\n      swap1\n      sload\n      swap1\n      0x0100\n      exp\n      swap1\n      div\n      0xff\n      and\n      0x02\n      dup2\n      gt\n      iszero\n      tag_270\n      jumpi\n      tag_271\n      tag_112\n      jump\t// in\n    tag_271:\n    tag_270:\n      0x02\n      dup2\n      gt\n      iszero\n      tag_272\n      jumpi\n      tag_273\n      tag_112\n      jump\t// in\n    tag_273:\n    tag_272:\n      dup2\n      mstore\n      0x20\n      add\n      0x01\n      dup3\n      add\n      sload\n      dup2\n      mstore\n      pop\n      pop\n      dup2\n      mstore\n      0x20\n      add\n      swap1\n      0x01\n      add\n      swap1\n      jump(tag_267)\n    tag_268:\n      pop\n      pop\n      pop\n      pop\n      swap1\n      pop\n        /* \"ComplaintSystem.sol\":5552:5700  function getTransactionsById(uint256 _complaintId) external view returns (Transaction[] memory) {... */\n      swap2\n      swap1\n      pop\n      jump\t// out\n        /* \"ComplaintSystem.sol\":3541:4191  function getUserComplaints(address _user) external view returns (Complaint[] memory) {... */\n    tag_91:\n        /* \"ComplaintSystem.sol\":3606:3624  Complaint[] memory */\n      0x60\n        /* \"ComplaintSystem.sol\":3637:3664  uint256 userComplaintsCount */\n      0x00\n        /* \"ComplaintSystem.sol\":3684:3693  uint256 i */\n      dup1\n        /* \"ComplaintSystem.sol\":3679:3846  for (uint256 i = 0; i < complaintCount; i++) {... */\n    tag_275:\n        /* \"ComplaintSystem.sol\":3703:3717  complaintCount */\n      sload(0x05)\n        /* \"ComplaintSystem.sol\":3699:3700  i */\n      dup2\n        /* \"ComplaintSystem.sol\":3699:3717  i < complaintCount */\n      lt\n        /* \"ComplaintSystem.sol\":3679:3846  for (uint256 i = 0; i < complaintCount; i++) {... */\n      iszero\n      tag_276\n      jumpi\n        /* \"ComplaintSystem.sol\":3772:3777  _user */\n      dup4\n        /* \"ComplaintSystem.sol\":3743:3777  complaints[i].complainant == _user */\n      0xffffffffffffffffffffffffffffffffffffffff\n      and\n        /* \"ComplaintSystem.sol\":3743:3753  complaints */\n      0x02\n        /* \"ComplaintSystem.sol\":3743:3756  complaints[i] */\n      0x00\n        /* \"ComplaintSystem.sol\":3754:3755  i */\n      dup4\n        /* \"ComplaintSystem.sol\":3743:3756  complaints[i] */\n      dup2\n      mstore\n      0x20\n      add\n      swap1\n      dup2\n      mstore\n      0x20\n      add\n      0x00\n      keccak256\n        /* \"ComplaintSystem.sol\":3743:3768  complaints[i].complainant */\n      0x01\n      add\n      0x00\n      swap1\n      sload\n      swap1\n      0x0100\n      exp\n      swap1\n      div\n      0xffffffffffffffffffffffffffffffffffffffff\n      and\n        /* \"ComplaintSystem.sol\":3743:3777  complaints[i].complainant == _user */\n      0xffffffffffffffffffffffffffffffffffffffff\n      and\n      sub\n        /* \"ComplaintSystem.sol\":3739:3835  if (complaints[i].complainant == _user) {... */\n      tag_278\n      jumpi\n        /* \"ComplaintSystem.sol\":3798:3819  userComplaintsCount++ */\n      dup2\n      dup1\n      tag_279\n      swap1\n      tag_109\n      jump\t// in\n    tag_279:\n      swap3\n      pop\n      pop\n        /* \"ComplaintSystem.sol\":3739:3835  if (complaints[i].complainant == _user) {... */\n    tag_278:\n        /* \"ComplaintSystem.sol\":3719:3722  i++ */\n      dup1\n      dup1\n      tag_280\n      swap1\n      tag_109\n      jump\t// in\n    tag_280:\n      swap2\n      pop\n      pop\n        /* \"ComplaintSystem.sol\":3679:3846  for (uint256 i = 0; i < complaintCount; i++) {... */\n      jump(tag_275)\n    tag_276:\n      pop\n        /* \"ComplaintSystem.sol\":3856:3889  Complaint[] memory userComplaints */\n      0x00\n        /* \"ComplaintSystem.sol\":3908:3927  userComplaintsCount */\n      dup2\n        /* \"ComplaintSystem.sol\":3892:3928  new Complaint[](userComplaintsCount) */\n      0xffffffffffffffff\n      dup2\n      gt\n      iszero\n      tag_281\n      jumpi\n      tag_282\n      tag_124\n      jump\t// in\n    tag_282:\n    tag_281:\n      mload(0x40)\n      swap1\n      dup1\n      dup3\n      mstore\n      dup1\n      0x20\n      mul\n      0x20\n      add\n      dup3\n      add\n      0x40\n      mstore\n      dup1\n      iszero\n      tag_283\n      jumpi\n      dup2\n      0x20\n      add\n    tag_284:\n      tag_285\n      tag_152\n      jump\t// in\n    tag_285:\n      dup2\n      mstore\n      0x20\n      add\n      swap1\n      0x01\n      swap1\n      sub\n      swap1\n      dup2\n      tag_284\n      jumpi\n      swap1\n      pop\n    tag_283:\n      pop\n        /* \"ComplaintSystem.sol\":3856:3928  Complaint[] memory userComplaints = new Complaint[](userComplaintsCount) */\n      swap1\n      pop\n        /* \"ComplaintSystem.sol\":3939:3952  uint256 index */\n      0x00\n        /* \"ComplaintSystem.sol\":3972:3981  uint256 i */\n      dup1\n        /* \"ComplaintSystem.sol\":3967:4152  for (uint256 i = 0; i < complaintCount; i++) {... */\n    tag_286:\n        /* \"ComplaintSystem.sol\":3991:4005  complaintCount */\n      sload(0x05)\n        /* \"ComplaintSystem.sol\":3987:3988  i */\n      dup2\n        /* \"ComplaintSystem.sol\":3987:4005  i < complaintCount */\n      lt\n        /* \"ComplaintSystem.sol\":3967:4152  for (uint256 i = 0; i < complaintCount; i++) {... */\n      iszero\n      tag_287\n      jumpi\n        /* \"ComplaintSystem.sol\":4060:4065  _user */\n      dup6\n        /* \"ComplaintSystem.sol\":4031:4065  complaints[i].complainant == _user */\n      0xffffffffffffffffffffffffffffffffffffffff\n      and\n        /* \"ComplaintSystem.sol\":4031:4041  complaints */\n      0x02\n        /* \"ComplaintSystem.sol\":4031:4044  complaints[i] */\n      0x00\n        /* \"ComplaintSystem.sol\":4042:4043  i */\n      dup4\n        /* \"ComplaintSystem.sol\":4031:4044  complaints[i] */\n      dup2\n      mstore\n      0x20\n      add\n      swap1\n      dup2\n      mstore\n      0x20\n      add\n      0x00\n      keccak256\n        /* \"ComplaintSystem.sol\":4031:4056  complaints[i].complainant */\n      0x01\n      add\n      0x00\n      swap1\n      sload\n      swap1\n      0x0100\n      exp\n      swap1\n      div\n      0xffffffffffffffffffffffffffffffffffffffff\n      and\n        /* \"ComplaintSystem.sol\":4031:4065  complaints[i].complainant == _user */\n      0xffffffffffffffffffffffffffffffffffffffff\n      and\n      sub\n        /* \"ComplaintSystem.sol\":4027:4141  if (complaints[i].complainant == _user) {... */\n      tag_289\n      jumpi\n        /* \"ComplaintSystem.sol\":4112:4122  complaints */\n      0x02\n        /* \"ComplaintSystem.sol\":4112:4125  complaints[i] */\n      0x00\n        /* \"ComplaintSystem.sol\":4123:4124  i */\n      dup3\n        /* \"ComplaintSystem.sol\":4112:4125  complaints[i] */\n      dup2\n      mstore\n      0x20\n      add\n      swap1\n      dup2\n      mstore\n      0x20\n      add\n      0x00\n      keccak256\n        /* \"ComplaintSystem.sol\":4086:4125  userComplaints[index++] = complaints[i] */\n      mload(0x40)\n      dup1\n      0xc0\n      add\n      0x40\n      mstore\n      swap1\n      dup2\n      0x00\n      dup3\n      add\n      sload\n      dup2\n      mstore\n      0x20\n      add\n      0x01\n      dup3\n      add\n      0x00\n      swap1\n      sload\n      swap1\n      0x0100\n      exp\n      swap1\n      div\n      0xffffffffffffffffffffffffffffffffffffffff\n      and\n      0xffffffffffffffffffffffffffffffffffffffff\n      and\n      0xffffffffffffffffffffffffffffffffffffffff\n      and\n      dup2\n      mstore\n      0x20\n      add\n      0x02\n      dup3\n      add\n      dup1\n      sload\n      tag_290\n      swap1\n      tag_141\n      jump\t// in\n    tag_290:\n      dup1\n      0x1f\n      add\n      0x20\n      dup1\n      swap2\n      div\n      mul\n      0x20\n      add\n      mload(0x40)\n      swap1\n      dup2\n      add\n      0x40\n      mstore\n      dup1\n      swap3\n      swap2\n      swap1\n      dup2\n      dup2\n      mstore\n      0x20\n      add\n      dup3\n      dup1\n      sload\n      tag_291\n      swap1\n      tag_141\n      jump\t// in\n    tag_291:\n      dup1\n      iszero\n      tag_292\n      jumpi\n      dup1\n      0x1f\n      lt\n      tag_293\n      jumpi\n      0x0100\n      dup1\n      dup4\n      sload\n      div\n      mul\n      dup4\n      mstore\n      swap2\n      0x20\n      add\n      swap2\n      jump(tag_292)\n    tag_293:\n      dup3\n      add\n      swap2\n      swap1\n      0x00\n      mstore\n      keccak256(0x00, 0x20)\n      swap1\n    tag_294:\n      dup2\n      sload\n      dup2\n      mstore\n      swap1\n      0x01\n      add\n      swap1\n      0x20\n      add\n      dup1\n      dup4\n      gt\n      tag_294\n      jumpi\n      dup3\n      swap1\n      sub\n      0x1f\n      and\n      dup3\n      add\n      swap2\n    tag_292:\n      pop\n      pop\n      pop\n      pop\n      pop\n      dup2\n      mstore\n      0x20\n      add\n      0x03\n      dup3\n      add\n      0x00\n      swap1\n      sload\n      swap1\n      0x0100\n      exp\n      swap1\n      div\n      0xff\n      and\n      0x01\n      dup2\n      gt\n      iszero\n      tag_295\n      jumpi\n      tag_296\n      tag_112\n      jump\t// in\n    tag_296:\n    tag_295:\n      0x01\n      dup2\n      gt\n      iszero\n      tag_297\n      jumpi\n      tag_298\n      tag_112\n      jump\t// in\n    tag_298:\n    tag_297:\n      dup2\n      mstore\n      0x20\n      add\n      0x04\n      dup3\n      add\n      mload(0x40)\n      dup1\n      0x40\n      add\n      0x40\n      mstore\n      swap1\n      dup2\n      0x00\n      dup3\n      add\n      dup1\n      sload\n      tag_299\n      swap1\n      tag_141\n      jump\t// in\n    tag_299:\n      dup1\n      0x1f\n      add\n      0x20\n      dup1\n      swap2\n      div\n      mul\n      0x20\n      add\n      mload(0x40)\n      swap1\n      dup2\n      add\n      0x40\n      mstore\n      dup1\n      swap3\n      swap2\n      swap1\n      dup2\n      dup2\n      mstore\n      0x20\n      add\n      dup3\n      dup1\n      sload\n      tag_300\n      swap1\n      tag_141\n      jump\t// in\n    tag_300:\n      dup1\n      iszero\n      tag_301\n      jumpi\n      dup1\n      0x1f\n      lt\n      tag_302\n      jumpi\n      0x0100\n      dup1\n      dup4\n      sload\n      div\n      mul\n      dup4\n      mstore\n      swap2\n      0x20\n      add\n      swap2\n      jump(tag_301)\n    tag_302:\n      dup3\n      add\n      swap2\n      swap1\n      0x00\n      mstore\n      keccak256(0x00, 0x20)\n      swap1\n    tag_303:\n      dup2\n      sload\n      dup2\n      mstore\n      swap1\n      0x01\n      add\n      swap1\n      0x20\n      add\n      dup1\n      dup4\n      gt\n      tag_303\n      jumpi\n      dup3\n      swap1\n      sub\n      0x1f\n      and\n      dup3\n      add\n      swap2\n    tag_301:\n      pop\n      pop\n      pop\n      pop\n      pop\n      dup2\n      mstore\n      0x20\n      add\n      0x01\n      dup3\n      add\n      dup1\n      sload\n      tag_304\n      swap1\n      tag_141\n      jump\t// in\n    tag_304:\n      dup1\n      0x1f\n      add\n      0x20\n      dup1\n      swap2\n      div\n      mul\n      0x20\n      add\n      mload(0x40)\n      swap1\n      dup2\n      add\n      0x40\n      mstore\n      dup1\n      swap3\n      swap2\n      swap1\n      dup2\n      dup2\n      mstore\n      0x20\n      add\n      dup3\n      dup1\n      sload\n      tag_305\n      swap1\n      tag_141\n      jump\t// in\n    tag_305:\n      dup1\n      iszero\n      tag_306\n      jumpi\n      dup1\n      0x1f\n      lt\n      tag_307\n      jumpi\n      0x0100\n      dup1\n      dup4\n      sload\n      div\n      mul\n      dup4\n      mstore\n      swap2\n      0x20\n      add\n      swap2\n      jump(tag_306)\n    tag_307:\n      dup3\n      add\n      swap2\n      swap1\n      0x00\n      mstore\n      keccak256(0x00, 0x20)\n      swap1\n    tag_308:\n      dup2\n      sload\n      dup2\n      mstore\n      swap1\n      0x01\n      add\n      swap1\n      0x20\n      add\n      dup1\n      dup4\n      gt\n      tag_308\n      jumpi\n      dup3\n      swap1\n      sub\n      0x1f\n      and\n      dup3\n      add\n      swap2\n    tag_306:\n      pop\n      pop\n      pop\n      pop\n      pop\n      dup2\n      mstore\n      pop\n      pop\n      dup2\n      mstore\n      0x20\n      add\n      0x06\n      dup3\n      add\n      sload\n      dup2\n      mstore\n      pop\n      pop\n        /* \"ComplaintSystem.sol\":4086:4100  userComplaints */\n      dup4\n        /* \"ComplaintSystem.sol\":4101:4108  index++ */\n      dup4\n      dup1\n      tag_309\n      swap1\n      tag_109\n      jump\t// in\n    tag_309:\n      swap5\n      pop\n        /* \"ComplaintSystem.sol\":4086:4109  userComplaints[index++] */\n      dup2\n      mload\n      dup2\n      lt\n      tag_310\n      jumpi\n      tag_311\n      tag_138\n      jump\t// in\n    tag_311:\n    tag_310:\n      0x20\n      mul\n      0x20\n      add\n      add\n        /* \"ComplaintSystem.sol\":4086:4125  userComplaints[index++] = complaints[i] */\n      dup2\n      swap1\n      mstore\n      pop\n        /* \"ComplaintSystem.sol\":4027:4141  if (complaints[i].complainant == _user) {... */\n    tag_289:\n        /* \"ComplaintSystem.sol\":4007:4010  i++ */\n      dup1\n      dup1\n      tag_312\n      swap1\n      tag_109\n      jump\t// in\n    tag_312:\n      swap2\n      pop\n      pop\n        /* \"ComplaintSystem.sol\":3967:4152  for (uint256 i = 0; i < complaintCount; i++) {... */\n      jump(tag_286)\n    tag_287:\n      pop\n        /* \"ComplaintSystem.sol\":4169:4183  userComplaints */\n      dup2\n        /* \"ComplaintSystem.sol\":4162:4183  return userComplaints */\n      swap4\n      pop\n      pop\n      pop\n      pop\n        /* \"ComplaintSystem.sol\":3541:4191  function getUserComplaints(address _user) external view returns (Complaint[] memory) {... */\n      swap2\n      swap1\n      pop\n      jump\t// out\n        /* \"ComplaintSystem.sol\":2954:3219  function replyToComplaint(uint256 _complaintId, string memory _replyText) external {... */\n    tag_95:\n        /* \"ComplaintSystem.sol\":3048:3055  replies */\n      0x04\n        /* \"ComplaintSystem.sol\":3048:3069  replies[_complaintId] */\n      0x00\n        /* \"ComplaintSystem.sol\":3056:3068  _complaintId */\n      dup4\n        /* \"ComplaintSystem.sol\":3048:3069  replies[_complaintId] */\n      dup2\n      mstore\n      0x20\n      add\n      swap1\n      dup2\n      mstore\n      0x20\n      add\n      0x00\n      keccak256\n        /* \"ComplaintSystem.sol\":3075:3121  Reply(msg.sender, _replyText, block.timestamp) */\n      mload(0x40)\n      dup1\n      0x60\n      add\n      0x40\n      mstore\n      dup1\n        /* \"ComplaintSystem.sol\":3081:3091  msg.sender */\n      caller\n        /* \"ComplaintSystem.sol\":3075:3121  Reply(msg.sender, _replyText, block.timestamp) */\n      0xffffffffffffffffffffffffffffffffffffffff\n      and\n      dup2\n      mstore\n      0x20\n      add\n        /* \"ComplaintSystem.sol\":3093:3103  _replyText */\n      dup4\n        /* \"ComplaintSystem.sol\":3075:3121  Reply(msg.sender, _replyText, block.timestamp) */\n      dup2\n      mstore\n      0x20\n      add\n        /* \"ComplaintSystem.sol\":3105:3120  block.timestamp */\n      timestamp\n        /* \"ComplaintSystem.sol\":3075:3121  Reply(msg.sender, _replyText, block.timestamp) */\n      dup2\n      mstore\n      pop\n        /* \"ComplaintSystem.sol\":3048:3122  replies[_complaintId].push(Reply(msg.sender, _replyText, block.timestamp)) */\n      swap1\n      dup1\n      0x01\n      dup2\n      sload\n      add\n      dup1\n      dup3\n      sstore\n      dup1\n      swap2\n      pop\n      pop\n      0x01\n      swap1\n      sub\n      swap1\n      0x00\n      mstore\n      keccak256(0x00, 0x20)\n      swap1\n      0x03\n      mul\n      add\n      0x00\n      swap1\n      swap2\n      swap1\n      swap2\n      swap1\n      swap2\n      pop\n      0x00\n      dup3\n      add\n      mload\n      dup2\n      0x00\n      add\n      exp(0x0100, 0x00)\n      dup2\n      sload\n      dup2\n      0xffffffffffffffffffffffffffffffffffffffff\n      mul\n      not\n      and\n      swap1\n      dup4\n      0xffffffffffffffffffffffffffffffffffffffff\n      and\n      mul\n      or\n      swap1\n      sstore\n      pop\n      0x20\n      dup3\n      add\n      mload\n      dup2\n      0x01\n      add\n      swap1\n      dup2\n      tag_315\n      swap2\n      swap1\n      tag_114\n      jump\t// in\n    tag_315:\n      pop\n      0x40\n      dup3\n      add\n      mload\n      dup2\n      0x02\n      add\n      sstore\n      pop\n      pop\n        /* \"ComplaintSystem.sol\":3169:3179  msg.sender */\n      caller\n        /* \"ComplaintSystem.sol\":3138:3211  TransactionAdded(_complaintId, msg.sender, Action.Reply, block.timestamp) */\n      0xffffffffffffffffffffffffffffffffffffffff\n      and\n        /* \"ComplaintSystem.sol\":3155:3167  _complaintId */\n      dup3\n        /* \"ComplaintSystem.sol\":3138:3211  TransactionAdded(_complaintId, msg.sender, Action.Reply, block.timestamp) */\n      0x5fde78e53658418a994f35a31fbb22a8ce49370b8678f1663a93e196b8e8896e\n        /* \"ComplaintSystem.sol\":3181:3193  Action.Reply */\n      0x02\n        /* \"ComplaintSystem.sol\":3195:3210  block.timestamp */\n      timestamp\n        /* \"ComplaintSystem.sol\":3138:3211  TransactionAdded(_complaintId, msg.sender, Action.Reply, block.timestamp) */\n      mload(0x40)\n      tag_316\n      swap3\n      swap2\n      swap1\n      tag_317\n      jump\t// in\n    tag_316:\n      mload(0x40)\n      dup1\n      swap2\n      sub\n      swap1\n      log3\n        /* \"ComplaintSystem.sol\":2954:3219  function replyToComplaint(uint256 _complaintId, string memory _replyText) external {... */\n      pop\n      pop\n      jump\t// out\n        /* \"ComplaintSystem.sol\":5708:5840  function getRepliesById(uint256 _complaintId) external view returns (Reply[] memory) {... */\n    tag_98:\n        /* \"ComplaintSystem.sol\":5777:5791  Reply[] memory */\n      0x60\n        /* \"ComplaintSystem.sol\":5811:5818  replies */\n      0x04\n        /* \"ComplaintSystem.sol\":5811:5832  replies[_complaintId] */\n      0x00\n        /* \"ComplaintSystem.sol\":5819:5831  _complaintId */\n      dup4\n        /* \"ComplaintSystem.sol\":5811:5832  replies[_complaintId] */\n      dup2\n      mstore\n      0x20\n      add\n      swap1\n      dup2\n      mstore\n      0x20\n      add\n      0x00\n      keccak256\n        /* \"ComplaintSystem.sol\":5804:5832  return replies[_complaintId] */\n      dup1\n      sload\n      dup1\n      0x20\n      mul\n      0x20\n      add\n      mload(0x40)\n      swap1\n      dup2\n      add\n      0x40\n      mstore\n      dup1\n      swap3\n      swap2\n      swap1\n      dup2\n      dup2\n      mstore\n      0x20\n      add\n      0x00\n      swap1\n    tag_319:\n      dup3\n      dup3\n      lt\n      iszero\n      tag_320\n      jumpi\n      dup4\n      dup3\n      swap1\n      0x00\n      mstore\n      keccak256(0x00, 0x20)\n      swap1\n      0x03\n      mul\n      add\n      mload(0x40)\n      dup1\n      0x60\n      add\n      0x40\n      mstore\n      swap1\n      dup2\n      0x00\n      dup3\n      add\n      0x00\n      swap1\n      sload\n      swap1\n      0x0100\n      exp\n      swap1\n      div\n      0xffffffffffffffffffffffffffffffffffffffff\n      and\n      0xffffffffffffffffffffffffffffffffffffffff\n      and\n      0xffffffffffffffffffffffffffffffffffffffff\n      and\n      dup2\n      mstore\n      0x20\n      add\n      0x01\n      dup3\n      add\n      dup1\n      sload\n      tag_322\n      swap1\n      tag_141\n      jump\t// in\n    tag_322:\n      dup1\n      0x1f\n      add\n      0x20\n      dup1\n      swap2\n      div\n      mul\n      0x20\n      add\n      mload(0x40)\n      swap1\n      dup2\n      add\n      0x40\n      mstore\n      dup1\n      swap3\n      swap2\n      swap1\n      dup2\n      dup2\n      mstore\n      0x20\n      add\n      dup3\n      dup1\n      sload\n      tag_323\n      swap1\n      tag_141\n      jump\t// in\n    tag_323:\n      dup1\n      iszero\n      tag_324\n      jumpi\n      dup1\n      0x1f\n      lt\n      tag_325\n      jumpi\n      0x0100\n      dup1\n      dup4\n      sload\n      div\n      mul\n      dup4\n      mstore\n      swap2\n      0x20\n      add\n      swap2\n      jump(tag_324)\n    tag_325:\n      dup3\n      add\n      swap2\n      swap1\n      0x00\n      mstore\n      keccak256(0x00, 0x20)\n      swap1\n    tag_326:\n      dup2\n      sload\n      dup2\n      mstore\n      swap1\n      0x01\n      add\n      swap1\n      0x20\n      add\n      dup1\n      dup4\n      gt\n      tag_326\n      jumpi\n      dup3\n      swap1\n      sub\n      0x1f\n      and\n      dup3\n      add\n      swap2\n    tag_324:\n      pop\n      pop\n      pop\n      pop\n      pop\n      dup2\n      mstore\n      0x20\n      add\n      0x02\n      dup3\n      add\n      sload\n      dup2\n      mstore\n      pop\n      pop\n      dup2\n      mstore\n      0x20\n      add\n      swap1\n      0x01\n      add\n      swap1\n      jump(tag_319)\n    tag_320:\n      pop\n      pop\n      pop\n      pop\n      swap1\n      pop\n        /* \"ComplaintSystem.sol\":5708:5840  function getRepliesById(uint256 _complaintId) external view returns (Reply[] memory) {... */\n      swap2\n      swap1\n      pop\n      jump\t// out\n        /* \"ComplaintSystem.sol\":3227:3533  function _addTransaction(uint256 _complaintId, address _accessor, Action _actionType) internal {... */\n    tag_197:\n        /* \"ComplaintSystem.sol\":3333:3345  transactions */\n      0x03\n        /* \"ComplaintSystem.sol\":3333:3359  transactions[_complaintId] */\n      0x00\n        /* \"ComplaintSystem.sol\":3346:3358  _complaintId */\n      dup5\n        /* \"ComplaintSystem.sol\":3333:3359  transactions[_complaintId] */\n      dup2\n      mstore\n      0x20\n      add\n      swap1\n      dup2\n      mstore\n      0x20\n      add\n      0x00\n      keccak256\n        /* \"ComplaintSystem.sol\":3365:3417  Transaction(_accessor, _actionType, block.timestamp) */\n      mload(0x40)\n      dup1\n      0x60\n      add\n      0x40\n      mstore\n      dup1\n        /* \"ComplaintSystem.sol\":3377:3386  _accessor */\n      dup5\n        /* \"ComplaintSystem.sol\":3365:3417  Transaction(_accessor, _actionType, block.timestamp) */\n      0xffffffffffffffffffffffffffffffffffffffff\n      and\n      dup2\n      mstore\n      0x20\n      add\n        /* \"ComplaintSystem.sol\":3388:3399  _actionType */\n      dup4\n        /* \"ComplaintSystem.sol\":3365:3417  Transaction(_accessor, _actionType, block.timestamp) */\n      0x02\n      dup2\n      gt\n      iszero\n      tag_328\n      jumpi\n      tag_329\n      tag_112\n      jump\t// in\n    tag_329:\n    tag_328:\n      dup2\n      mstore\n      0x20\n      add\n        /* \"ComplaintSystem.sol\":3401:3416  block.timestamp */\n      timestamp\n        /* \"ComplaintSystem.sol\":3365:3417  Transaction(_accessor, _actionType, block.timestamp) */\n      dup2\n      mstore\n      pop\n        /* \"ComplaintSystem.sol\":3333:3418  transactions[_complaintId].push(Transaction(_accessor, _actionType, block.timestamp)) */\n      swap1\n      dup1\n      0x01\n      dup2\n      sload\n      add\n      dup1\n      dup3\n      sstore\n      dup1\n      swap2\n      pop\n      pop\n      0x01\n      swap1\n      sub\n      swap1\n      0x00\n      mstore\n      keccak256(0x00, 0x20)\n      swap1\n      0x02\n      mul\n      add\n      0x00\n      swap1\n      swap2\n      swap1\n      swap2\n      swap1\n      swap2\n      pop\n      0x00\n      dup3\n      add\n      mload\n      dup2\n      0x00\n      add\n      exp(0x0100, 0x00)\n      dup2\n      sload\n      dup2\n      0xffffffffffffffffffffffffffffffffffffffff\n      mul\n      not\n      and\n      swap1\n      dup4\n      0xffffffffffffffffffffffffffffffffffffffff\n      and\n      mul\n      or\n      swap1\n      sstore\n      pop\n      0x20\n      dup3\n      add\n      mload\n      dup2\n      0x00\n      add\n      exp(0x0100, 0x14)\n      dup2\n      sload\n      dup2\n      0xff\n      mul\n      not\n      and\n      swap1\n      dup4\n      0x02\n      dup2\n      gt\n      iszero\n      tag_331\n      jumpi\n      tag_332\n      tag_112\n      jump\t// in\n    tag_332:\n    tag_331:\n      mul\n      or\n      swap1\n      sstore\n      pop\n      0x40\n      dup3\n      add\n      mload\n      dup2\n      0x01\n      add\n      sstore\n      pop\n      pop\n        /* \"ComplaintSystem.sol\":3465:3474  _accessor */\n      dup2\n        /* \"ComplaintSystem.sol\":3434:3505  TransactionAdded(_complaintId, _accessor, _actionType, block.timestamp) */\n      0xffffffffffffffffffffffffffffffffffffffff\n      and\n        /* \"ComplaintSystem.sol\":3451:3463  _complaintId */\n      dup4\n        /* \"ComplaintSystem.sol\":3434:3505  TransactionAdded(_complaintId, _accessor, _actionType, block.timestamp) */\n      0x5fde78e53658418a994f35a31fbb22a8ce49370b8678f1663a93e196b8e8896e\n        /* \"ComplaintSystem.sol\":3476:3487  _actionType */\n      dup4\n        /* \"ComplaintSystem.sol\":3489:3504  block.timestamp */\n      timestamp\n        /* \"ComplaintSystem.sol\":3434:3505  TransactionAdded(_complaintId, _accessor, _actionType, block.timestamp) */\n      mload(0x40)\n      tag_333\n      swap3\n      swap2\n      swap1\n      tag_317\n      jump\t// in\n    tag_333:\n      mload(0x40)\n      dup1\n      swap2\n      sub\n      swap1\n      log3\n        /* \"ComplaintSystem.sol\":3227:3533  function _addTransaction(uint256 _complaintId, address _accessor, Action _actionType) internal {... */\n      pop\n      pop\n      pop\n      jump\t// out\n    tag_128:\n      mload(0x40)\n      dup1\n      0x60\n      add\n      0x40\n      mstore\n      dup1\n      and(0xffffffffffffffffffffffffffffffffffffffff, 0x00)\n      dup2\n      mstore\n      0x20\n      add\n      0x60\n      dup2\n      mstore\n      0x20\n      add\n      0x00\n      dup2\n      mstore\n      pop\n      swap1\n      jump\t// out\n    tag_152:\n      mload(0x40)\n      dup1\n      0xc0\n      add\n      0x40\n      mstore\n      dup1\n      0x00\n      dup2\n      mstore\n      0x20\n      add\n      and(0xffffffffffffffffffffffffffffffffffffffff, 0x00)\n      dup2\n      mstore\n      0x20\n      add\n      0x60\n      dup2\n      mstore\n      0x20\n      add\n      0x00\n      0x01\n      dup2\n      gt\n      iszero\n      tag_334\n      jumpi\n      tag_335\n      tag_112\n      jump\t// in\n    tag_335:\n    tag_334:\n      dup2\n      mstore\n      0x20\n      add\n      tag_336\n      tag_337\n      jump\t// in\n    tag_336:\n      dup2\n      mstore\n      0x20\n      add\n      0x00\n      dup2\n      mstore\n      pop\n      swap1\n      jump\t// out\n    tag_337:\n      mload(0x40)\n      dup1\n      0x40\n      add\n      0x40\n      mstore\n      dup1\n      0x60\n      dup2\n      mstore\n      0x20\n      add\n      0x60\n      dup2\n      mstore\n      pop\n      swap1\n      jump\t// out\n        /* \"#utility.yul\":7:82   */\n    tag_338:\n        /* \"#utility.yul\":40:46   */\n      0x00\n        /* \"#utility.yul\":73:75   */\n      0x40\n        /* \"#utility.yul\":67:76   */\n      mload\n        /* \"#utility.yul\":57:76   */\n      swap1\n      pop\n        /* \"#utility.yul\":7:82   */\n      swap1\n      jump\t// out\n        /* \"#utility.yul\":88:205   */\n    tag_339:\n        /* \"#utility.yul\":197:198   */\n      0x00\n        /* \"#utility.yul\":194:195   */\n      dup1\n        /* \"#utility.yul\":187:199   */\n      revert\n        /* \"#utility.yul\":211:328   */\n    tag_340:\n        /* \"#utility.yul\":320:321   */\n      0x00\n        /* \"#utility.yul\":317:318   */\n      dup1\n        /* \"#utility.yul\":310:322   */\n      revert\n        /* \"#utility.yul\":334:451   */\n    tag_341:\n        /* \"#utility.yul\":443:444   */\n      0x00\n        /* \"#utility.yul\":440:441   */\n      dup1\n        /* \"#utility.yul\":433:445   */\n      revert\n        /* \"#utility.yul\":457:574   */\n    tag_342:\n        /* \"#utility.yul\":566:567   */\n      0x00\n        /* \"#utility.yul\":563:564   */\n      dup1\n        /* \"#utility.yul\":556:568   */\n      revert\n        /* \"#utility.yul\":580:682   */\n    tag_343:\n        /* \"#utility.yul\":621:627   */\n      0x00\n        /* \"#utility.yul\":672:674   */\n      0x1f\n        /* \"#utility.yul\":668:675   */\n      not\n        /* \"#utility.yul\":663:665   */\n      0x1f\n        /* \"#utility.yul\":656:661   */\n      dup4\n        /* \"#utility.yul\":652:666   */\n      add\n        /* \"#utility.yul\":648:676   */\n      and\n        /* \"#utility.yul\":638:676   */\n      swap1\n      pop\n        /* \"#utility.yul\":580:682   */\n      swap2\n      swap1\n      pop\n      jump\t// out\n        /* \"#utility.yul\":688:868   */\n    tag_124:\n        /* \"#utility.yul\":736:813   */\n      0x4e487b7100000000000000000000000000000000000000000000000000000000\n        /* \"#utility.yul\":733:734   */\n      0x00\n        /* \"#utility.yul\":726:814   */\n      mstore\n        /* \"#utility.yul\":833:837   */\n      0x41\n        /* \"#utility.yul\":830:831   */\n      0x04\n        /* \"#utility.yul\":823:838   */\n      mstore\n        /* \"#utility.yul\":857:861   */\n      0x24\n        /* \"#utility.yul\":854:855   */\n      0x00\n        /* \"#utility.yul\":847:862   */\n      revert\n        /* \"#utility.yul\":874:1155   */\n    tag_344:\n        /* \"#utility.yul\":957:984   */\n      tag_437\n        /* \"#utility.yul\":979:983   */\n      dup3\n        /* \"#utility.yul\":957:984   */\n      tag_343\n      jump\t// in\n    tag_437:\n        /* \"#utility.yul\":949:955   */\n      dup2\n        /* \"#utility.yul\":945:985   */\n      add\n        /* \"#utility.yul\":1087:1093   */\n      dup2\n        /* \"#utility.yul\":1075:1085   */\n      dup2\n        /* \"#utility.yul\":1072:1094   */\n      lt\n        /* \"#utility.yul\":1051:1069   */\n      0xffffffffffffffff\n        /* \"#utility.yul\":1039:1049   */\n      dup3\n        /* \"#utility.yul\":1036:1070   */\n      gt\n        /* \"#utility.yul\":1033:1095   */\n      or\n        /* \"#utility.yul\":1030:1118   */\n      iszero\n      tag_438\n      jumpi\n        /* \"#utility.yul\":1098:1116   */\n      tag_439\n      tag_124\n      jump\t// in\n    tag_439:\n        /* \"#utility.yul\":1030:1118   */\n    tag_438:\n        /* \"#utility.yul\":1138:1148   */\n      dup1\n        /* \"#utility.yul\":1134:1136   */\n      0x40\n        /* \"#utility.yul\":1127:1149   */\n      mstore\n        /* \"#utility.yul\":917:1155   */\n      pop\n        /* \"#utility.yul\":874:1155   */\n      pop\n      pop\n      jump\t// out\n        /* \"#utility.yul\":1161:1290   */\n    tag_345:\n        /* \"#utility.yul\":1195:1201   */\n      0x00\n        /* \"#utility.yul\":1222:1242   */\n      tag_441\n      tag_338\n      jump\t// in\n    tag_441:\n        /* \"#utility.yul\":1212:1242   */\n      swap1\n      pop\n        /* \"#utility.yul\":1251:1284   */\n      tag_442\n        /* \"#utility.yul\":1279:1283   */\n      dup3\n        /* \"#utility.yul\":1271:1277   */\n      dup3\n        /* \"#utility.yul\":1251:1284   */\n      tag_344\n      jump\t// in\n    tag_442:\n        /* \"#utility.yul\":1161:1290   */\n      swap2\n      swap1\n      pop\n      jump\t// out\n        /* \"#utility.yul\":1296:1604   */\n    tag_346:\n        /* \"#utility.yul\":1358:1362   */\n      0x00\n        /* \"#utility.yul\":1448:1466   */\n      0xffffffffffffffff\n        /* \"#utility.yul\":1440:1446   */\n      dup3\n        /* \"#utility.yul\":1437:1467   */\n      gt\n        /* \"#utility.yul\":1434:1490   */\n      iszero\n      tag_444\n      jumpi\n        /* \"#utility.yul\":1470:1488   */\n      tag_445\n      tag_124\n      jump\t// in\n    tag_445:\n        /* \"#utility.yul\":1434:1490   */\n    tag_444:\n        /* \"#utility.yul\":1508:1537   */\n      tag_446\n        /* \"#utility.yul\":1530:1536   */\n      dup3\n        /* \"#utility.yul\":1508:1537   */\n      tag_343\n      jump\t// in\n    tag_446:\n        /* \"#utility.yul\":1500:1537   */\n      swap1\n      pop\n        /* \"#utility.yul\":1592:1596   */\n      0x20\n        /* \"#utility.yul\":1586:1590   */\n      dup2\n        /* \"#utility.yul\":1582:1597   */\n      add\n        /* \"#utility.yul\":1574:1597   */\n      swap1\n      pop\n        /* \"#utility.yul\":1296:1604   */\n      swap2\n      swap1\n      pop\n      jump\t// out\n        /* \"#utility.yul\":1610:1756   */\n    tag_347:\n        /* \"#utility.yul\":1707:1713   */\n      dup3\n        /* \"#utility.yul\":1702:1705   */\n      dup2\n        /* \"#utility.yul\":1697:1700   */\n      dup4\n        /* \"#utility.yul\":1684:1714   */\n      calldatacopy\n        /* \"#utility.yul\":1748:1749   */\n      0x00\n        /* \"#utility.yul\":1739:1745   */\n      dup4\n        /* \"#utility.yul\":1734:1737   */\n      dup4\n        /* \"#utility.yul\":1730:1746   */\n      add\n        /* \"#utility.yul\":1723:1750   */\n      mstore\n        /* \"#utility.yul\":1610:1756   */\n      pop\n      pop\n      pop\n      jump\t// out\n        /* \"#utility.yul\":1762:2187   */\n    tag_348:\n        /* \"#utility.yul\":1840:1845   */\n      0x00\n        /* \"#utility.yul\":1865:1931   */\n      tag_449\n        /* \"#utility.yul\":1881:1930   */\n      tag_450\n        /* \"#utility.yul\":1923:1929   */\n      dup5\n        /* \"#utility.yul\":1881:1930   */\n      tag_346\n      jump\t// in\n    tag_450:\n        /* \"#utility.yul\":1865:1931   */\n      tag_345\n      jump\t// in\n    tag_449:\n        /* \"#utility.yul\":1856:1931   */\n      swap1\n      pop\n        /* \"#utility.yul\":1954:1960   */\n      dup3\n        /* \"#utility.yul\":1947:1952   */\n      dup2\n        /* \"#utility.yul\":1940:1961   */\n      mstore\n        /* \"#utility.yul\":1992:1996   */\n      0x20\n        /* \"#utility.yul\":1985:1990   */\n      dup2\n        /* \"#utility.yul\":1981:1997   */\n      add\n        /* \"#utility.yul\":2030:2033   */\n      dup5\n        /* \"#utility.yul\":2021:2027   */\n      dup5\n        /* \"#utility.yul\":2016:2019   */\n      dup5\n        /* \"#utility.yul\":2012:2028   */\n      add\n        /* \"#utility.yul\":2009:2034   */\n      gt\n        /* \"#utility.yul\":2006:2118   */\n      iszero\n      tag_451\n      jumpi\n        /* \"#utility.yul\":2037:2116   */\n      tag_452\n      tag_342\n      jump\t// in\n    tag_452:\n        /* \"#utility.yul\":2006:2118   */\n    tag_451:\n        /* \"#utility.yul\":2127:2181   */\n      tag_453\n        /* \"#utility.yul\":2174:2180   */\n      dup5\n        /* \"#utility.yul\":2169:2172   */\n      dup3\n        /* \"#utility.yul\":2164:2167   */\n      dup6\n        /* \"#utility.yul\":2127:2181   */\n      tag_347\n      jump\t// in\n    tag_453:\n        /* \"#utility.yul\":1846:2187   */\n      pop\n        /* \"#utility.yul\":1762:2187   */\n      swap4\n      swap3\n      pop\n      pop\n      pop\n      jump\t// out\n        /* \"#utility.yul\":2207:2547   */\n    tag_349:\n        /* \"#utility.yul\":2263:2268   */\n      0x00\n        /* \"#utility.yul\":2312:2315   */\n      dup3\n        /* \"#utility.yul\":2305:2309   */\n      0x1f\n        /* \"#utility.yul\":2297:2303   */\n      dup4\n        /* \"#utility.yul\":2293:2310   */\n      add\n        /* \"#utility.yul\":2289:2316   */\n      slt\n        /* \"#utility.yul\":2279:2401   */\n      tag_455\n      jumpi\n        /* \"#utility.yul\":2320:2399   */\n      tag_456\n      tag_341\n      jump\t// in\n    tag_456:\n        /* \"#utility.yul\":2279:2401   */\n    tag_455:\n        /* \"#utility.yul\":2437:2443   */\n      dup2\n        /* \"#utility.yul\":2424:2444   */\n      calldataload\n        /* \"#utility.yul\":2462:2541   */\n      tag_457\n        /* \"#utility.yul\":2537:2540   */\n      dup5\n        /* \"#utility.yul\":2529:2535   */\n      dup3\n        /* \"#utility.yul\":2522:2526   */\n      0x20\n        /* \"#utility.yul\":2514:2520   */\n      dup7\n        /* \"#utility.yul\":2510:2527   */\n      add\n        /* \"#utility.yul\":2462:2541   */\n      tag_348\n      jump\t// in\n    tag_457:\n        /* \"#utility.yul\":2453:2541   */\n      swap2\n      pop\n        /* \"#utility.yul\":2269:2547   */\n      pop\n        /* \"#utility.yul\":2207:2547   */\n      swap3\n      swap2\n      pop\n      pop\n      jump\t// out\n        /* \"#utility.yul\":2553:3712   */\n    tag_26:\n        /* \"#utility.yul\":2660:2666   */\n      0x00\n        /* \"#utility.yul\":2668:2674   */\n      dup1\n        /* \"#utility.yul\":2676:2682   */\n      0x00\n        /* \"#utility.yul\":2725:2727   */\n      0x60\n        /* \"#utility.yul\":2713:2722   */\n      dup5\n        /* \"#utility.yul\":2704:2711   */\n      dup7\n        /* \"#utility.yul\":2700:2723   */\n      sub\n        /* \"#utility.yul\":2696:2728   */\n      slt\n        /* \"#utility.yul\":2693:2812   */\n      iszero\n      tag_459\n      jumpi\n        /* \"#utility.yul\":2731:2810   */\n      tag_460\n      tag_339\n      jump\t// in\n    tag_460:\n        /* \"#utility.yul\":2693:2812   */\n    tag_459:\n        /* \"#utility.yul\":2879:2880   */\n      0x00\n        /* \"#utility.yul\":2868:2877   */\n      dup5\n        /* \"#utility.yul\":2864:2881   */\n      add\n        /* \"#utility.yul\":2851:2882   */\n      calldataload\n        /* \"#utility.yul\":2909:2927   */\n      0xffffffffffffffff\n        /* \"#utility.yul\":2901:2907   */\n      dup2\n        /* \"#utility.yul\":2898:2928   */\n      gt\n        /* \"#utility.yul\":2895:3012   */\n      iszero\n      tag_461\n      jumpi\n        /* \"#utility.yul\":2931:3010   */\n      tag_462\n      tag_340\n      jump\t// in\n    tag_462:\n        /* \"#utility.yul\":2895:3012   */\n    tag_461:\n        /* \"#utility.yul\":3036:3099   */\n      tag_463\n        /* \"#utility.yul\":3091:3098   */\n      dup7\n        /* \"#utility.yul\":3082:3088   */\n      dup3\n        /* \"#utility.yul\":3071:3080   */\n      dup8\n        /* \"#utility.yul\":3067:3089   */\n      add\n        /* \"#utility.yul\":3036:3099   */\n      tag_349\n      jump\t// in\n    tag_463:\n        /* \"#utility.yul\":3026:3099   */\n      swap4\n      pop\n        /* \"#utility.yul\":2822:3109   */\n      pop\n        /* \"#utility.yul\":3176:3178   */\n      0x20\n        /* \"#utility.yul\":3165:3174   */\n      dup5\n        /* \"#utility.yul\":3161:3179   */\n      add\n        /* \"#utility.yul\":3148:3180   */\n      calldataload\n        /* \"#utility.yul\":3207:3225   */\n      0xffffffffffffffff\n        /* \"#utility.yul\":3199:3205   */\n      dup2\n        /* \"#utility.yul\":3196:3226   */\n      gt\n        /* \"#utility.yul\":3193:3310   */\n      iszero\n      tag_464\n      jumpi\n        /* \"#utility.yul\":3229:3308   */\n      tag_465\n      tag_340\n      jump\t// in\n    tag_465:\n        /* \"#utility.yul\":3193:3310   */\n    tag_464:\n        /* \"#utility.yul\":3334:3397   */\n      tag_466\n        /* \"#utility.yul\":3389:3396   */\n      dup7\n        /* \"#utility.yul\":3380:3386   */\n      dup3\n        /* \"#utility.yul\":3369:3378   */\n      dup8\n        /* \"#utility.yul\":3365:3387   */\n      add\n        /* \"#utility.yul\":3334:3397   */\n      tag_349\n      jump\t// in\n    tag_466:\n        /* \"#utility.yul\":3324:3397   */\n      swap3\n      pop\n        /* \"#utility.yul\":3119:3407   */\n      pop\n        /* \"#utility.yul\":3474:3476   */\n      0x40\n        /* \"#utility.yul\":3463:3472   */\n      dup5\n        /* \"#utility.yul\":3459:3477   */\n      add\n        /* \"#utility.yul\":3446:3478   */\n      calldataload\n        /* \"#utility.yul\":3505:3523   */\n      0xffffffffffffffff\n        /* \"#utility.yul\":3497:3503   */\n      dup2\n        /* \"#utility.yul\":3494:3524   */\n      gt\n        /* \"#utility.yul\":3491:3608   */\n      iszero\n      tag_467\n      jumpi\n        /* \"#utility.yul\":3527:3606   */\n      tag_468\n      tag_340\n      jump\t// in\n    tag_468:\n        /* \"#utility.yul\":3491:3608   */\n    tag_467:\n        /* \"#utility.yul\":3632:3695   */\n      tag_469\n        /* \"#utility.yul\":3687:3694   */\n      dup7\n        /* \"#utility.yul\":3678:3684   */\n      dup3\n        /* \"#utility.yul\":3667:3676   */\n      dup8\n        /* \"#utility.yul\":3663:3685   */\n      add\n        /* \"#utility.yul\":3632:3695   */\n      tag_349\n      jump\t// in\n    tag_469:\n        /* \"#utility.yul\":3622:3695   */\n      swap2\n      pop\n        /* \"#utility.yul\":3417:3705   */\n      pop\n        /* \"#utility.yul\":2553:3712   */\n      swap3\n      pop\n      swap3\n      pop\n      swap3\n      jump\t// out\n        /* \"#utility.yul\":3718:3844   */\n    tag_350:\n        /* \"#utility.yul\":3755:3762   */\n      0x00\n        /* \"#utility.yul\":3795:3837   */\n      0xffffffffffffffffffffffffffffffffffffffff\n        /* \"#utility.yul\":3788:3793   */\n      dup3\n        /* \"#utility.yul\":3784:3838   */\n      and\n        /* \"#utility.yul\":3773:3838   */\n      swap1\n      pop\n        /* \"#utility.yul\":3718:3844   */\n      swap2\n      swap1\n      pop\n      jump\t// out\n        /* \"#utility.yul\":3850:3946   */\n    tag_351:\n        /* \"#utility.yul\":3887:3894   */\n      0x00\n        /* \"#utility.yul\":3916:3940   */\n      tag_472\n        /* \"#utility.yul\":3934:3939   */\n      dup3\n        /* \"#utility.yul\":3916:3940   */\n      tag_350\n      jump\t// in\n    tag_472:\n        /* \"#utility.yul\":3905:3940   */\n      swap1\n      pop\n        /* \"#utility.yul\":3850:3946   */\n      swap2\n      swap1\n      pop\n      jump\t// out\n        /* \"#utility.yul\":3952:4074   */\n    tag_352:\n        /* \"#utility.yul\":4025:4049   */\n      tag_474\n        /* \"#utility.yul\":4043:4048   */\n      dup2\n        /* \"#utility.yul\":4025:4049   */\n      tag_351\n      jump\t// in\n    tag_474:\n        /* \"#utility.yul\":4018:4023   */\n      dup2\n        /* \"#utility.yul\":4015:4050   */\n      eq\n        /* \"#utility.yul\":4005:4068   */\n      tag_475\n      jumpi\n        /* \"#utility.yul\":4064:4065   */\n      0x00\n        /* \"#utility.yul\":4061:4062   */\n      dup1\n        /* \"#utility.yul\":4054:4066   */\n      revert\n        /* \"#utility.yul\":4005:4068   */\n    tag_475:\n        /* \"#utility.yul\":3952:4074   */\n      pop\n      jump\t// out\n        /* \"#utility.yul\":4080:4219   */\n    tag_353:\n        /* \"#utility.yul\":4126:4131   */\n      0x00\n        /* \"#utility.yul\":4164:4170   */\n      dup2\n        /* \"#utility.yul\":4151:4171   */\n      calldataload\n        /* \"#utility.yul\":4142:4171   */\n      swap1\n      pop\n        /* \"#utility.yul\":4180:4213   */\n      tag_477\n        /* \"#utility.yul\":4207:4212   */\n      dup2\n        /* \"#utility.yul\":4180:4213   */\n      tag_352\n      jump\t// in\n    tag_477:\n        /* \"#utility.yul\":4080:4219   */\n      swap3\n      swap2\n      pop\n      pop\n      jump\t// out\n        /* \"#utility.yul\":4225:4554   */\n    tag_30:\n        /* \"#utility.yul\":4284:4290   */\n      0x00\n        /* \"#utility.yul\":4333:4335   */\n      0x20\n        /* \"#utility.yul\":4321:4330   */\n      dup3\n        /* \"#utility.yul\":4312:4319   */\n      dup5\n        /* \"#utility.yul\":4308:4331   */\n      sub\n        /* \"#utility.yul\":4304:4336   */\n      slt\n        /* \"#utility.yul\":4301:4420   */\n      iszero\n      tag_479\n      jumpi\n        /* \"#utility.yul\":4339:4418   */\n      tag_480\n      tag_339\n      jump\t// in\n    tag_480:\n        /* \"#utility.yul\":4301:4420   */\n    tag_479:\n        /* \"#utility.yul\":4459:4460   */\n      0x00\n        /* \"#utility.yul\":4484:4537   */\n      tag_481\n        /* \"#utility.yul\":4529:4536   */\n      dup5\n        /* \"#utility.yul\":4520:4526   */\n      dup3\n        /* \"#utility.yul\":4509:4518   */\n      dup6\n        /* \"#utility.yul\":4505:4527   */\n      add\n        /* \"#utility.yul\":4484:4537   */\n      tag_353\n      jump\t// in\n    tag_481:\n        /* \"#utility.yul\":4474:4537   */\n      swap2\n      pop\n        /* \"#utility.yul\":4430:4547   */\n      pop\n        /* \"#utility.yul\":4225:4554   */\n      swap3\n      swap2\n      pop\n      pop\n      jump\t// out\n        /* \"#utility.yul\":4560:4695   */\n    tag_354:\n        /* \"#utility.yul\":4648:4654   */\n      0x00\n        /* \"#utility.yul\":4682:4687   */\n      dup2\n        /* \"#utility.yul\":4676:4688   */\n      mload\n        /* \"#utility.yul\":4666:4688   */\n      swap1\n      pop\n        /* \"#utility.yul\":4560:4695   */\n      swap2\n      swap1\n      pop\n      jump\t// out\n        /* \"#utility.yul\":4701:4906   */\n    tag_355:\n        /* \"#utility.yul\":4821:4832   */\n      0x00\n        /* \"#utility.yul\":4855:4861   */\n      dup3\n        /* \"#utility.yul\":4850:4853   */\n      dup3\n        /* \"#utility.yul\":4843:4862   */\n      mstore\n        /* \"#utility.yul\":4895:4899   */\n      0x20\n        /* \"#utility.yul\":4890:4893   */\n      dup3\n        /* \"#utility.yul\":4886:4900   */\n      add\n        /* \"#utility.yul\":4871:4900   */\n      swap1\n      pop\n        /* \"#utility.yul\":4701:4906   */\n      swap3\n      swap2\n      pop\n      pop\n      jump\t// out\n        /* \"#utility.yul\":4912:5065   */\n    tag_356:\n        /* \"#utility.yul\":5000:5004   */\n      0x00\n        /* \"#utility.yul\":5023:5026   */\n      dup2\n        /* \"#utility.yul\":5015:5026   */\n      swap1\n      pop\n        /* \"#utility.yul\":5053:5057   */\n      0x20\n        /* \"#utility.yul\":5048:5051   */\n      dup3\n        /* \"#utility.yul\":5044:5058   */\n      add\n        /* \"#utility.yul\":5036:5058   */\n      swap1\n      pop\n        /* \"#utility.yul\":4912:5065   */\n      swap2\n      swap1\n      pop\n      jump\t// out\n        /* \"#utility.yul\":5071:5179   */\n    tag_357:\n        /* \"#utility.yul\":5148:5172   */\n      tag_486\n        /* \"#utility.yul\":5166:5171   */\n      dup2\n        /* \"#utility.yul\":5148:5172   */\n      tag_351\n      jump\t// in\n    tag_486:\n        /* \"#utility.yul\":5143:5146   */\n      dup3\n        /* \"#utility.yul\":5136:5173   */\n      mstore\n        /* \"#utility.yul\":5071:5179   */\n      pop\n      pop\n      jump\t// out\n        /* \"#utility.yul\":5185:5284   */\n    tag_358:\n        /* \"#utility.yul\":5237:5243   */\n      0x00\n        /* \"#utility.yul\":5271:5276   */\n      dup2\n        /* \"#utility.yul\":5265:5277   */\n      mload\n        /* \"#utility.yul\":5255:5277   */\n      swap1\n      pop\n        /* \"#utility.yul\":5185:5284   */\n      swap2\n      swap1\n      pop\n      jump\t// out\n        /* \"#utility.yul\":5290:5449   */\n    tag_359:\n        /* \"#utility.yul\":5364:5375   */\n      0x00\n        /* \"#utility.yul\":5398:5404   */\n      dup3\n        /* \"#utility.yul\":5393:5396   */\n      dup3\n        /* \"#utility.yul\":5386:5405   */\n      mstore\n        /* \"#utility.yul\":5438:5442   */\n      0x20\n        /* \"#utility.yul\":5433:5436   */\n      dup3\n        /* \"#utility.yul\":5429:5443   */\n      add\n        /* \"#utility.yul\":5414:5443   */\n      swap1\n      pop\n        /* \"#utility.yul\":5290:5449   */\n      swap3\n      swap2\n      pop\n      pop\n      jump\t// out\n        /* \"#utility.yul\":5455:5701   */\n    tag_360:\n        /* \"#utility.yul\":5536:5537   */\n      0x00\n        /* \"#utility.yul\":5546:5659   */\n    tag_490:\n        /* \"#utility.yul\":5560:5566   */\n      dup4\n        /* \"#utility.yul\":5557:5558   */\n      dup2\n        /* \"#utility.yul\":5554:5567   */\n      lt\n        /* \"#utility.yul\":5546:5659   */\n      iszero\n      tag_492\n      jumpi\n        /* \"#utility.yul\":5645:5646   */\n      dup1\n        /* \"#utility.yul\":5640:5643   */\n      dup3\n        /* \"#utility.yul\":5636:5647   */\n      add\n        /* \"#utility.yul\":5630:5648   */\n      mload\n        /* \"#utility.yul\":5626:5627   */\n      dup2\n        /* \"#utility.yul\":5621:5624   */\n      dup5\n        /* \"#utility.yul\":5617:5628   */\n      add\n        /* \"#utility.yul\":5610:5649   */\n      mstore\n        /* \"#utility.yul\":5582:5584   */\n      0x20\n        /* \"#utility.yul\":5579:5580   */\n      dup2\n        /* \"#utility.yul\":5575:5585   */\n      add\n        /* \"#utility.yul\":5570:5585   */\n      swap1\n      pop\n        /* \"#utility.yul\":5546:5659   */\n      jump(tag_490)\n    tag_492:\n        /* \"#utility.yul\":5693:5694   */\n      0x00\n        /* \"#utility.yul\":5684:5690   */\n      dup5\n        /* \"#utility.yul\":5679:5682   */\n      dup5\n        /* \"#utility.yul\":5675:5691   */\n      add\n        /* \"#utility.yul\":5668:5695   */\n      mstore\n        /* \"#utility.yul\":5517:5701   */\n      pop\n        /* \"#utility.yul\":5455:5701   */\n      pop\n      pop\n      pop\n      jump\t// out\n        /* \"#utility.yul\":5707:6064   */\n    tag_361:\n        /* \"#utility.yul\":5785:5788   */\n      0x00\n        /* \"#utility.yul\":5813:5852   */\n      tag_494\n        /* \"#utility.yul\":5846:5851   */\n      dup3\n        /* \"#utility.yul\":5813:5852   */\n      tag_358\n      jump\t// in\n    tag_494:\n        /* \"#utility.yul\":5868:5929   */\n      tag_495\n        /* \"#utility.yul\":5922:5928   */\n      dup2\n        /* \"#utility.yul\":5917:5920   */\n      dup6\n        /* \"#utility.yul\":5868:5929   */\n      tag_359\n      jump\t// in\n    tag_495:\n        /* \"#utility.yul\":5861:5929   */\n      swap4\n      pop\n        /* \"#utility.yul\":5938:6003   */\n      tag_496\n        /* \"#utility.yul\":5996:6002   */\n      dup2\n        /* \"#utility.yul\":5991:5994   */\n      dup6\n        /* \"#utility.yul\":5984:5988   */\n      0x20\n        /* \"#utility.yul\":5977:5982   */\n      dup7\n        /* \"#utility.yul\":5973:5989   */\n      add\n        /* \"#utility.yul\":5938:6003   */\n      tag_360\n      jump\t// in\n    tag_496:\n        /* \"#utility.yul\":6028:6057   */\n      tag_497\n        /* \"#utility.yul\":6050:6056   */\n      dup2\n        /* \"#utility.yul\":6028:6057   */\n      tag_343\n      jump\t// in\n    tag_497:\n        /* \"#utility.yul\":6023:6026   */\n      dup5\n        /* \"#utility.yul\":6019:6058   */\n      add\n        /* \"#utility.yul\":6012:6058   */\n      swap2\n      pop\n        /* \"#utility.yul\":5789:6064   */\n      pop\n        /* \"#utility.yul\":5707:6064   */\n      swap3\n      swap2\n      pop\n      pop\n      jump\t// out\n        /* \"#utility.yul\":6070:6147   */\n    tag_362:\n        /* \"#utility.yul\":6107:6114   */\n      0x00\n        /* \"#utility.yul\":6136:6141   */\n      dup2\n        /* \"#utility.yul\":6125:6141   */\n      swap1\n      pop\n        /* \"#utility.yul\":6070:6147   */\n      swap2\n      swap1\n      pop\n      jump\t// out\n        /* \"#utility.yul\":6153:6261   */\n    tag_363:\n        /* \"#utility.yul\":6230:6254   */\n      tag_500\n        /* \"#utility.yul\":6248:6253   */\n      dup2\n        /* \"#utility.yul\":6230:6254   */\n      tag_362\n      jump\t// in\n    tag_500:\n        /* \"#utility.yul\":6225:6228   */\n      dup3\n        /* \"#utility.yul\":6218:6255   */\n      mstore\n        /* \"#utility.yul\":6153:6261   */\n      pop\n      pop\n      jump\t// out\n        /* \"#utility.yul\":6335:7116   */\n    tag_364:\n        /* \"#utility.yul\":6436:6439   */\n      0x00\n        /* \"#utility.yul\":6472:6476   */\n      0x60\n        /* \"#utility.yul\":6467:6470   */\n      dup4\n        /* \"#utility.yul\":6463:6477   */\n      add\n        /* \"#utility.yul\":6568:6572   */\n      0x00\n        /* \"#utility.yul\":6561:6566   */\n      dup4\n        /* \"#utility.yul\":6557:6573   */\n      add\n        /* \"#utility.yul\":6551:6574   */\n      mload\n        /* \"#utility.yul\":6587:6650   */\n      tag_502\n        /* \"#utility.yul\":6644:6648   */\n      0x00\n        /* \"#utility.yul\":6639:6642   */\n      dup7\n        /* \"#utility.yul\":6635:6649   */\n      add\n        /* \"#utility.yul\":6621:6633   */\n      dup3\n        /* \"#utility.yul\":6587:6650   */\n      tag_357\n      jump\t// in\n    tag_502:\n        /* \"#utility.yul\":6487:6660   */\n      pop\n        /* \"#utility.yul\":6747:6751   */\n      0x20\n        /* \"#utility.yul\":6740:6745   */\n      dup4\n        /* \"#utility.yul\":6736:6752   */\n      add\n        /* \"#utility.yul\":6730:6753   */\n      mload\n        /* \"#utility.yul\":6800:6803   */\n      dup5\n        /* \"#utility.yul\":6794:6798   */\n      dup3\n        /* \"#utility.yul\":6790:6804   */\n      sub\n        /* \"#utility.yul\":6783:6787   */\n      0x20\n        /* \"#utility.yul\":6778:6781   */\n      dup7\n        /* \"#utility.yul\":6774:6788   */\n      add\n        /* \"#utility.yul\":6767:6805   */\n      mstore\n        /* \"#utility.yul\":6826:6899   */\n      tag_503\n        /* \"#utility.yul\":6894:6898   */\n      dup3\n        /* \"#utility.yul\":6880:6892   */\n      dup3\n        /* \"#utility.yul\":6826:6899   */\n      tag_361\n      jump\t// in\n    tag_503:\n        /* \"#utility.yul\":6818:6899   */\n      swap2\n      pop\n        /* \"#utility.yul\":6670:6910   */\n      pop\n        /* \"#utility.yul\":6997:7001   */\n      0x40\n        /* \"#utility.yul\":6990:6995   */\n      dup4\n        /* \"#utility.yul\":6986:7002   */\n      add\n        /* \"#utility.yul\":6980:7003   */\n      mload\n        /* \"#utility.yul\":7016:7079   */\n      tag_504\n        /* \"#utility.yul\":7073:7077   */\n      0x40\n        /* \"#utility.yul\":7068:7071   */\n      dup7\n        /* \"#utility.yul\":7064:7078   */\n      add\n        /* \"#utility.yul\":7050:7062   */\n      dup3\n        /* \"#utility.yul\":7016:7079   */\n      tag_363\n      jump\t// in\n    tag_504:\n        /* \"#utility.yul\":6920:7089   */\n      pop\n        /* \"#utility.yul\":7106:7110   */\n      dup1\n        /* \"#utility.yul\":7099:7110   */\n      swap2\n      pop\n        /* \"#utility.yul\":6441:7116   */\n      pop\n        /* \"#utility.yul\":6335:7116   */\n      swap3\n      swap2\n      pop\n      pop\n      jump\t// out\n        /* \"#utility.yul\":7122:7362   */\n    tag_365:\n        /* \"#utility.yul\":7233:7243   */\n      0x00\n        /* \"#utility.yul\":7268:7356   */\n      tag_506\n        /* \"#utility.yul\":7352:7355   */\n      dup4\n        /* \"#utility.yul\":7344:7350   */\n      dup4\n        /* \"#utility.yul\":7268:7356   */\n      tag_364\n      jump\t// in\n    tag_506:\n        /* \"#utility.yul\":7254:7356   */\n      swap1\n      pop\n        /* \"#utility.yul\":7122:7362   */\n      swap3\n      swap2\n      pop\n      pop\n      jump\t// out\n        /* \"#utility.yul\":7368:7502   */\n    tag_366:\n        /* \"#utility.yul\":7459:7463   */\n      0x00\n        /* \"#utility.yul\":7491:7495   */\n      0x20\n        /* \"#utility.yul\":7486:7489   */\n      dup3\n        /* \"#utility.yul\":7482:7496   */\n      add\n        /* \"#utility.yul\":7474:7496   */\n      swap1\n      pop\n        /* \"#utility.yul\":7368:7502   */\n      swap2\n      swap1\n      pop\n      jump\t// out\n        /* \"#utility.yul\":7580:8659   */\n    tag_367:\n        /* \"#utility.yul\":7741:7744   */\n      0x00\n        /* \"#utility.yul\":7770:7845   */\n      tag_509\n        /* \"#utility.yul\":7839:7844   */\n      dup3\n        /* \"#utility.yul\":7770:7845   */\n      tag_354\n      jump\t// in\n    tag_509:\n        /* \"#utility.yul\":7861:7968   */\n      tag_510\n        /* \"#utility.yul\":7961:7967   */\n      dup2\n        /* \"#utility.yul\":7956:7959   */\n      dup6\n        /* \"#utility.yul\":7861:7968   */\n      tag_355\n      jump\t// in\n    tag_510:\n        /* \"#utility.yul\":7854:7968   */\n      swap4\n      pop\n        /* \"#utility.yul\":7994:7997   */\n      dup4\n        /* \"#utility.yul\":8039:8043   */\n      0x20\n        /* \"#utility.yul\":8031:8037   */\n      dup3\n        /* \"#utility.yul\":8027:8044   */\n      mul\n        /* \"#utility.yul\":8022:8025   */\n      dup6\n        /* \"#utility.yul\":8018:8045   */\n      add\n        /* \"#utility.yul\":8069:8146   */\n      tag_511\n        /* \"#utility.yul\":8140:8145   */\n      dup6\n        /* \"#utility.yul\":8069:8146   */\n      tag_356\n      jump\t// in\n    tag_511:\n        /* \"#utility.yul\":8169:8176   */\n      dup1\n        /* \"#utility.yul\":8200:8201   */\n      0x00\n        /* \"#utility.yul\":8185:8614   */\n    tag_512:\n        /* \"#utility.yul\":8210:8216   */\n      dup6\n        /* \"#utility.yul\":8207:8208   */\n      dup2\n        /* \"#utility.yul\":8204:8217   */\n      lt\n        /* \"#utility.yul\":8185:8614   */\n      iszero\n      tag_514\n      jumpi\n        /* \"#utility.yul\":8281:8290   */\n      dup5\n        /* \"#utility.yul\":8275:8279   */\n      dup5\n        /* \"#utility.yul\":8271:8291   */\n      sub\n        /* \"#utility.yul\":8266:8269   */\n      dup10\n        /* \"#utility.yul\":8259:8292   */\n      mstore\n        /* \"#utility.yul\":8332:8338   */\n      dup2\n        /* \"#utility.yul\":8326:8339   */\n      mload\n        /* \"#utility.yul\":8360:8466   */\n      tag_515\n        /* \"#utility.yul\":8461:8465   */\n      dup6\n        /* \"#utility.yul\":8446:8459   */\n      dup3\n        /* \"#utility.yul\":8360:8466   */\n      tag_365\n      jump\t// in\n    tag_515:\n        /* \"#utility.yul\":8352:8466   */\n      swap5\n      pop\n        /* \"#utility.yul\":8489:8570   */\n      tag_516\n        /* \"#utility.yul\":8563:8569   */\n      dup4\n        /* \"#utility.yul\":8489:8570   */\n      tag_366\n      jump\t// in\n    tag_516:\n        /* \"#utility.yul\":8479:8570   */\n      swap3\n      pop\n        /* \"#utility.yul\":8599:8603   */\n      0x20\n        /* \"#utility.yul\":8594:8597   */\n      dup11\n        /* \"#utility.yul\":8590:8604   */\n      add\n        /* \"#utility.yul\":8583:8604   */\n      swap10\n      pop\n        /* \"#utility.yul\":8245:8614   */\n      pop\n        /* \"#utility.yul\":8232:8233   */\n      0x01\n        /* \"#utility.yul\":8229:8230   */\n      dup2\n        /* \"#utility.yul\":8225:8234   */\n      add\n        /* \"#utility.yul\":8220:8234   */\n      swap1\n      pop\n        /* \"#utility.yul\":8185:8614   */\n      jump(tag_512)\n    tag_514:\n        /* \"#utility.yul\":8189:8203   */\n      pop\n        /* \"#utility.yul\":8630:8634   */\n      dup3\n        /* \"#utility.yul\":8623:8634   */\n      swap8\n      pop\n        /* \"#utility.yul\":8650:8653   */\n      dup8\n        /* \"#utility.yul\":8643:8653   */\n      swap6\n      pop\n        /* \"#utility.yul\":7746:8659   */\n      pop\n      pop\n      pop\n      pop\n      pop\n        /* \"#utility.yul\":7580:8659   */\n      swap3\n      swap2\n      pop\n      pop\n      jump\t// out\n        /* \"#utility.yul\":8665:9122   */\n    tag_33:\n        /* \"#utility.yul\":8850:8854   */\n      0x00\n        /* \"#utility.yul\":8888:8890   */\n      0x20\n        /* \"#utility.yul\":8877:8886   */\n      dup3\n        /* \"#utility.yul\":8873:8891   */\n      add\n        /* \"#utility.yul\":8865:8891   */\n      swap1\n      pop\n        /* \"#utility.yul\":8937:8946   */\n      dup2\n        /* \"#utility.yul\":8931:8935   */\n      dup2\n        /* \"#utility.yul\":8927:8947   */\n      sub\n        /* \"#utility.yul\":8923:8924   */\n      0x00\n        /* \"#utility.yul\":8912:8921   */\n      dup4\n        /* \"#utility.yul\":8908:8925   */\n      add\n        /* \"#utility.yul\":8901:8948   */\n      mstore\n        /* \"#utility.yul\":8965:9115   */\n      tag_518\n        /* \"#utility.yul\":9110:9114   */\n      dup2\n        /* \"#utility.yul\":9101:9107   */\n      dup5\n        /* \"#utility.yul\":8965:9115   */\n      tag_367\n      jump\t// in\n    tag_518:\n        /* \"#utility.yul\":8957:9115   */\n      swap1\n      pop\n        /* \"#utility.yul\":8665:9122   */\n      swap3\n      swap2\n      pop\n      pop\n      jump\t// out\n        /* \"#utility.yul\":9128:9250   */\n    tag_368:\n        /* \"#utility.yul\":9201:9225   */\n      tag_520\n        /* \"#utility.yul\":9219:9224   */\n      dup2\n        /* \"#utility.yul\":9201:9225   */\n      tag_362\n      jump\t// in\n    tag_520:\n        /* \"#utility.yul\":9194:9199   */\n      dup2\n        /* \"#utility.yul\":9191:9226   */\n      eq\n        /* \"#utility.yul\":9181:9244   */\n      tag_521\n      jumpi\n        /* \"#utility.yul\":9240:9241   */\n      0x00\n        /* \"#utility.yul\":9237:9238   */\n      dup1\n        /* \"#utility.yul\":9230:9242   */\n      revert\n        /* \"#utility.yul\":9181:9244   */\n    tag_521:\n        /* \"#utility.yul\":9128:9250   */\n      pop\n      jump\t// out\n        /* \"#utility.yul\":9256:9395   */\n    tag_369:\n        /* \"#utility.yul\":9302:9307   */\n      0x00\n        /* \"#utility.yul\":9340:9346   */\n      dup2\n        /* \"#utility.yul\":9327:9347   */\n      calldataload\n        /* \"#utility.yul\":9318:9347   */\n      swap1\n      pop\n        /* \"#utility.yul\":9356:9389   */\n      tag_523\n        /* \"#utility.yul\":9383:9388   */\n      dup2\n        /* \"#utility.yul\":9356:9389   */\n      tag_368\n      jump\t// in\n    tag_523:\n        /* \"#utility.yul\":9256:9395   */\n      swap3\n      swap2\n      pop\n      pop\n      jump\t// out\n        /* \"#utility.yul\":9401:9730   */\n    tag_36:\n        /* \"#utility.yul\":9460:9466   */\n      0x00\n        /* \"#utility.yul\":9509:9511   */\n      0x20\n        /* \"#utility.yul\":9497:9506   */\n      dup3\n        /* \"#utility.yul\":9488:9495   */\n      dup5\n        /* \"#utility.yul\":9484:9507   */\n      sub\n        /* \"#utility.yul\":9480:9512   */\n      slt\n        /* \"#utility.yul\":9477:9596   */\n      iszero\n      tag_525\n      jumpi\n        /* \"#utility.yul\":9515:9594   */\n      tag_526\n      tag_339\n      jump\t// in\n    tag_526:\n        /* \"#utility.yul\":9477:9596   */\n    tag_525:\n        /* \"#utility.yul\":9635:9636   */\n      0x00\n        /* \"#utility.yul\":9660:9713   */\n      tag_527\n        /* \"#utility.yul\":9705:9712   */\n      dup5\n        /* \"#utility.yul\":9696:9702   */\n      dup3\n        /* \"#utility.yul\":9685:9694   */\n      dup6\n        /* \"#utility.yul\":9681:9703   */\n      add\n        /* \"#utility.yul\":9660:9713   */\n      tag_369\n      jump\t// in\n    tag_527:\n        /* \"#utility.yul\":9650:9713   */\n      swap2\n      pop\n        /* \"#utility.yul\":9606:9723   */\n      pop\n        /* \"#utility.yul\":9401:9730   */\n      swap3\n      swap2\n      pop\n      pop\n      jump\t// out\n        /* \"#utility.yul\":9736:9916   */\n    tag_112:\n        /* \"#utility.yul\":9784:9861   */\n      0x4e487b7100000000000000000000000000000000000000000000000000000000\n        /* \"#utility.yul\":9781:9782   */\n      0x00\n        /* \"#utility.yul\":9774:9862   */\n      mstore\n        /* \"#utility.yul\":9881:9885   */\n      0x21\n        /* \"#utility.yul\":9878:9879   */\n      0x04\n        /* \"#utility.yul\":9871:9886   */\n      mstore\n        /* \"#utility.yul\":9905:9909   */\n      0x24\n        /* \"#utility.yul\":9902:9903   */\n      0x00\n        /* \"#utility.yul\":9895:9910   */\n      revert\n        /* \"#utility.yul\":9922:10045   */\n    tag_370:\n        /* \"#utility.yul\":10013:10014   */\n      0x02\n        /* \"#utility.yul\":10006:10011   */\n      dup2\n        /* \"#utility.yul\":10003:10015   */\n      lt\n        /* \"#utility.yul\":9993:10039   */\n      tag_530\n      jumpi\n        /* \"#utility.yul\":10019:10037   */\n      tag_531\n      tag_112\n      jump\t// in\n    tag_531:\n        /* \"#utility.yul\":9993:10039   */\n    tag_530:\n        /* \"#utility.yul\":9922:10045   */\n      pop\n      jump\t// out\n        /* \"#utility.yul\":10051:10198   */\n    tag_371:\n        /* \"#utility.yul\":10106:10113   */\n      0x00\n        /* \"#utility.yul\":10135:10140   */\n      dup2\n        /* \"#utility.yul\":10124:10140   */\n      swap1\n      pop\n        /* \"#utility.yul\":10141:10192   */\n      tag_533\n        /* \"#utility.yul\":10186:10191   */\n      dup3\n        /* \"#utility.yul\":10141:10192   */\n      tag_370\n      jump\t// in\n    tag_533:\n        /* \"#utility.yul\":10051:10198   */\n      swap2\n      swap1\n      pop\n      jump\t// out\n        /* \"#utility.yul\":10204:10351   */\n    tag_372:\n        /* \"#utility.yul\":10270:10279   */\n      0x00\n        /* \"#utility.yul\":10303:10345   */\n      tag_535\n        /* \"#utility.yul\":10339:10344   */\n      dup3\n        /* \"#utility.yul\":10303:10345   */\n      tag_371\n      jump\t// in\n    tag_535:\n        /* \"#utility.yul\":10290:10345   */\n      swap1\n      pop\n        /* \"#utility.yul\":10204:10351   */\n      swap2\n      swap1\n      pop\n      jump\t// out\n        /* \"#utility.yul\":10357:10510   */\n    tag_373:\n        /* \"#utility.yul\":10450:10503   */\n      tag_537\n        /* \"#utility.yul\":10497:10502   */\n      dup2\n        /* \"#utility.yul\":10450:10503   */\n      tag_372\n      jump\t// in\n    tag_537:\n        /* \"#utility.yul\":10445:10448   */\n      dup3\n        /* \"#utility.yul\":10438:10504   */\n      mstore\n        /* \"#utility.yul\":10357:10510   */\n      pop\n      pop\n      jump\t// out\n        /* \"#utility.yul\":10582:11243   */\n    tag_374:\n        /* \"#utility.yul\":10681:10684   */\n      0x00\n        /* \"#utility.yul\":10717:10721   */\n      0x40\n        /* \"#utility.yul\":10712:10715   */\n      dup4\n        /* \"#utility.yul\":10708:10722   */\n      add\n        /* \"#utility.yul\":10808:10812   */\n      0x00\n        /* \"#utility.yul\":10801:10806   */\n      dup4\n        /* \"#utility.yul\":10797:10813   */\n      add\n        /* \"#utility.yul\":10791:10814   */\n      mload\n        /* \"#utility.yul\":10861:10864   */\n      dup5\n        /* \"#utility.yul\":10855:10859   */\n      dup3\n        /* \"#utility.yul\":10851:10865   */\n      sub\n        /* \"#utility.yul\":10844:10848   */\n      0x00\n        /* \"#utility.yul\":10839:10842   */\n      dup7\n        /* \"#utility.yul\":10835:10849   */\n      add\n        /* \"#utility.yul\":10828:10866   */\n      mstore\n        /* \"#utility.yul\":10887:10960   */\n      tag_539\n        /* \"#utility.yul\":10955:10959   */\n      dup3\n        /* \"#utility.yul\":10941:10953   */\n      dup3\n        /* \"#utility.yul\":10887:10960   */\n      tag_361\n      jump\t// in\n    tag_539:\n        /* \"#utility.yul\":10879:10960   */\n      swap2\n      pop\n        /* \"#utility.yul\":10732:10971   */\n      pop\n        /* \"#utility.yul\":11053:11057   */\n      0x20\n        /* \"#utility.yul\":11046:11051   */\n      dup4\n        /* \"#utility.yul\":11042:11058   */\n      add\n        /* \"#utility.yul\":11036:11059   */\n      mload\n        /* \"#utility.yul\":11106:11109   */\n      dup5\n        /* \"#utility.yul\":11100:11104   */\n      dup3\n        /* \"#utility.yul\":11096:11110   */\n      sub\n        /* \"#utility.yul\":11089:11093   */\n      0x20\n        /* \"#utility.yul\":11084:11087   */\n      dup7\n        /* \"#utility.yul\":11080:11094   */\n      add\n        /* \"#utility.yul\":11073:11111   */\n      mstore\n        /* \"#utility.yul\":11132:11205   */\n      tag_540\n        /* \"#utility.yul\":11200:11204   */\n      dup3\n        /* \"#utility.yul\":11186:11198   */\n      dup3\n        /* \"#utility.yul\":11132:11205   */\n      tag_361\n      jump\t// in\n    tag_540:\n        /* \"#utility.yul\":11124:11205   */\n      swap2\n      pop\n        /* \"#utility.yul\":10981:11216   */\n      pop\n        /* \"#utility.yul\":11233:11237   */\n      dup1\n        /* \"#utility.yul\":11226:11237   */\n      swap2\n      pop\n        /* \"#utility.yul\":10686:11243   */\n      pop\n        /* \"#utility.yul\":10582:11243   */\n      swap3\n      swap2\n      pop\n      pop\n      jump\t// out\n        /* \"#utility.yul\":11325:12753   */\n    tag_375:\n        /* \"#utility.yul\":11444:11447   */\n      0x00\n        /* \"#utility.yul\":11480:11484   */\n      0xc0\n        /* \"#utility.yul\":11475:11478   */\n      dup4\n        /* \"#utility.yul\":11471:11485   */\n      add\n        /* \"#utility.yul\":11565:11569   */\n      0x00\n        /* \"#utility.yul\":11558:11563   */\n      dup4\n        /* \"#utility.yul\":11554:11570   */\n      add\n        /* \"#utility.yul\":11548:11571   */\n      mload\n        /* \"#utility.yul\":11584:11647   */\n      tag_542\n        /* \"#utility.yul\":11641:11645   */\n      0x00\n        /* \"#utility.yul\":11636:11639   */\n      dup7\n        /* \"#utility.yul\":11632:11646   */\n      add\n        /* \"#utility.yul\":11618:11630   */\n      dup3\n        /* \"#utility.yul\":11584:11647   */\n      tag_363\n      jump\t// in\n    tag_542:\n        /* \"#utility.yul\":11495:11657   */\n      pop\n        /* \"#utility.yul\":11746:11750   */\n      0x20\n        /* \"#utility.yul\":11739:11744   */\n      dup4\n        /* \"#utility.yul\":11735:11751   */\n      add\n        /* \"#utility.yul\":11729:11752   */\n      mload\n        /* \"#utility.yul\":11765:11828   */\n      tag_543\n        /* \"#utility.yul\":11822:11826   */\n      0x20\n        /* \"#utility.yul\":11817:11820   */\n      dup7\n        /* \"#utility.yul\":11813:11827   */\n      add\n        /* \"#utility.yul\":11799:11811   */\n      dup3\n        /* \"#utility.yul\":11765:11828   */\n      tag_357\n      jump\t// in\n    tag_543:\n        /* \"#utility.yul\":11667:11838   */\n      pop\n        /* \"#utility.yul\":11927:11931   */\n      0x40\n        /* \"#utility.yul\":11920:11925   */\n      dup4\n        /* \"#utility.yul\":11916:11932   */\n      add\n        /* \"#utility.yul\":11910:11933   */\n      mload\n        /* \"#utility.yul\":11980:11983   */\n      dup5\n        /* \"#utility.yul\":11974:11978   */\n      dup3\n        /* \"#utility.yul\":11970:11984   */\n      sub\n        /* \"#utility.yul\":11963:11967   */\n      0x40\n        /* \"#utility.yul\":11958:11961   */\n      dup7\n        /* \"#utility.yul\":11954:11968   */\n      add\n        /* \"#utility.yul\":11947:11985   */\n      mstore\n        /* \"#utility.yul\":12006:12079   */\n      tag_544\n        /* \"#utility.yul\":12074:12078   */\n      dup3\n        /* \"#utility.yul\":12060:12072   */\n      dup3\n        /* \"#utility.yul\":12006:12079   */\n      tag_361\n      jump\t// in\n    tag_544:\n        /* \"#utility.yul\":11998:12079   */\n      swap2\n      pop\n        /* \"#utility.yul\":11848:12090   */\n      pop\n        /* \"#utility.yul\":12174:12178   */\n      0x60\n        /* \"#utility.yul\":12167:12172   */\n      dup4\n        /* \"#utility.yul\":12163:12179   */\n      add\n        /* \"#utility.yul\":12157:12180   */\n      mload\n        /* \"#utility.yul\":12193:12272   */\n      tag_545\n        /* \"#utility.yul\":12266:12270   */\n      0x60\n        /* \"#utility.yul\":12261:12264   */\n      dup7\n        /* \"#utility.yul\":12257:12271   */\n      add\n        /* \"#utility.yul\":12243:12255   */\n      dup3\n        /* \"#utility.yul\":12193:12272   */\n      tag_373\n      jump\t// in\n    tag_545:\n        /* \"#utility.yul\":12100:12282   */\n      pop\n        /* \"#utility.yul\":12364:12368   */\n      0x80\n        /* \"#utility.yul\":12357:12362   */\n      dup4\n        /* \"#utility.yul\":12353:12369   */\n      add\n        /* \"#utility.yul\":12347:12370   */\n      mload\n        /* \"#utility.yul\":12417:12420   */\n      dup5\n        /* \"#utility.yul\":12411:12415   */\n      dup3\n        /* \"#utility.yul\":12407:12421   */\n      sub\n        /* \"#utility.yul\":12400:12404   */\n      0x80\n        /* \"#utility.yul\":12395:12398   */\n      dup7\n        /* \"#utility.yul\":12391:12405   */\n      add\n        /* \"#utility.yul\":12384:12422   */\n      mstore\n        /* \"#utility.yul\":12443:12536   */\n      tag_546\n        /* \"#utility.yul\":12531:12535   */\n      dup3\n        /* \"#utility.yul\":12517:12529   */\n      dup3\n        /* \"#utility.yul\":12443:12536   */\n      tag_374\n      jump\t// in\n    tag_546:\n        /* \"#utility.yul\":12435:12536   */\n      swap2\n      pop\n        /* \"#utility.yul\":12292:12547   */\n      pop\n        /* \"#utility.yul\":12634:12638   */\n      0xa0\n        /* \"#utility.yul\":12627:12632   */\n      dup4\n        /* \"#utility.yul\":12623:12639   */\n      add\n        /* \"#utility.yul\":12617:12640   */\n      mload\n        /* \"#utility.yul\":12653:12716   */\n      tag_547\n        /* \"#utility.yul\":12710:12714   */\n      0xa0\n        /* \"#utility.yul\":12705:12708   */\n      dup7\n        /* \"#utility.yul\":12701:12715   */\n      add\n        /* \"#utility.yul\":12687:12699   */\n      dup3\n        /* \"#utility.yul\":12653:12716   */\n      tag_363\n      jump\t// in\n    tag_547:\n        /* \"#utility.yul\":12557:12726   */\n      pop\n        /* \"#utility.yul\":12743:12747   */\n      dup1\n        /* \"#utility.yul\":12736:12747   */\n      swap2\n      pop\n        /* \"#utility.yul\":11449:12753   */\n      pop\n        /* \"#utility.yul\":11325:12753   */\n      swap3\n      swap2\n      pop\n      pop\n      jump\t// out\n        /* \"#utility.yul\":12759:13132   */\n    tag_39:\n        /* \"#utility.yul\":12902:12906   */\n      0x00\n        /* \"#utility.yul\":12940:12942   */\n      0x20\n        /* \"#utility.yul\":12929:12938   */\n      dup3\n        /* \"#utility.yul\":12925:12943   */\n      add\n        /* \"#utility.yul\":12917:12943   */\n      swap1\n      pop\n        /* \"#utility.yul\":12989:12998   */\n      dup2\n        /* \"#utility.yul\":12983:12987   */\n      dup2\n        /* \"#utility.yul\":12979:12999   */\n      sub\n        /* \"#utility.yul\":12975:12976   */\n      0x00\n        /* \"#utility.yul\":12964:12973   */\n      dup4\n        /* \"#utility.yul\":12960:12977   */\n      add\n        /* \"#utility.yul\":12953:13000   */\n      mstore\n        /* \"#utility.yul\":13017:13125   */\n      tag_549\n        /* \"#utility.yul\":13120:13124   */\n      dup2\n        /* \"#utility.yul\":13111:13117   */\n      dup5\n        /* \"#utility.yul\":13017:13125   */\n      tag_375\n      jump\t// in\n    tag_549:\n        /* \"#utility.yul\":13009:13125   */\n      swap1\n      pop\n        /* \"#utility.yul\":12759:13132   */\n      swap3\n      swap2\n      pop\n      pop\n      jump\t// out\n        /* \"#utility.yul\":13138:13612   */\n    tag_42:\n        /* \"#utility.yul\":13206:13212   */\n      0x00\n        /* \"#utility.yul\":13214:13220   */\n      dup1\n        /* \"#utility.yul\":13263:13265   */\n      0x40\n        /* \"#utility.yul\":13251:13260   */\n      dup4\n        /* \"#utility.yul\":13242:13249   */\n      dup6\n        /* \"#utility.yul\":13238:13261   */\n      sub\n        /* \"#utility.yul\":13234:13266   */\n      slt\n        /* \"#utility.yul\":13231:13350   */\n      iszero\n      tag_551\n      jumpi\n        /* \"#utility.yul\":13269:13348   */\n      tag_552\n      tag_339\n      jump\t// in\n    tag_552:\n        /* \"#utility.yul\":13231:13350   */\n    tag_551:\n        /* \"#utility.yul\":13389:13390   */\n      0x00\n        /* \"#utility.yul\":13414:13467   */\n      tag_553\n        /* \"#utility.yul\":13459:13466   */\n      dup6\n        /* \"#utility.yul\":13450:13456   */\n      dup3\n        /* \"#utility.yul\":13439:13448   */\n      dup7\n        /* \"#utility.yul\":13435:13457   */\n      add\n        /* \"#utility.yul\":13414:13467   */\n      tag_369\n      jump\t// in\n    tag_553:\n        /* \"#utility.yul\":13404:13467   */\n      swap3\n      pop\n        /* \"#utility.yul\":13360:13477   */\n      pop\n        /* \"#utility.yul\":13516:13518   */\n      0x20\n        /* \"#utility.yul\":13542:13595   */\n      tag_554\n        /* \"#utility.yul\":13587:13594   */\n      dup6\n        /* \"#utility.yul\":13578:13584   */\n      dup3\n        /* \"#utility.yul\":13567:13576   */\n      dup7\n        /* \"#utility.yul\":13563:13585   */\n      add\n        /* \"#utility.yul\":13542:13595   */\n      tag_369\n      jump\t// in\n    tag_554:\n        /* \"#utility.yul\":13532:13595   */\n      swap2\n      pop\n        /* \"#utility.yul\":13487:13605   */\n      pop\n        /* \"#utility.yul\":13138:13612   */\n      swap3\n      pop\n      swap3\n      swap1\n      pop\n      jump\t// out\n        /* \"#utility.yul\":13618:13736   */\n    tag_376:\n        /* \"#utility.yul\":13705:13729   */\n      tag_556\n        /* \"#utility.yul\":13723:13728   */\n      dup2\n        /* \"#utility.yul\":13705:13729   */\n      tag_351\n      jump\t// in\n    tag_556:\n        /* \"#utility.yul\":13700:13703   */\n      dup3\n        /* \"#utility.yul\":13693:13730   */\n      mstore\n        /* \"#utility.yul\":13618:13736   */\n      pop\n      pop\n      jump\t// out\n        /* \"#utility.yul\":13742:13911   */\n    tag_377:\n        /* \"#utility.yul\":13826:13837   */\n      0x00\n        /* \"#utility.yul\":13860:13866   */\n      dup3\n        /* \"#utility.yul\":13855:13858   */\n      dup3\n        /* \"#utility.yul\":13848:13867   */\n      mstore\n        /* \"#utility.yul\":13900:13904   */\n      0x20\n        /* \"#utility.yul\":13895:13898   */\n      dup3\n        /* \"#utility.yul\":13891:13905   */\n      add\n        /* \"#utility.yul\":13876:13905   */\n      swap1\n      pop\n        /* \"#utility.yul\":13742:13911   */\n      swap3\n      swap2\n      pop\n      pop\n      jump\t// out\n        /* \"#utility.yul\":13917:14294   */\n    tag_378:\n        /* \"#utility.yul\":14005:14008   */\n      0x00\n        /* \"#utility.yul\":14033:14072   */\n      tag_559\n        /* \"#utility.yul\":14066:14071   */\n      dup3\n        /* \"#utility.yul\":14033:14072   */\n      tag_358\n      jump\t// in\n    tag_559:\n        /* \"#utility.yul\":14088:14159   */\n      tag_560\n        /* \"#utility.yul\":14152:14158   */\n      dup2\n        /* \"#utility.yul\":14147:14150   */\n      dup6\n        /* \"#utility.yul\":14088:14159   */\n      tag_377\n      jump\t// in\n    tag_560:\n        /* \"#utility.yul\":14081:14159   */\n      swap4\n      pop\n        /* \"#utility.yul\":14168:14233   */\n      tag_561\n        /* \"#utility.yul\":14226:14232   */\n      dup2\n        /* \"#utility.yul\":14221:14224   */\n      dup6\n        /* \"#utility.yul\":14214:14218   */\n      0x20\n        /* \"#utility.yul\":14207:14212   */\n      dup7\n        /* \"#utility.yul\":14203:14219   */\n      add\n        /* \"#utility.yul\":14168:14233   */\n      tag_360\n      jump\t// in\n    tag_561:\n        /* \"#utility.yul\":14258:14287   */\n      tag_562\n        /* \"#utility.yul\":14280:14286   */\n      dup2\n        /* \"#utility.yul\":14258:14287   */\n      tag_343\n      jump\t// in\n    tag_562:\n        /* \"#utility.yul\":14253:14256   */\n      dup5\n        /* \"#utility.yul\":14249:14288   */\n      add\n        /* \"#utility.yul\":14242:14288   */\n      swap2\n      pop\n        /* \"#utility.yul\":14009:14294   */\n      pop\n        /* \"#utility.yul\":13917:14294   */\n      swap3\n      swap2\n      pop\n      pop\n      jump\t// out\n        /* \"#utility.yul\":14300:14418   */\n    tag_379:\n        /* \"#utility.yul\":14387:14411   */\n      tag_564\n        /* \"#utility.yul\":14405:14410   */\n      dup2\n        /* \"#utility.yul\":14387:14411   */\n      tag_362\n      jump\t// in\n    tag_564:\n        /* \"#utility.yul\":14382:14385   */\n      dup3\n        /* \"#utility.yul\":14375:14412   */\n      mstore\n        /* \"#utility.yul\":14300:14418   */\n      pop\n      pop\n      jump\t// out\n        /* \"#utility.yul\":14424:14957   */\n    tag_45:\n        /* \"#utility.yul\":14593:14597   */\n      0x00\n        /* \"#utility.yul\":14631:14633   */\n      0x60\n        /* \"#utility.yul\":14620:14629   */\n      dup3\n        /* \"#utility.yul\":14616:14634   */\n      add\n        /* \"#utility.yul\":14608:14634   */\n      swap1\n      pop\n        /* \"#utility.yul\":14644:14715   */\n      tag_566\n        /* \"#utility.yul\":14712:14713   */\n      0x00\n        /* \"#utility.yul\":14701:14710   */\n      dup4\n        /* \"#utility.yul\":14697:14714   */\n      add\n        /* \"#utility.yul\":14688:14694   */\n      dup7\n        /* \"#utility.yul\":14644:14715   */\n      tag_376\n      jump\t// in\n    tag_566:\n        /* \"#utility.yul\":14762:14771   */\n      dup2\n        /* \"#utility.yul\":14756:14760   */\n      dup2\n        /* \"#utility.yul\":14752:14772   */\n      sub\n        /* \"#utility.yul\":14747:14749   */\n      0x20\n        /* \"#utility.yul\":14736:14745   */\n      dup4\n        /* \"#utility.yul\":14732:14750   */\n      add\n        /* \"#utility.yul\":14725:14773   */\n      mstore\n        /* \"#utility.yul\":14790:14868   */\n      tag_567\n        /* \"#utility.yul\":14863:14867   */\n      dup2\n        /* \"#utility.yul\":14854:14860   */\n      dup6\n        /* \"#utility.yul\":14790:14868   */\n      tag_378\n      jump\t// in\n    tag_567:\n        /* \"#utility.yul\":14782:14868   */\n      swap1\n      pop\n        /* \"#utility.yul\":14878:14950   */\n      tag_568\n        /* \"#utility.yul\":14946:14948   */\n      0x40\n        /* \"#utility.yul\":14935:14944   */\n      dup4\n        /* \"#utility.yul\":14931:14949   */\n      add\n        /* \"#utility.yul\":14922:14928   */\n      dup5\n        /* \"#utility.yul\":14878:14950   */\n      tag_379\n      jump\t// in\n    tag_568:\n        /* \"#utility.yul\":14424:14957   */\n      swap5\n      swap4\n      pop\n      pop\n      pop\n      pop\n      jump\t// out\n        /* \"#utility.yul\":14963:15053   */\n    tag_380:\n        /* \"#utility.yul\":14997:15004   */\n      0x00\n        /* \"#utility.yul\":15040:15045   */\n      dup2\n        /* \"#utility.yul\":15033:15046   */\n      iszero\n        /* \"#utility.yul\":15026:15047   */\n      iszero\n        /* \"#utility.yul\":15015:15047   */\n      swap1\n      pop\n        /* \"#utility.yul\":14963:15053   */\n      swap2\n      swap1\n      pop\n      jump\t// out\n        /* \"#utility.yul\":15059:15168   */\n    tag_381:\n        /* \"#utility.yul\":15140:15161   */\n      tag_571\n        /* \"#utility.yul\":15155:15160   */\n      dup2\n        /* \"#utility.yul\":15140:15161   */\n      tag_380\n      jump\t// in\n    tag_571:\n        /* \"#utility.yul\":15135:15138   */\n      dup3\n        /* \"#utility.yul\":15128:15162   */\n      mstore\n        /* \"#utility.yul\":15059:15168   */\n      pop\n      pop\n      jump\t// out\n        /* \"#utility.yul\":15174:15384   */\n    tag_50:\n        /* \"#utility.yul\":15261:15265   */\n      0x00\n        /* \"#utility.yul\":15299:15301   */\n      0x20\n        /* \"#utility.yul\":15288:15297   */\n      dup3\n        /* \"#utility.yul\":15284:15302   */\n      add\n        /* \"#utility.yul\":15276:15302   */\n      swap1\n      pop\n        /* \"#utility.yul\":15312:15377   */\n      tag_573\n        /* \"#utility.yul\":15374:15375   */\n      0x00\n        /* \"#utility.yul\":15363:15372   */\n      dup4\n        /* \"#utility.yul\":15359:15376   */\n      add\n        /* \"#utility.yul\":15350:15356   */\n      dup5\n        /* \"#utility.yul\":15312:15377   */\n      tag_381\n      jump\t// in\n    tag_573:\n        /* \"#utility.yul\":15174:15384   */\n      swap3\n      swap2\n      pop\n      pop\n      jump\t// out\n        /* \"#utility.yul\":15390:16044   */\n    tag_53:\n        /* \"#utility.yul\":15468:15474   */\n      0x00\n        /* \"#utility.yul\":15476:15482   */\n      dup1\n        /* \"#utility.yul\":15525:15527   */\n      0x40\n        /* \"#utility.yul\":15513:15522   */\n      dup4\n        /* \"#utility.yul\":15504:15511   */\n      dup6\n        /* \"#utility.yul\":15500:15523   */\n      sub\n        /* \"#utility.yul\":15496:15528   */\n      slt\n        /* \"#utility.yul\":15493:15612   */\n      iszero\n      tag_575\n      jumpi\n        /* \"#utility.yul\":15531:15610   */\n      tag_576\n      tag_339\n      jump\t// in\n    tag_576:\n        /* \"#utility.yul\":15493:15612   */\n    tag_575:\n        /* \"#utility.yul\":15651:15652   */\n      0x00\n        /* \"#utility.yul\":15676:15729   */\n      tag_577\n        /* \"#utility.yul\":15721:15728   */\n      dup6\n        /* \"#utility.yul\":15712:15718   */\n      dup3\n        /* \"#utility.yul\":15701:15710   */\n      dup7\n        /* \"#utility.yul\":15697:15719   */\n      add\n        /* \"#utility.yul\":15676:15729   */\n      tag_369\n      jump\t// in\n    tag_577:\n        /* \"#utility.yul\":15666:15729   */\n      swap3\n      pop\n        /* \"#utility.yul\":15622:15739   */\n      pop\n        /* \"#utility.yul\":15806:15808   */\n      0x20\n        /* \"#utility.yul\":15795:15804   */\n      dup4\n        /* \"#utility.yul\":15791:15809   */\n      add\n        /* \"#utility.yul\":15778:15810   */\n      calldataload\n        /* \"#utility.yul\":15837:15855   */\n      0xffffffffffffffff\n        /* \"#utility.yul\":15829:15835   */\n      dup2\n        /* \"#utility.yul\":15826:15856   */\n      gt\n        /* \"#utility.yul\":15823:15940   */\n      iszero\n      tag_578\n      jumpi\n        /* \"#utility.yul\":15859:15938   */\n      tag_579\n      tag_340\n      jump\t// in\n    tag_579:\n        /* \"#utility.yul\":15823:15940   */\n    tag_578:\n        /* \"#utility.yul\":15964:16027   */\n      tag_580\n        /* \"#utility.yul\":16019:16026   */\n      dup6\n        /* \"#utility.yul\":16010:16016   */\n      dup3\n        /* \"#utility.yul\":15999:16008   */\n      dup7\n        /* \"#utility.yul\":15995:16017   */\n      add\n        /* \"#utility.yul\":15964:16027   */\n      tag_349\n      jump\t// in\n    tag_580:\n        /* \"#utility.yul\":15954:16027   */\n      swap2\n      pop\n        /* \"#utility.yul\":15749:16037   */\n      pop\n        /* \"#utility.yul\":15390:16044   */\n      swap3\n      pop\n      swap3\n      swap1\n      pop\n      jump\t// out\n        /* \"#utility.yul\":16050:16272   */\n    tag_58:\n        /* \"#utility.yul\":16143:16147   */\n      0x00\n        /* \"#utility.yul\":16181:16183   */\n      0x20\n        /* \"#utility.yul\":16170:16179   */\n      dup3\n        /* \"#utility.yul\":16166:16184   */\n      add\n        /* \"#utility.yul\":16158:16184   */\n      swap1\n      pop\n        /* \"#utility.yul\":16194:16265   */\n      tag_582\n        /* \"#utility.yul\":16262:16263   */\n      0x00\n        /* \"#utility.yul\":16251:16260   */\n      dup4\n        /* \"#utility.yul\":16247:16264   */\n      add\n        /* \"#utility.yul\":16238:16244   */\n      dup5\n        /* \"#utility.yul\":16194:16265   */\n      tag_379\n      jump\t// in\n    tag_582:\n        /* \"#utility.yul\":16050:16272   */\n      swap3\n      swap2\n      pop\n      pop\n      jump\t// out\n        /* \"#utility.yul\":16278:16417   */\n    tag_382:\n        /* \"#utility.yul\":16370:16376   */\n      0x00\n        /* \"#utility.yul\":16404:16409   */\n      dup2\n        /* \"#utility.yul\":16398:16410   */\n      mload\n        /* \"#utility.yul\":16388:16410   */\n      swap1\n      pop\n        /* \"#utility.yul\":16278:16417   */\n      swap2\n      swap1\n      pop\n      jump\t// out\n        /* \"#utility.yul\":16423:16632   */\n    tag_383:\n        /* \"#utility.yul\":16547:16558   */\n      0x00\n        /* \"#utility.yul\":16581:16587   */\n      dup3\n        /* \"#utility.yul\":16576:16579   */\n      dup3\n        /* \"#utility.yul\":16569:16588   */\n      mstore\n        /* \"#utility.yul\":16621:16625   */\n      0x20\n        /* \"#utility.yul\":16616:16619   */\n      dup3\n        /* \"#utility.yul\":16612:16626   */\n      add\n        /* \"#utility.yul\":16597:16626   */\n      swap1\n      pop\n        /* \"#utility.yul\":16423:16632   */\n      swap3\n      swap2\n      pop\n      pop\n      jump\t// out\n        /* \"#utility.yul\":16638:16795   */\n    tag_384:\n        /* \"#utility.yul\":16730:16734   */\n      0x00\n        /* \"#utility.yul\":16753:16756   */\n      dup2\n        /* \"#utility.yul\":16745:16756   */\n      swap1\n      pop\n        /* \"#utility.yul\":16783:16787   */\n      0x20\n        /* \"#utility.yul\":16778:16781   */\n      dup3\n        /* \"#utility.yul\":16774:16788   */\n      add\n        /* \"#utility.yul\":16766:16788   */\n      swap1\n      pop\n        /* \"#utility.yul\":16638:16795   */\n      swap2\n      swap1\n      pop\n      jump\t// out\n        /* \"#utility.yul\":16877:18295   */\n    tag_385:\n        /* \"#utility.yul\":16986:16989   */\n      0x00\n        /* \"#utility.yul\":17022:17026   */\n      0xc0\n        /* \"#utility.yul\":17017:17020   */\n      dup4\n        /* \"#utility.yul\":17013:17027   */\n      add\n        /* \"#utility.yul\":17107:17111   */\n      0x00\n        /* \"#utility.yul\":17100:17105   */\n      dup4\n        /* \"#utility.yul\":17096:17112   */\n      add\n        /* \"#utility.yul\":17090:17113   */\n      mload\n        /* \"#utility.yul\":17126:17189   */\n      tag_587\n        /* \"#utility.yul\":17183:17187   */\n      0x00\n        /* \"#utility.yul\":17178:17181   */\n      dup7\n        /* \"#utility.yul\":17174:17188   */\n      add\n        /* \"#utility.yul\":17160:17172   */\n      dup3\n        /* \"#utility.yul\":17126:17189   */\n      tag_363\n      jump\t// in\n    tag_587:\n        /* \"#utility.yul\":17037:17199   */\n      pop\n        /* \"#utility.yul\":17288:17292   */\n      0x20\n        /* \"#utility.yul\":17281:17286   */\n      dup4\n        /* \"#utility.yul\":17277:17293   */\n      add\n        /* \"#utility.yul\":17271:17294   */\n      mload\n        /* \"#utility.yul\":17307:17370   */\n      tag_588\n        /* \"#utility.yul\":17364:17368   */\n      0x20\n        /* \"#utility.yul\":17359:17362   */\n      dup7\n        /* \"#utility.yul\":17355:17369   */\n      add\n        /* \"#utility.yul\":17341:17353   */\n      dup3\n        /* \"#utility.yul\":17307:17370   */\n      tag_357\n      jump\t// in\n    tag_588:\n        /* \"#utility.yul\":17209:17380   */\n      pop\n        /* \"#utility.yul\":17469:17473   */\n      0x40\n        /* \"#utility.yul\":17462:17467   */\n      dup4\n        /* \"#utility.yul\":17458:17474   */\n      add\n        /* \"#utility.yul\":17452:17475   */\n      mload\n        /* \"#utility.yul\":17522:17525   */\n      dup5\n        /* \"#utility.yul\":17516:17520   */\n      dup3\n        /* \"#utility.yul\":17512:17526   */\n      sub\n        /* \"#utility.yul\":17505:17509   */\n      0x40\n        /* \"#utility.yul\":17500:17503   */\n      dup7\n        /* \"#utility.yul\":17496:17510   */\n      add\n        /* \"#utility.yul\":17489:17527   */\n      mstore\n        /* \"#utility.yul\":17548:17621   */\n      tag_589\n        /* \"#utility.yul\":17616:17620   */\n      dup3\n        /* \"#utility.yul\":17602:17614   */\n      dup3\n        /* \"#utility.yul\":17548:17621   */\n      tag_361\n      jump\t// in\n    tag_589:\n        /* \"#utility.yul\":17540:17621   */\n      swap2\n      pop\n        /* \"#utility.yul\":17390:17632   */\n      pop\n        /* \"#utility.yul\":17716:17720   */\n      0x60\n        /* \"#utility.yul\":17709:17714   */\n      dup4\n        /* \"#utility.yul\":17705:17721   */\n      add\n        /* \"#utility.yul\":17699:17722   */\n      mload\n        /* \"#utility.yul\":17735:17814   */\n      tag_590\n        /* \"#utility.yul\":17808:17812   */\n      0x60\n        /* \"#utility.yul\":17803:17806   */\n      dup7\n        /* \"#utility.yul\":17799:17813   */\n      add\n        /* \"#utility.yul\":17785:17797   */\n      dup3\n        /* \"#utility.yul\":17735:17814   */\n      tag_373\n      jump\t// in\n    tag_590:\n        /* \"#utility.yul\":17642:17824   */\n      pop\n        /* \"#utility.yul\":17906:17910   */\n      0x80\n        /* \"#utility.yul\":17899:17904   */\n      dup4\n        /* \"#utility.yul\":17895:17911   */\n      add\n        /* \"#utility.yul\":17889:17912   */\n      mload\n        /* \"#utility.yul\":17959:17962   */\n      dup5\n        /* \"#utility.yul\":17953:17957   */\n      dup3\n        /* \"#utility.yul\":17949:17963   */\n      sub\n        /* \"#utility.yul\":17942:17946   */\n      0x80\n        /* \"#utility.yul\":17937:17940   */\n      dup7\n        /* \"#utility.yul\":17933:17947   */\n      add\n        /* \"#utility.yul\":17926:17964   */\n      mstore\n        /* \"#utility.yul\":17985:18078   */\n      tag_591\n        /* \"#utility.yul\":18073:18077   */\n      dup3\n        /* \"#utility.yul\":18059:18071   */\n      dup3\n        /* \"#utility.yul\":17985:18078   */\n      tag_374\n      jump\t// in\n    tag_591:\n        /* \"#utility.yul\":17977:18078   */\n      swap2\n      pop\n        /* \"#utility.yul\":17834:18089   */\n      pop\n        /* \"#utility.yul\":18176:18180   */\n      0xa0\n        /* \"#utility.yul\":18169:18174   */\n      dup4\n        /* \"#utility.yul\":18165:18181   */\n      add\n        /* \"#utility.yul\":18159:18182   */\n      mload\n        /* \"#utility.yul\":18195:18258   */\n      tag_592\n        /* \"#utility.yul\":18252:18256   */\n      0xa0\n        /* \"#utility.yul\":18247:18250   */\n      dup7\n        /* \"#utility.yul\":18243:18257   */\n      add\n        /* \"#utility.yul\":18229:18241   */\n      dup3\n        /* \"#utility.yul\":18195:18258   */\n      tag_363\n      jump\t// in\n    tag_592:\n        /* \"#utility.yul\":18099:18268   */\n      pop\n        /* \"#utility.yul\":18285:18289   */\n      dup1\n        /* \"#utility.yul\":18278:18289   */\n      swap2\n      pop\n        /* \"#utility.yul\":16991:18295   */\n      pop\n        /* \"#utility.yul\":16877:18295   */\n      swap3\n      swap2\n      pop\n      pop\n      jump\t// out\n        /* \"#utility.yul\":18301:18557   */\n    tag_386:\n        /* \"#utility.yul\":18420:18430   */\n      0x00\n        /* \"#utility.yul\":18455:18551   */\n      tag_594\n        /* \"#utility.yul\":18547:18550   */\n      dup4\n        /* \"#utility.yul\":18539:18545   */\n      dup4\n        /* \"#utility.yul\":18455:18551   */\n      tag_385\n      jump\t// in\n    tag_594:\n        /* \"#utility.yul\":18441:18551   */\n      swap1\n      pop\n        /* \"#utility.yul\":18301:18557   */\n      swap3\n      swap2\n      pop\n      pop\n      jump\t// out\n        /* \"#utility.yul\":18563:18701   */\n    tag_387:\n        /* \"#utility.yul\":18658:18662   */\n      0x00\n        /* \"#utility.yul\":18690:18694   */\n      0x20\n        /* \"#utility.yul\":18685:18688   */\n      dup3\n        /* \"#utility.yul\":18681:18695   */\n      add\n        /* \"#utility.yul\":18673:18695   */\n      swap1\n      pop\n        /* \"#utility.yul\":18563:18701   */\n      swap2\n      swap1\n      pop\n      jump\t// out\n        /* \"#utility.yul\":18787:19898   */\n    tag_388:\n        /* \"#utility.yul\":18956:18959   */\n      0x00\n        /* \"#utility.yul\":18985:19064   */\n      tag_597\n        /* \"#utility.yul\":19058:19063   */\n      dup3\n        /* \"#utility.yul\":18985:19064   */\n      tag_382\n      jump\t// in\n    tag_597:\n        /* \"#utility.yul\":19080:19191   */\n      tag_598\n        /* \"#utility.yul\":19184:19190   */\n      dup2\n        /* \"#utility.yul\":19179:19182   */\n      dup6\n        /* \"#utility.yul\":19080:19191   */\n      tag_383\n      jump\t// in\n    tag_598:\n        /* \"#utility.yul\":19073:19191   */\n      swap4\n      pop\n        /* \"#utility.yul\":19217:19220   */\n      dup4\n        /* \"#utility.yul\":19262:19266   */\n      0x20\n        /* \"#utility.yul\":19254:19260   */\n      dup3\n        /* \"#utility.yul\":19250:19267   */\n      mul\n        /* \"#utility.yul\":19245:19248   */\n      dup6\n        /* \"#utility.yul\":19241:19268   */\n      add\n        /* \"#utility.yul\":19292:19373   */\n      tag_599\n        /* \"#utility.yul\":19367:19372   */\n      dup6\n        /* \"#utility.yul\":19292:19373   */\n      tag_384\n      jump\t// in\n    tag_599:\n        /* \"#utility.yul\":19396:19403   */\n      dup1\n        /* \"#utility.yul\":19427:19428   */\n      0x00\n        /* \"#utility.yul\":19412:19853   */\n    tag_600:\n        /* \"#utility.yul\":19437:19443   */\n      dup6\n        /* \"#utility.yul\":19434:19435   */\n      dup2\n        /* \"#utility.yul\":19431:19444   */\n      lt\n        /* \"#utility.yul\":19412:19853   */\n      iszero\n      tag_602\n      jumpi\n        /* \"#utility.yul\":19508:19517   */\n      dup5\n        /* \"#utility.yul\":19502:19506   */\n      dup5\n        /* \"#utility.yul\":19498:19518   */\n      sub\n        /* \"#utility.yul\":19493:19496   */\n      dup10\n        /* \"#utility.yul\":19486:19519   */\n      mstore\n        /* \"#utility.yul\":19559:19565   */\n      dup2\n        /* \"#utility.yul\":19553:19566   */\n      mload\n        /* \"#utility.yul\":19587:19701   */\n      tag_603\n        /* \"#utility.yul\":19696:19700   */\n      dup6\n        /* \"#utility.yul\":19681:19694   */\n      dup3\n        /* \"#utility.yul\":19587:19701   */\n      tag_386\n      jump\t// in\n    tag_603:\n        /* \"#utility.yul\":19579:19701   */\n      swap5\n      pop\n        /* \"#utility.yul\":19724:19809   */\n      tag_604\n        /* \"#utility.yul\":19802:19808   */\n      dup4\n        /* \"#utility.yul\":19724:19809   */\n      tag_387\n      jump\t// in\n    tag_604:\n        /* \"#utility.yul\":19714:19809   */\n      swap3\n      pop\n        /* \"#utility.yul\":19838:19842   */\n      0x20\n        /* \"#utility.yul\":19833:19836   */\n      dup11\n        /* \"#utility.yul\":19829:19843   */\n      add\n        /* \"#utility.yul\":19822:19843   */\n      swap10\n      pop\n        /* \"#utility.yul\":19472:19853   */\n      pop\n        /* \"#utility.yul\":19459:19460   */\n      0x01\n        /* \"#utility.yul\":19456:19457   */\n      dup2\n        /* \"#utility.yul\":19452:19461   */\n      add\n        /* \"#utility.yul\":19447:19461   */\n      swap1\n      pop\n        /* \"#utility.yul\":19412:19853   */\n      jump(tag_600)\n    tag_602:\n        /* \"#utility.yul\":19416:19430   */\n      pop\n        /* \"#utility.yul\":19869:19873   */\n      dup3\n        /* \"#utility.yul\":19862:19873   */\n      swap8\n      pop\n        /* \"#utility.yul\":19889:19892   */\n      dup8\n        /* \"#utility.yul\":19882:19892   */\n      swap6\n      pop\n        /* \"#utility.yul\":18961:19898   */\n      pop\n      pop\n      pop\n      pop\n      pop\n        /* \"#utility.yul\":18787:19898   */\n      swap3\n      swap2\n      pop\n      pop\n      jump\t// out\n        /* \"#utility.yul\":19904:20377   */\n    tag_62:\n        /* \"#utility.yul\":20097:20101   */\n      0x00\n        /* \"#utility.yul\":20135:20137   */\n      0x20\n        /* \"#utility.yul\":20124:20133   */\n      dup3\n        /* \"#utility.yul\":20120:20138   */\n      add\n        /* \"#utility.yul\":20112:20138   */\n      swap1\n      pop\n        /* \"#utility.yul\":20184:20193   */\n      dup2\n        /* \"#utility.yul\":20178:20182   */\n      dup2\n        /* \"#utility.yul\":20174:20194   */\n      sub\n        /* \"#utility.yul\":20170:20171   */\n      0x00\n        /* \"#utility.yul\":20159:20168   */\n      dup4\n        /* \"#utility.yul\":20155:20172   */\n      add\n        /* \"#utility.yul\":20148:20195   */\n      mstore\n        /* \"#utility.yul\":20212:20370   */\n      tag_606\n        /* \"#utility.yul\":20365:20369   */\n      dup2\n        /* \"#utility.yul\":20356:20362   */\n      dup5\n        /* \"#utility.yul\":20212:20370   */\n      tag_388\n      jump\t// in\n    tag_606:\n        /* \"#utility.yul\":20204:20370   */\n      swap1\n      pop\n        /* \"#utility.yul\":19904:20377   */\n      swap3\n      swap2\n      pop\n      pop\n      jump\t// out\n        /* \"#utility.yul\":20383:20497   */\n    tag_389:\n        /* \"#utility.yul\":20465:20466   */\n      0x03\n        /* \"#utility.yul\":20458:20463   */\n      dup2\n        /* \"#utility.yul\":20455:20467   */\n      lt\n        /* \"#utility.yul\":20445:20491   */\n      tag_608\n      jumpi\n        /* \"#utility.yul\":20471:20489   */\n      tag_609\n      tag_112\n      jump\t// in\n    tag_609:\n        /* \"#utility.yul\":20445:20491   */\n    tag_608:\n        /* \"#utility.yul\":20383:20497   */\n      pop\n      jump\t// out\n        /* \"#utility.yul\":20503:20632   */\n    tag_390:\n        /* \"#utility.yul\":20549:20556   */\n      0x00\n        /* \"#utility.yul\":20578:20583   */\n      dup2\n        /* \"#utility.yul\":20567:20583   */\n      swap1\n      pop\n        /* \"#utility.yul\":20584:20626   */\n      tag_611\n        /* \"#utility.yul\":20620:20625   */\n      dup3\n        /* \"#utility.yul\":20584:20626   */\n      tag_389\n      jump\t// in\n    tag_611:\n        /* \"#utility.yul\":20503:20632   */\n      swap2\n      swap1\n      pop\n      jump\t// out\n        /* \"#utility.yul\":20638:20767   */\n    tag_391:\n        /* \"#utility.yul\":20695:20704   */\n      0x00\n        /* \"#utility.yul\":20728:20761   */\n      tag_613\n        /* \"#utility.yul\":20755:20760   */\n      dup3\n        /* \"#utility.yul\":20728:20761   */\n      tag_390\n      jump\t// in\n    tag_613:\n        /* \"#utility.yul\":20715:20761   */\n      swap1\n      pop\n        /* \"#utility.yul\":20638:20767   */\n      swap2\n      swap1\n      pop\n      jump\t// out\n        /* \"#utility.yul\":20773:20918   */\n    tag_392:\n        /* \"#utility.yul\":20867:20911   */\n      tag_615\n        /* \"#utility.yul\":20905:20910   */\n      dup2\n        /* \"#utility.yul\":20867:20911   */\n      tag_391\n      jump\t// in\n    tag_615:\n        /* \"#utility.yul\":20862:20865   */\n      dup3\n        /* \"#utility.yul\":20855:20912   */\n      mstore\n        /* \"#utility.yul\":20773:20918   */\n      pop\n      pop\n      jump\t// out\n        /* \"#utility.yul\":20924:21380   */\n    tag_73:\n        /* \"#utility.yul\":21080:21084   */\n      0x00\n        /* \"#utility.yul\":21118:21120   */\n      0x60\n        /* \"#utility.yul\":21107:21116   */\n      dup3\n        /* \"#utility.yul\":21103:21121   */\n      add\n        /* \"#utility.yul\":21095:21121   */\n      swap1\n      pop\n        /* \"#utility.yul\":21131:21202   */\n      tag_617\n        /* \"#utility.yul\":21199:21200   */\n      0x00\n        /* \"#utility.yul\":21188:21197   */\n      dup4\n        /* \"#utility.yul\":21184:21201   */\n      add\n        /* \"#utility.yul\":21175:21181   */\n      dup7\n        /* \"#utility.yul\":21131:21202   */\n      tag_376\n      jump\t// in\n    tag_617:\n        /* \"#utility.yul\":21212:21291   */\n      tag_618\n        /* \"#utility.yul\":21287:21289   */\n      0x20\n        /* \"#utility.yul\":21276:21285   */\n      dup4\n        /* \"#utility.yul\":21272:21290   */\n      add\n        /* \"#utility.yul\":21263:21269   */\n      dup6\n        /* \"#utility.yul\":21212:21291   */\n      tag_392\n      jump\t// in\n    tag_618:\n        /* \"#utility.yul\":21301:21373   */\n      tag_619\n        /* \"#utility.yul\":21369:21371   */\n      0x40\n        /* \"#utility.yul\":21358:21367   */\n      dup4\n        /* \"#utility.yul\":21354:21372   */\n      add\n        /* \"#utility.yul\":21345:21351   */\n      dup5\n        /* \"#utility.yul\":21301:21373   */\n      tag_379\n      jump\t// in\n    tag_619:\n        /* \"#utility.yul\":20924:21380   */\n      swap5\n      swap4\n      pop\n      pop\n      pop\n      pop\n      jump\t// out\n        /* \"#utility.yul\":21386:21549   */\n    tag_393:\n        /* \"#utility.yul\":21489:21542   */\n      tag_621\n        /* \"#utility.yul\":21536:21541   */\n      dup2\n        /* \"#utility.yul\":21489:21542   */\n      tag_372\n      jump\t// in\n    tag_621:\n        /* \"#utility.yul\":21484:21487   */\n      dup3\n        /* \"#utility.yul\":21477:21543   */\n      mstore\n        /* \"#utility.yul\":21386:21549   */\n      pop\n      pop\n      jump\t// out\n        /* \"#utility.yul\":21621:22292   */\n    tag_394:\n        /* \"#utility.yul\":21730:21733   */\n      0x00\n        /* \"#utility.yul\":21766:21770   */\n      0x40\n        /* \"#utility.yul\":21761:21764   */\n      dup4\n        /* \"#utility.yul\":21757:21771   */\n      add\n        /* \"#utility.yul\":21857:21861   */\n      0x00\n        /* \"#utility.yul\":21850:21855   */\n      dup4\n        /* \"#utility.yul\":21846:21862   */\n      add\n        /* \"#utility.yul\":21840:21863   */\n      mload\n        /* \"#utility.yul\":21910:21913   */\n      dup5\n        /* \"#utility.yul\":21904:21908   */\n      dup3\n        /* \"#utility.yul\":21900:21914   */\n      sub\n        /* \"#utility.yul\":21893:21897   */\n      0x00\n        /* \"#utility.yul\":21888:21891   */\n      dup7\n        /* \"#utility.yul\":21884:21898   */\n      add\n        /* \"#utility.yul\":21877:21915   */\n      mstore\n        /* \"#utility.yul\":21936:22009   */\n      tag_623\n        /* \"#utility.yul\":22004:22008   */\n      dup3\n        /* \"#utility.yul\":21990:22002   */\n      dup3\n        /* \"#utility.yul\":21936:22009   */\n      tag_361\n      jump\t// in\n    tag_623:\n        /* \"#utility.yul\":21928:22009   */\n      swap2\n      pop\n        /* \"#utility.yul\":21781:22020   */\n      pop\n        /* \"#utility.yul\":22102:22106   */\n      0x20\n        /* \"#utility.yul\":22095:22100   */\n      dup4\n        /* \"#utility.yul\":22091:22107   */\n      add\n        /* \"#utility.yul\":22085:22108   */\n      mload\n        /* \"#utility.yul\":22155:22158   */\n      dup5\n        /* \"#utility.yul\":22149:22153   */\n      dup3\n        /* \"#utility.yul\":22145:22159   */\n      sub\n        /* \"#utility.yul\":22138:22142   */\n      0x20\n        /* \"#utility.yul\":22133:22136   */\n      dup7\n        /* \"#utility.yul\":22129:22143   */\n      add\n        /* \"#utility.yul\":22122:22160   */\n      mstore\n        /* \"#utility.yul\":22181:22254   */\n      tag_624\n        /* \"#utility.yul\":22249:22253   */\n      dup3\n        /* \"#utility.yul\":22235:22247   */\n      dup3\n        /* \"#utility.yul\":22181:22254   */\n      tag_361\n      jump\t// in\n    tag_624:\n        /* \"#utility.yul\":22173:22254   */\n      swap2\n      pop\n        /* \"#utility.yul\":22030:22265   */\n      pop\n        /* \"#utility.yul\":22282:22286   */\n      dup1\n        /* \"#utility.yul\":22275:22286   */\n      swap2\n      pop\n        /* \"#utility.yul\":21735:22292   */\n      pop\n        /* \"#utility.yul\":21621:22292   */\n      swap3\n      swap2\n      pop\n      pop\n      jump\t// out\n        /* \"#utility.yul\":22298:23327   */\n    tag_83:\n        /* \"#utility.yul\":22607:22611   */\n      0x00\n        /* \"#utility.yul\":22645:22648   */\n      0xc0\n        /* \"#utility.yul\":22634:22643   */\n      dup3\n        /* \"#utility.yul\":22630:22649   */\n      add\n        /* \"#utility.yul\":22622:22649   */\n      swap1\n      pop\n        /* \"#utility.yul\":22659:22730   */\n      tag_626\n        /* \"#utility.yul\":22727:22728   */\n      0x00\n        /* \"#utility.yul\":22716:22725   */\n      dup4\n        /* \"#utility.yul\":22712:22729   */\n      add\n        /* \"#utility.yul\":22703:22709   */\n      dup10\n        /* \"#utility.yul\":22659:22730   */\n      tag_379\n      jump\t// in\n    tag_626:\n        /* \"#utility.yul\":22740:22812   */\n      tag_627\n        /* \"#utility.yul\":22808:22810   */\n      0x20\n        /* \"#utility.yul\":22797:22806   */\n      dup4\n        /* \"#utility.yul\":22793:22811   */\n      add\n        /* \"#utility.yul\":22784:22790   */\n      dup9\n        /* \"#utility.yul\":22740:22812   */\n      tag_376\n      jump\t// in\n    tag_627:\n        /* \"#utility.yul\":22859:22868   */\n      dup2\n        /* \"#utility.yul\":22853:22857   */\n      dup2\n        /* \"#utility.yul\":22849:22869   */\n      sub\n        /* \"#utility.yul\":22844:22846   */\n      0x40\n        /* \"#utility.yul\":22833:22842   */\n      dup4\n        /* \"#utility.yul\":22829:22847   */\n      add\n        /* \"#utility.yul\":22822:22870   */\n      mstore\n        /* \"#utility.yul\":22887:22965   */\n      tag_628\n        /* \"#utility.yul\":22960:22964   */\n      dup2\n        /* \"#utility.yul\":22951:22957   */\n      dup8\n        /* \"#utility.yul\":22887:22965   */\n      tag_378\n      jump\t// in\n    tag_628:\n        /* \"#utility.yul\":22879:22965   */\n      swap1\n      pop\n        /* \"#utility.yul\":22975:23063   */\n      tag_629\n        /* \"#utility.yul\":23059:23061   */\n      0x60\n        /* \"#utility.yul\":23048:23057   */\n      dup4\n        /* \"#utility.yul\":23044:23062   */\n      add\n        /* \"#utility.yul\":23035:23041   */\n      dup7\n        /* \"#utility.yul\":22975:23063   */\n      tag_393\n      jump\t// in\n    tag_629:\n        /* \"#utility.yul\":23111:23120   */\n      dup2\n        /* \"#utility.yul\":23105:23109   */\n      dup2\n        /* \"#utility.yul\":23101:23121   */\n      sub\n        /* \"#utility.yul\":23095:23098   */\n      0x80\n        /* \"#utility.yul\":23084:23093   */\n      dup4\n        /* \"#utility.yul\":23080:23099   */\n      add\n        /* \"#utility.yul\":23073:23122   */\n      mstore\n        /* \"#utility.yul\":23139:23237   */\n      tag_630\n        /* \"#utility.yul\":23232:23236   */\n      dup2\n        /* \"#utility.yul\":23223:23229   */\n      dup6\n        /* \"#utility.yul\":23139:23237   */\n      tag_394\n      jump\t// in\n    tag_630:\n        /* \"#utility.yul\":23131:23237   */\n      swap1\n      pop\n        /* \"#utility.yul\":23247:23320   */\n      tag_631\n        /* \"#utility.yul\":23315:23318   */\n      0xa0\n        /* \"#utility.yul\":23304:23313   */\n      dup4\n        /* \"#utility.yul\":23300:23319   */\n      add\n        /* \"#utility.yul\":23291:23297   */\n      dup5\n        /* \"#utility.yul\":23247:23320   */\n      tag_379\n      jump\t// in\n    tag_631:\n        /* \"#utility.yul\":22298:23327   */\n      swap8\n      swap7\n      pop\n      pop\n      pop\n      pop\n      pop\n      pop\n      pop\n      jump\t// out\n        /* \"#utility.yul\":23333:23474   */\n    tag_395:\n        /* \"#utility.yul\":23427:23433   */\n      0x00\n        /* \"#utility.yul\":23461:23466   */\n      dup2\n        /* \"#utility.yul\":23455:23467   */\n      mload\n        /* \"#utility.yul\":23445:23467   */\n      swap1\n      pop\n        /* \"#utility.yul\":23333:23474   */\n      swap2\n      swap1\n      pop\n      jump\t// out\n        /* \"#utility.yul\":23480:23691   */\n    tag_396:\n        /* \"#utility.yul\":23606:23617   */\n      0x00\n        /* \"#utility.yul\":23640:23646   */\n      dup3\n        /* \"#utility.yul\":23635:23638   */\n      dup3\n        /* \"#utility.yul\":23628:23647   */\n      mstore\n        /* \"#utility.yul\":23680:23684   */\n      0x20\n        /* \"#utility.yul\":23675:23678   */\n      dup3\n        /* \"#utility.yul\":23671:23685   */\n      add\n        /* \"#utility.yul\":23656:23685   */\n      swap1\n      pop\n        /* \"#utility.yul\":23480:23691   */\n      swap3\n      swap2\n      pop\n      pop\n      jump\t// out\n        /* \"#utility.yul\":23697:23856   */\n    tag_397:\n        /* \"#utility.yul\":23791:23795   */\n      0x00\n        /* \"#utility.yul\":23814:23817   */\n      dup2\n        /* \"#utility.yul\":23806:23817   */\n      swap1\n      pop\n        /* \"#utility.yul\":23844:23848   */\n      0x20\n        /* \"#utility.yul\":23839:23842   */\n      dup3\n        /* \"#utility.yul\":23835:23849   */\n      add\n        /* \"#utility.yul\":23827:23849   */\n      swap1\n      pop\n        /* \"#utility.yul\":23697:23856   */\n      swap2\n      swap1\n      pop\n      jump\t// out\n        /* \"#utility.yul\":23862:23997   */\n    tag_398:\n        /* \"#utility.yul\":23946:23990   */\n      tag_636\n        /* \"#utility.yul\":23984:23989   */\n      dup2\n        /* \"#utility.yul\":23946:23990   */\n      tag_391\n      jump\t// in\n    tag_636:\n        /* \"#utility.yul\":23941:23944   */\n      dup3\n        /* \"#utility.yul\":23934:23991   */\n      mstore\n        /* \"#utility.yul\":23862:23997   */\n      pop\n      pop\n      jump\t// out\n        /* \"#utility.yul\":24083:24780   */\n    tag_399:\n        /* \"#utility.yul\":24224:24228   */\n      0x60\n        /* \"#utility.yul\":24219:24222   */\n      dup3\n        /* \"#utility.yul\":24215:24229   */\n      add\n        /* \"#utility.yul\":24315:24319   */\n      0x00\n        /* \"#utility.yul\":24308:24313   */\n      dup3\n        /* \"#utility.yul\":24304:24320   */\n      add\n        /* \"#utility.yul\":24298:24321   */\n      mload\n        /* \"#utility.yul\":24334:24397   */\n      tag_638\n        /* \"#utility.yul\":24391:24395   */\n      0x00\n        /* \"#utility.yul\":24386:24389   */\n      dup6\n        /* \"#utility.yul\":24382:24396   */\n      add\n        /* \"#utility.yul\":24368:24380   */\n      dup3\n        /* \"#utility.yul\":24334:24397   */\n      tag_357\n      jump\t// in\n    tag_638:\n        /* \"#utility.yul\":24239:24407   */\n      pop\n        /* \"#utility.yul\":24495:24499   */\n      0x20\n        /* \"#utility.yul\":24488:24493   */\n      dup3\n        /* \"#utility.yul\":24484:24500   */\n      add\n        /* \"#utility.yul\":24478:24501   */\n      mload\n        /* \"#utility.yul\":24514:24584   */\n      tag_639\n        /* \"#utility.yul\":24578:24582   */\n      0x20\n        /* \"#utility.yul\":24573:24576   */\n      dup6\n        /* \"#utility.yul\":24569:24583   */\n      add\n        /* \"#utility.yul\":24555:24567   */\n      dup3\n        /* \"#utility.yul\":24514:24584   */\n      tag_398\n      jump\t// in\n    tag_639:\n        /* \"#utility.yul\":24417:24594   */\n      pop\n        /* \"#utility.yul\":24681:24685   */\n      0x40\n        /* \"#utility.yul\":24674:24679   */\n      dup3\n        /* \"#utility.yul\":24670:24686   */\n      add\n        /* \"#utility.yul\":24664:24687   */\n      mload\n        /* \"#utility.yul\":24700:24763   */\n      tag_640\n        /* \"#utility.yul\":24757:24761   */\n      0x40\n        /* \"#utility.yul\":24752:24755   */\n      dup6\n        /* \"#utility.yul\":24748:24762   */\n      add\n        /* \"#utility.yul\":24734:24746   */\n      dup3\n        /* \"#utility.yul\":24700:24763   */\n      tag_363\n      jump\t// in\n    tag_640:\n        /* \"#utility.yul\":24604:24773   */\n      pop\n        /* \"#utility.yul\":24193:24780   */\n      pop\n        /* \"#utility.yul\":24083:24780   */\n      pop\n      pop\n      jump\t// out\n        /* \"#utility.yul\":24786:25073   */\n    tag_400:\n        /* \"#utility.yul\":24909:24919   */\n      0x00\n        /* \"#utility.yul\":24930:25030   */\n      tag_642\n        /* \"#utility.yul\":25026:25029   */\n      dup4\n        /* \"#utility.yul\":25018:25024   */\n      dup4\n        /* \"#utility.yul\":24930:25030   */\n      tag_399\n      jump\t// in\n    tag_642:\n        /* \"#utility.yul\":25062:25066   */\n      0x60\n        /* \"#utility.yul\":25057:25060   */\n      dup4\n        /* \"#utility.yul\":25053:25067   */\n      add\n        /* \"#utility.yul\":25039:25067   */\n      swap1\n      pop\n        /* \"#utility.yul\":24786:25073   */\n      swap3\n      swap2\n      pop\n      pop\n      jump\t// out\n        /* \"#utility.yul\":25079:25219   */\n    tag_401:\n        /* \"#utility.yul\":25176:25180   */\n      0x00\n        /* \"#utility.yul\":25208:25212   */\n      0x20\n        /* \"#utility.yul\":25203:25206   */\n      dup3\n        /* \"#utility.yul\":25199:25213   */\n      add\n        /* \"#utility.yul\":25191:25213   */\n      swap1\n      pop\n        /* \"#utility.yul\":25079:25219   */\n      swap2\n      swap1\n      pop\n      jump\t// out\n        /* \"#utility.yul\":25309:26257   */\n    tag_402:\n        /* \"#utility.yul\":25482:25485   */\n      0x00\n        /* \"#utility.yul\":25511:25592   */\n      tag_645\n        /* \"#utility.yul\":25586:25591   */\n      dup3\n        /* \"#utility.yul\":25511:25592   */\n      tag_395\n      jump\t// in\n    tag_645:\n        /* \"#utility.yul\":25608:25721   */\n      tag_646\n        /* \"#utility.yul\":25714:25720   */\n      dup2\n        /* \"#utility.yul\":25709:25712   */\n      dup6\n        /* \"#utility.yul\":25608:25721   */\n      tag_396\n      jump\t// in\n    tag_646:\n        /* \"#utility.yul\":25601:25721   */\n      swap4\n      pop\n        /* \"#utility.yul\":25745:25828   */\n      tag_647\n        /* \"#utility.yul\":25822:25827   */\n      dup4\n        /* \"#utility.yul\":25745:25828   */\n      tag_397\n      jump\t// in\n    tag_647:\n        /* \"#utility.yul\":25851:25858   */\n      dup1\n        /* \"#utility.yul\":25882:25883   */\n      0x00\n        /* \"#utility.yul\":25867:26232   */\n    tag_648:\n        /* \"#utility.yul\":25892:25898   */\n      dup4\n        /* \"#utility.yul\":25889:25890   */\n      dup2\n        /* \"#utility.yul\":25886:25899   */\n      lt\n        /* \"#utility.yul\":25867:26232   */\n      iszero\n      tag_650\n      jumpi\n        /* \"#utility.yul\":25968:25974   */\n      dup2\n        /* \"#utility.yul\":25962:25975   */\n      mload\n        /* \"#utility.yul\":25995:26112   */\n      tag_651\n        /* \"#utility.yul\":26108:26111   */\n      dup9\n        /* \"#utility.yul\":26093:26106   */\n      dup3\n        /* \"#utility.yul\":25995:26112   */\n      tag_400\n      jump\t// in\n    tag_651:\n        /* \"#utility.yul\":25988:26112   */\n      swap8\n      pop\n        /* \"#utility.yul\":26135:26222   */\n      tag_652\n        /* \"#utility.yul\":26215:26221   */\n      dup4\n        /* \"#utility.yul\":26135:26222   */\n      tag_401\n      jump\t// in\n    tag_652:\n        /* \"#utility.yul\":26125:26222   */\n      swap3\n      pop\n        /* \"#utility.yul\":25927:26232   */\n      pop\n        /* \"#utility.yul\":25914:25915   */\n      0x01\n        /* \"#utility.yul\":25911:25912   */\n      dup2\n        /* \"#utility.yul\":25907:25916   */\n      add\n        /* \"#utility.yul\":25902:25916   */\n      swap1\n      pop\n        /* \"#utility.yul\":25867:26232   */\n      jump(tag_648)\n    tag_650:\n        /* \"#utility.yul\":25871:25885   */\n      pop\n        /* \"#utility.yul\":26248:26251   */\n      dup6\n        /* \"#utility.yul\":26241:26251   */\n      swap4\n      pop\n        /* \"#utility.yul\":25487:26257   */\n      pop\n      pop\n      pop\n        /* \"#utility.yul\":25309:26257   */\n      swap3\n      swap2\n      pop\n      pop\n      jump\t// out\n        /* \"#utility.yul\":26263:26744   */\n    tag_88:\n        /* \"#utility.yul\":26460:26464   */\n      0x00\n        /* \"#utility.yul\":26498:26500   */\n      0x20\n        /* \"#utility.yul\":26487:26496   */\n      dup3\n        /* \"#utility.yul\":26483:26501   */\n      add\n        /* \"#utility.yul\":26475:26501   */\n      swap1\n      pop\n        /* \"#utility.yul\":26547:26556   */\n      dup2\n        /* \"#utility.yul\":26541:26545   */\n      dup2\n        /* \"#utility.yul\":26537:26557   */\n      sub\n        /* \"#utility.yul\":26533:26534   */\n      0x00\n        /* \"#utility.yul\":26522:26531   */\n      dup4\n        /* \"#utility.yul\":26518:26535   */\n      add\n        /* \"#utility.yul\":26511:26558   */\n      mstore\n        /* \"#utility.yul\":26575:26737   */\n      tag_654\n        /* \"#utility.yul\":26732:26736   */\n      dup2\n        /* \"#utility.yul\":26723:26729   */\n      dup5\n        /* \"#utility.yul\":26575:26737   */\n      tag_402\n      jump\t// in\n    tag_654:\n        /* \"#utility.yul\":26567:26737   */\n      swap1\n      pop\n        /* \"#utility.yul\":26263:26744   */\n      swap3\n      swap2\n      pop\n      pop\n      jump\t// out\n        /* \"#utility.yul\":26750:26932   */\n    tag_403:\n        /* \"#utility.yul\":26890:26924   */\n      0x4f6e6c7920757365722063616e2063616c6c20746869732066756e6374696f6e\n        /* \"#utility.yul\":26886:26887   */\n      0x00\n        /* \"#utility.yul\":26878:26884   */\n      dup3\n        /* \"#utility.yul\":26874:26888   */\n      add\n        /* \"#utility.yul\":26867:26925   */\n      mstore\n        /* \"#utility.yul\":26750:26932   */\n      pop\n      jump\t// out\n        /* \"#utility.yul\":26938:27304   */\n    tag_404:\n        /* \"#utility.yul\":27080:27083   */\n      0x00\n        /* \"#utility.yul\":27101:27168   */\n      tag_657\n        /* \"#utility.yul\":27165:27167   */\n      0x20\n        /* \"#utility.yul\":27160:27163   */\n      dup4\n        /* \"#utility.yul\":27101:27168   */\n      tag_377\n      jump\t// in\n    tag_657:\n        /* \"#utility.yul\":27094:27168   */\n      swap2\n      pop\n        /* \"#utility.yul\":27177:27270   */\n      tag_658\n        /* \"#utility.yul\":27266:27269   */\n      dup3\n        /* \"#utility.yul\":27177:27270   */\n      tag_403\n      jump\t// in\n    tag_658:\n        /* \"#utility.yul\":27295:27297   */\n      0x20\n        /* \"#utility.yul\":27290:27293   */\n      dup3\n        /* \"#utility.yul\":27286:27298   */\n      add\n        /* \"#utility.yul\":27279:27298   */\n      swap1\n      pop\n        /* \"#utility.yul\":26938:27304   */\n      swap2\n      swap1\n      pop\n      jump\t// out\n        /* \"#utility.yul\":27310:27729   */\n    tag_103:\n        /* \"#utility.yul\":27476:27480   */\n      0x00\n        /* \"#utility.yul\":27514:27516   */\n      0x20\n        /* \"#utility.yul\":27503:27512   */\n      dup3\n        /* \"#utility.yul\":27499:27517   */\n      add\n        /* \"#utility.yul\":27491:27517   */\n      swap1\n      pop\n        /* \"#utility.yul\":27563:27572   */\n      dup2\n        /* \"#utility.yul\":27557:27561   */\n      dup2\n        /* \"#utility.yul\":27553:27573   */\n      sub\n        /* \"#utility.yul\":27549:27550   */\n      0x00\n        /* \"#utility.yul\":27538:27547   */\n      dup4\n        /* \"#utility.yul\":27534:27551   */\n      add\n        /* \"#utility.yul\":27527:27574   */\n      mstore\n        /* \"#utility.yul\":27591:27722   */\n      tag_660\n        /* \"#utility.yul\":27717:27721   */\n      dup2\n        /* \"#utility.yul\":27591:27722   */\n      tag_404\n      jump\t// in\n    tag_660:\n        /* \"#utility.yul\":27583:27722   */\n      swap1\n      pop\n        /* \"#utility.yul\":27310:27729   */\n      swap2\n      swap1\n      pop\n      jump\t// out\n        /* \"#utility.yul\":27735:27901   */\n    tag_405:\n        /* \"#utility.yul\":27875:27893   */\n      0x4e6f2066696c652070726f766964656400000000000000000000000000000000\n        /* \"#utility.yul\":27871:27872   */\n      0x00\n        /* \"#utility.yul\":27863:27869   */\n      dup3\n        /* \"#utility.yul\":27859:27873   */\n      add\n        /* \"#utility.yul\":27852:27894   */\n      mstore\n        /* \"#utility.yul\":27735:27901   */\n      pop\n      jump\t// out\n        /* \"#utility.yul\":27907:28273   */\n    tag_406:\n        /* \"#utility.yul\":28049:28052   */\n      0x00\n        /* \"#utility.yul\":28070:28137   */\n      tag_663\n        /* \"#utility.yul\":28134:28136   */\n      0x10\n        /* \"#utility.yul\":28129:28132   */\n      dup4\n        /* \"#utility.yul\":28070:28137   */\n      tag_377\n      jump\t// in\n    tag_663:\n        /* \"#utility.yul\":28063:28137   */\n      swap2\n      pop\n        /* \"#utility.yul\":28146:28239   */\n      tag_664\n        /* \"#utility.yul\":28235:28238   */\n      dup3\n        /* \"#utility.yul\":28146:28239   */\n      tag_405\n      jump\t// in\n    tag_664:\n        /* \"#utility.yul\":28264:28266   */\n      0x20\n        /* \"#utility.yul\":28259:28262   */\n      dup3\n        /* \"#utility.yul\":28255:28267   */\n      add\n        /* \"#utility.yul\":28248:28267   */\n      swap1\n      pop\n        /* \"#utility.yul\":27907:28273   */\n      swap2\n      swap1\n      pop\n      jump\t// out\n        /* \"#utility.yul\":28279:28698   */\n    tag_107:\n        /* \"#utility.yul\":28445:28449   */\n      0x00\n        /* \"#utility.yul\":28483:28485   */\n      0x20\n        /* \"#utility.yul\":28472:28481   */\n      dup3\n        /* \"#utility.yul\":28468:28486   */\n      add\n        /* \"#utility.yul\":28460:28486   */\n      swap1\n      pop\n        /* \"#utility.yul\":28532:28541   */\n      dup2\n        /* \"#utility.yul\":28526:28530   */\n      dup2\n        /* \"#utility.yul\":28522:28542   */\n      sub\n        /* \"#utility.yul\":28518:28519   */\n      0x00\n        /* \"#utility.yul\":28507:28516   */\n      dup4\n        /* \"#utility.yul\":28503:28520   */\n      add\n        /* \"#utility.yul\":28496:28543   */\n      mstore\n        /* \"#utility.yul\":28560:28691   */\n      tag_666\n        /* \"#utility.yul\":28686:28690   */\n      dup2\n        /* \"#utility.yul\":28560:28691   */\n      tag_406\n      jump\t// in\n    tag_666:\n        /* \"#utility.yul\":28552:28691   */\n      swap1\n      pop\n        /* \"#utility.yul\":28279:28698   */\n      swap2\n      swap1\n      pop\n      jump\t// out\n        /* \"#utility.yul\":28704:28884   */\n    tag_407:\n        /* \"#utility.yul\":28752:28829   */\n      0x4e487b7100000000000000000000000000000000000000000000000000000000\n        /* \"#utility.yul\":28749:28750   */\n      0x00\n        /* \"#utility.yul\":28742:28830   */\n      mstore\n        /* \"#utility.yul\":28849:28853   */\n      0x11\n        /* \"#utility.yul\":28846:28847   */\n      0x04\n        /* \"#utility.yul\":28839:28854   */\n      mstore\n        /* \"#utility.yul\":28873:28877   */\n      0x24\n        /* \"#utility.yul\":28870:28871   */\n      0x00\n        /* \"#utility.yul\":28863:28878   */\n      revert\n        /* \"#utility.yul\":28890:29123   */\n    tag_109:\n        /* \"#utility.yul\":28929:28932   */\n      0x00\n        /* \"#utility.yul\":28952:28976   */\n      tag_669\n        /* \"#utility.yul\":28970:28975   */\n      dup3\n        /* \"#utility.yul\":28952:28976   */\n      tag_362\n      jump\t// in\n    tag_669:\n        /* \"#utility.yul\":28943:28976   */\n      swap2\n      pop\n        /* \"#utility.yul\":28998:29064   */\n      0xffffffffffffffffffffffffffffffffffffffffffffffffffffffffffffffff\n        /* \"#utility.yul\":28991:28996   */\n      dup3\n        /* \"#utility.yul\":28988:29065   */\n      sub\n        /* \"#utility.yul\":28985:29088   */\n      tag_670\n      jumpi\n        /* \"#utility.yul\":29068:29086   */\n      tag_671\n      tag_407\n      jump\t// in\n    tag_671:\n        /* \"#utility.yul\":28985:29088   */\n    tag_670:\n        /* \"#utility.yul\":29115:29116   */\n      0x01\n        /* \"#utility.yul\":29108:29113   */\n      dup3\n        /* \"#utility.yul\":29104:29117   */\n      add\n        /* \"#utility.yul\":29097:29117   */\n      swap1\n      pop\n        /* \"#utility.yul\":28890:29123   */\n      swap2\n      swap1\n      pop\n      jump\t// out\n        /* \"#utility.yul\":29129:29309   */\n    tag_408:\n        /* \"#utility.yul\":29177:29254   */\n      0x4e487b7100000000000000000000000000000000000000000000000000000000\n        /* \"#utility.yul\":29174:29175   */\n      0x00\n        /* \"#utility.yul\":29167:29255   */\n      mstore\n        /* \"#utility.yul\":29274:29278   */\n      0x22\n        /* \"#utility.yul\":29271:29272   */\n      0x04\n        /* \"#utility.yul\":29264:29279   */\n      mstore\n        /* \"#utility.yul\":29298:29302   */\n      0x24\n        /* \"#utility.yul\":29295:29296   */\n      0x00\n        /* \"#utility.yul\":29288:29303   */\n      revert\n        /* \"#utility.yul\":29315:29635   */\n    tag_141:\n        /* \"#utility.yul\":29359:29365   */\n      0x00\n        /* \"#utility.yul\":29396:29397   */\n      0x02\n        /* \"#utility.yul\":29390:29394   */\n      dup3\n        /* \"#utility.yul\":29386:29398   */\n      div\n        /* \"#utility.yul\":29376:29398   */\n      swap1\n      pop\n        /* \"#utility.yul\":29443:29444   */\n      0x01\n        /* \"#utility.yul\":29437:29441   */\n      dup3\n        /* \"#utility.yul\":29433:29445   */\n      and\n        /* \"#utility.yul\":29464:29482   */\n      dup1\n        /* \"#utility.yul\":29454:29535   */\n      tag_674\n      jumpi\n        /* \"#utility.yul\":29520:29524   */\n      0x7f\n        /* \"#utility.yul\":29512:29518   */\n      dup3\n        /* \"#utility.yul\":29508:29525   */\n      and\n        /* \"#utility.yul\":29498:29525   */\n      swap2\n      pop\n        /* \"#utility.yul\":29454:29535   */\n    tag_674:\n        /* \"#utility.yul\":29582:29584   */\n      0x20\n        /* \"#utility.yul\":29574:29580   */\n      dup3\n        /* \"#utility.yul\":29571:29585   */\n      lt\n        /* \"#utility.yul\":29551:29569   */\n      dup2\n        /* \"#utility.yul\":29548:29586   */\n      sub\n        /* \"#utility.yul\":29545:29629   */\n      tag_675\n      jumpi\n        /* \"#utility.yul\":29601:29619   */\n      tag_676\n      tag_408\n      jump\t// in\n    tag_676:\n        /* \"#utility.yul\":29545:29629   */\n    tag_675:\n        /* \"#utility.yul\":29366:29635   */\n      pop\n        /* \"#utility.yul\":29315:29635   */\n      swap2\n      swap1\n      pop\n      jump\t// out\n        /* \"#utility.yul\":29641:29782   */\n    tag_409:\n        /* \"#utility.yul\":29690:29694   */\n      0x00\n        /* \"#utility.yul\":29713:29716   */\n      dup2\n        /* \"#utility.yul\":29705:29716   */\n      swap1\n      pop\n        /* \"#utility.yul\":29736:29739   */\n      dup2\n        /* \"#utility.yul\":29733:29734   */\n      0x00\n        /* \"#utility.yul\":29726:29740   */\n      mstore\n        /* \"#utility.yul\":29770:29774   */\n      0x20\n        /* \"#utility.yul\":29767:29768   */\n      0x00\n        /* \"#utility.yul\":29757:29775   */\n      keccak256\n        /* \"#utility.yul\":29749:29775   */\n      swap1\n      pop\n        /* \"#utility.yul\":29641:29782   */\n      swap2\n      swap1\n      pop\n      jump\t// out\n        /* \"#utility.yul\":29788:29881   */\n    tag_410:\n        /* \"#utility.yul\":29825:29831   */\n      0x00\n        /* \"#utility.yul\":29872:29874   */\n      0x20\n        /* \"#utility.yul\":29867:29869   */\n      0x1f\n        /* \"#utility.yul\":29860:29865   */\n      dup4\n        /* \"#utility.yul\":29856:29870   */\n      add\n        /* \"#utility.yul\":29852:29875   */\n      div\n        /* \"#utility.yul\":29842:29875   */\n      swap1\n      pop\n        /* \"#utility.yul\":29788:29881   */\n      swap2\n      swap1\n      pop\n      jump\t// out\n        /* \"#utility.yul\":29887:29994   */\n    tag_411:\n        /* \"#utility.yul\":29931:29939   */\n      0x00\n        /* \"#utility.yul\":29981:29986   */\n      dup3\n        /* \"#utility.yul\":29975:29979   */\n      dup3\n        /* \"#utility.yul\":29971:29987   */\n      shl\n        /* \"#utility.yul\":29950:29987   */\n      swap1\n      pop\n        /* \"#utility.yul\":29887:29994   */\n      swap3\n      swap2\n      pop\n      pop\n      jump\t// out\n        /* \"#utility.yul\":30000:30393   */\n    tag_412:\n        /* \"#utility.yul\":30069:30075   */\n      0x00\n        /* \"#utility.yul\":30119:30120   */\n      0x08\n        /* \"#utility.yul\":30107:30117   */\n      dup4\n        /* \"#utility.yul\":30103:30121   */\n      mul\n        /* \"#utility.yul\":30142:30239   */\n      tag_681\n        /* \"#utility.yul\":30172:30238   */\n      0xffffffffffffffffffffffffffffffffffffffffffffffffffffffffffffffff\n        /* \"#utility.yul\":30161:30170   */\n      dup3\n        /* \"#utility.yul\":30142:30239   */\n      tag_411\n      jump\t// in\n    tag_681:\n        /* \"#utility.yul\":30260:30299   */\n      tag_682\n        /* \"#utility.yul\":30290:30298   */\n      dup7\n        /* \"#utility.yul\":30279:30288   */\n      dup4\n        /* \"#utility.yul\":30260:30299   */\n      tag_411\n      jump\t// in\n    tag_682:\n        /* \"#utility.yul\":30248:30299   */\n      swap6\n      pop\n        /* \"#utility.yul\":30332:30336   */\n      dup1\n        /* \"#utility.yul\":30328:30337   */\n      not\n        /* \"#utility.yul\":30321:30326   */\n      dup5\n        /* \"#utility.yul\":30317:30338   */\n      and\n        /* \"#utility.yul\":30308:30338   */\n      swap4\n      pop\n        /* \"#utility.yul\":30381:30385   */\n      dup1\n        /* \"#utility.yul\":30371:30379   */\n      dup7\n        /* \"#utility.yul\":30367:30386   */\n      and\n        /* \"#utility.yul\":30360:30365   */\n      dup5\n        /* \"#utility.yul\":30357:30387   */\n      or\n        /* \"#utility.yul\":30347:30387   */\n      swap3\n      pop\n        /* \"#utility.yul\":30076:30393   */\n      pop\n      pop\n        /* \"#utility.yul\":30000:30393   */\n      swap4\n      swap3\n      pop\n      pop\n      pop\n      jump\t// out\n        /* \"#utility.yul\":30399:30459   */\n    tag_413:\n        /* \"#utility.yul\":30427:30430   */\n      0x00\n        /* \"#utility.yul\":30448:30453   */\n      dup2\n        /* \"#utility.yul\":30441:30453   */\n      swap1\n      pop\n        /* \"#utility.yul\":30399:30459   */\n      swap2\n      swap1\n      pop\n      jump\t// out\n        /* \"#utility.yul\":30465:30607   */\n    tag_414:\n        /* \"#utility.yul\":30515:30524   */\n      0x00\n        /* \"#utility.yul\":30548:30601   */\n      tag_685\n        /* \"#utility.yul\":30566:30600   */\n      tag_686\n        /* \"#utility.yul\":30575:30599   */\n      tag_687\n        /* \"#utility.yul\":30593:30598   */\n      dup5\n        /* \"#utility.yul\":30575:30599   */\n      tag_362\n      jump\t// in\n    tag_687:\n        /* \"#utility.yul\":30566:30600   */\n      tag_413\n      jump\t// in\n    tag_686:\n        /* \"#utility.yul\":30548:30601   */\n      tag_362\n      jump\t// in\n    tag_685:\n        /* \"#utility.yul\":30535:30601   */\n      swap1\n      pop\n        /* \"#utility.yul\":30465:30607   */\n      swap2\n      swap1\n      pop\n      jump\t// out\n        /* \"#utility.yul\":30613:30688   */\n    tag_415:\n        /* \"#utility.yul\":30656:30659   */\n      0x00\n        /* \"#utility.yul\":30677:30682   */\n      dup2\n        /* \"#utility.yul\":30670:30682   */\n      swap1\n      pop\n        /* \"#utility.yul\":30613:30688   */\n      swap2\n      swap1\n      pop\n      jump\t// out\n        /* \"#utility.yul\":30694:30963   */\n    tag_416:\n        /* \"#utility.yul\":30804:30843   */\n      tag_690\n        /* \"#utility.yul\":30835:30842   */\n      dup4\n        /* \"#utility.yul\":30804:30843   */\n      tag_414\n      jump\t// in\n    tag_690:\n        /* \"#utility.yul\":30865:30956   */\n      tag_691\n        /* \"#utility.yul\":30914:30955   */\n      tag_692\n        /* \"#utility.yul\":30938:30954   */\n      dup3\n        /* \"#utility.yul\":30914:30955   */\n      tag_415\n      jump\t// in\n    tag_692:\n        /* \"#utility.yul\":30906:30912   */\n      dup5\n        /* \"#utility.yul\":30899:30903   */\n      dup5\n        /* \"#utility.yul\":30893:30904   */\n      sload\n        /* \"#utility.yul\":30865:30956   */\n      tag_412\n      jump\t// in\n    tag_691:\n        /* \"#utility.yul\":30859:30863   */\n      dup3\n        /* \"#utility.yul\":30852:30957   */\n      sstore\n        /* \"#utility.yul\":30770:30963   */\n      pop\n        /* \"#utility.yul\":30694:30963   */\n      pop\n      pop\n      pop\n      jump\t// out\n        /* \"#utility.yul\":30969:31042   */\n    tag_417:\n        /* \"#utility.yul\":31014:31017   */\n      0x00\n        /* \"#utility.yul\":30969:31042   */\n      swap1\n      jump\t// out\n        /* \"#utility.yul\":31048:31237   */\n    tag_418:\n        /* \"#utility.yul\":31125:31157   */\n      tag_695\n      tag_417\n      jump\t// in\n    tag_695:\n        /* \"#utility.yul\":31166:31231   */\n      tag_696\n        /* \"#utility.yul\":31224:31230   */\n      dup2\n        /* \"#utility.yul\":31216:31222   */\n      dup5\n        /* \"#utility.yul\":31210:31214   */\n      dup5\n        /* \"#utility.yul\":31166:31231   */\n      tag_416\n      jump\t// in\n    tag_696:\n        /* \"#utility.yul\":31101:31237   */\n      pop\n        /* \"#utility.yul\":31048:31237   */\n      pop\n      pop\n      jump\t// out\n        /* \"#utility.yul\":31243:31429   */\n    tag_419:\n        /* \"#utility.yul\":31303:31423   */\n    tag_698:\n        /* \"#utility.yul\":31320:31323   */\n      dup2\n        /* \"#utility.yul\":31313:31318   */\n      dup2\n        /* \"#utility.yul\":31310:31324   */\n      lt\n        /* \"#utility.yul\":31303:31423   */\n      iszero\n      tag_700\n      jumpi\n        /* \"#utility.yul\":31374:31413   */\n      tag_701\n        /* \"#utility.yul\":31411:31412   */\n      0x00\n        /* \"#utility.yul\":31404:31409   */\n      dup3\n        /* \"#utility.yul\":31374:31413   */\n      tag_418\n      jump\t// in\n    tag_701:\n        /* \"#utility.yul\":31347:31348   */\n      0x01\n        /* \"#utility.yul\":31340:31345   */\n      dup2\n        /* \"#utility.yul\":31336:31349   */\n      add\n        /* \"#utility.yul\":31327:31349   */\n      swap1\n      pop\n        /* \"#utility.yul\":31303:31423   */\n      jump(tag_698)\n    tag_700:\n        /* \"#utility.yul\":31243:31429   */\n      pop\n      pop\n      jump\t// out\n        /* \"#utility.yul\":31435:31978   */\n    tag_420:\n        /* \"#utility.yul\":31536:31538   */\n      0x1f\n        /* \"#utility.yul\":31531:31534   */\n      dup3\n        /* \"#utility.yul\":31528:31539   */\n      gt\n        /* \"#utility.yul\":31525:31971   */\n      iszero\n      tag_703\n      jumpi\n        /* \"#utility.yul\":31570:31608   */\n      tag_704\n        /* \"#utility.yul\":31602:31607   */\n      dup2\n        /* \"#utility.yul\":31570:31608   */\n      tag_409\n      jump\t// in\n    tag_704:\n        /* \"#utility.yul\":31654:31683   */\n      tag_705\n        /* \"#utility.yul\":31672:31682   */\n      dup5\n        /* \"#utility.yul\":31654:31683   */\n      tag_410\n      jump\t// in\n    tag_705:\n        /* \"#utility.yul\":31644:31652   */\n      dup2\n        /* \"#utility.yul\":31640:31684   */\n      add\n        /* \"#utility.yul\":31837:31839   */\n      0x20\n        /* \"#utility.yul\":31825:31835   */\n      dup6\n        /* \"#utility.yul\":31822:31840   */\n      lt\n        /* \"#utility.yul\":31819:31868   */\n      iszero\n      tag_706\n      jumpi\n        /* \"#utility.yul\":31858:31866   */\n      dup2\n        /* \"#utility.yul\":31843:31866   */\n      swap1\n      pop\n        /* \"#utility.yul\":31819:31868   */\n    tag_706:\n        /* \"#utility.yul\":31881:31961   */\n      tag_707\n        /* \"#utility.yul\":31937:31959   */\n      tag_708\n        /* \"#utility.yul\":31955:31958   */\n      dup6\n        /* \"#utility.yul\":31937:31959   */\n      tag_410\n      jump\t// in\n    tag_708:\n        /* \"#utility.yul\":31927:31935   */\n      dup4\n        /* \"#utility.yul\":31923:31960   */\n      add\n        /* \"#utility.yul\":31910:31921   */\n      dup3\n        /* \"#utility.yul\":31881:31961   */\n      tag_419\n      jump\t// in\n    tag_707:\n        /* \"#utility.yul\":31540:31971   */\n      pop\n      pop\n        /* \"#utility.yul\":31525:31971   */\n    tag_703:\n        /* \"#utility.yul\":31435:31978   */\n      pop\n      pop\n      pop\n      jump\t// out\n        /* \"#utility.yul\":31984:32101   */\n    tag_421:\n        /* \"#utility.yul\":32038:32046   */\n      0x00\n        /* \"#utility.yul\":32088:32093   */\n      dup3\n        /* \"#utility.yul\":32082:32086   */\n      dup3\n        /* \"#utility.yul\":32078:32094   */\n      shr\n        /* \"#utility.yul\":32057:32094   */\n      swap1\n      pop\n        /* \"#utility.yul\":31984:32101   */\n      swap3\n      swap2\n      pop\n      pop\n      jump\t// out\n        /* \"#utility.yul\":32107:32276   */\n    tag_422:\n        /* \"#utility.yul\":32151:32157   */\n      0x00\n        /* \"#utility.yul\":32184:32235   */\n      tag_711\n        /* \"#utility.yul\":32232:32233   */\n      0x00\n        /* \"#utility.yul\":32228:32234   */\n      not\n        /* \"#utility.yul\":32220:32225   */\n      dup5\n        /* \"#utility.yul\":32217:32218   */\n      0x08\n        /* \"#utility.yul\":32213:32226   */\n      mul\n        /* \"#utility.yul\":32184:32235   */\n      tag_421\n      jump\t// in\n    tag_711:\n        /* \"#utility.yul\":32180:32236   */\n      not\n        /* \"#utility.yul\":32265:32269   */\n      dup1\n        /* \"#utility.yul\":32259:32263   */\n      dup4\n        /* \"#utility.yul\":32255:32270   */\n      and\n        /* \"#utility.yul\":32245:32270   */\n      swap2\n      pop\n        /* \"#utility.yul\":32158:32276   */\n      pop\n        /* \"#utility.yul\":32107:32276   */\n      swap3\n      swap2\n      pop\n      pop\n      jump\t// out\n        /* \"#utility.yul\":32281:32576   */\n    tag_423:\n        /* \"#utility.yul\":32357:32361   */\n      0x00\n        /* \"#utility.yul\":32503:32532   */\n      tag_713\n        /* \"#utility.yul\":32528:32531   */\n      dup4\n        /* \"#utility.yul\":32522:32526   */\n      dup4\n        /* \"#utility.yul\":32503:32532   */\n      tag_422\n      jump\t// in\n    tag_713:\n        /* \"#utility.yul\":32495:32532   */\n      swap2\n      pop\n        /* \"#utility.yul\":32565:32568   */\n      dup3\n        /* \"#utility.yul\":32562:32563   */\n      0x02\n        /* \"#utility.yul\":32558:32569   */\n      mul\n        /* \"#utility.yul\":32552:32556   */\n      dup3\n        /* \"#utility.yul\":32549:32570   */\n      or\n        /* \"#utility.yul\":32541:32570   */\n      swap1\n      pop\n        /* \"#utility.yul\":32281:32576   */\n      swap3\n      swap2\n      pop\n      pop\n      jump\t// out\n        /* \"#utility.yul\":32581:33976   */\n    tag_114:\n        /* \"#utility.yul\":32698:32735   */\n      tag_715\n        /* \"#utility.yul\":32731:32734   */\n      dup3\n        /* \"#utility.yul\":32698:32735   */\n      tag_358\n      jump\t// in\n    tag_715:\n        /* \"#utility.yul\":32800:32818   */\n      0xffffffffffffffff\n        /* \"#utility.yul\":32792:32798   */\n      dup2\n        /* \"#utility.yul\":32789:32819   */\n      gt\n        /* \"#utility.yul\":32786:32842   */\n      iszero\n      tag_716\n      jumpi\n        /* \"#utility.yul\":32822:32840   */\n      tag_717\n      tag_124\n      jump\t// in\n    tag_717:\n        /* \"#utility.yul\":32786:32842   */\n    tag_716:\n        /* \"#utility.yul\":32866:32904   */\n      tag_718\n        /* \"#utility.yul\":32898:32902   */\n      dup3\n        /* \"#utility.yul\":32892:32903   */\n      sload\n        /* \"#utility.yul\":32866:32904   */\n      tag_141\n      jump\t// in\n    tag_718:\n        /* \"#utility.yul\":32951:33018   */\n      tag_719\n        /* \"#utility.yul\":33011:33017   */\n      dup3\n        /* \"#utility.yul\":33003:33009   */\n      dup3\n        /* \"#utility.yul\":32997:33001   */\n      dup6\n        /* \"#utility.yul\":32951:33018   */\n      tag_420\n      jump\t// in\n    tag_719:\n        /* \"#utility.yul\":33045:33046   */\n      0x00\n        /* \"#utility.yul\":33069:33073   */\n      0x20\n        /* \"#utility.yul\":33056:33073   */\n      swap1\n      pop\n        /* \"#utility.yul\":33101:33103   */\n      0x1f\n        /* \"#utility.yul\":33093:33099   */\n      dup4\n        /* \"#utility.yul\":33090:33104   */\n      gt\n        /* \"#utility.yul\":33118:33119   */\n      0x01\n        /* \"#utility.yul\":33113:33731   */\n      dup2\n      eq\n      tag_721\n      jumpi\n        /* \"#utility.yul\":33775:33776   */\n      0x00\n        /* \"#utility.yul\":33792:33798   */\n      dup5\n        /* \"#utility.yul\":33789:33866   */\n      iszero\n      tag_722\n      jumpi\n        /* \"#utility.yul\":33841:33850   */\n      dup3\n        /* \"#utility.yul\":33836:33839   */\n      dup8\n        /* \"#utility.yul\":33832:33851   */\n      add\n        /* \"#utility.yul\":33826:33852   */\n      mload\n        /* \"#utility.yul\":33817:33852   */\n      swap1\n      pop\n        /* \"#utility.yul\":33789:33866   */\n    tag_722:\n        /* \"#utility.yul\":33892:33959   */\n      tag_723\n        /* \"#utility.yul\":33952:33958   */\n      dup6\n        /* \"#utility.yul\":33945:33950   */\n      dup3\n        /* \"#utility.yul\":33892:33959   */\n      tag_423\n      jump\t// in\n    tag_723:\n        /* \"#utility.yul\":33886:33890   */\n      dup7\n        /* \"#utility.yul\":33879:33960   */\n      sstore\n        /* \"#utility.yul\":33748:33970   */\n      pop\n        /* \"#utility.yul\":33083:33970   */\n      jump(tag_720)\n        /* \"#utility.yul\":33113:33731   */\n    tag_721:\n        /* \"#utility.yul\":33165:33169   */\n      0x1f\n        /* \"#utility.yul\":33161:33170   */\n      not\n        /* \"#utility.yul\":33153:33159   */\n      dup5\n        /* \"#utility.yul\":33149:33171   */\n      and\n        /* \"#utility.yul\":33199:33236   */\n      tag_724\n        /* \"#utility.yul\":33231:33235   */\n      dup7\n        /* \"#utility.yul\":33199:33236   */\n      tag_409\n      jump\t// in\n    tag_724:\n        /* \"#utility.yul\":33258:33259   */\n      0x00\n        /* \"#utility.yul\":33272:33480   */\n    tag_725:\n        /* \"#utility.yul\":33286:33293   */\n      dup3\n        /* \"#utility.yul\":33283:33284   */\n      dup2\n        /* \"#utility.yul\":33280:33294   */\n      lt\n        /* \"#utility.yul\":33272:33480   */\n      iszero\n      tag_727\n      jumpi\n        /* \"#utility.yul\":33365:33374   */\n      dup5\n        /* \"#utility.yul\":33360:33363   */\n      dup10\n        /* \"#utility.yul\":33356:33375   */\n      add\n        /* \"#utility.yul\":33350:33376   */\n      mload\n        /* \"#utility.yul\":33342:33348   */\n      dup3\n        /* \"#utility.yul\":33335:33377   */\n      sstore\n        /* \"#utility.yul\":33416:33417   */\n      0x01\n        /* \"#utility.yul\":33408:33414   */\n      dup3\n        /* \"#utility.yul\":33404:33418   */\n      add\n        /* \"#utility.yul\":33394:33418   */\n      swap2\n      pop\n        /* \"#utility.yul\":33463:33465   */\n      0x20\n        /* \"#utility.yul\":33452:33461   */\n      dup6\n        /* \"#utility.yul\":33448:33466   */\n      add\n        /* \"#utility.yul\":33435:33466   */\n      swap5\n      pop\n        /* \"#utility.yul\":33309:33313   */\n      0x20\n        /* \"#utility.yul\":33306:33307   */\n      dup2\n        /* \"#utility.yul\":33302:33314   */\n      add\n        /* \"#utility.yul\":33297:33314   */\n      swap1\n      pop\n        /* \"#utility.yul\":33272:33480   */\n      jump(tag_725)\n    tag_727:\n        /* \"#utility.yul\":33508:33514   */\n      dup7\n        /* \"#utility.yul\":33499:33506   */\n      dup4\n        /* \"#utility.yul\":33496:33515   */\n      lt\n        /* \"#utility.yul\":33493:33672   */\n      iszero\n      tag_728\n      jumpi\n        /* \"#utility.yul\":33566:33575   */\n      dup5\n        /* \"#utility.yul\":33561:33564   */\n      dup10\n        /* \"#utility.yul\":33557:33576   */\n      add\n        /* \"#utility.yul\":33551:33577   */\n      mload\n        /* \"#utility.yul\":33609:33657   */\n      tag_729\n        /* \"#utility.yul\":33651:33655   */\n      0x1f\n        /* \"#utility.yul\":33643:33649   */\n      dup10\n        /* \"#utility.yul\":33639:33656   */\n      and\n        /* \"#utility.yul\":33628:33637   */\n      dup3\n        /* \"#utility.yul\":33609:33657   */\n      tag_422\n      jump\t// in\n    tag_729:\n        /* \"#utility.yul\":33601:33607   */\n      dup4\n        /* \"#utility.yul\":33594:33658   */\n      sstore\n        /* \"#utility.yul\":33516:33672   */\n      pop\n        /* \"#utility.yul\":33493:33672   */\n    tag_728:\n        /* \"#utility.yul\":33718:33719   */\n      0x01\n        /* \"#utility.yul\":33714:33715   */\n      0x02\n        /* \"#utility.yul\":33706:33712   */\n      dup9\n        /* \"#utility.yul\":33702:33716   */\n      mul\n        /* \"#utility.yul\":33698:33720   */\n      add\n        /* \"#utility.yul\":33692:33696   */\n      dup9\n        /* \"#utility.yul\":33685:33721   */\n      sstore\n        /* \"#utility.yul\":33120:33731   */\n      pop\n      pop\n      pop\n        /* \"#utility.yul\":33083:33970   */\n    tag_720:\n      pop\n        /* \"#utility.yul\":32673:33976   */\n      pop\n      pop\n      pop\n        /* \"#utility.yul\":32581:33976   */\n      pop\n      pop\n      jump\t// out\n        /* \"#utility.yul\":33982:34496   */\n    tag_120:\n        /* \"#utility.yul\":34143:34147   */\n      0x00\n        /* \"#utility.yul\":34181:34183   */\n      0x40\n        /* \"#utility.yul\":34170:34179   */\n      dup3\n        /* \"#utility.yul\":34166:34184   */\n      add\n        /* \"#utility.yul\":34158:34184   */\n      swap1\n      pop\n        /* \"#utility.yul\":34230:34239   */\n      dup2\n        /* \"#utility.yul\":34224:34228   */\n      dup2\n        /* \"#utility.yul\":34220:34240   */\n      sub\n        /* \"#utility.yul\":34216:34217   */\n      0x00\n        /* \"#utility.yul\":34205:34214   */\n      dup4\n        /* \"#utility.yul\":34201:34218   */\n      add\n        /* \"#utility.yul\":34194:34241   */\n      mstore\n        /* \"#utility.yul\":34258:34336   */\n      tag_731\n        /* \"#utility.yul\":34331:34335   */\n      dup2\n        /* \"#utility.yul\":34322:34328   */\n      dup6\n        /* \"#utility.yul\":34258:34336   */\n      tag_378\n      jump\t// in\n    tag_731:\n        /* \"#utility.yul\":34250:34336   */\n      swap1\n      pop\n        /* \"#utility.yul\":34383:34392   */\n      dup2\n        /* \"#utility.yul\":34377:34381   */\n      dup2\n        /* \"#utility.yul\":34373:34393   */\n      sub\n        /* \"#utility.yul\":34368:34370   */\n      0x20\n        /* \"#utility.yul\":34357:34366   */\n      dup4\n        /* \"#utility.yul\":34353:34371   */\n      add\n        /* \"#utility.yul\":34346:34394   */\n      mstore\n        /* \"#utility.yul\":34411:34489   */\n      tag_732\n        /* \"#utility.yul\":34484:34488   */\n      dup2\n        /* \"#utility.yul\":34475:34481   */\n      dup5\n        /* \"#utility.yul\":34411:34489   */\n      tag_378\n      jump\t// in\n    tag_732:\n        /* \"#utility.yul\":34403:34489   */\n      swap1\n      pop\n        /* \"#utility.yul\":33982:34496   */\n      swap4\n      swap3\n      pop\n      pop\n      pop\n      jump\t// out\n        /* \"#utility.yul\":34502:34682   */\n    tag_138:\n        /* \"#utility.yul\":34550:34627   */\n      0x4e487b7100000000000000000000000000000000000000000000000000000000\n        /* \"#utility.yul\":34547:34548   */\n      0x00\n        /* \"#utility.yul\":34540:34628   */\n      mstore\n        /* \"#utility.yul\":34647:34651   */\n      0x32\n        /* \"#utility.yul\":34644:34645   */\n      0x04\n        /* \"#utility.yul\":34637:34652   */\n      mstore\n        /* \"#utility.yul\":34671:34675   */\n      0x24\n        /* \"#utility.yul\":34668:34669   */\n      0x00\n        /* \"#utility.yul\":34661:34676   */\n      revert\n        /* \"#utility.yul\":34688:34908   */\n    tag_424:\n        /* \"#utility.yul\":34828:34862   */\n      0x4f6e6c792061646d696e2063616e2063616c6c20746869732066756e6374696f\n        /* \"#utility.yul\":34824:34825   */\n      0x00\n        /* \"#utility.yul\":34816:34822   */\n      dup3\n        /* \"#utility.yul\":34812:34826   */\n      add\n        /* \"#utility.yul\":34805:34863   */\n      mstore\n        /* \"#utility.yul\":34897:34900   */\n      0x6e00000000000000000000000000000000000000000000000000000000000000\n        /* \"#utility.yul\":34892:34894   */\n      0x20\n        /* \"#utility.yul\":34884:34890   */\n      dup3\n        /* \"#utility.yul\":34880:34895   */\n      add\n        /* \"#utility.yul\":34873:34901   */\n      mstore\n        /* \"#utility.yul\":34688:34908   */\n      pop\n      jump\t// out\n        /* \"#utility.yul\":34914:35280   */\n    tag_425:\n        /* \"#utility.yul\":35056:35059   */\n      0x00\n        /* \"#utility.yul\":35077:35144   */\n      tag_736\n        /* \"#utility.yul\":35141:35143   */\n      0x21\n        /* \"#utility.yul\":35136:35139   */\n      dup4\n        /* \"#utility.yul\":35077:35144   */\n      tag_377\n      jump\t// in\n    tag_736:\n        /* \"#utility.yul\":35070:35144   */\n      swap2\n      pop\n        /* \"#utility.yul\":35153:35246   */\n      tag_737\n        /* \"#utility.yul\":35242:35245   */\n      dup3\n        /* \"#utility.yul\":35153:35246   */\n      tag_424\n      jump\t// in\n    tag_737:\n        /* \"#utility.yul\":35271:35273   */\n      0x40\n        /* \"#utility.yul\":35266:35269   */\n      dup3\n        /* \"#utility.yul\":35262:35274   */\n      add\n        /* \"#utility.yul\":35255:35274   */\n      swap1\n      pop\n        /* \"#utility.yul\":34914:35280   */\n      swap2\n      swap1\n      pop\n      jump\t// out\n        /* \"#utility.yul\":35286:35705   */\n    tag_183:\n        /* \"#utility.yul\":35452:35456   */\n      0x00\n        /* \"#utility.yul\":35490:35492   */\n      0x20\n        /* \"#utility.yul\":35479:35488   */\n      dup3\n        /* \"#utility.yul\":35475:35493   */\n      add\n        /* \"#utility.yul\":35467:35493   */\n      swap1\n      pop\n        /* \"#utility.yul\":35539:35548   */\n      dup2\n        /* \"#utility.yul\":35533:35537   */\n      dup2\n        /* \"#utility.yul\":35529:35549   */\n      sub\n        /* \"#utility.yul\":35525:35526   */\n      0x00\n        /* \"#utility.yul\":35514:35523   */\n      dup4\n        /* \"#utility.yul\":35510:35527   */\n      add\n        /* \"#utility.yul\":35503:35550   */\n      mstore\n        /* \"#utility.yul\":35567:35698   */\n      tag_739\n        /* \"#utility.yul\":35693:35697   */\n      dup2\n        /* \"#utility.yul\":35567:35698   */\n      tag_425\n      jump\t// in\n    tag_739:\n        /* \"#utility.yul\":35559:35698   */\n      swap1\n      pop\n        /* \"#utility.yul\":35286:35705   */\n      swap2\n      swap1\n      pop\n      jump\t// out\n        /* \"#utility.yul\":35711:35890   */\n    tag_426:\n        /* \"#utility.yul\":35851:35882   */\n      0x436f6d706c61696e7420697320616c7265616479207265736f6c766564000000\n        /* \"#utility.yul\":35847:35848   */\n      0x00\n        /* \"#utility.yul\":35839:35845   */\n      dup3\n        /* \"#utility.yul\":35835:35849   */\n      add\n        /* \"#utility.yul\":35828:35883   */\n      mstore\n        /* \"#utility.yul\":35711:35890   */\n      pop\n      jump\t// out\n        /* \"#utility.yul\":35896:36262   */\n    tag_427:\n        /* \"#utility.yul\":36038:36041   */\n      0x00\n        /* \"#utility.yul\":36059:36126   */\n      tag_742\n        /* \"#utility.yul\":36123:36125   */\n      0x1d\n        /* \"#utility.yul\":36118:36121   */\n      dup4\n        /* \"#utility.yul\":36059:36126   */\n      tag_377\n      jump\t// in\n    tag_742:\n        /* \"#utility.yul\":36052:36126   */\n      swap2\n      pop\n        /* \"#utility.yul\":36135:36228   */\n      tag_743\n        /* \"#utility.yul\":36224:36227   */\n      dup3\n        /* \"#utility.yul\":36135:36228   */\n      tag_426\n      jump\t// in\n    tag_743:\n        /* \"#utility.yul\":36253:36255   */\n      0x20\n        /* \"#utility.yul\":36248:36251   */\n      dup3\n        /* \"#utility.yul\":36244:36256   */\n      add\n        /* \"#utility.yul\":36237:36256   */\n      swap1\n      pop\n        /* \"#utility.yul\":35896:36262   */\n      swap2\n      swap1\n      pop\n      jump\t// out\n        /* \"#utility.yul\":36268:36687   */\n    tag_191:\n        /* \"#utility.yul\":36434:36438   */\n      0x00\n        /* \"#utility.yul\":36472:36474   */\n      0x20\n        /* \"#utility.yul\":36461:36470   */\n      dup3\n        /* \"#utility.yul\":36457:36475   */\n      add\n        /* \"#utility.yul\":36449:36475   */\n      swap1\n      pop\n        /* \"#utility.yul\":36521:36530   */\n      dup2\n        /* \"#utility.yul\":36515:36519   */\n      dup2\n        /* \"#utility.yul\":36511:36531   */\n      sub\n        /* \"#utility.yul\":36507:36508   */\n      0x00\n        /* \"#utility.yul\":36496:36505   */\n      dup4\n        /* \"#utility.yul\":36492:36509   */\n      add\n        /* \"#utility.yul\":36485:36532   */\n      mstore\n        /* \"#utility.yul\":36549:36680   */\n      tag_745\n        /* \"#utility.yul\":36675:36679   */\n      dup2\n        /* \"#utility.yul\":36549:36680   */\n      tag_427\n      jump\t// in\n    tag_745:\n        /* \"#utility.yul\":36541:36680   */\n      swap1\n      pop\n        /* \"#utility.yul\":36268:36687   */\n      swap2\n      swap1\n      pop\n      jump\t// out\n        /* \"#utility.yul\":36693:37006   */\n    tag_195:\n        /* \"#utility.yul\":36806:36810   */\n      0x00\n        /* \"#utility.yul\":36844:36846   */\n      0x20\n        /* \"#utility.yul\":36833:36842   */\n      dup3\n        /* \"#utility.yul\":36829:36847   */\n      add\n        /* \"#utility.yul\":36821:36847   */\n      swap1\n      pop\n        /* \"#utility.yul\":36893:36902   */\n      dup2\n        /* \"#utility.yul\":36887:36891   */\n      dup2\n        /* \"#utility.yul\":36883:36903   */\n      sub\n        /* \"#utility.yul\":36879:36880   */\n      0x00\n        /* \"#utility.yul\":36868:36877   */\n      dup4\n        /* \"#utility.yul\":36864:36881   */\n      add\n        /* \"#utility.yul\":36857:36904   */\n      mstore\n        /* \"#utility.yul\":36921:36999   */\n      tag_747\n        /* \"#utility.yul\":36994:36998   */\n      dup2\n        /* \"#utility.yul\":36985:36991   */\n      dup5\n        /* \"#utility.yul\":36921:36999   */\n      tag_378\n      jump\t// in\n    tag_747:\n        /* \"#utility.yul\":36913:36999   */\n      swap1\n      pop\n        /* \"#utility.yul\":36693:37006   */\n      swap3\n      swap2\n      pop\n      pop\n      jump\t// out\n        /* \"#utility.yul\":37012:37358   */\n    tag_317:\n        /* \"#utility.yul\":37140:37144   */\n      0x00\n        /* \"#utility.yul\":37178:37180   */\n      0x40\n        /* \"#utility.yul\":37167:37176   */\n      dup3\n        /* \"#utility.yul\":37163:37181   */\n      add\n        /* \"#utility.yul\":37155:37181   */\n      swap1\n      pop\n        /* \"#utility.yul\":37191:37269   */\n      tag_749\n        /* \"#utility.yul\":37266:37267   */\n      0x00\n        /* \"#utility.yul\":37255:37264   */\n      dup4\n        /* \"#utility.yul\":37251:37268   */\n      add\n        /* \"#utility.yul\":37242:37248   */\n      dup6\n        /* \"#utility.yul\":37191:37269   */\n      tag_392\n      jump\t// in\n    tag_749:\n        /* \"#utility.yul\":37279:37351   */\n      tag_750\n        /* \"#utility.yul\":37347:37349   */\n      0x20\n        /* \"#utility.yul\":37336:37345   */\n      dup4\n        /* \"#utility.yul\":37332:37350   */\n      add\n        /* \"#utility.yul\":37323:37329   */\n      dup5\n        /* \"#utility.yul\":37279:37351   */\n      tag_379\n      jump\t// in\n    tag_750:\n        /* \"#utility.yul\":37012:37358   */\n      swap4\n      swap3\n      pop\n      pop\n      pop\n      jump\t// out\n\n    auxdata: 0xa26469706673582212206905557c40689a906e5fd413ee74c951ca4086c130863dc6f29a7433d97a880864736f6c63430008140033\n}\n","bytecode":{"linkReferences":{},"object":"608060405234801561000f575f80fd5b5061307b8061001d5f395ff3fe608060405234801561000f575f80fd5b5060043610610114575f3560e01c80634d3820eb116100a05780637e69e9121161006f5780637e69e912146102e0578063a9a9ddf114610315578063d395fc0414610345578063deb514ff14610375578063f7ddd7a41461039157610114565b80634d3820eb1461027e5780634eaf9db6146102885780635ab6f71b146102ba5780636d7196eb146102c457610114565b806324d7806c116100e757806324d7806c146101c657806326019e7f146101f65780632edea294146102125780633ae7db25146102305780634209fff11461024e57610114565b80630da3f37e14610118578063152e1e3214610134578063168f7a4b14610164578063204f257c14610194575b5f80fd5b610132600480360381019061012d91906120b4565b6103c1565b005b61014e600480360381019061014991906121b2565b61064c565b60405161015b9190612386565b60405180910390f35b61017e600480360381019061017991906123d0565b6108c0565b60405161018b919061253c565b60405180910390f35b6101ae60048036038101906101a9919061255c565b610b50565b6040516101bd93929190612600565b60405180910390f35b6101e060048036038101906101db91906121b2565b610c35565b6040516101ed9190612656565b60405180910390f35b610210600480360381019061020b919061266f565b610c51565b005b61021a610de3565b60405161022791906126c9565b60405180910390f35b610238610de9565b604051610245919061282a565b60405180910390f35b610268600480360381019061026391906121b2565b6111de565b6040516102759190612656565b60405180910390f35b6102866111fb565b005b6102a2600480360381019061029d919061255c565b611294565b6040516102b193929190612890565b60405180910390f35b6102c26112ff565b005b6102de60048036038101906102d991906123d0565b611398565b005b6102fa60048036038101906102f591906123d0565b6113a6565b60405161030c96959493929190612915565b60405180910390f35b61032f600480360381019061032a91906123d0565b6115b8565b60405161033c9190612a79565b60405180910390f35b61035f600480360381019061035a91906121b2565b6116bd565b60405161036c919061282a565b60405180910390f35b61038f600480360381019061038a919061266f565b611aea565b005b6103ab60048036038101906103a691906123d0565b611c0e565b6040516103b89190612386565b60405180910390f35b60015f3373ffffffffffffffffffffffffffffffffffffffff1673ffffffffffffffffffffffffffffffffffffffff1681526020019081526020015f205f9054906101000a900460ff1661044a576040517f08c379a000000000000000000000000000000000000000000000000000000000815260040161044190612ae3565b60405180910390fd5b5f83511161048d576040517f08c379a000000000000000000000000000000000000000000000000000000000815260040161048490612b4b565b60405180910390fd5b5f60055f8154809291906104a090612b96565b9190505590506040518060c001604052808281526020013373ffffffffffffffffffffffffffffffffffffffff1681526020018481526020015f60018111156104ec576104eb6123fb565b5b815260200160405180604001604052808781526020018581525081526020014281525060025f8381526020019081526020015f205f820151815f01556020820151816001015f6101000a81548173ffffffffffffffffffffffffffffffffffffffff021916908373ffffffffffffffffffffffffffffffffffffffff16021790555060408201518160020190816105839190612dd7565b506060820151816003015f6101000a81548160ff021916908360018111156105ae576105ad6123fb565b5b02179055506080820151816004015f820151815f0190816105cf9190612dd7565b5060208201518160010190816105e59190612dd7565b50505060a082015181600601559050503373ffffffffffffffffffffffffffffffffffffffff16817fb538e4e93715cf36354d0368248193865bc355a0b9906e40e3eeb2298af70869868660405161063e929190612ea6565b60405180910390a350505050565b60605f60055467ffffffffffffffff81111561066b5761066a611f90565b5b6040519080825280602002602001820160405280156106a457816020015b610691611eb8565b8152602001906001900390816106895790505b5090505f805b6005548110156108b2578473ffffffffffffffffffffffffffffffffffffffff1660025f8381526020019081526020015f206001015f9054906101000a900473ffffffffffffffffffffffffffffffffffffffff1673ffffffffffffffffffffffffffffffffffffffff160361089f575f5b60045f8381526020019081526020015f208054905081101561089d5760045f8381526020019081526020015f20818154811061075b5761075a612edb565b5b905f5260205f2090600302016040518060600160405290815f82015f9054906101000a900473ffffffffffffffffffffffffffffffffffffffff1673ffffffffffffffffffffffffffffffffffffffff1673ffffffffffffffffffffffffffffffffffffffff1681526020016001820180546107d690612c0a565b80601f016020809104026020016040519081016040528092919081815260200182805461080290612c0a565b801561084d5780601f106108245761010080835404028352916020019161084d565b820191905f5260205f20905b81548152906001019060200180831161083057829003601f168201915b5050505050815260200160028201548152505084848061086c90612b96565b95508151811061087f5761087e612edb565b5b6020026020010181905250808061089590612b96565b91505061071c565b505b80806108aa90612b96565b9150506106aa565b508082528192505050919050565b6108c8611eed565b60025f8381526020019081526020015f206040518060c00160405290815f8201548152602001600182015f9054906101000a900473ffffffffffffffffffffffffffffffffffffffff1673ffffffffffffffffffffffffffffffffffffffff1673ffffffffffffffffffffffffffffffffffffffff16815260200160028201805461095290612c0a565b80601f016020809104026020016040519081016040528092919081815260200182805461097e90612c0a565b80156109c95780601f106109a0576101008083540402835291602001916109c9565b820191905f5260205f20905b8154815290600101906020018083116109ac57829003601f168201915b50505050508152602001600382015f9054906101000a900460ff1660018111156109f6576109f56123fb565b5b6001811115610a0857610a076123fb565b5b8152602001600482016040518060400160405290815f82018054610a2b90612c0a565b80601f0160208091040260200160405190810160405280929190818152602001828054610a5790612c0a565b8015610aa25780601f10610a7957610100808354040283529160200191610aa2565b820191905f5260205f20905b815481529060010190602001808311610a8557829003601f168201915b50505050508152602001600182018054610abb90612c0a565b80601f0160208091040260200160405190810160405280929190818152602001828054610ae790612c0a565b8015610b325780601f10610b0957610100808354040283529160200191610b32565b820191905f5260205f20905b815481529060010190602001808311610b1557829003601f168201915b50505050508152505081526020016006820154815250509050919050565b6004602052815f5260405f208181548110610b69575f80fd5b905f5260205f2090600302015f9150915050805f015f9054906101000a900473ffffffffffffffffffffffffffffffffffffffff1690806001018054610bae90612c0a565b80601f0160208091040260200160405190810160405280929190818152602001828054610bda90612c0a565b8015610c255780601f10610bfc57610100808354040283529160200191610c25565b820191905f5260205f20905b815481529060010190602001808311610c0857829003601f168201915b5050505050908060020154905083565b5f602052805f5260405f205f915054906101000a900460ff1681565b5f803373ffffffffffffffffffffffffffffffffffffffff1673ffffffffffffffffffffffffffffffffffffffff1681526020019081526020015f205f9054906101000a900460ff16610cd9576040517f08c379a0000000000000000000000000000000000000000000000000000000008152600401610cd090612f78565b60405180910390fd5b5f6001811115610cec57610ceb6123fb565b5b60025f8481526020019081526020015f206003015f9054906101000a900460ff166001811115610d1f57610d1e6123fb565b5b14610d5f576040517f08c379a0000000000000000000000000000000000000000000000000000000008152600401610d5690612fe0565b60405180910390fd5b600160025f8481526020019081526020015f206003015f6101000a81548160ff02191690836001811115610d9657610d956123fb565b5b0217905550817fa0e3a0a30e4ae091855116dfb1b3a775ab1b158763b0a44710be60283214ca7382604051610dcb9190612ffe565b60405180910390a2610ddf82336001611d69565b5050565b60055481565b60605f805b600554811015610e65575f6001811115610e0b57610e0a6123fb565b5b60025f8381526020019081526020015f206003015f9054906101000a900460ff166001811115610e3e57610e3d6123fb565b5b03610e52578180610e4e90612b96565b9250505b8080610e5d90612b96565b915050610dee565b505f8167ffffffffffffffff811115610e8157610e80611f90565b5b604051908082528060200260200182016040528015610eba57816020015b610ea7611eed565b815260200190600190039081610e9f5790505b5090505f805b6005548110156111d4575f6001811115610edd57610edc6123fb565b5b60025f8381526020019081526020015f206003015f9054906101000a900460ff166001811115610f1057610f0f6123fb565b5b036111c15760025f8281526020019081526020015f206040518060c00160405290815f8201548152602001600182015f9054906101000a900473ffffffffffffffffffffffffffffffffffffffff1673ffffffffffffffffffffffffffffffffffffffff1673ffffffffffffffffffffffffffffffffffffffff168152602001600282018054610f9f90612c0a565b80601f0160208091040260200160405190810160405280929190818152602001828054610fcb90612c0a565b80156110165780601f10610fed57610100808354040283529160200191611016565b820191905f5260205f20905b815481529060010190602001808311610ff957829003601f168201915b50505050508152602001600382015f9054906101000a900460ff166001811115611043576110426123fb565b5b6001811115611055576110546123fb565b5b8152602001600482016040518060400160405290815f8201805461107890612c0a565b80601f01602080910402602001604051908101604052809291908181526020018280546110a490612c0a565b80156110ef5780601f106110c6576101008083540402835291602001916110ef565b820191905f5260205f20905b8154815290600101906020018083116110d257829003601f168201915b5050505050815260200160018201805461110890612c0a565b80601f016020809104026020016040519081016040528092919081815260200182805461113490612c0a565b801561117f5780601f106111565761010080835404028352916020019161117f565b820191905f5260205f20905b81548152906001019060200180831161116257829003601f168201915b50505050508152505081526020016006820154815250508383806111a290612b96565b9450815181106111b5576111b4612edb565b5b60200260200101819052505b80806111cc90612b96565b915050610ec0565b5081935050505090565b6001602052805f5260405f205f915054906101000a900460ff1681565b6001805f3373ffffffffffffffffffffffffffffffffffffffff1673ffffffffffffffffffffffffffffffffffffffff1681526020019081526020015f205f6101000a81548160ff0219169083151502179055503373ffffffffffffffffffffffffffffffffffffffff167f54db7a5cb4735e1aac1f53db512d3390390bb6637bd30ad4bf9fc98667d9b9b960405160405180910390a2565b6003602052815f5260405f2081815481106112ad575f80fd5b905f5260205f2090600202015f9150915050805f015f9054906101000a900473ffffffffffffffffffffffffffffffffffffffff1690805f0160149054906101000a900460ff16908060010154905083565b60015f803373ffffffffffffffffffffffffffffffffffffffff1673ffffffffffffffffffffffffffffffffffffffff1681526020019081526020015f205f6101000a81548160ff0219169083151502179055503373ffffffffffffffffffffffffffffffffffffffff167fac0f15283d37631c15b481bc07dc402bcfc030956bcd94b5585f71d92e84c3da60405160405180910390a2565b6113a381335f611d69565b50565b6002602052805f5260405f205f91509050805f015490806001015f9054906101000a900473ffffffffffffffffffffffffffffffffffffffff16908060020180546113f090612c0a565b80601f016020809104026020016040519081016040528092919081815260200182805461141c90612c0a565b80156114675780601f1061143e57610100808354040283529160200191611467565b820191905f5260205f20905b81548152906001019060200180831161144a57829003601f168201915b505050505090806003015f9054906101000a900460ff1690806004016040518060400160405290815f8201805461149d90612c0a565b80601f01602080910402602001604051908101604052809291908181526020018280546114c990612c0a565b80156115145780601f106114eb57610100808354040283529160200191611514565b820191905f5260205f20905b8154815290600101906020018083116114f757829003601f168201915b5050505050815260200160018201805461152d90612c0a565b80601f016020809104026020016040519081016040528092919081815260200182805461155990612c0a565b80156115a45780601f1061157b576101008083540402835291602001916115a4565b820191905f5260205f20905b81548152906001019060200180831161158757829003601f168201915b505050505081525050908060060154905086565b606060035f8381526020019081526020015f20805480602002602001604051908101604052809291908181526020015f905b828210156116b2578382905f5260205f2090600202016040518060600160405290815f82015f9054906101000a900473ffffffffffffffffffffffffffffffffffffffff1673ffffffffffffffffffffffffffffffffffffffff1673ffffffffffffffffffffffffffffffffffffffff1681526020015f820160149054906101000a900460ff166002811115611683576116826123fb565b5b6002811115611695576116946123fb565b5b8152602001600182015481525050815260200190600101906115ea565b505050509050919050565b60605f805b600554811015611754578373ffffffffffffffffffffffffffffffffffffffff1660025f8381526020019081526020015f206001015f9054906101000a900473ffffffffffffffffffffffffffffffffffffffff1673ffffffffffffffffffffffffffffffffffffffff160361174157818061173d90612b96565b9250505b808061174c90612b96565b9150506116c2565b505f8167ffffffffffffffff8111156117705761176f611f90565b5b6040519080825280602002602001820160405280156117a957816020015b611796611eed565b81526020019060019003908161178e5790505b5090505f805b600554811015611ade578573ffffffffffffffffffffffffffffffffffffffff1660025f8381526020019081526020015f206001015f9054906101000a900473ffffffffffffffffffffffffffffffffffffffff1673ffffffffffffffffffffffffffffffffffffffff1603611acb5760025f8281526020019081526020015f206040518060c00160405290815f8201548152602001600182015f9054906101000a900473ffffffffffffffffffffffffffffffffffffffff1673ffffffffffffffffffffffffffffffffffffffff1673ffffffffffffffffffffffffffffffffffffffff1681526020016002820180546118a990612c0a565b80601f01602080910402602001604051908101604052809291908181526020018280546118d590612c0a565b80156119205780601f106118f757610100808354040283529160200191611920565b820191905f5260205f20905b81548152906001019060200180831161190357829003601f168201915b50505050508152602001600382015f9054906101000a900460ff16600181111561194d5761194c6123fb565b5b600181111561195f5761195e6123fb565b5b8152602001600482016040518060400160405290815f8201805461198290612c0a565b80601f01602080910402602001604051908101604052809291908181526020018280546119ae90612c0a565b80156119f95780601f106119d0576101008083540402835291602001916119f9565b820191905f5260205f20905b8154815290600101906020018083116119dc57829003601f168201915b50505050508152602001600182018054611a1290612c0a565b80601f0160208091040260200160405190810160405280929190818152602001828054611a3e90612c0a565b8015611a895780601f10611a6057610100808354040283529160200191611a89565b820191905f5260205f20905b815481529060010190602001808311611a6c57829003601f168201915b5050505050815250508152602001600682015481525050838380611aac90612b96565b945081518110611abf57611abe612edb565b5b60200260200101819052505b8080611ad690612b96565b9150506117af565b50819350505050919050565b60045f8381526020019081526020015f2060405180606001604052803373ffffffffffffffffffffffffffffffffffffffff16815260200183815260200142815250908060018154018082558091505060019003905f5260205f2090600302015f909190919091505f820151815f015f6101000a81548173ffffffffffffffffffffffffffffffffffffffff021916908373ffffffffffffffffffffffffffffffffffffffff1602179055506020820151816001019081611bab9190612dd7565b506040820151816002015550503373ffffffffffffffffffffffffffffffffffffffff16827f5fde78e53658418a994f35a31fbb22a8ce49370b8678f1663a93e196b8e8896e600242604051611c0292919061301e565b60405180910390a35050565b606060045f8381526020019081526020015f20805480602002602001604051908101604052809291908181526020015f905b82821015611d5e578382905f5260205f2090600302016040518060600160405290815f82015f9054906101000a900473ffffffffffffffffffffffffffffffffffffffff1673ffffffffffffffffffffffffffffffffffffffff1673ffffffffffffffffffffffffffffffffffffffff168152602001600182018054611cc590612c0a565b80601f0160208091040260200160405190810160405280929190818152602001828054611cf190612c0a565b8015611d3c5780601f10611d1357610100808354040283529160200191611d3c565b820191905f5260205f20905b815481529060010190602001808311611d1f57829003601f168201915b5050505050815260200160028201548152505081526020019060010190611c40565b505050509050919050565b60035f8481526020019081526020015f2060405180606001604052808473ffffffffffffffffffffffffffffffffffffffff168152602001836002811115611db457611db36123fb565b5b815260200142815250908060018154018082558091505060019003905f5260205f2090600202015f909190919091505f820151815f015f6101000a81548173ffffffffffffffffffffffffffffffffffffffff021916908373ffffffffffffffffffffffffffffffffffffffff1602179055506020820151815f0160146101000a81548160ff02191690836002811115611e5157611e506123fb565b5b02179055506040820151816001015550508173ffffffffffffffffffffffffffffffffffffffff16837f5fde78e53658418a994f35a31fbb22a8ce49370b8678f1663a93e196b8e8896e8342604051611eab92919061301e565b60405180910390a3505050565b60405180606001604052805f73ffffffffffffffffffffffffffffffffffffffff168152602001606081526020015f81525090565b6040518060c001604052805f81526020015f73ffffffffffffffffffffffffffffffffffffffff168152602001606081526020015f6001811115611f3457611f336123fb565b5b8152602001611f41611f4d565b81526020015f81525090565b604051806040016040528060608152602001606081525090565b5f604051905090565b5f80fd5b5f80fd5b5f80fd5b5f80fd5b5f601f19601f8301169050919050565b7f4e487b71000000000000000000000000000000000000000000000000000000005f52604160045260245ffd5b611fc682611f80565b810181811067ffffffffffffffff82111715611fe557611fe4611f90565b5b80604052505050565b5f611ff7611f67565b90506120038282611fbd565b919050565b5f67ffffffffffffffff82111561202257612021611f90565b5b61202b82611f80565b9050602081019050919050565b828183375f83830152505050565b5f61205861205384612008565b611fee565b90508281526020810184848401111561207457612073611f7c565b5b61207f848285612038565b509392505050565b5f82601f83011261209b5761209a611f78565b5b81356120ab848260208601612046565b91505092915050565b5f805f606084860312156120cb576120ca611f70565b5b5f84013567ffffffffffffffff8111156120e8576120e7611f74565b5b6120f486828701612087565b935050602084013567ffffffffffffffff81111561211557612114611f74565b5b61212186828701612087565b925050604084013567ffffffffffffffff81111561214257612141611f74565b5b61214e86828701612087565b9150509250925092565b5f73ffffffffffffffffffffffffffffffffffffffff82169050919050565b5f61218182612158565b9050919050565b61219181612177565b811461219b575f80fd5b50565b5f813590506121ac81612188565b92915050565b5f602082840312156121c7576121c6611f70565b5b5f6121d48482850161219e565b91505092915050565b5f81519050919050565b5f82825260208201905092915050565b5f819050602082019050919050565b61220f81612177565b82525050565b5f81519050919050565b5f82825260208201905092915050565b5f5b8381101561224c578082015181840152602081019050612231565b5f8484015250505050565b5f61226182612215565b61226b818561221f565b935061227b81856020860161222f565b61228481611f80565b840191505092915050565b5f819050919050565b6122a18161228f565b82525050565b5f606083015f8301516122bc5f860182612206565b50602083015184820360208601526122d48282612257565b91505060408301516122e96040860182612298565b508091505092915050565b5f6122ff83836122a7565b905092915050565b5f602082019050919050565b5f61231d826121dd565b61232781856121e7565b935083602082028501612339856121f7565b805f5b85811015612374578484038952815161235585826122f4565b945061236083612307565b925060208a0199505060018101905061233c565b50829750879550505050505092915050565b5f6020820190508181035f83015261239e8184612313565b905092915050565b6123af8161228f565b81146123b9575f80fd5b50565b5f813590506123ca816123a6565b92915050565b5f602082840312156123e5576123e4611f70565b5b5f6123f2848285016123bc565b91505092915050565b7f4e487b71000000000000000000000000000000000000000000000000000000005f52602160045260245ffd5b60028110612439576124386123fb565b5b50565b5f81905061244982612428565b919050565b5f6124588261243c565b9050919050565b6124688161244e565b82525050565b5f604083015f8301518482035f8601526124888282612257565b915050602083015184820360208601526124a28282612257565b9150508091505092915050565b5f60c083015f8301516124c45f860182612298565b5060208301516124d76020860182612206565b50604083015184820360408601526124ef8282612257565b9150506060830151612504606086018261245f565b506080830151848203608086015261251c828261246e565b91505060a083015161253160a0860182612298565b508091505092915050565b5f6020820190508181035f83015261255481846124af565b905092915050565b5f806040838503121561257257612571611f70565b5b5f61257f858286016123bc565b9250506020612590858286016123bc565b9150509250929050565b6125a381612177565b82525050565b5f82825260208201905092915050565b5f6125c382612215565b6125cd81856125a9565b93506125dd81856020860161222f565b6125e681611f80565b840191505092915050565b6125fa8161228f565b82525050565b5f6060820190506126135f83018661259a565b818103602083015261262581856125b9565b905061263460408301846125f1565b949350505050565b5f8115159050919050565b6126508161263c565b82525050565b5f6020820190506126695f830184612647565b92915050565b5f806040838503121561268557612684611f70565b5b5f612692858286016123bc565b925050602083013567ffffffffffffffff8111156126b3576126b2611f74565b5b6126bf85828601612087565b9150509250929050565b5f6020820190506126dc5f8301846125f1565b92915050565b5f81519050919050565b5f82825260208201905092915050565b5f819050602082019050919050565b5f60c083015f8301516127205f860182612298565b5060208301516127336020860182612206565b506040830151848203604086015261274b8282612257565b9150506060830151612760606086018261245f565b5060808301518482036080860152612778828261246e565b91505060a083015161278d60a0860182612298565b508091505092915050565b5f6127a3838361270b565b905092915050565b5f602082019050919050565b5f6127c1826126e2565b6127cb81856126ec565b9350836020820285016127dd856126fc565b805f5b8581101561281857848403895281516127f98582612798565b9450612804836127ab565b925060208a019950506001810190506127e0565b50829750879550505050505092915050565b5f6020820190508181035f83015261284281846127b7565b905092915050565b6003811061285b5761285a6123fb565b5b50565b5f81905061286b8261284a565b919050565b5f61287a8261285e565b9050919050565b61288a81612870565b82525050565b5f6060820190506128a35f83018661259a565b6128b06020830185612881565b6128bd60408301846125f1565b949350505050565b6128ce8161244e565b82525050565b5f604083015f8301518482035f8601526128ee8282612257565b915050602083015184820360208601526129088282612257565b9150508091505092915050565b5f60c0820190506129285f8301896125f1565b612935602083018861259a565b818103604083015261294781876125b9565b905061295660608301866128c5565b818103608083015261296881856128d4565b905061297760a08301846125f1565b979650505050505050565b5f81519050919050565b5f82825260208201905092915050565b5f819050602082019050919050565b6129b481612870565b82525050565b606082015f8201516129ce5f850182612206565b5060208201516129e160208501826129ab565b5060408201516129f46040850182612298565b50505050565b5f612a0583836129ba565b60608301905092915050565b5f602082019050919050565b5f612a2782612982565b612a31818561298c565b9350612a3c8361299c565b805f5b83811015612a6c578151612a5388826129fa565b9750612a5e83612a11565b925050600181019050612a3f565b5085935050505092915050565b5f6020820190508181035f830152612a918184612a1d565b905092915050565b7f4f6e6c7920757365722063616e2063616c6c20746869732066756e6374696f6e5f82015250565b5f612acd6020836125a9565b9150612ad882612a99565b602082019050919050565b5f6020820190508181035f830152612afa81612ac1565b9050919050565b7f4e6f2066696c652070726f7669646564000000000000000000000000000000005f82015250565b5f612b356010836125a9565b9150612b4082612b01565b602082019050919050565b5f6020820190508181035f830152612b6281612b29565b9050919050565b7f4e487b71000000000000000000000000000000000000000000000000000000005f52601160045260245ffd5b5f612ba08261228f565b91507fffffffffffffffffffffffffffffffffffffffffffffffffffffffffffffffff8203612bd257612bd1612b69565b5b600182019050919050565b7f4e487b71000000000000000000000000000000000000000000000000000000005f52602260045260245ffd5b5f6002820490506001821680612c2157607f821691505b602082108103612c3457612c33612bdd565b5b50919050565b5f819050815f5260205f209050919050565b5f6020601f8301049050919050565b5f82821b905092915050565b5f60088302612c967fffffffffffffffffffffffffffffffffffffffffffffffffffffffffffffffff82612c5b565b612ca08683612c5b565b95508019841693508086168417925050509392505050565b5f819050919050565b5f612cdb612cd6612cd18461228f565b612cb8565b61228f565b9050919050565b5f819050919050565b612cf483612cc1565b612d08612d0082612ce2565b848454612c67565b825550505050565b5f90565b612d1c612d10565b612d27818484612ceb565b505050565b5b81811015612d4a57612d3f5f82612d14565b600181019050612d2d565b5050565b601f821115612d8f57612d6081612c3a565b612d6984612c4c565b81016020851015612d78578190505b612d8c612d8485612c4c565b830182612d2c565b50505b505050565b5f82821c905092915050565b5f612daf5f1984600802612d94565b1980831691505092915050565b5f612dc78383612da0565b9150826002028217905092915050565b612de082612215565b67ffffffffffffffff811115612df957612df8611f90565b5b612e038254612c0a565b612e0e828285612d4e565b5f60209050601f831160018114612e3f575f8415612e2d578287015190505b612e378582612dbc565b865550612e9e565b601f198416612e4d86612c3a565b5f5b82811015612e7457848901518255600182019150602085019450602081019050612e4f565b86831015612e915784890151612e8d601f891682612da0565b8355505b6001600288020188555050505b505050505050565b5f6040820190508181035f830152612ebe81856125b9565b90508181036020830152612ed281846125b9565b90509392505050565b7f4e487b71000000000000000000000000000000000000000000000000000000005f52603260045260245ffd5b7f4f6e6c792061646d696e2063616e2063616c6c20746869732066756e6374696f5f8201527f6e00000000000000000000000000000000000000000000000000000000000000602082015250565b5f612f626021836125a9565b9150612f6d82612f08565b604082019050919050565b5f6020820190508181035f830152612f8f81612f56565b9050919050565b7f436f6d706c61696e7420697320616c7265616479207265736f6c7665640000005f82015250565b5f612fca601d836125a9565b9150612fd582612f96565b602082019050919050565b5f6020820190508181035f830152612ff781612fbe565b9050919050565b5f6020820190508181035f83015261301681846125b9565b905092915050565b5f6040820190506130315f830185612881565b61303e60208301846125f1565b939250505056fea26469706673582212206905557c40689a906e5fd413ee74c951ca4086c130863dc6f29a7433d97a880864736f6c63430008140033","opcodes":"PUSH1 0x80 PUSH1 0x40 MSTORE CALLVALUE DUP1 ISZERO PUSH2 0xF JUMPI PUSH0 DUP1 REVERT JUMPDEST POP PUSH2 0x307B DUP1 PUSH2 0x1D PUSH0 CODECOPY PUSH0 RETURN INVALID PUSH1 0x80 PUSH1 0x40 MSTORE CALLVALUE DUP1 ISZERO PUSH2 0xF JUMPI PUSH0 DUP1 REVERT JUMPDEST POP PUSH1 0x4 CALLDATASIZE LT PUSH2 0x114 JUMPI PUSH0 CALLDATALOAD PUSH1 0xE0 SHR DUP1 PUSH4 0x4D3820EB GT PUSH2 0xA0 JUMPI DUP1 PUSH4 0x7E69E912 GT PUSH2 0x6F JUMPI DUP1 PUSH4 0x7E69E912 EQ PUSH2 0x2E0 JUMPI DUP1 PUSH4 0xA9A9DDF1 EQ PUSH2 0x315 JUMPI DUP1 PUSH4 0xD395FC04 EQ PUSH2 0x345 JUMPI DUP1 PUSH4 0xDEB514FF EQ PUSH2 0x375 JUMPI DUP1 PUSH4 0xF7DDD7A4 EQ PUSH2 0x391 JUMPI PUSH2 0x114 JUMP JUMPDEST DUP1 PUSH4 0x4D3820EB EQ PUSH2 0x27E JUMPI DUP1 PUSH4 0x4EAF9DB6 EQ PUSH2 0x288 JUMPI DUP1 PUSH4 0x5AB6F71B EQ PUSH2 0x2BA JUMPI DUP1 PUSH4 0x6D7196EB EQ PUSH2 0x2C4 JUMPI PUSH2 0x114 JUMP JUMPDEST DUP1 PUSH4 0x24D7806C GT PUSH2 0xE7 JUMPI DUP1 PUSH4 0x24D7806C EQ PUSH2 0x1C6 JUMPI DUP1 PUSH4 0x26019E7F EQ PUSH2 0x1F6 JUMPI DUP1 PUSH4 0x2EDEA294 EQ PUSH2 0x212 JUMPI DUP1 PUSH4 0x3AE7DB25 EQ PUSH2 0x230 JUMPI DUP1 PUSH4 0x4209FFF1 EQ PUSH2 0x24E JUMPI PUSH2 0x114 JUMP JUMPDEST DUP1 PUSH4 0xDA3F37E EQ PUSH2 0x118 JUMPI DUP1 PUSH4 0x152E1E32 EQ PUSH2 0x134 JUMPI DUP1 PUSH4 0x168F7A4B EQ PUSH2 0x164 JUMPI DUP1 PUSH4 0x204F257C EQ PUSH2 0x194 JUMPI JUMPDEST PUSH0 DUP1 REVERT JUMPDEST PUSH2 0x132 PUSH1 0x4 DUP1 CALLDATASIZE SUB DUP2 ADD SWAP1 PUSH2 0x12D SWAP2 SWAP1 PUSH2 0x20B4 JUMP JUMPDEST PUSH2 0x3C1 JUMP JUMPDEST STOP JUMPDEST PUSH2 0x14E PUSH1 0x4 DUP1 CALLDATASIZE SUB DUP2 ADD SWAP1 PUSH2 0x149 SWAP2 SWAP1 PUSH2 0x21B2 JUMP JUMPDEST PUSH2 0x64C JUMP JUMPDEST PUSH1 0x40 MLOAD PUSH2 0x15B SWAP2 SWAP1 PUSH2 0x2386 JUMP JUMPDEST PUSH1 0x40 MLOAD DUP1 SWAP2 SUB SWAP1 RETURN JUMPDEST PUSH2 0x17E PUSH1 0x4 DUP1 CALLDATASIZE SUB DUP2 ADD SWAP1 PUSH2 0x179 SWAP2 SWAP1 PUSH2 0x23D0 JUMP JUMPDEST PUSH2 0x8C0 JUMP JUMPDEST PUSH1 0x40 MLOAD PUSH2 0x18B SWAP2 SWAP1 PUSH2 0x253C JUMP JUMPDEST PUSH1 0x40 MLOAD DUP1 SWAP2 SUB SWAP1 RETURN JUMPDEST PUSH2 0x1AE PUSH1 0x4 DUP1 CALLDATASIZE SUB DUP2 ADD SWAP1 PUSH2 0x1A9 SWAP2 SWAP1 PUSH2 0x255C JUMP JUMPDEST PUSH2 0xB50 JUMP JUMPDEST PUSH1 0x40 MLOAD PUSH2 0x1BD SWAP4 SWAP3 SWAP2 SWAP1 PUSH2 0x2600 JUMP JUMPDEST PUSH1 0x40 MLOAD DUP1 SWAP2 SUB SWAP1 RETURN JUMPDEST PUSH2 0x1E0 PUSH1 0x4 DUP1 CALLDATASIZE SUB DUP2 ADD SWAP1 PUSH2 0x1DB SWAP2 SWAP1 PUSH2 0x21B2 JUMP JUMPDEST PUSH2 0xC35 JUMP JUMPDEST PUSH1 0x40 MLOAD PUSH2 0x1ED SWAP2 SWAP1 PUSH2 0x2656 JUMP JUMPDEST PUSH1 0x40 MLOAD DUP1 SWAP2 SUB SWAP1 RETURN JUMPDEST PUSH2 0x210 PUSH1 0x4 DUP1 CALLDATASIZE SUB DUP2 ADD SWAP1 PUSH2 0x20B SWAP2 SWAP1 PUSH2 0x266F JUMP JUMPDEST PUSH2 0xC51 JUMP JUMPDEST STOP JUMPDEST PUSH2 0x21A PUSH2 0xDE3 JUMP JUMPDEST PUSH1 0x40 MLOAD PUSH2 0x227 SWAP2 SWAP1 PUSH2 0x26C9 JUMP JUMPDEST PUSH1 0x40 MLOAD DUP1 SWAP2 SUB SWAP1 RETURN JUMPDEST PUSH2 0x238 PUSH2 0xDE9 JUMP JUMPDEST PUSH1 0x40 MLOAD PUSH2 0x245 SWAP2 SWAP1 PUSH2 0x282A JUMP JUMPDEST PUSH1 0x40 MLOAD DUP1 SWAP2 SUB SWAP1 RETURN JUMPDEST PUSH2 0x268 PUSH1 0x4 DUP1 CALLDATASIZE SUB DUP2 ADD SWAP1 PUSH2 0x263 SWAP2 SWAP1 PUSH2 0x21B2 JUMP JUMPDEST PUSH2 0x11DE JUMP JUMPDEST PUSH1 0x40 MLOAD PUSH2 0x275 SWAP2 SWAP1 PUSH2 0x2656 JUMP JUMPDEST PUSH1 0x40 MLOAD DUP1 SWAP2 SUB SWAP1 RETURN JUMPDEST PUSH2 0x286 PUSH2 0x11FB JUMP JUMPDEST STOP JUMPDEST PUSH2 0x2A2 PUSH1 0x4 DUP1 CALLDATASIZE SUB DUP2 ADD SWAP1 PUSH2 0x29D SWAP2 SWAP1 PUSH2 0x255C JUMP JUMPDEST PUSH2 0x1294 JUMP JUMPDEST PUSH1 0x40 MLOAD PUSH2 0x2B1 SWAP4 SWAP3 SWAP2 SWAP1 PUSH2 0x2890 JUMP JUMPDEST PUSH1 0x40 MLOAD DUP1 SWAP2 SUB SWAP1 RETURN JUMPDEST PUSH2 0x2C2 PUSH2 0x12FF JUMP JUMPDEST STOP JUMPDEST PUSH2 0x2DE PUSH1 0x4 DUP1 CALLDATASIZE SUB DUP2 ADD SWAP1 PUSH2 0x2D9 SWAP2 SWAP1 PUSH2 0x23D0 JUMP JUMPDEST PUSH2 0x1398 JUMP JUMPDEST STOP JUMPDEST PUSH2 0x2FA PUSH1 0x4 DUP1 CALLDATASIZE SUB DUP2 ADD SWAP1 PUSH2 0x2F5 SWAP2 SWAP1 PUSH2 0x23D0 JUMP JUMPDEST PUSH2 0x13A6 JUMP JUMPDEST PUSH1 0x40 MLOAD PUSH2 0x30C SWAP7 SWAP6 SWAP5 SWAP4 SWAP3 SWAP2 SWAP1 PUSH2 0x2915 JUMP JUMPDEST PUSH1 0x40 MLOAD DUP1 SWAP2 SUB SWAP1 RETURN JUMPDEST PUSH2 0x32F PUSH1 0x4 DUP1 CALLDATASIZE SUB DUP2 ADD SWAP1 PUSH2 0x32A SWAP2 SWAP1 PUSH2 0x23D0 JUMP JUMPDEST PUSH2 0x15B8 JUMP JUMPDEST PUSH1 0x40 MLOAD PUSH2 0x33C SWAP2 SWAP1 PUSH2 0x2A79 JUMP JUMPDEST PUSH1 0x40 MLOAD DUP1 SWAP2 SUB SWAP1 RETURN JUMPDEST PUSH2 0x35F PUSH1 0x4 DUP1 CALLDATASIZE SUB DUP2 ADD SWAP1 PUSH2 0x35A SWAP2 SWAP1 PUSH2 0x21B2 JUMP JUMPDEST PUSH2 0x16BD JUMP JUMPDEST PUSH1 0x40 MLOAD PUSH2 0x36C SWAP2 SWAP1 PUSH2 0x282A JUMP JUMPDEST PUSH1 0x40 MLOAD DUP1 SWAP2 SUB SWAP1 RETURN JUMPDEST PUSH2 0x38F PUSH1 0x4 DUP1 CALLDATASIZE SUB DUP2 ADD SWAP1 PUSH2 0x38A SWAP2 SWAP1 PUSH2 0x266F JUMP JUMPDEST PUSH2 0x1AEA JUMP JUMPDEST STOP JUMPDEST PUSH2 0x3AB PUSH1 0x4 DUP1 CALLDATASIZE SUB DUP2 ADD SWAP1 PUSH2 0x3A6 SWAP2 SWAP1 PUSH2 0x23D0 JUMP JUMPDEST PUSH2 0x1C0E JUMP JUMPDEST PUSH1 0x40 MLOAD PUSH2 0x3B8 SWAP2 SWAP1 PUSH2 0x2386 JUMP JUMPDEST PUSH1 0x40 MLOAD DUP1 SWAP2 SUB SWAP1 RETURN JUMPDEST PUSH1 0x1 PUSH0 CALLER PUSH20 0xFFFFFFFFFFFFFFFFFFFFFFFFFFFFFFFFFFFFFFFF AND PUSH20 0xFFFFFFFFFFFFFFFFFFFFFFFFFFFFFFFFFFFFFFFF AND DUP2 MSTORE PUSH1 0x20 ADD SWAP1 DUP2 MSTORE PUSH1 0x20 ADD PUSH0 KECCAK256 PUSH0 SWAP1 SLOAD SWAP1 PUSH2 0x100 EXP SWAP1 DIV PUSH1 0xFF AND PUSH2 0x44A JUMPI PUSH1 0x40 MLOAD PUSH32 0x8C379A000000000000000000000000000000000000000000000000000000000 DUP2 MSTORE PUSH1 0x4 ADD PUSH2 0x441 SWAP1 PUSH2 0x2AE3 JUMP JUMPDEST PUSH1 0x40 MLOAD DUP1 SWAP2 SUB SWAP1 REVERT JUMPDEST PUSH0 DUP4 MLOAD GT PUSH2 0x48D JUMPI PUSH1 0x40 MLOAD PUSH32 0x8C379A000000000000000000000000000000000000000000000000000000000 DUP2 MSTORE PUSH1 0x4 ADD PUSH2 0x484 SWAP1 PUSH2 0x2B4B JUMP JUMPDEST PUSH1 0x40 MLOAD DUP1 SWAP2 SUB SWAP1 REVERT JUMPDEST PUSH0 PUSH1 0x5 PUSH0 DUP2 SLOAD DUP1 SWAP3 SWAP2 SWAP1 PUSH2 0x4A0 SWAP1 PUSH2 0x2B96 JUMP JUMPDEST SWAP2 SWAP1 POP SSTORE SWAP1 POP PUSH1 0x40 MLOAD DUP1 PUSH1 0xC0 ADD PUSH1 0x40 MSTORE DUP1 DUP3 DUP2 MSTORE PUSH1 0x20 ADD CALLER PUSH20 0xFFFFFFFFFFFFFFFFFFFFFFFFFFFFFFFFFFFFFFFF AND DUP2 MSTORE PUSH1 0x20 ADD DUP5 DUP2 MSTORE PUSH1 0x20 ADD PUSH0 PUSH1 0x1 DUP2 GT ISZERO PUSH2 0x4EC JUMPI PUSH2 0x4EB PUSH2 0x23FB JUMP JUMPDEST JUMPDEST DUP2 MSTORE PUSH1 0x20 ADD PUSH1 0x40 MLOAD DUP1 PUSH1 0x40 ADD PUSH1 0x40 MSTORE DUP1 DUP8 DUP2 MSTORE PUSH1 0x20 ADD DUP6 DUP2 MSTORE POP DUP2 MSTORE PUSH1 0x20 ADD TIMESTAMP DUP2 MSTORE POP PUSH1 0x2 PUSH0 DUP4 DUP2 MSTORE PUSH1 0x20 ADD SWAP1 DUP2 MSTORE PUSH1 0x20 ADD PUSH0 KECCAK256 PUSH0 DUP3 ADD MLOAD DUP2 PUSH0 ADD SSTORE PUSH1 0x20 DUP3 ADD MLOAD DUP2 PUSH1 0x1 ADD PUSH0 PUSH2 0x100 EXP DUP2 SLOAD DUP2 PUSH20 0xFFFFFFFFFFFFFFFFFFFFFFFFFFFFFFFFFFFFFFFF MUL NOT AND SWAP1 DUP4 PUSH20 0xFFFFFFFFFFFFFFFFFFFFFFFFFFFFFFFFFFFFFFFF AND MUL OR SWAP1 SSTORE POP PUSH1 0x40 DUP3 ADD MLOAD DUP2 PUSH1 0x2 ADD SWAP1 DUP2 PUSH2 0x583 SWAP2 SWAP1 PUSH2 0x2DD7 JUMP JUMPDEST POP PUSH1 0x60 DUP3 ADD MLOAD DUP2 PUSH1 0x3 ADD PUSH0 PUSH2 0x100 EXP DUP2 SLOAD DUP2 PUSH1 0xFF MUL NOT AND SWAP1 DUP4 PUSH1 0x1 DUP2 GT ISZERO PUSH2 0x5AE JUMPI PUSH2 0x5AD PUSH2 0x23FB JUMP JUMPDEST JUMPDEST MUL OR SWAP1 SSTORE POP PUSH1 0x80 DUP3 ADD MLOAD DUP2 PUSH1 0x4 ADD PUSH0 DUP3 ADD MLOAD DUP2 PUSH0 ADD SWAP1 DUP2 PUSH2 0x5CF SWAP2 SWAP1 PUSH2 0x2DD7 JUMP JUMPDEST POP PUSH1 0x20 DUP3 ADD MLOAD DUP2 PUSH1 0x1 ADD SWAP1 DUP2 PUSH2 0x5E5 SWAP2 SWAP1 PUSH2 0x2DD7 JUMP JUMPDEST POP POP POP PUSH1 0xA0 DUP3 ADD MLOAD DUP2 PUSH1 0x6 ADD SSTORE SWAP1 POP POP CALLER PUSH20 0xFFFFFFFFFFFFFFFFFFFFFFFFFFFFFFFFFFFFFFFF AND DUP2 PUSH32 0xB538E4E93715CF36354D0368248193865BC355A0B9906E40E3EEB2298AF70869 DUP7 DUP7 PUSH1 0x40 MLOAD PUSH2 0x63E SWAP3 SWAP2 SWAP1 PUSH2 0x2EA6 JUMP JUMPDEST PUSH1 0x40 MLOAD DUP1 SWAP2 SUB SWAP1 LOG3 POP POP POP POP JUMP JUMPDEST PUSH1 0x60 PUSH0 PUSH1 0x5 SLOAD PUSH8 0xFFFFFFFFFFFFFFFF DUP2 GT ISZERO PUSH2 0x66B JUMPI PUSH2 0x66A PUSH2 0x1F90 JUMP JUMPDEST JUMPDEST PUSH1 0x40 MLOAD SWAP1 DUP1 DUP3 MSTORE DUP1 PUSH1 0x20 MUL PUSH1 0x20 ADD DUP3 ADD PUSH1 0x40 MSTORE DUP1 ISZERO PUSH2 0x6A4 JUMPI DUP2 PUSH1 0x20 ADD JUMPDEST PUSH2 0x691 PUSH2 0x1EB8 JUMP JUMPDEST DUP2 MSTORE PUSH1 0x20 ADD SWAP1 PUSH1 0x1 SWAP1 SUB SWAP1 DUP2 PUSH2 0x689 JUMPI SWAP1 POP JUMPDEST POP SWAP1 POP PUSH0 DUP1 JUMPDEST PUSH1 0x5 SLOAD DUP2 LT ISZERO PUSH2 0x8B2 JUMPI DUP5 PUSH20 0xFFFFFFFFFFFFFFFFFFFFFFFFFFFFFFFFFFFFFFFF AND PUSH1 0x2 PUSH0 DUP4 DUP2 MSTORE PUSH1 0x20 ADD SWAP1 DUP2 MSTORE PUSH1 0x20 ADD PUSH0 KECCAK256 PUSH1 0x1 ADD PUSH0 SWAP1 SLOAD SWAP1 PUSH2 0x100 EXP SWAP1 DIV PUSH20 0xFFFFFFFFFFFFFFFFFFFFFFFFFFFFFFFFFFFFFFFF AND PUSH20 0xFFFFFFFFFFFFFFFFFFFFFFFFFFFFFFFFFFFFFFFF AND SUB PUSH2 0x89F JUMPI PUSH0 JUMPDEST PUSH1 0x4 PUSH0 DUP4 DUP2 MSTORE PUSH1 0x20 ADD SWAP1 DUP2 MSTORE PUSH1 0x20 ADD PUSH0 KECCAK256 DUP1 SLOAD SWAP1 POP DUP2 LT ISZERO PUSH2 0x89D JUMPI PUSH1 0x4 PUSH0 DUP4 DUP2 MSTORE PUSH1 0x20 ADD SWAP1 DUP2 MSTORE PUSH1 0x20 ADD PUSH0 KECCAK256 DUP2 DUP2 SLOAD DUP2 LT PUSH2 0x75B JUMPI PUSH2 0x75A PUSH2 0x2EDB JUMP JUMPDEST JUMPDEST SWAP1 PUSH0 MSTORE PUSH1 0x20 PUSH0 KECCAK256 SWAP1 PUSH1 0x3 MUL ADD PUSH1 0x40 MLOAD DUP1 PUSH1 0x60 ADD PUSH1 0x40 MSTORE SWAP1 DUP2 PUSH0 DUP3 ADD PUSH0 SWAP1 SLOAD SWAP1 PUSH2 0x100 EXP SWAP1 DIV PUSH20 0xFFFFFFFFFFFFFFFFFFFFFFFFFFFFFFFFFFFFFFFF AND PUSH20 0xFFFFFFFFFFFFFFFFFFFFFFFFFFFFFFFFFFFFFFFF AND PUSH20 0xFFFFFFFFFFFFFFFFFFFFFFFFFFFFFFFFFFFFFFFF AND DUP2 MSTORE PUSH1 0x20 ADD PUSH1 0x1 DUP3 ADD DUP1 SLOAD PUSH2 0x7D6 SWAP1 PUSH2 0x2C0A JUMP JUMPDEST DUP1 PUSH1 0x1F ADD PUSH1 0x20 DUP1 SWAP2 DIV MUL PUSH1 0x20 ADD PUSH1 0x40 MLOAD SWAP1 DUP2 ADD PUSH1 0x40 MSTORE DUP1 SWAP3 SWAP2 SWAP1 DUP2 DUP2 MSTORE PUSH1 0x20 ADD DUP3 DUP1 SLOAD PUSH2 0x802 SWAP1 PUSH2 0x2C0A JUMP JUMPDEST DUP1 ISZERO PUSH2 0x84D JUMPI DUP1 PUSH1 0x1F LT PUSH2 0x824 JUMPI PUSH2 0x100 DUP1 DUP4 SLOAD DIV MUL DUP4 MSTORE SWAP2 PUSH1 0x20 ADD SWAP2 PUSH2 0x84D JUMP JUMPDEST DUP3 ADD SWAP2 SWAP1 PUSH0 MSTORE PUSH1 0x20 PUSH0 KECCAK256 SWAP1 JUMPDEST DUP2 SLOAD DUP2 MSTORE SWAP1 PUSH1 0x1 ADD SWAP1 PUSH1 0x20 ADD DUP1 DUP4 GT PUSH2 0x830 JUMPI DUP3 SWAP1 SUB PUSH1 0x1F AND DUP3 ADD SWAP2 JUMPDEST POP POP POP POP POP DUP2 MSTORE PUSH1 0x20 ADD PUSH1 0x2 DUP3 ADD SLOAD DUP2 MSTORE POP POP DUP5 DUP5 DUP1 PUSH2 0x86C SWAP1 PUSH2 0x2B96 JUMP JUMPDEST SWAP6 POP DUP2 MLOAD DUP2 LT PUSH2 0x87F JUMPI PUSH2 0x87E PUSH2 0x2EDB JUMP JUMPDEST JUMPDEST PUSH1 0x20 MUL PUSH1 0x20 ADD ADD DUP2 SWAP1 MSTORE POP DUP1 DUP1 PUSH2 0x895 SWAP1 PUSH2 0x2B96 JUMP JUMPDEST SWAP2 POP POP PUSH2 0x71C JUMP JUMPDEST POP JUMPDEST DUP1 DUP1 PUSH2 0x8AA SWAP1 PUSH2 0x2B96 JUMP JUMPDEST SWAP2 POP POP PUSH2 0x6AA JUMP JUMPDEST POP DUP1 DUP3 MSTORE DUP2 SWAP3 POP POP POP SWAP2 SWAP1 POP JUMP JUMPDEST PUSH2 0x8C8 PUSH2 0x1EED JUMP JUMPDEST PUSH1 0x2 PUSH0 DUP4 DUP2 MSTORE PUSH1 0x20 ADD SWAP1 DUP2 MSTORE PUSH1 0x20 ADD PUSH0 KECCAK256 PUSH1 0x40 MLOAD DUP1 PUSH1 0xC0 ADD PUSH1 0x40 MSTORE SWAP1 DUP2 PUSH0 DUP3 ADD SLOAD DUP2 MSTORE PUSH1 0x20 ADD PUSH1 0x1 DUP3 ADD PUSH0 SWAP1 SLOAD SWAP1 PUSH2 0x100 EXP SWAP1 DIV PUSH20 0xFFFFFFFFFFFFFFFFFFFFFFFFFFFFFFFFFFFFFFFF AND PUSH20 0xFFFFFFFFFFFFFFFFFFFFFFFFFFFFFFFFFFFFFFFF AND PUSH20 0xFFFFFFFFFFFFFFFFFFFFFFFFFFFFFFFFFFFFFFFF AND DUP2 MSTORE PUSH1 0x20 ADD PUSH1 0x2 DUP3 ADD DUP1 SLOAD PUSH2 0x952 SWAP1 PUSH2 0x2C0A JUMP JUMPDEST DUP1 PUSH1 0x1F ADD PUSH1 0x20 DUP1 SWAP2 DIV MUL PUSH1 0x20 ADD PUSH1 0x40 MLOAD SWAP1 DUP2 ADD PUSH1 0x40 MSTORE DUP1 SWAP3 SWAP2 SWAP1 DUP2 DUP2 MSTORE PUSH1 0x20 ADD DUP3 DUP1 SLOAD PUSH2 0x97E SWAP1 PUSH2 0x2C0A JUMP JUMPDEST DUP1 ISZERO PUSH2 0x9C9 JUMPI DUP1 PUSH1 0x1F LT PUSH2 0x9A0 JUMPI PUSH2 0x100 DUP1 DUP4 SLOAD DIV MUL DUP4 MSTORE SWAP2 PUSH1 0x20 ADD SWAP2 PUSH2 0x9C9 JUMP JUMPDEST DUP3 ADD SWAP2 SWAP1 PUSH0 MSTORE PUSH1 0x20 PUSH0 KECCAK256 SWAP1 JUMPDEST DUP2 SLOAD DUP2 MSTORE SWAP1 PUSH1 0x1 ADD SWAP1 PUSH1 0x20 ADD DUP1 DUP4 GT PUSH2 0x9AC JUMPI DUP3 SWAP1 SUB PUSH1 0x1F AND DUP3 ADD SWAP2 JUMPDEST POP POP POP POP POP DUP2 MSTORE PUSH1 0x20 ADD PUSH1 0x3 DUP3 ADD PUSH0 SWAP1 SLOAD SWAP1 PUSH2 0x100 EXP SWAP1 DIV PUSH1 0xFF AND PUSH1 0x1 DUP2 GT ISZERO PUSH2 0x9F6 JUMPI PUSH2 0x9F5 PUSH2 0x23FB JUMP JUMPDEST JUMPDEST PUSH1 0x1 DUP2 GT ISZERO PUSH2 0xA08 JUMPI PUSH2 0xA07 PUSH2 0x23FB JUMP JUMPDEST JUMPDEST DUP2 MSTORE PUSH1 0x20 ADD PUSH1 0x4 DUP3 ADD PUSH1 0x40 MLOAD DUP1 PUSH1 0x40 ADD PUSH1 0x40 MSTORE SWAP1 DUP2 PUSH0 DUP3 ADD DUP1 SLOAD PUSH2 0xA2B SWAP1 PUSH2 0x2C0A JUMP JUMPDEST DUP1 PUSH1 0x1F ADD PUSH1 0x20 DUP1 SWAP2 DIV MUL PUSH1 0x20 ADD PUSH1 0x40 MLOAD SWAP1 DUP2 ADD PUSH1 0x40 MSTORE DUP1 SWAP3 SWAP2 SWAP1 DUP2 DUP2 MSTORE PUSH1 0x20 ADD DUP3 DUP1 SLOAD PUSH2 0xA57 SWAP1 PUSH2 0x2C0A JUMP JUMPDEST DUP1 ISZERO PUSH2 0xAA2 JUMPI DUP1 PUSH1 0x1F LT PUSH2 0xA79 JUMPI PUSH2 0x100 DUP1 DUP4 SLOAD DIV MUL DUP4 MSTORE SWAP2 PUSH1 0x20 ADD SWAP2 PUSH2 0xAA2 JUMP JUMPDEST DUP3 ADD SWAP2 SWAP1 PUSH0 MSTORE PUSH1 0x20 PUSH0 KECCAK256 SWAP1 JUMPDEST DUP2 SLOAD DUP2 MSTORE SWAP1 PUSH1 0x1 ADD SWAP1 PUSH1 0x20 ADD DUP1 DUP4 GT PUSH2 0xA85 JUMPI DUP3 SWAP1 SUB PUSH1 0x1F AND DUP3 ADD SWAP2 JUMPDEST POP POP POP POP POP DUP2 MSTORE PUSH1 0x20 ADD PUSH1 0x1 DUP3 ADD DUP1 SLOAD PUSH2 0xABB SWAP1 PUSH2 0x2C0A JUMP JUMPDEST DUP1 PUSH1 0x1F ADD PUSH1 0x20 DUP1 SWAP2 DIV MUL PUSH1 0x20 ADD PUSH1 0x40 MLOAD SWAP1 DUP2 ADD PUSH1 0x40 MSTORE DUP1 SWAP3 SWAP2 SWAP1 DUP2 DUP2 MSTORE PUSH1 0x20 ADD DUP3 DUP1 SLOAD PUSH2 0xAE7 SWAP1 PUSH2 0x2C0A JUMP JUMPDEST DUP1 ISZERO PUSH2 0xB32 JUMPI DUP1 PUSH1 0x1F LT PUSH2 0xB09 JUMPI PUSH2 0x100 DUP1 DUP4 SLOAD DIV MUL DUP4 MSTORE SWAP2 PUSH1 0x20 ADD SWAP2 PUSH2 0xB32 JUMP JUMPDEST DUP3 ADD SWAP2 SWAP1 PUSH0 MSTORE PUSH1 0x20 PUSH0 KECCAK256 SWAP1 JUMPDEST DUP2 SLOAD DUP2 MSTORE SWAP1 PUSH1 0x1 ADD SWAP1 PUSH1 0x20 ADD DUP1 DUP4 GT PUSH2 0xB15 JUMPI DUP3 SWAP1 SUB PUSH1 0x1F AND DUP3 ADD SWAP2 JUMPDEST POP POP POP POP POP DUP2 MSTORE POP POP DUP2 MSTORE PUSH1 0x20 ADD PUSH1 0x6 DUP3 ADD SLOAD DUP2 MSTORE POP POP SWAP1 POP SWAP2 SWAP1 POP JUMP JUMPDEST PUSH1 0x4 PUSH1 0x20 MSTORE DUP2 PUSH0 MSTORE PUSH1 0x40 PUSH0 KECCAK256 DUP2 DUP2 SLOAD DUP2 LT PUSH2 0xB69 JUMPI PUSH0 DUP1 REVERT JUMPDEST SWAP1 PUSH0 MSTORE PUSH1 0x20 PUSH0 KECCAK256 SWAP1 PUSH1 0x3 MUL ADD PUSH0 SWAP2 POP SWAP2 POP POP DUP1 PUSH0 ADD PUSH0 SWAP1 SLOAD SWAP1 PUSH2 0x100 EXP SWAP1 DIV PUSH20 0xFFFFFFFFFFFFFFFFFFFFFFFFFFFFFFFFFFFFFFFF AND SWAP1 DUP1 PUSH1 0x1 ADD DUP1 SLOAD PUSH2 0xBAE SWAP1 PUSH2 0x2C0A JUMP JUMPDEST DUP1 PUSH1 0x1F ADD PUSH1 0x20 DUP1 SWAP2 DIV MUL PUSH1 0x20 ADD PUSH1 0x40 MLOAD SWAP1 DUP2 ADD PUSH1 0x40 MSTORE DUP1 SWAP3 SWAP2 SWAP1 DUP2 DUP2 MSTORE PUSH1 0x20 ADD DUP3 DUP1 SLOAD PUSH2 0xBDA SWAP1 PUSH2 0x2C0A JUMP JUMPDEST DUP1 ISZERO PUSH2 0xC25 JUMPI DUP1 PUSH1 0x1F LT PUSH2 0xBFC JUMPI PUSH2 0x100 DUP1 DUP4 SLOAD DIV MUL DUP4 MSTORE SWAP2 PUSH1 0x20 ADD SWAP2 PUSH2 0xC25 JUMP JUMPDEST DUP3 ADD SWAP2 SWAP1 PUSH0 MSTORE PUSH1 0x20 PUSH0 KECCAK256 SWAP1 JUMPDEST DUP2 SLOAD DUP2 MSTORE SWAP1 PUSH1 0x1 ADD SWAP1 PUSH1 0x20 ADD DUP1 DUP4 GT PUSH2 0xC08 JUMPI DUP3 SWAP1 SUB PUSH1 0x1F AND DUP3 ADD SWAP2 JUMPDEST POP POP POP POP POP SWAP1 DUP1 PUSH1 0x2 ADD SLOAD SWAP1 POP DUP4 JUMP JUMPDEST PUSH0 PUSH1 0x20 MSTORE DUP1 PUSH0 MSTORE PUSH1 0x40 PUSH0 KECCAK256 PUSH0 SWAP2 POP SLOAD SWAP1 PUSH2 0x100 EXP SWAP1 DIV PUSH1 0xFF AND DUP2 JUMP JUMPDEST PUSH0 DUP1 CALLER PUSH20 0xFFFFFFFFFFFFFFFFFFFFFFFFFFFFFFFFFFFFFFFF AND PUSH20 0xFFFFFFFFFFFFFFFFFFFFFFFFFFFFFFFFFFFFFFFF AND DUP2 MSTORE PUSH1 0x20 ADD SWAP1 DUP2 MSTORE PUSH1 0x20 ADD PUSH0 KECCAK256 PUSH0 SWAP1 SLOAD SWAP1 PUSH2 0x100 EXP SWAP1 DIV PUSH1 0xFF AND PUSH2 0xCD9 JUMPI PUSH1 0x40 MLOAD PUSH32 0x8C379A000000000000000000000000000000000000000000000000000000000 DUP2 MSTORE PUSH1 0x4 ADD PUSH2 0xCD0 SWAP1 PUSH2 0x2F78 JUMP JUMPDEST PUSH1 0x40 MLOAD DUP1 SWAP2 SUB SWAP1 REVERT JUMPDEST PUSH0 PUSH1 0x1 DUP2 GT ISZERO PUSH2 0xCEC JUMPI PUSH2 0xCEB PUSH2 0x23FB JUMP JUMPDEST JUMPDEST PUSH1 0x2 PUSH0 DUP5 DUP2 MSTORE PUSH1 0x20 ADD SWAP1 DUP2 MSTORE PUSH1 0x20 ADD PUSH0 KECCAK256 PUSH1 0x3 ADD PUSH0 SWAP1 SLOAD SWAP1 PUSH2 0x100 EXP SWAP1 DIV PUSH1 0xFF AND PUSH1 0x1 DUP2 GT ISZERO PUSH2 0xD1F JUMPI PUSH2 0xD1E PUSH2 0x23FB JUMP JUMPDEST JUMPDEST EQ PUSH2 0xD5F JUMPI PUSH1 0x40 MLOAD PUSH32 0x8C379A000000000000000000000000000000000000000000000000000000000 DUP2 MSTORE PUSH1 0x4 ADD PUSH2 0xD56 SWAP1 PUSH2 0x2FE0 JUMP JUMPDEST PUSH1 0x40 MLOAD DUP1 SWAP2 SUB SWAP1 REVERT JUMPDEST PUSH1 0x1 PUSH1 0x2 PUSH0 DUP5 DUP2 MSTORE PUSH1 0x20 ADD SWAP1 DUP2 MSTORE PUSH1 0x20 ADD PUSH0 KECCAK256 PUSH1 0x3 ADD PUSH0 PUSH2 0x100 EXP DUP2 SLOAD DUP2 PUSH1 0xFF MUL NOT AND SWAP1 DUP4 PUSH1 0x1 DUP2 GT ISZERO PUSH2 0xD96 JUMPI PUSH2 0xD95 PUSH2 0x23FB JUMP JUMPDEST JUMPDEST MUL OR SWAP1 SSTORE POP DUP2 PUSH32 0xA0E3A0A30E4AE091855116DFB1B3A775AB1B158763B0A44710BE60283214CA73 DUP3 PUSH1 0x40 MLOAD PUSH2 0xDCB SWAP2 SWAP1 PUSH2 0x2FFE JUMP JUMPDEST PUSH1 0x40 MLOAD DUP1 SWAP2 SUB SWAP1 LOG2 PUSH2 0xDDF DUP3 CALLER PUSH1 0x1 PUSH2 0x1D69 JUMP JUMPDEST POP POP JUMP JUMPDEST PUSH1 0x5 SLOAD DUP2 JUMP JUMPDEST PUSH1 0x60 PUSH0 DUP1 JUMPDEST PUSH1 0x5 SLOAD DUP2 LT ISZERO PUSH2 0xE65 JUMPI PUSH0 PUSH1 0x1 DUP2 GT ISZERO PUSH2 0xE0B JUMPI PUSH2 0xE0A PUSH2 0x23FB JUMP JUMPDEST JUMPDEST PUSH1 0x2 PUSH0 DUP4 DUP2 MSTORE PUSH1 0x20 ADD SWAP1 DUP2 MSTORE PUSH1 0x20 ADD PUSH0 KECCAK256 PUSH1 0x3 ADD PUSH0 SWAP1 SLOAD SWAP1 PUSH2 0x100 EXP SWAP1 DIV PUSH1 0xFF AND PUSH1 0x1 DUP2 GT ISZERO PUSH2 0xE3E JUMPI PUSH2 0xE3D PUSH2 0x23FB JUMP JUMPDEST JUMPDEST SUB PUSH2 0xE52 JUMPI DUP2 DUP1 PUSH2 0xE4E SWAP1 PUSH2 0x2B96 JUMP JUMPDEST SWAP3 POP POP JUMPDEST DUP1 DUP1 PUSH2 0xE5D SWAP1 PUSH2 0x2B96 JUMP JUMPDEST SWAP2 POP POP PUSH2 0xDEE JUMP JUMPDEST POP PUSH0 DUP2 PUSH8 0xFFFFFFFFFFFFFFFF DUP2 GT ISZERO PUSH2 0xE81 JUMPI PUSH2 0xE80 PUSH2 0x1F90 JUMP JUMPDEST JUMPDEST PUSH1 0x40 MLOAD SWAP1 DUP1 DUP3 MSTORE DUP1 PUSH1 0x20 MUL PUSH1 0x20 ADD DUP3 ADD PUSH1 0x40 MSTORE DUP1 ISZERO PUSH2 0xEBA JUMPI DUP2 PUSH1 0x20 ADD JUMPDEST PUSH2 0xEA7 PUSH2 0x1EED JUMP JUMPDEST DUP2 MSTORE PUSH1 0x20 ADD SWAP1 PUSH1 0x1 SWAP1 SUB SWAP1 DUP2 PUSH2 0xE9F JUMPI SWAP1 POP JUMPDEST POP SWAP1 POP PUSH0 DUP1 JUMPDEST PUSH1 0x5 SLOAD DUP2 LT ISZERO PUSH2 0x11D4 JUMPI PUSH0 PUSH1 0x1 DUP2 GT ISZERO PUSH2 0xEDD JUMPI PUSH2 0xEDC PUSH2 0x23FB JUMP JUMPDEST JUMPDEST PUSH1 0x2 PUSH0 DUP4 DUP2 MSTORE PUSH1 0x20 ADD SWAP1 DUP2 MSTORE PUSH1 0x20 ADD PUSH0 KECCAK256 PUSH1 0x3 ADD PUSH0 SWAP1 SLOAD SWAP1 PUSH2 0x100 EXP SWAP1 DIV PUSH1 0xFF AND PUSH1 0x1 DUP2 GT ISZERO PUSH2 0xF10 JUMPI PUSH2 0xF0F PUSH2 0x23FB JUMP JUMPDEST JUMPDEST SUB PUSH2 0x11C1 JUMPI PUSH1 0x2 PUSH0 DUP3 DUP2 MSTORE PUSH1 0x20 ADD SWAP1 DUP2 MSTORE PUSH1 0x20 ADD PUSH0 KECCAK256 PUSH1 0x40 MLOAD DUP1 PUSH1 0xC0 ADD PUSH1 0x40 MSTORE SWAP1 DUP2 PUSH0 DUP3 ADD SLOAD DUP2 MSTORE PUSH1 0x20 ADD PUSH1 0x1 DUP3 ADD PUSH0 SWAP1 SLOAD SWAP1 PUSH2 0x100 EXP SWAP1 DIV PUSH20 0xFFFFFFFFFFFFFFFFFFFFFFFFFFFFFFFFFFFFFFFF AND PUSH20 0xFFFFFFFFFFFFFFFFFFFFFFFFFFFFFFFFFFFFFFFF AND PUSH20 0xFFFFFFFFFFFFFFFFFFFFFFFFFFFFFFFFFFFFFFFF AND DUP2 MSTORE PUSH1 0x20 ADD PUSH1 0x2 DUP3 ADD DUP1 SLOAD PUSH2 0xF9F SWAP1 PUSH2 0x2C0A JUMP JUMPDEST DUP1 PUSH1 0x1F ADD PUSH1 0x20 DUP1 SWAP2 DIV MUL PUSH1 0x20 ADD PUSH1 0x40 MLOAD SWAP1 DUP2 ADD PUSH1 0x40 MSTORE DUP1 SWAP3 SWAP2 SWAP1 DUP2 DUP2 MSTORE PUSH1 0x20 ADD DUP3 DUP1 SLOAD PUSH2 0xFCB SWAP1 PUSH2 0x2C0A JUMP JUMPDEST DUP1 ISZERO PUSH2 0x1016 JUMPI DUP1 PUSH1 0x1F LT PUSH2 0xFED JUMPI PUSH2 0x100 DUP1 DUP4 SLOAD DIV MUL DUP4 MSTORE SWAP2 PUSH1 0x20 ADD SWAP2 PUSH2 0x1016 JUMP JUMPDEST DUP3 ADD SWAP2 SWAP1 PUSH0 MSTORE PUSH1 0x20 PUSH0 KECCAK256 SWAP1 JUMPDEST DUP2 SLOAD DUP2 MSTORE SWAP1 PUSH1 0x1 ADD SWAP1 PUSH1 0x20 ADD DUP1 DUP4 GT PUSH2 0xFF9 JUMPI DUP3 SWAP1 SUB PUSH1 0x1F AND DUP3 ADD SWAP2 JUMPDEST POP POP POP POP POP DUP2 MSTORE PUSH1 0x20 ADD PUSH1 0x3 DUP3 ADD PUSH0 SWAP1 SLOAD SWAP1 PUSH2 0x100 EXP SWAP1 DIV PUSH1 0xFF AND PUSH1 0x1 DUP2 GT ISZERO PUSH2 0x1043 JUMPI PUSH2 0x1042 PUSH2 0x23FB JUMP JUMPDEST JUMPDEST PUSH1 0x1 DUP2 GT ISZERO PUSH2 0x1055 JUMPI PUSH2 0x1054 PUSH2 0x23FB JUMP JUMPDEST JUMPDEST DUP2 MSTORE PUSH1 0x20 ADD PUSH1 0x4 DUP3 ADD PUSH1 0x40 MLOAD DUP1 PUSH1 0x40 ADD PUSH1 0x40 MSTORE SWAP1 DUP2 PUSH0 DUP3 ADD DUP1 SLOAD PUSH2 0x1078 SWAP1 PUSH2 0x2C0A JUMP JUMPDEST DUP1 PUSH1 0x1F ADD PUSH1 0x20 DUP1 SWAP2 DIV MUL PUSH1 0x20 ADD PUSH1 0x40 MLOAD SWAP1 DUP2 ADD PUSH1 0x40 MSTORE DUP1 SWAP3 SWAP2 SWAP1 DUP2 DUP2 MSTORE PUSH1 0x20 ADD DUP3 DUP1 SLOAD PUSH2 0x10A4 SWAP1 PUSH2 0x2C0A JUMP JUMPDEST DUP1 ISZERO PUSH2 0x10EF JUMPI DUP1 PUSH1 0x1F LT PUSH2 0x10C6 JUMPI PUSH2 0x100 DUP1 DUP4 SLOAD DIV MUL DUP4 MSTORE SWAP2 PUSH1 0x20 ADD SWAP2 PUSH2 0x10EF JUMP JUMPDEST DUP3 ADD SWAP2 SWAP1 PUSH0 MSTORE PUSH1 0x20 PUSH0 KECCAK256 SWAP1 JUMPDEST DUP2 SLOAD DUP2 MSTORE SWAP1 PUSH1 0x1 ADD SWAP1 PUSH1 0x20 ADD DUP1 DUP4 GT PUSH2 0x10D2 JUMPI DUP3 SWAP1 SUB PUSH1 0x1F AND DUP3 ADD SWAP2 JUMPDEST POP POP POP POP POP DUP2 MSTORE PUSH1 0x20 ADD PUSH1 0x1 DUP3 ADD DUP1 SLOAD PUSH2 0x1108 SWAP1 PUSH2 0x2C0A JUMP JUMPDEST DUP1 PUSH1 0x1F ADD PUSH1 0x20 DUP1 SWAP2 DIV MUL PUSH1 0x20 ADD PUSH1 0x40 MLOAD SWAP1 DUP2 ADD PUSH1 0x40 MSTORE DUP1 SWAP3 SWAP2 SWAP1 DUP2 DUP2 MSTORE PUSH1 0x20 ADD DUP3 DUP1 SLOAD PUSH2 0x1134 SWAP1 PUSH2 0x2C0A JUMP JUMPDEST DUP1 ISZERO PUSH2 0x117F JUMPI DUP1 PUSH1 0x1F LT PUSH2 0x1156 JUMPI PUSH2 0x100 DUP1 DUP4 SLOAD DIV MUL DUP4 MSTORE SWAP2 PUSH1 0x20 ADD SWAP2 PUSH2 0x117F JUMP JUMPDEST DUP3 ADD SWAP2 SWAP1 PUSH0 MSTORE PUSH1 0x20 PUSH0 KECCAK256 SWAP1 JUMPDEST DUP2 SLOAD DUP2 MSTORE SWAP1 PUSH1 0x1 ADD SWAP1 PUSH1 0x20 ADD DUP1 DUP4 GT PUSH2 0x1162 JUMPI DUP3 SWAP1 SUB PUSH1 0x1F AND DUP3 ADD SWAP2 JUMPDEST POP POP POP POP POP DUP2 MSTORE POP POP DUP2 MSTORE PUSH1 0x20 ADD PUSH1 0x6 DUP3 ADD SLOAD DUP2 MSTORE POP POP DUP4 DUP4 DUP1 PUSH2 0x11A2 SWAP1 PUSH2 0x2B96 JUMP JUMPDEST SWAP5 POP DUP2 MLOAD DUP2 LT PUSH2 0x11B5 JUMPI PUSH2 0x11B4 PUSH2 0x2EDB JUMP JUMPDEST JUMPDEST PUSH1 0x20 MUL PUSH1 0x20 ADD ADD DUP2 SWAP1 MSTORE POP JUMPDEST DUP1 DUP1 PUSH2 0x11CC SWAP1 PUSH2 0x2B96 JUMP JUMPDEST SWAP2 POP POP PUSH2 0xEC0 JUMP JUMPDEST POP DUP2 SWAP4 POP POP POP POP SWAP1 JUMP JUMPDEST PUSH1 0x1 PUSH1 0x20 MSTORE DUP1 PUSH0 MSTORE PUSH1 0x40 PUSH0 KECCAK256 PUSH0 SWAP2 POP SLOAD SWAP1 PUSH2 0x100 EXP SWAP1 DIV PUSH1 0xFF AND DUP2 JUMP JUMPDEST PUSH1 0x1 DUP1 PUSH0 CALLER PUSH20 0xFFFFFFFFFFFFFFFFFFFFFFFFFFFFFFFFFFFFFFFF AND PUSH20 0xFFFFFFFFFFFFFFFFFFFFFFFFFFFFFFFFFFFFFFFF AND DUP2 MSTORE PUSH1 0x20 ADD SWAP1 DUP2 MSTORE PUSH1 0x20 ADD PUSH0 KECCAK256 PUSH0 PUSH2 0x100 EXP DUP2 SLOAD DUP2 PUSH1 0xFF MUL NOT AND SWAP1 DUP4 ISZERO ISZERO MUL OR SWAP1 SSTORE POP CALLER PUSH20 0xFFFFFFFFFFFFFFFFFFFFFFFFFFFFFFFFFFFFFFFF AND PUSH32 0x54DB7A5CB4735E1AAC1F53DB512D3390390BB6637BD30AD4BF9FC98667D9B9B9 PUSH1 0x40 MLOAD PUSH1 0x40 MLOAD DUP1 SWAP2 SUB SWAP1 LOG2 JUMP JUMPDEST PUSH1 0x3 PUSH1 0x20 MSTORE DUP2 PUSH0 MSTORE PUSH1 0x40 PUSH0 KECCAK256 DUP2 DUP2 SLOAD DUP2 LT PUSH2 0x12AD JUMPI PUSH0 DUP1 REVERT JUMPDEST SWAP1 PUSH0 MSTORE PUSH1 0x20 PUSH0 KECCAK256 SWAP1 PUSH1 0x2 MUL ADD PUSH0 SWAP2 POP SWAP2 POP POP DUP1 PUSH0 ADD PUSH0 SWAP1 SLOAD SWAP1 PUSH2 0x100 EXP SWAP1 DIV PUSH20 0xFFFFFFFFFFFFFFFFFFFFFFFFFFFFFFFFFFFFFFFF AND SWAP1 DUP1 PUSH0 ADD PUSH1 0x14 SWAP1 SLOAD SWAP1 PUSH2 0x100 EXP SWAP1 DIV PUSH1 0xFF AND SWAP1 DUP1 PUSH1 0x1 ADD SLOAD SWAP1 POP DUP4 JUMP JUMPDEST PUSH1 0x1 PUSH0 DUP1 CALLER PUSH20 0xFFFFFFFFFFFFFFFFFFFFFFFFFFFFFFFFFFFFFFFF AND PUSH20 0xFFFFFFFFFFFFFFFFFFFFFFFFFFFFFFFFFFFFFFFF AND DUP2 MSTORE PUSH1 0x20 ADD SWAP1 DUP2 MSTORE PUSH1 0x20 ADD PUSH0 KECCAK256 PUSH0 PUSH2 0x100 EXP DUP2 SLOAD DUP2 PUSH1 0xFF MUL NOT AND SWAP1 DUP4 ISZERO ISZERO MUL OR SWAP1 SSTORE POP CALLER PUSH20 0xFFFFFFFFFFFFFFFFFFFFFFFFFFFFFFFFFFFFFFFF AND PUSH32 0xAC0F15283D37631C15B481BC07DC402BCFC030956BCD94B5585F71D92E84C3DA PUSH1 0x40 MLOAD PUSH1 0x40 MLOAD DUP1 SWAP2 SUB SWAP1 LOG2 JUMP JUMPDEST PUSH2 0x13A3 DUP2 CALLER PUSH0 PUSH2 0x1D69 JUMP JUMPDEST POP JUMP JUMPDEST PUSH1 0x2 PUSH1 0x20 MSTORE DUP1 PUSH0 MSTORE PUSH1 0x40 PUSH0 KECCAK256 PUSH0 SWAP2 POP SWAP1 POP DUP1 PUSH0 ADD SLOAD SWAP1 DUP1 PUSH1 0x1 ADD PUSH0 SWAP1 SLOAD SWAP1 PUSH2 0x100 EXP SWAP1 DIV PUSH20 0xFFFFFFFFFFFFFFFFFFFFFFFFFFFFFFFFFFFFFFFF AND SWAP1 DUP1 PUSH1 0x2 ADD DUP1 SLOAD PUSH2 0x13F0 SWAP1 PUSH2 0x2C0A JUMP JUMPDEST DUP1 PUSH1 0x1F ADD PUSH1 0x20 DUP1 SWAP2 DIV MUL PUSH1 0x20 ADD PUSH1 0x40 MLOAD SWAP1 DUP2 ADD PUSH1 0x40 MSTORE DUP1 SWAP3 SWAP2 SWAP1 DUP2 DUP2 MSTORE PUSH1 0x20 ADD DUP3 DUP1 SLOAD PUSH2 0x141C SWAP1 PUSH2 0x2C0A JUMP JUMPDEST DUP1 ISZERO PUSH2 0x1467 JUMPI DUP1 PUSH1 0x1F LT PUSH2 0x143E JUMPI PUSH2 0x100 DUP1 DUP4 SLOAD DIV MUL DUP4 MSTORE SWAP2 PUSH1 0x20 ADD SWAP2 PUSH2 0x1467 JUMP JUMPDEST DUP3 ADD SWAP2 SWAP1 PUSH0 MSTORE PUSH1 0x20 PUSH0 KECCAK256 SWAP1 JUMPDEST DUP2 SLOAD DUP2 MSTORE SWAP1 PUSH1 0x1 ADD SWAP1 PUSH1 0x20 ADD DUP1 DUP4 GT PUSH2 0x144A JUMPI DUP3 SWAP1 SUB PUSH1 0x1F AND DUP3 ADD SWAP2 JUMPDEST POP POP POP POP POP SWAP1 DUP1 PUSH1 0x3 ADD PUSH0 SWAP1 SLOAD SWAP1 PUSH2 0x100 EXP SWAP1 DIV PUSH1 0xFF AND SWAP1 DUP1 PUSH1 0x4 ADD PUSH1 0x40 MLOAD DUP1 PUSH1 0x40 ADD PUSH1 0x40 MSTORE SWAP1 DUP2 PUSH0 DUP3 ADD DUP1 SLOAD PUSH2 0x149D SWAP1 PUSH2 0x2C0A JUMP JUMPDEST DUP1 PUSH1 0x1F ADD PUSH1 0x20 DUP1 SWAP2 DIV MUL PUSH1 0x20 ADD PUSH1 0x40 MLOAD SWAP1 DUP2 ADD PUSH1 0x40 MSTORE DUP1 SWAP3 SWAP2 SWAP1 DUP2 DUP2 MSTORE PUSH1 0x20 ADD DUP3 DUP1 SLOAD PUSH2 0x14C9 SWAP1 PUSH2 0x2C0A JUMP JUMPDEST DUP1 ISZERO PUSH2 0x1514 JUMPI DUP1 PUSH1 0x1F LT PUSH2 0x14EB JUMPI PUSH2 0x100 DUP1 DUP4 SLOAD DIV MUL DUP4 MSTORE SWAP2 PUSH1 0x20 ADD SWAP2 PUSH2 0x1514 JUMP JUMPDEST DUP3 ADD SWAP2 SWAP1 PUSH0 MSTORE PUSH1 0x20 PUSH0 KECCAK256 SWAP1 JUMPDEST DUP2 SLOAD DUP2 MSTORE SWAP1 PUSH1 0x1 ADD SWAP1 PUSH1 0x20 ADD DUP1 DUP4 GT PUSH2 0x14F7 JUMPI DUP3 SWAP1 SUB PUSH1 0x1F AND DUP3 ADD SWAP2 JUMPDEST POP POP POP POP POP DUP2 MSTORE PUSH1 0x20 ADD PUSH1 0x1 DUP3 ADD DUP1 SLOAD PUSH2 0x152D SWAP1 PUSH2 0x2C0A JUMP JUMPDEST DUP1 PUSH1 0x1F ADD PUSH1 0x20 DUP1 SWAP2 DIV MUL PUSH1 0x20 ADD PUSH1 0x40 MLOAD SWAP1 DUP2 ADD PUSH1 0x40 MSTORE DUP1 SWAP3 SWAP2 SWAP1 DUP2 DUP2 MSTORE PUSH1 0x20 ADD DUP3 DUP1 SLOAD PUSH2 0x1559 SWAP1 PUSH2 0x2C0A JUMP JUMPDEST DUP1 ISZERO PUSH2 0x15A4 JUMPI DUP1 PUSH1 0x1F LT PUSH2 0x157B JUMPI PUSH2 0x100 DUP1 DUP4 SLOAD DIV MUL DUP4 MSTORE SWAP2 PUSH1 0x20 ADD SWAP2 PUSH2 0x15A4 JUMP JUMPDEST DUP3 ADD SWAP2 SWAP1 PUSH0 MSTORE PUSH1 0x20 PUSH0 KECCAK256 SWAP1 JUMPDEST DUP2 SLOAD DUP2 MSTORE SWAP1 PUSH1 0x1 ADD SWAP1 PUSH1 0x20 ADD DUP1 DUP4 GT PUSH2 0x1587 JUMPI DUP3 SWAP1 SUB PUSH1 0x1F AND DUP3 ADD SWAP2 JUMPDEST POP POP POP POP POP DUP2 MSTORE POP POP SWAP1 DUP1 PUSH1 0x6 ADD SLOAD SWAP1 POP DUP7 JUMP JUMPDEST PUSH1 0x60 PUSH1 0x3 PUSH0 DUP4 DUP2 MSTORE PUSH1 0x20 ADD SWAP1 DUP2 MSTORE PUSH1 0x20 ADD PUSH0 KECCAK256 DUP1 SLOAD DUP1 PUSH1 0x20 MUL PUSH1 0x20 ADD PUSH1 0x40 MLOAD SWAP1 DUP2 ADD PUSH1 0x40 MSTORE DUP1 SWAP3 SWAP2 SWAP1 DUP2 DUP2 MSTORE PUSH1 0x20 ADD PUSH0 SWAP1 JUMPDEST DUP3 DUP3 LT ISZERO PUSH2 0x16B2 JUMPI DUP4 DUP3 SWAP1 PUSH0 MSTORE PUSH1 0x20 PUSH0 KECCAK256 SWAP1 PUSH1 0x2 MUL ADD PUSH1 0x40 MLOAD DUP1 PUSH1 0x60 ADD PUSH1 0x40 MSTORE SWAP1 DUP2 PUSH0 DUP3 ADD PUSH0 SWAP1 SLOAD SWAP1 PUSH2 0x100 EXP SWAP1 DIV PUSH20 0xFFFFFFFFFFFFFFFFFFFFFFFFFFFFFFFFFFFFFFFF AND PUSH20 0xFFFFFFFFFFFFFFFFFFFFFFFFFFFFFFFFFFFFFFFF AND PUSH20 0xFFFFFFFFFFFFFFFFFFFFFFFFFFFFFFFFFFFFFFFF AND DUP2 MSTORE PUSH1 0x20 ADD PUSH0 DUP3 ADD PUSH1 0x14 SWAP1 SLOAD SWAP1 PUSH2 0x100 EXP SWAP1 DIV PUSH1 0xFF AND PUSH1 0x2 DUP2 GT ISZERO PUSH2 0x1683 JUMPI PUSH2 0x1682 PUSH2 0x23FB JUMP JUMPDEST JUMPDEST PUSH1 0x2 DUP2 GT ISZERO PUSH2 0x1695 JUMPI PUSH2 0x1694 PUSH2 0x23FB JUMP JUMPDEST JUMPDEST DUP2 MSTORE PUSH1 0x20 ADD PUSH1 0x1 DUP3 ADD SLOAD DUP2 MSTORE POP POP DUP2 MSTORE PUSH1 0x20 ADD SWAP1 PUSH1 0x1 ADD SWAP1 PUSH2 0x15EA JUMP JUMPDEST POP POP POP POP SWAP1 POP SWAP2 SWAP1 POP JUMP JUMPDEST PUSH1 0x60 PUSH0 DUP1 JUMPDEST PUSH1 0x5 SLOAD DUP2 LT ISZERO PUSH2 0x1754 JUMPI DUP4 PUSH20 0xFFFFFFFFFFFFFFFFFFFFFFFFFFFFFFFFFFFFFFFF AND PUSH1 0x2 PUSH0 DUP4 DUP2 MSTORE PUSH1 0x20 ADD SWAP1 DUP2 MSTORE PUSH1 0x20 ADD PUSH0 KECCAK256 PUSH1 0x1 ADD PUSH0 SWAP1 SLOAD SWAP1 PUSH2 0x100 EXP SWAP1 DIV PUSH20 0xFFFFFFFFFFFFFFFFFFFFFFFFFFFFFFFFFFFFFFFF AND PUSH20 0xFFFFFFFFFFFFFFFFFFFFFFFFFFFFFFFFFFFFFFFF AND SUB PUSH2 0x1741 JUMPI DUP2 DUP1 PUSH2 0x173D SWAP1 PUSH2 0x2B96 JUMP JUMPDEST SWAP3 POP POP JUMPDEST DUP1 DUP1 PUSH2 0x174C SWAP1 PUSH2 0x2B96 JUMP JUMPDEST SWAP2 POP POP PUSH2 0x16C2 JUMP JUMPDEST POP PUSH0 DUP2 PUSH8 0xFFFFFFFFFFFFFFFF DUP2 GT ISZERO PUSH2 0x1770 JUMPI PUSH2 0x176F PUSH2 0x1F90 JUMP JUMPDEST JUMPDEST PUSH1 0x40 MLOAD SWAP1 DUP1 DUP3 MSTORE DUP1 PUSH1 0x20 MUL PUSH1 0x20 ADD DUP3 ADD PUSH1 0x40 MSTORE DUP1 ISZERO PUSH2 0x17A9 JUMPI DUP2 PUSH1 0x20 ADD JUMPDEST PUSH2 0x1796 PUSH2 0x1EED JUMP JUMPDEST DUP2 MSTORE PUSH1 0x20 ADD SWAP1 PUSH1 0x1 SWAP1 SUB SWAP1 DUP2 PUSH2 0x178E JUMPI SWAP1 POP JUMPDEST POP SWAP1 POP PUSH0 DUP1 JUMPDEST PUSH1 0x5 SLOAD DUP2 LT ISZERO PUSH2 0x1ADE JUMPI DUP6 PUSH20 0xFFFFFFFFFFFFFFFFFFFFFFFFFFFFFFFFFFFFFFFF AND PUSH1 0x2 PUSH0 DUP4 DUP2 MSTORE PUSH1 0x20 ADD SWAP1 DUP2 MSTORE PUSH1 0x20 ADD PUSH0 KECCAK256 PUSH1 0x1 ADD PUSH0 SWAP1 SLOAD SWAP1 PUSH2 0x100 EXP SWAP1 DIV PUSH20 0xFFFFFFFFFFFFFFFFFFFFFFFFFFFFFFFFFFFFFFFF AND PUSH20 0xFFFFFFFFFFFFFFFFFFFFFFFFFFFFFFFFFFFFFFFF AND SUB PUSH2 0x1ACB JUMPI PUSH1 0x2 PUSH0 DUP3 DUP2 MSTORE PUSH1 0x20 ADD SWAP1 DUP2 MSTORE PUSH1 0x20 ADD PUSH0 KECCAK256 PUSH1 0x40 MLOAD DUP1 PUSH1 0xC0 ADD PUSH1 0x40 MSTORE SWAP1 DUP2 PUSH0 DUP3 ADD SLOAD DUP2 MSTORE PUSH1 0x20 ADD PUSH1 0x1 DUP3 ADD PUSH0 SWAP1 SLOAD SWAP1 PUSH2 0x100 EXP SWAP1 DIV PUSH20 0xFFFFFFFFFFFFFFFFFFFFFFFFFFFFFFFFFFFFFFFF AND PUSH20 0xFFFFFFFFFFFFFFFFFFFFFFFFFFFFFFFFFFFFFFFF AND PUSH20 0xFFFFFFFFFFFFFFFFFFFFFFFFFFFFFFFFFFFFFFFF AND DUP2 MSTORE PUSH1 0x20 ADD PUSH1 0x2 DUP3 ADD DUP1 SLOAD PUSH2 0x18A9 SWAP1 PUSH2 0x2C0A JUMP JUMPDEST DUP1 PUSH1 0x1F ADD PUSH1 0x20 DUP1 SWAP2 DIV MUL PUSH1 0x20 ADD PUSH1 0x40 MLOAD SWAP1 DUP2 ADD PUSH1 0x40 MSTORE DUP1 SWAP3 SWAP2 SWAP1 DUP2 DUP2 MSTORE PUSH1 0x20 ADD DUP3 DUP1 SLOAD PUSH2 0x18D5 SWAP1 PUSH2 0x2C0A JUMP JUMPDEST DUP1 ISZERO PUSH2 0x1920 JUMPI DUP1 PUSH1 0x1F LT PUSH2 0x18F7 JUMPI PUSH2 0x100 DUP1 DUP4 SLOAD DIV MUL DUP4 MSTORE SWAP2 PUSH1 0x20 ADD SWAP2 PUSH2 0x1920 JUMP JUMPDEST DUP3 ADD SWAP2 SWAP1 PUSH0 MSTORE PUSH1 0x20 PUSH0 KECCAK256 SWAP1 JUMPDEST DUP2 SLOAD DUP2 MSTORE SWAP1 PUSH1 0x1 ADD SWAP1 PUSH1 0x20 ADD DUP1 DUP4 GT PUSH2 0x1903 JUMPI DUP3 SWAP1 SUB PUSH1 0x1F AND DUP3 ADD SWAP2 JUMPDEST POP POP POP POP POP DUP2 MSTORE PUSH1 0x20 ADD PUSH1 0x3 DUP3 ADD PUSH0 SWAP1 SLOAD SWAP1 PUSH2 0x100 EXP SWAP1 DIV PUSH1 0xFF AND PUSH1 0x1 DUP2 GT ISZERO PUSH2 0x194D JUMPI PUSH2 0x194C PUSH2 0x23FB JUMP JUMPDEST JUMPDEST PUSH1 0x1 DUP2 GT ISZERO PUSH2 0x195F JUMPI PUSH2 0x195E PUSH2 0x23FB JUMP JUMPDEST JUMPDEST DUP2 MSTORE PUSH1 0x20 ADD PUSH1 0x4 DUP3 ADD PUSH1 0x40 MLOAD DUP1 PUSH1 0x40 ADD PUSH1 0x40 MSTORE SWAP1 DUP2 PUSH0 DUP3 ADD DUP1 SLOAD PUSH2 0x1982 SWAP1 PUSH2 0x2C0A JUMP JUMPDEST DUP1 PUSH1 0x1F ADD PUSH1 0x20 DUP1 SWAP2 DIV MUL PUSH1 0x20 ADD PUSH1 0x40 MLOAD SWAP1 DUP2 ADD PUSH1 0x40 MSTORE DUP1 SWAP3 SWAP2 SWAP1 DUP2 DUP2 MSTORE PUSH1 0x20 ADD DUP3 DUP1 SLOAD PUSH2 0x19AE SWAP1 PUSH2 0x2C0A JUMP JUMPDEST DUP1 ISZERO PUSH2 0x19F9 JUMPI DUP1 PUSH1 0x1F LT PUSH2 0x19D0 JUMPI PUSH2 0x100 DUP1 DUP4 SLOAD DIV MUL DUP4 MSTORE SWAP2 PUSH1 0x20 ADD SWAP2 PUSH2 0x19F9 JUMP JUMPDEST DUP3 ADD SWAP2 SWAP1 PUSH0 MSTORE PUSH1 0x20 PUSH0 KECCAK256 SWAP1 JUMPDEST DUP2 SLOAD DUP2 MSTORE SWAP1 PUSH1 0x1 ADD SWAP1 PUSH1 0x20 ADD DUP1 DUP4 GT PUSH2 0x19DC JUMPI DUP3 SWAP1 SUB PUSH1 0x1F AND DUP3 ADD SWAP2 JUMPDEST POP POP POP POP POP DUP2 MSTORE PUSH1 0x20 ADD PUSH1 0x1 DUP3 ADD DUP1 SLOAD PUSH2 0x1A12 SWAP1 PUSH2 0x2C0A JUMP JUMPDEST DUP1 PUSH1 0x1F ADD PUSH1 0x20 DUP1 SWAP2 DIV MUL PUSH1 0x20 ADD PUSH1 0x40 MLOAD SWAP1 DUP2 ADD PUSH1 0x40 MSTORE DUP1 SWAP3 SWAP2 SWAP1 DUP2 DUP2 MSTORE PUSH1 0x20 ADD DUP3 DUP1 SLOAD PUSH2 0x1A3E SWAP1 PUSH2 0x2C0A JUMP JUMPDEST DUP1 ISZERO PUSH2 0x1A89 JUMPI DUP1 PUSH1 0x1F LT PUSH2 0x1A60 JUMPI PUSH2 0x100 DUP1 DUP4 SLOAD DIV MUL DUP4 MSTORE SWAP2 PUSH1 0x20 ADD SWAP2 PUSH2 0x1A89 JUMP JUMPDEST DUP3 ADD SWAP2 SWAP1 PUSH0 MSTORE PUSH1 0x20 PUSH0 KECCAK256 SWAP1 JUMPDEST DUP2 SLOAD DUP2 MSTORE SWAP1 PUSH1 0x1 ADD SWAP1 PUSH1 0x20 ADD DUP1 DUP4 GT PUSH2 0x1A6C JUMPI DUP3 SWAP1 SUB PUSH1 0x1F AND DUP3 ADD SWAP2 JUMPDEST POP POP POP POP POP DUP2 MSTORE POP POP DUP2 MSTORE PUSH1 0x20 ADD PUSH1 0x6 DUP3 ADD SLOAD DUP2 MSTORE POP POP DUP4 DUP4 DUP1 PUSH2 0x1AAC SWAP1 PUSH2 0x2B96 JUMP JUMPDEST SWAP5 POP DUP2 MLOAD DUP2 LT PUSH2 0x1ABF JUMPI PUSH2 0x1ABE PUSH2 0x2EDB JUMP JUMPDEST JUMPDEST PUSH1 0x20 MUL PUSH1 0x20 ADD ADD DUP2 SWAP1 MSTORE POP JUMPDEST DUP1 DUP1 PUSH2 0x1AD6 SWAP1 PUSH2 0x2B96 JUMP JUMPDEST SWAP2 POP POP PUSH2 0x17AF JUMP JUMPDEST POP DUP2 SWAP4 POP POP POP POP SWAP2 SWAP1 POP JUMP JUMPDEST PUSH1 0x4 PUSH0 DUP4 DUP2 MSTORE PUSH1 0x20 ADD SWAP1 DUP2 MSTORE PUSH1 0x20 ADD PUSH0 KECCAK256 PUSH1 0x40 MLOAD DUP1 PUSH1 0x60 ADD PUSH1 0x40 MSTORE DUP1 CALLER PUSH20 0xFFFFFFFFFFFFFFFFFFFFFFFFFFFFFFFFFFFFFFFF AND DUP2 MSTORE PUSH1 0x20 ADD DUP4 DUP2 MSTORE PUSH1 0x20 ADD TIMESTAMP DUP2 MSTORE POP SWAP1 DUP1 PUSH1 0x1 DUP2 SLOAD ADD DUP1 DUP3 SSTORE DUP1 SWAP2 POP POP PUSH1 0x1 SWAP1 SUB SWAP1 PUSH0 MSTORE PUSH1 0x20 PUSH0 KECCAK256 SWAP1 PUSH1 0x3 MUL ADD PUSH0 SWAP1 SWAP2 SWAP1 SWAP2 SWAP1 SWAP2 POP PUSH0 DUP3 ADD MLOAD DUP2 PUSH0 ADD PUSH0 PUSH2 0x100 EXP DUP2 SLOAD DUP2 PUSH20 0xFFFFFFFFFFFFFFFFFFFFFFFFFFFFFFFFFFFFFFFF MUL NOT AND SWAP1 DUP4 PUSH20 0xFFFFFFFFFFFFFFFFFFFFFFFFFFFFFFFFFFFFFFFF AND MUL OR SWAP1 SSTORE POP PUSH1 0x20 DUP3 ADD MLOAD DUP2 PUSH1 0x1 ADD SWAP1 DUP2 PUSH2 0x1BAB SWAP2 SWAP1 PUSH2 0x2DD7 JUMP JUMPDEST POP PUSH1 0x40 DUP3 ADD MLOAD DUP2 PUSH1 0x2 ADD SSTORE POP POP CALLER PUSH20 0xFFFFFFFFFFFFFFFFFFFFFFFFFFFFFFFFFFFFFFFF AND DUP3 PUSH32 0x5FDE78E53658418A994F35A31FBB22A8CE49370B8678F1663A93E196B8E8896E PUSH1 0x2 TIMESTAMP PUSH1 0x40 MLOAD PUSH2 0x1C02 SWAP3 SWAP2 SWAP1 PUSH2 0x301E JUMP JUMPDEST PUSH1 0x40 MLOAD DUP1 SWAP2 SUB SWAP1 LOG3 POP POP JUMP JUMPDEST PUSH1 0x60 PUSH1 0x4 PUSH0 DUP4 DUP2 MSTORE PUSH1 0x20 ADD SWAP1 DUP2 MSTORE PUSH1 0x20 ADD PUSH0 KECCAK256 DUP1 SLOAD DUP1 PUSH1 0x20 MUL PUSH1 0x20 ADD PUSH1 0x40 MLOAD SWAP1 DUP2 ADD PUSH1 0x40 MSTORE DUP1 SWAP3 SWAP2 SWAP1 DUP2 DUP2 MSTORE PUSH1 0x20 ADD PUSH0 SWAP1 JUMPDEST DUP3 DUP3 LT ISZERO PUSH2 0x1D5E JUMPI DUP4 DUP3 SWAP1 PUSH0 MSTORE PUSH1 0x20 PUSH0 KECCAK256 SWAP1 PUSH1 0x3 MUL ADD PUSH1 0x40 MLOAD DUP1 PUSH1 0x60 ADD PUSH1 0x40 MSTORE SWAP1 DUP2 PUSH0 DUP3 ADD PUSH0 SWAP1 SLOAD SWAP1 PUSH2 0x100 EXP SWAP1 DIV PUSH20 0xFFFFFFFFFFFFFFFFFFFFFFFFFFFFFFFFFFFFFFFF AND PUSH20 0xFFFFFFFFFFFFFFFFFFFFFFFFFFFFFFFFFFFFFFFF AND PUSH20 0xFFFFFFFFFFFFFFFFFFFFFFFFFFFFFFFFFFFFFFFF AND DUP2 MSTORE PUSH1 0x20 ADD PUSH1 0x1 DUP3 ADD DUP1 SLOAD PUSH2 0x1CC5 SWAP1 PUSH2 0x2C0A JUMP JUMPDEST DUP1 PUSH1 0x1F ADD PUSH1 0x20 DUP1 SWAP2 DIV MUL PUSH1 0x20 ADD PUSH1 0x40 MLOAD SWAP1 DUP2 ADD PUSH1 0x40 MSTORE DUP1 SWAP3 SWAP2 SWAP1 DUP2 DUP2 MSTORE PUSH1 0x20 ADD DUP3 DUP1 SLOAD PUSH2 0x1CF1 SWAP1 PUSH2 0x2C0A JUMP JUMPDEST DUP1 ISZERO PUSH2 0x1D3C JUMPI DUP1 PUSH1 0x1F LT PUSH2 0x1D13 JUMPI PUSH2 0x100 DUP1 DUP4 SLOAD DIV MUL DUP4 MSTORE SWAP2 PUSH1 0x20 ADD SWAP2 PUSH2 0x1D3C JUMP JUMPDEST DUP3 ADD SWAP2 SWAP1 PUSH0 MSTORE PUSH1 0x20 PUSH0 KECCAK256 SWAP1 JUMPDEST DUP2 SLOAD DUP2 MSTORE SWAP1 PUSH1 0x1 ADD SWAP1 PUSH1 0x20 ADD DUP1 DUP4 GT PUSH2 0x1D1F JUMPI DUP3 SWAP1 SUB PUSH1 0x1F AND DUP3 ADD SWAP2 JUMPDEST POP POP POP POP POP DUP2 MSTORE PUSH1 0x20 ADD PUSH1 0x2 DUP3 ADD SLOAD DUP2 MSTORE POP POP DUP2 MSTORE PUSH1 0x20 ADD SWAP1 PUSH1 0x1 ADD SWAP1 PUSH2 0x1C40 JUMP JUMPDEST POP POP POP POP SWAP1 POP SWAP2 SWAP1 POP JUMP JUMPDEST PUSH1 0x3 PUSH0 DUP5 DUP2 MSTORE PUSH1 0x20 ADD SWAP1 DUP2 MSTORE PUSH1 0x20 ADD PUSH0 KECCAK256 PUSH1 0x40 MLOAD DUP1 PUSH1 0x60 ADD PUSH1 0x40 MSTORE DUP1 DUP5 PUSH20 0xFFFFFFFFFFFFFFFFFFFFFFFFFFFFFFFFFFFFFFFF AND DUP2 MSTORE PUSH1 0x20 ADD DUP4 PUSH1 0x2 DUP2 GT ISZERO PUSH2 0x1DB4 JUMPI PUSH2 0x1DB3 PUSH2 0x23FB JUMP JUMPDEST JUMPDEST DUP2 MSTORE PUSH1 0x20 ADD TIMESTAMP DUP2 MSTORE POP SWAP1 DUP1 PUSH1 0x1 DUP2 SLOAD ADD DUP1 DUP3 SSTORE DUP1 SWAP2 POP POP PUSH1 0x1 SWAP1 SUB SWAP1 PUSH0 MSTORE PUSH1 0x20 PUSH0 KECCAK256 SWAP1 PUSH1 0x2 MUL ADD PUSH0 SWAP1 SWAP2 SWAP1 SWAP2 SWAP1 SWAP2 POP PUSH0 DUP3 ADD MLOAD DUP2 PUSH0 ADD PUSH0 PUSH2 0x100 EXP DUP2 SLOAD DUP2 PUSH20 0xFFFFFFFFFFFFFFFFFFFFFFFFFFFFFFFFFFFFFFFF MUL NOT AND SWAP1 DUP4 PUSH20 0xFFFFFFFFFFFFFFFFFFFFFFFFFFFFFFFFFFFFFFFF AND MUL OR SWAP1 SSTORE POP PUSH1 0x20 DUP3 ADD MLOAD DUP2 PUSH0 ADD PUSH1 0x14 PUSH2 0x100 EXP DUP2 SLOAD DUP2 PUSH1 0xFF MUL NOT AND SWAP1 DUP4 PUSH1 0x2 DUP2 GT ISZERO PUSH2 0x1E51 JUMPI PUSH2 0x1E50 PUSH2 0x23FB JUMP JUMPDEST JUMPDEST MUL OR SWAP1 SSTORE POP PUSH1 0x40 DUP3 ADD MLOAD DUP2 PUSH1 0x1 ADD SSTORE POP POP DUP2 PUSH20 0xFFFFFFFFFFFFFFFFFFFFFFFFFFFFFFFFFFFFFFFF AND DUP4 PUSH32 0x5FDE78E53658418A994F35A31FBB22A8CE49370B8678F1663A93E196B8E8896E DUP4 TIMESTAMP PUSH1 0x40 MLOAD PUSH2 0x1EAB SWAP3 SWAP2 SWAP1 PUSH2 0x301E JUMP JUMPDEST PUSH1 0x40 MLOAD DUP1 SWAP2 SUB SWAP1 LOG3 POP POP POP JUMP JUMPDEST PUSH1 0x40 MLOAD DUP1 PUSH1 0x60 ADD PUSH1 0x40 MSTORE DUP1 PUSH0 PUSH20 0xFFFFFFFFFFFFFFFFFFFFFFFFFFFFFFFFFFFFFFFF AND DUP2 MSTORE PUSH1 0x20 ADD PUSH1 0x60 DUP2 MSTORE PUSH1 0x20 ADD PUSH0 DUP2 MSTORE POP SWAP1 JUMP JUMPDEST PUSH1 0x40 MLOAD DUP1 PUSH1 0xC0 ADD PUSH1 0x40 MSTORE DUP1 PUSH0 DUP2 MSTORE PUSH1 0x20 ADD PUSH0 PUSH20 0xFFFFFFFFFFFFFFFFFFFFFFFFFFFFFFFFFFFFFFFF AND DUP2 MSTORE PUSH1 0x20 ADD PUSH1 0x60 DUP2 MSTORE PUSH1 0x20 ADD PUSH0 PUSH1 0x1 DUP2 GT ISZERO PUSH2 0x1F34 JUMPI PUSH2 0x1F33 PUSH2 0x23FB JUMP JUMPDEST JUMPDEST DUP2 MSTORE PUSH1 0x20 ADD PUSH2 0x1F41 PUSH2 0x1F4D JUMP JUMPDEST DUP2 MSTORE PUSH1 0x20 ADD PUSH0 DUP2 MSTORE POP SWAP1 JUMP JUMPDEST PUSH1 0x40 MLOAD DUP1 PUSH1 0x40 ADD PUSH1 0x40 MSTORE DUP1 PUSH1 0x60 DUP2 MSTORE PUSH1 0x20 ADD PUSH1 0x60 DUP2 MSTORE POP SWAP1 JUMP JUMPDEST PUSH0 PUSH1 0x40 MLOAD SWAP1 POP SWAP1 JUMP JUMPDEST PUSH0 DUP1 REVERT JUMPDEST PUSH0 DUP1 REVERT JUMPDEST PUSH0 DUP1 REVERT JUMPDEST PUSH0 DUP1 REVERT JUMPDEST PUSH0 PUSH1 0x1F NOT PUSH1 0x1F DUP4 ADD AND SWAP1 POP SWAP2 SWAP1 POP JUMP JUMPDEST PUSH32 0x4E487B7100000000000000000000000000000000000000000000000000000000 PUSH0 MSTORE PUSH1 0x41 PUSH1 0x4 MSTORE PUSH1 0x24 PUSH0 REVERT JUMPDEST PUSH2 0x1FC6 DUP3 PUSH2 0x1F80 JUMP JUMPDEST DUP2 ADD DUP2 DUP2 LT PUSH8 0xFFFFFFFFFFFFFFFF DUP3 GT OR ISZERO PUSH2 0x1FE5 JUMPI PUSH2 0x1FE4 PUSH2 0x1F90 JUMP JUMPDEST JUMPDEST DUP1 PUSH1 0x40 MSTORE POP POP POP JUMP JUMPDEST PUSH0 PUSH2 0x1FF7 PUSH2 0x1F67 JUMP JUMPDEST SWAP1 POP PUSH2 0x2003 DUP3 DUP3 PUSH2 0x1FBD JUMP JUMPDEST SWAP2 SWAP1 POP JUMP JUMPDEST PUSH0 PUSH8 0xFFFFFFFFFFFFFFFF DUP3 GT ISZERO PUSH2 0x2022 JUMPI PUSH2 0x2021 PUSH2 0x1F90 JUMP JUMPDEST JUMPDEST PUSH2 0x202B DUP3 PUSH2 0x1F80 JUMP JUMPDEST SWAP1 POP PUSH1 0x20 DUP2 ADD SWAP1 POP SWAP2 SWAP1 POP JUMP JUMPDEST DUP3 DUP2 DUP4 CALLDATACOPY PUSH0 DUP4 DUP4 ADD MSTORE POP POP POP JUMP JUMPDEST PUSH0 PUSH2 0x2058 PUSH2 0x2053 DUP5 PUSH2 0x2008 JUMP JUMPDEST PUSH2 0x1FEE JUMP JUMPDEST SWAP1 POP DUP3 DUP2 MSTORE PUSH1 0x20 DUP2 ADD DUP5 DUP5 DUP5 ADD GT ISZERO PUSH2 0x2074 JUMPI PUSH2 0x2073 PUSH2 0x1F7C JUMP JUMPDEST JUMPDEST PUSH2 0x207F DUP5 DUP3 DUP6 PUSH2 0x2038 JUMP JUMPDEST POP SWAP4 SWAP3 POP POP POP JUMP JUMPDEST PUSH0 DUP3 PUSH1 0x1F DUP4 ADD SLT PUSH2 0x209B JUMPI PUSH2 0x209A PUSH2 0x1F78 JUMP JUMPDEST JUMPDEST DUP2 CALLDATALOAD PUSH2 0x20AB DUP5 DUP3 PUSH1 0x20 DUP7 ADD PUSH2 0x2046 JUMP JUMPDEST SWAP2 POP POP SWAP3 SWAP2 POP POP JUMP JUMPDEST PUSH0 DUP1 PUSH0 PUSH1 0x60 DUP5 DUP7 SUB SLT ISZERO PUSH2 0x20CB JUMPI PUSH2 0x20CA PUSH2 0x1F70 JUMP JUMPDEST JUMPDEST PUSH0 DUP5 ADD CALLDATALOAD PUSH8 0xFFFFFFFFFFFFFFFF DUP2 GT ISZERO PUSH2 0x20E8 JUMPI PUSH2 0x20E7 PUSH2 0x1F74 JUMP JUMPDEST JUMPDEST PUSH2 0x20F4 DUP7 DUP3 DUP8 ADD PUSH2 0x2087 JUMP JUMPDEST SWAP4 POP POP PUSH1 0x20 DUP5 ADD CALLDATALOAD PUSH8 0xFFFFFFFFFFFFFFFF DUP2 GT ISZERO PUSH2 0x2115 JUMPI PUSH2 0x2114 PUSH2 0x1F74 JUMP JUMPDEST JUMPDEST PUSH2 0x2121 DUP7 DUP3 DUP8 ADD PUSH2 0x2087 JUMP JUMPDEST SWAP3 POP POP PUSH1 0x40 DUP5 ADD CALLDATALOAD PUSH8 0xFFFFFFFFFFFFFFFF DUP2 GT ISZERO PUSH2 0x2142 JUMPI PUSH2 0x2141 PUSH2 0x1F74 JUMP JUMPDEST JUMPDEST PUSH2 0x214E DUP7 DUP3 DUP8 ADD PUSH2 0x2087 JUMP JUMPDEST SWAP2 POP POP SWAP3 POP SWAP3 POP SWAP3 JUMP JUMPDEST PUSH0 PUSH20 0xFFFFFFFFFFFFFFFFFFFFFFFFFFFFFFFFFFFFFFFF DUP3 AND SWAP1 POP SWAP2 SWAP1 POP JUMP JUMPDEST PUSH0 PUSH2 0x2181 DUP3 PUSH2 0x2158 JUMP JUMPDEST SWAP1 POP SWAP2 SWAP1 POP JUMP JUMPDEST PUSH2 0x2191 DUP2 PUSH2 0x2177 JUMP JUMPDEST DUP2 EQ PUSH2 0x219B JUMPI PUSH0 DUP1 REVERT JUMPDEST POP JUMP JUMPDEST PUSH0 DUP2 CALLDATALOAD SWAP1 POP PUSH2 0x21AC DUP2 PUSH2 0x2188 JUMP JUMPDEST SWAP3 SWAP2 POP POP JUMP JUMPDEST PUSH0 PUSH1 0x20 DUP3 DUP5 SUB SLT ISZERO PUSH2 0x21C7 JUMPI PUSH2 0x21C6 PUSH2 0x1F70 JUMP JUMPDEST JUMPDEST PUSH0 PUSH2 0x21D4 DUP5 DUP3 DUP6 ADD PUSH2 0x219E JUMP JUMPDEST SWAP2 POP POP SWAP3 SWAP2 POP POP JUMP JUMPDEST PUSH0 DUP2 MLOAD SWAP1 POP SWAP2 SWAP1 POP JUMP JUMPDEST PUSH0 DUP3 DUP3 MSTORE PUSH1 0x20 DUP3 ADD SWAP1 POP SWAP3 SWAP2 POP POP JUMP JUMPDEST PUSH0 DUP2 SWAP1 POP PUSH1 0x20 DUP3 ADD SWAP1 POP SWAP2 SWAP1 POP JUMP JUMPDEST PUSH2 0x220F DUP2 PUSH2 0x2177 JUMP JUMPDEST DUP3 MSTORE POP POP JUMP JUMPDEST PUSH0 DUP2 MLOAD SWAP1 POP SWAP2 SWAP1 POP JUMP JUMPDEST PUSH0 DUP3 DUP3 MSTORE PUSH1 0x20 DUP3 ADD SWAP1 POP SWAP3 SWAP2 POP POP JUMP JUMPDEST PUSH0 JUMPDEST DUP4 DUP2 LT ISZERO PUSH2 0x224C JUMPI DUP1 DUP3 ADD MLOAD DUP2 DUP5 ADD MSTORE PUSH1 0x20 DUP2 ADD SWAP1 POP PUSH2 0x2231 JUMP JUMPDEST PUSH0 DUP5 DUP5 ADD MSTORE POP POP POP POP JUMP JUMPDEST PUSH0 PUSH2 0x2261 DUP3 PUSH2 0x2215 JUMP JUMPDEST PUSH2 0x226B DUP2 DUP6 PUSH2 0x221F JUMP JUMPDEST SWAP4 POP PUSH2 0x227B DUP2 DUP6 PUSH1 0x20 DUP7 ADD PUSH2 0x222F JUMP JUMPDEST PUSH2 0x2284 DUP2 PUSH2 0x1F80 JUMP JUMPDEST DUP5 ADD SWAP2 POP POP SWAP3 SWAP2 POP POP JUMP JUMPDEST PUSH0 DUP2 SWAP1 POP SWAP2 SWAP1 POP JUMP JUMPDEST PUSH2 0x22A1 DUP2 PUSH2 0x228F JUMP JUMPDEST DUP3 MSTORE POP POP JUMP JUMPDEST PUSH0 PUSH1 0x60 DUP4 ADD PUSH0 DUP4 ADD MLOAD PUSH2 0x22BC PUSH0 DUP7 ADD DUP3 PUSH2 0x2206 JUMP JUMPDEST POP PUSH1 0x20 DUP4 ADD MLOAD DUP5 DUP3 SUB PUSH1 0x20 DUP7 ADD MSTORE PUSH2 0x22D4 DUP3 DUP3 PUSH2 0x2257 JUMP JUMPDEST SWAP2 POP POP PUSH1 0x40 DUP4 ADD MLOAD PUSH2 0x22E9 PUSH1 0x40 DUP7 ADD DUP3 PUSH2 0x2298 JUMP JUMPDEST POP DUP1 SWAP2 POP POP SWAP3 SWAP2 POP POP JUMP JUMPDEST PUSH0 PUSH2 0x22FF DUP4 DUP4 PUSH2 0x22A7 JUMP JUMPDEST SWAP1 POP SWAP3 SWAP2 POP POP JUMP JUMPDEST PUSH0 PUSH1 0x20 DUP3 ADD SWAP1 POP SWAP2 SWAP1 POP JUMP JUMPDEST PUSH0 PUSH2 0x231D DUP3 PUSH2 0x21DD JUMP JUMPDEST PUSH2 0x2327 DUP2 DUP6 PUSH2 0x21E7 JUMP JUMPDEST SWAP4 POP DUP4 PUSH1 0x20 DUP3 MUL DUP6 ADD PUSH2 0x2339 DUP6 PUSH2 0x21F7 JUMP JUMPDEST DUP1 PUSH0 JUMPDEST DUP6 DUP2 LT ISZERO PUSH2 0x2374 JUMPI DUP5 DUP5 SUB DUP10 MSTORE DUP2 MLOAD PUSH2 0x2355 DUP6 DUP3 PUSH2 0x22F4 JUMP JUMPDEST SWAP5 POP PUSH2 0x2360 DUP4 PUSH2 0x2307 JUMP JUMPDEST SWAP3 POP PUSH1 0x20 DUP11 ADD SWAP10 POP POP PUSH1 0x1 DUP2 ADD SWAP1 POP PUSH2 0x233C JUMP JUMPDEST POP DUP3 SWAP8 POP DUP8 SWAP6 POP POP POP POP POP POP SWAP3 SWAP2 POP POP JUMP JUMPDEST PUSH0 PUSH1 0x20 DUP3 ADD SWAP1 POP DUP2 DUP2 SUB PUSH0 DUP4 ADD MSTORE PUSH2 0x239E DUP2 DUP5 PUSH2 0x2313 JUMP JUMPDEST SWAP1 POP SWAP3 SWAP2 POP POP JUMP JUMPDEST PUSH2 0x23AF DUP2 PUSH2 0x228F JUMP JUMPDEST DUP2 EQ PUSH2 0x23B9 JUMPI PUSH0 DUP1 REVERT JUMPDEST POP JUMP JUMPDEST PUSH0 DUP2 CALLDATALOAD SWAP1 POP PUSH2 0x23CA DUP2 PUSH2 0x23A6 JUMP JUMPDEST SWAP3 SWAP2 POP POP JUMP JUMPDEST PUSH0 PUSH1 0x20 DUP3 DUP5 SUB SLT ISZERO PUSH2 0x23E5 JUMPI PUSH2 0x23E4 PUSH2 0x1F70 JUMP JUMPDEST JUMPDEST PUSH0 PUSH2 0x23F2 DUP5 DUP3 DUP6 ADD PUSH2 0x23BC JUMP JUMPDEST SWAP2 POP POP SWAP3 SWAP2 POP POP JUMP JUMPDEST PUSH32 0x4E487B7100000000000000000000000000000000000000000000000000000000 PUSH0 MSTORE PUSH1 0x21 PUSH1 0x4 MSTORE PUSH1 0x24 PUSH0 REVERT JUMPDEST PUSH1 0x2 DUP2 LT PUSH2 0x2439 JUMPI PUSH2 0x2438 PUSH2 0x23FB JUMP JUMPDEST JUMPDEST POP JUMP JUMPDEST PUSH0 DUP2 SWAP1 POP PUSH2 0x2449 DUP3 PUSH2 0x2428 JUMP JUMPDEST SWAP2 SWAP1 POP JUMP JUMPDEST PUSH0 PUSH2 0x2458 DUP3 PUSH2 0x243C JUMP JUMPDEST SWAP1 POP SWAP2 SWAP1 POP JUMP JUMPDEST PUSH2 0x2468 DUP2 PUSH2 0x244E JUMP JUMPDEST DUP3 MSTORE POP POP JUMP JUMPDEST PUSH0 PUSH1 0x40 DUP4 ADD PUSH0 DUP4 ADD MLOAD DUP5 DUP3 SUB PUSH0 DUP7 ADD MSTORE PUSH2 0x2488 DUP3 DUP3 PUSH2 0x2257 JUMP JUMPDEST SWAP2 POP POP PUSH1 0x20 DUP4 ADD MLOAD DUP5 DUP3 SUB PUSH1 0x20 DUP7 ADD MSTORE PUSH2 0x24A2 DUP3 DUP3 PUSH2 0x2257 JUMP JUMPDEST SWAP2 POP POP DUP1 SWAP2 POP POP SWAP3 SWAP2 POP POP JUMP JUMPDEST PUSH0 PUSH1 0xC0 DUP4 ADD PUSH0 DUP4 ADD MLOAD PUSH2 0x24C4 PUSH0 DUP7 ADD DUP3 PUSH2 0x2298 JUMP JUMPDEST POP PUSH1 0x20 DUP4 ADD MLOAD PUSH2 0x24D7 PUSH1 0x20 DUP7 ADD DUP3 PUSH2 0x2206 JUMP JUMPDEST POP PUSH1 0x40 DUP4 ADD MLOAD DUP5 DUP3 SUB PUSH1 0x40 DUP7 ADD MSTORE PUSH2 0x24EF DUP3 DUP3 PUSH2 0x2257 JUMP JUMPDEST SWAP2 POP POP PUSH1 0x60 DUP4 ADD MLOAD PUSH2 0x2504 PUSH1 0x60 DUP7 ADD DUP3 PUSH2 0x245F JUMP JUMPDEST POP PUSH1 0x80 DUP4 ADD MLOAD DUP5 DUP3 SUB PUSH1 0x80 DUP7 ADD MSTORE PUSH2 0x251C DUP3 DUP3 PUSH2 0x246E JUMP JUMPDEST SWAP2 POP POP PUSH1 0xA0 DUP4 ADD MLOAD PUSH2 0x2531 PUSH1 0xA0 DUP7 ADD DUP3 PUSH2 0x2298 JUMP JUMPDEST POP DUP1 SWAP2 POP POP SWAP3 SWAP2 POP POP JUMP JUMPDEST PUSH0 PUSH1 0x20 DUP3 ADD SWAP1 POP DUP2 DUP2 SUB PUSH0 DUP4 ADD MSTORE PUSH2 0x2554 DUP2 DUP5 PUSH2 0x24AF JUMP JUMPDEST SWAP1 POP SWAP3 SWAP2 POP POP JUMP JUMPDEST PUSH0 DUP1 PUSH1 0x40 DUP4 DUP6 SUB SLT ISZERO PUSH2 0x2572 JUMPI PUSH2 0x2571 PUSH2 0x1F70 JUMP JUMPDEST JUMPDEST PUSH0 PUSH2 0x257F DUP6 DUP3 DUP7 ADD PUSH2 0x23BC JUMP JUMPDEST SWAP3 POP POP PUSH1 0x20 PUSH2 0x2590 DUP6 DUP3 DUP7 ADD PUSH2 0x23BC JUMP JUMPDEST SWAP2 POP POP SWAP3 POP SWAP3 SWAP1 POP JUMP JUMPDEST PUSH2 0x25A3 DUP2 PUSH2 0x2177 JUMP JUMPDEST DUP3 MSTORE POP POP JUMP JUMPDEST PUSH0 DUP3 DUP3 MSTORE PUSH1 0x20 DUP3 ADD SWAP1 POP SWAP3 SWAP2 POP POP JUMP JUMPDEST PUSH0 PUSH2 0x25C3 DUP3 PUSH2 0x2215 JUMP JUMPDEST PUSH2 0x25CD DUP2 DUP6 PUSH2 0x25A9 JUMP JUMPDEST SWAP4 POP PUSH2 0x25DD DUP2 DUP6 PUSH1 0x20 DUP7 ADD PUSH2 0x222F JUMP JUMPDEST PUSH2 0x25E6 DUP2 PUSH2 0x1F80 JUMP JUMPDEST DUP5 ADD SWAP2 POP POP SWAP3 SWAP2 POP POP JUMP JUMPDEST PUSH2 0x25FA DUP2 PUSH2 0x228F JUMP JUMPDEST DUP3 MSTORE POP POP JUMP JUMPDEST PUSH0 PUSH1 0x60 DUP3 ADD SWAP1 POP PUSH2 0x2613 PUSH0 DUP4 ADD DUP7 PUSH2 0x259A JUMP JUMPDEST DUP2 DUP2 SUB PUSH1 0x20 DUP4 ADD MSTORE PUSH2 0x2625 DUP2 DUP6 PUSH2 0x25B9 JUMP JUMPDEST SWAP1 POP PUSH2 0x2634 PUSH1 0x40 DUP4 ADD DUP5 PUSH2 0x25F1 JUMP JUMPDEST SWAP5 SWAP4 POP POP POP POP JUMP JUMPDEST PUSH0 DUP2 ISZERO ISZERO SWAP1 POP SWAP2 SWAP1 POP JUMP JUMPDEST PUSH2 0x2650 DUP2 PUSH2 0x263C JUMP JUMPDEST DUP3 MSTORE POP POP JUMP JUMPDEST PUSH0 PUSH1 0x20 DUP3 ADD SWAP1 POP PUSH2 0x2669 PUSH0 DUP4 ADD DUP5 PUSH2 0x2647 JUMP JUMPDEST SWAP3 SWAP2 POP POP JUMP JUMPDEST PUSH0 DUP1 PUSH1 0x40 DUP4 DUP6 SUB SLT ISZERO PUSH2 0x2685 JUMPI PUSH2 0x2684 PUSH2 0x1F70 JUMP JUMPDEST JUMPDEST PUSH0 PUSH2 0x2692 DUP6 DUP3 DUP7 ADD PUSH2 0x23BC JUMP JUMPDEST SWAP3 POP POP PUSH1 0x20 DUP4 ADD CALLDATALOAD PUSH8 0xFFFFFFFFFFFFFFFF DUP2 GT ISZERO PUSH2 0x26B3 JUMPI PUSH2 0x26B2 PUSH2 0x1F74 JUMP JUMPDEST JUMPDEST PUSH2 0x26BF DUP6 DUP3 DUP7 ADD PUSH2 0x2087 JUMP JUMPDEST SWAP2 POP POP SWAP3 POP SWAP3 SWAP1 POP JUMP JUMPDEST PUSH0 PUSH1 0x20 DUP3 ADD SWAP1 POP PUSH2 0x26DC PUSH0 DUP4 ADD DUP5 PUSH2 0x25F1 JUMP JUMPDEST SWAP3 SWAP2 POP POP JUMP JUMPDEST PUSH0 DUP2 MLOAD SWAP1 POP SWAP2 SWAP1 POP JUMP JUMPDEST PUSH0 DUP3 DUP3 MSTORE PUSH1 0x20 DUP3 ADD SWAP1 POP SWAP3 SWAP2 POP POP JUMP JUMPDEST PUSH0 DUP2 SWAP1 POP PUSH1 0x20 DUP3 ADD SWAP1 POP SWAP2 SWAP1 POP JUMP JUMPDEST PUSH0 PUSH1 0xC0 DUP4 ADD PUSH0 DUP4 ADD MLOAD PUSH2 0x2720 PUSH0 DUP7 ADD DUP3 PUSH2 0x2298 JUMP JUMPDEST POP PUSH1 0x20 DUP4 ADD MLOAD PUSH2 0x2733 PUSH1 0x20 DUP7 ADD DUP3 PUSH2 0x2206 JUMP JUMPDEST POP PUSH1 0x40 DUP4 ADD MLOAD DUP5 DUP3 SUB PUSH1 0x40 DUP7 ADD MSTORE PUSH2 0x274B DUP3 DUP3 PUSH2 0x2257 JUMP JUMPDEST SWAP2 POP POP PUSH1 0x60 DUP4 ADD MLOAD PUSH2 0x2760 PUSH1 0x60 DUP7 ADD DUP3 PUSH2 0x245F JUMP JUMPDEST POP PUSH1 0x80 DUP4 ADD MLOAD DUP5 DUP3 SUB PUSH1 0x80 DUP7 ADD MSTORE PUSH2 0x2778 DUP3 DUP3 PUSH2 0x246E JUMP JUMPDEST SWAP2 POP POP PUSH1 0xA0 DUP4 ADD MLOAD PUSH2 0x278D PUSH1 0xA0 DUP7 ADD DUP3 PUSH2 0x2298 JUMP JUMPDEST POP DUP1 SWAP2 POP POP SWAP3 SWAP2 POP POP JUMP JUMPDEST PUSH0 PUSH2 0x27A3 DUP4 DUP4 PUSH2 0x270B JUMP JUMPDEST SWAP1 POP SWAP3 SWAP2 POP POP JUMP JUMPDEST PUSH0 PUSH1 0x20 DUP3 ADD SWAP1 POP SWAP2 SWAP1 POP JUMP JUMPDEST PUSH0 PUSH2 0x27C1 DUP3 PUSH2 0x26E2 JUMP JUMPDEST PUSH2 0x27CB DUP2 DUP6 PUSH2 0x26EC JUMP JUMPDEST SWAP4 POP DUP4 PUSH1 0x20 DUP3 MUL DUP6 ADD PUSH2 0x27DD DUP6 PUSH2 0x26FC JUMP JUMPDEST DUP1 PUSH0 JUMPDEST DUP6 DUP2 LT ISZERO PUSH2 0x2818 JUMPI DUP5 DUP5 SUB DUP10 MSTORE DUP2 MLOAD PUSH2 0x27F9 DUP6 DUP3 PUSH2 0x2798 JUMP JUMPDEST SWAP5 POP PUSH2 0x2804 DUP4 PUSH2 0x27AB JUMP JUMPDEST SWAP3 POP PUSH1 0x20 DUP11 ADD SWAP10 POP POP PUSH1 0x1 DUP2 ADD SWAP1 POP PUSH2 0x27E0 JUMP JUMPDEST POP DUP3 SWAP8 POP DUP8 SWAP6 POP POP POP POP POP POP SWAP3 SWAP2 POP POP JUMP JUMPDEST PUSH0 PUSH1 0x20 DUP3 ADD SWAP1 POP DUP2 DUP2 SUB PUSH0 DUP4 ADD MSTORE PUSH2 0x2842 DUP2 DUP5 PUSH2 0x27B7 JUMP JUMPDEST SWAP1 POP SWAP3 SWAP2 POP POP JUMP JUMPDEST PUSH1 0x3 DUP2 LT PUSH2 0x285B JUMPI PUSH2 0x285A PUSH2 0x23FB JUMP JUMPDEST JUMPDEST POP JUMP JUMPDEST PUSH0 DUP2 SWAP1 POP PUSH2 0x286B DUP3 PUSH2 0x284A JUMP JUMPDEST SWAP2 SWAP1 POP JUMP JUMPDEST PUSH0 PUSH2 0x287A DUP3 PUSH2 0x285E JUMP JUMPDEST SWAP1 POP SWAP2 SWAP1 POP JUMP JUMPDEST PUSH2 0x288A DUP2 PUSH2 0x2870 JUMP JUMPDEST DUP3 MSTORE POP POP JUMP JUMPDEST PUSH0 PUSH1 0x60 DUP3 ADD SWAP1 POP PUSH2 0x28A3 PUSH0 DUP4 ADD DUP7 PUSH2 0x259A JUMP JUMPDEST PUSH2 0x28B0 PUSH1 0x20 DUP4 ADD DUP6 PUSH2 0x2881 JUMP JUMPDEST PUSH2 0x28BD PUSH1 0x40 DUP4 ADD DUP5 PUSH2 0x25F1 JUMP JUMPDEST SWAP5 SWAP4 POP POP POP POP JUMP JUMPDEST PUSH2 0x28CE DUP2 PUSH2 0x244E JUMP JUMPDEST DUP3 MSTORE POP POP JUMP JUMPDEST PUSH0 PUSH1 0x40 DUP4 ADD PUSH0 DUP4 ADD MLOAD DUP5 DUP3 SUB PUSH0 DUP7 ADD MSTORE PUSH2 0x28EE DUP3 DUP3 PUSH2 0x2257 JUMP JUMPDEST SWAP2 POP POP PUSH1 0x20 DUP4 ADD MLOAD DUP5 DUP3 SUB PUSH1 0x20 DUP7 ADD MSTORE PUSH2 0x2908 DUP3 DUP3 PUSH2 0x2257 JUMP JUMPDEST SWAP2 POP POP DUP1 SWAP2 POP POP SWAP3 SWAP2 POP POP JUMP JUMPDEST PUSH0 PUSH1 0xC0 DUP3 ADD SWAP1 POP PUSH2 0x2928 PUSH0 DUP4 ADD DUP10 PUSH2 0x25F1 JUMP JUMPDEST PUSH2 0x2935 PUSH1 0x20 DUP4 ADD DUP9 PUSH2 0x259A JUMP JUMPDEST DUP2 DUP2 SUB PUSH1 0x40 DUP4 ADD MSTORE PUSH2 0x2947 DUP2 DUP8 PUSH2 0x25B9 JUMP JUMPDEST SWAP1 POP PUSH2 0x2956 PUSH1 0x60 DUP4 ADD DUP7 PUSH2 0x28C5 JUMP JUMPDEST DUP2 DUP2 SUB PUSH1 0x80 DUP4 ADD MSTORE PUSH2 0x2968 DUP2 DUP6 PUSH2 0x28D4 JUMP JUMPDEST SWAP1 POP PUSH2 0x2977 PUSH1 0xA0 DUP4 ADD DUP5 PUSH2 0x25F1 JUMP JUMPDEST SWAP8 SWAP7 POP POP POP POP POP POP POP JUMP JUMPDEST PUSH0 DUP2 MLOAD SWAP1 POP SWAP2 SWAP1 POP JUMP JUMPDEST PUSH0 DUP3 DUP3 MSTORE PUSH1 0x20 DUP3 ADD SWAP1 POP SWAP3 SWAP2 POP POP JUMP JUMPDEST PUSH0 DUP2 SWAP1 POP PUSH1 0x20 DUP3 ADD SWAP1 POP SWAP2 SWAP1 POP JUMP JUMPDEST PUSH2 0x29B4 DUP2 PUSH2 0x2870 JUMP JUMPDEST DUP3 MSTORE POP POP JUMP JUMPDEST PUSH1 0x60 DUP3 ADD PUSH0 DUP3 ADD MLOAD PUSH2 0x29CE PUSH0 DUP6 ADD DUP3 PUSH2 0x2206 JUMP JUMPDEST POP PUSH1 0x20 DUP3 ADD MLOAD PUSH2 0x29E1 PUSH1 0x20 DUP6 ADD DUP3 PUSH2 0x29AB JUMP JUMPDEST POP PUSH1 0x40 DUP3 ADD MLOAD PUSH2 0x29F4 PUSH1 0x40 DUP6 ADD DUP3 PUSH2 0x2298 JUMP JUMPDEST POP POP POP POP JUMP JUMPDEST PUSH0 PUSH2 0x2A05 DUP4 DUP4 PUSH2 0x29BA JUMP JUMPDEST PUSH1 0x60 DUP4 ADD SWAP1 POP SWAP3 SWAP2 POP POP JUMP JUMPDEST PUSH0 PUSH1 0x20 DUP3 ADD SWAP1 POP SWAP2 SWAP1 POP JUMP JUMPDEST PUSH0 PUSH2 0x2A27 DUP3 PUSH2 0x2982 JUMP JUMPDEST PUSH2 0x2A31 DUP2 DUP6 PUSH2 0x298C JUMP JUMPDEST SWAP4 POP PUSH2 0x2A3C DUP4 PUSH2 0x299C JUMP JUMPDEST DUP1 PUSH0 JUMPDEST DUP4 DUP2 LT ISZERO PUSH2 0x2A6C JUMPI DUP2 MLOAD PUSH2 0x2A53 DUP9 DUP3 PUSH2 0x29FA JUMP JUMPDEST SWAP8 POP PUSH2 0x2A5E DUP4 PUSH2 0x2A11 JUMP JUMPDEST SWAP3 POP POP PUSH1 0x1 DUP2 ADD SWAP1 POP PUSH2 0x2A3F JUMP JUMPDEST POP DUP6 SWAP4 POP POP POP POP SWAP3 SWAP2 POP POP JUMP JUMPDEST PUSH0 PUSH1 0x20 DUP3 ADD SWAP1 POP DUP2 DUP2 SUB PUSH0 DUP4 ADD MSTORE PUSH2 0x2A91 DUP2 DUP5 PUSH2 0x2A1D JUMP JUMPDEST SWAP1 POP SWAP3 SWAP2 POP POP JUMP JUMPDEST PUSH32 0x4F6E6C7920757365722063616E2063616C6C20746869732066756E6374696F6E PUSH0 DUP3 ADD MSTORE POP JUMP JUMPDEST PUSH0 PUSH2 0x2ACD PUSH1 0x20 DUP4 PUSH2 0x25A9 JUMP JUMPDEST SWAP2 POP PUSH2 0x2AD8 DUP3 PUSH2 0x2A99 JUMP JUMPDEST PUSH1 0x20 DUP3 ADD SWAP1 POP SWAP2 SWAP1 POP JUMP JUMPDEST PUSH0 PUSH1 0x20 DUP3 ADD SWAP1 POP DUP2 DUP2 SUB PUSH0 DUP4 ADD MSTORE PUSH2 0x2AFA DUP2 PUSH2 0x2AC1 JUMP JUMPDEST SWAP1 POP SWAP2 SWAP1 POP JUMP JUMPDEST PUSH32 0x4E6F2066696C652070726F766964656400000000000000000000000000000000 PUSH0 DUP3 ADD MSTORE POP JUMP JUMPDEST PUSH0 PUSH2 0x2B35 PUSH1 0x10 DUP4 PUSH2 0x25A9 JUMP JUMPDEST SWAP2 POP PUSH2 0x2B40 DUP3 PUSH2 0x2B01 JUMP JUMPDEST PUSH1 0x20 DUP3 ADD SWAP1 POP SWAP2 SWAP1 POP JUMP JUMPDEST PUSH0 PUSH1 0x20 DUP3 ADD SWAP1 POP DUP2 DUP2 SUB PUSH0 DUP4 ADD MSTORE PUSH2 0x2B62 DUP2 PUSH2 0x2B29 JUMP JUMPDEST SWAP1 POP SWAP2 SWAP1 POP JUMP JUMPDEST PUSH32 0x4E487B7100000000000000000000000000000000000000000000000000000000 PUSH0 MSTORE PUSH1 0x11 PUSH1 0x4 MSTORE PUSH1 0x24 PUSH0 REVERT JUMPDEST PUSH0 PUSH2 0x2BA0 DUP3 PUSH2 0x228F JUMP JUMPDEST SWAP2 POP PUSH32 0xFFFFFFFFFFFFFFFFFFFFFFFFFFFFFFFFFFFFFFFFFFFFFFFFFFFFFFFFFFFFFFFF DUP3 SUB PUSH2 0x2BD2 JUMPI PUSH2 0x2BD1 PUSH2 0x2B69 JUMP JUMPDEST JUMPDEST PUSH1 0x1 DUP3 ADD SWAP1 POP SWAP2 SWAP1 POP JUMP JUMPDEST PUSH32 0x4E487B7100000000000000000000000000000000000000000000000000000000 PUSH0 MSTORE PUSH1 0x22 PUSH1 0x4 MSTORE PUSH1 0x24 PUSH0 REVERT JUMPDEST PUSH0 PUSH1 0x2 DUP3 DIV SWAP1 POP PUSH1 0x1 DUP3 AND DUP1 PUSH2 0x2C21 JUMPI PUSH1 0x7F DUP3 AND SWAP2 POP JUMPDEST PUSH1 0x20 DUP3 LT DUP2 SUB PUSH2 0x2C34 JUMPI PUSH2 0x2C33 PUSH2 0x2BDD JUMP JUMPDEST JUMPDEST POP SWAP2 SWAP1 POP JUMP JUMPDEST PUSH0 DUP2 SWAP1 POP DUP2 PUSH0 MSTORE PUSH1 0x20 PUSH0 KECCAK256 SWAP1 POP SWAP2 SWAP1 POP JUMP JUMPDEST PUSH0 PUSH1 0x20 PUSH1 0x1F DUP4 ADD DIV SWAP1 POP SWAP2 SWAP1 POP JUMP JUMPDEST PUSH0 DUP3 DUP3 SHL SWAP1 POP SWAP3 SWAP2 POP POP JUMP JUMPDEST PUSH0 PUSH1 0x8 DUP4 MUL PUSH2 0x2C96 PUSH32 0xFFFFFFFFFFFFFFFFFFFFFFFFFFFFFFFFFFFFFFFFFFFFFFFFFFFFFFFFFFFFFFFF DUP3 PUSH2 0x2C5B JUMP JUMPDEST PUSH2 0x2CA0 DUP7 DUP4 PUSH2 0x2C5B JUMP JUMPDEST SWAP6 POP DUP1 NOT DUP5 AND SWAP4 POP DUP1 DUP7 AND DUP5 OR SWAP3 POP POP POP SWAP4 SWAP3 POP POP POP JUMP JUMPDEST PUSH0 DUP2 SWAP1 POP SWAP2 SWAP1 POP JUMP JUMPDEST PUSH0 PUSH2 0x2CDB PUSH2 0x2CD6 PUSH2 0x2CD1 DUP5 PUSH2 0x228F JUMP JUMPDEST PUSH2 0x2CB8 JUMP JUMPDEST PUSH2 0x228F JUMP JUMPDEST SWAP1 POP SWAP2 SWAP1 POP JUMP JUMPDEST PUSH0 DUP2 SWAP1 POP SWAP2 SWAP1 POP JUMP JUMPDEST PUSH2 0x2CF4 DUP4 PUSH2 0x2CC1 JUMP JUMPDEST PUSH2 0x2D08 PUSH2 0x2D00 DUP3 PUSH2 0x2CE2 JUMP JUMPDEST DUP5 DUP5 SLOAD PUSH2 0x2C67 JUMP JUMPDEST DUP3 SSTORE POP POP POP POP JUMP JUMPDEST PUSH0 SWAP1 JUMP JUMPDEST PUSH2 0x2D1C PUSH2 0x2D10 JUMP JUMPDEST PUSH2 0x2D27 DUP2 DUP5 DUP5 PUSH2 0x2CEB JUMP JUMPDEST POP POP POP JUMP JUMPDEST JUMPDEST DUP2 DUP2 LT ISZERO PUSH2 0x2D4A JUMPI PUSH2 0x2D3F PUSH0 DUP3 PUSH2 0x2D14 JUMP JUMPDEST PUSH1 0x1 DUP2 ADD SWAP1 POP PUSH2 0x2D2D JUMP JUMPDEST POP POP JUMP JUMPDEST PUSH1 0x1F DUP3 GT ISZERO PUSH2 0x2D8F JUMPI PUSH2 0x2D60 DUP2 PUSH2 0x2C3A JUMP JUMPDEST PUSH2 0x2D69 DUP5 PUSH2 0x2C4C JUMP JUMPDEST DUP2 ADD PUSH1 0x20 DUP6 LT ISZERO PUSH2 0x2D78 JUMPI DUP2 SWAP1 POP JUMPDEST PUSH2 0x2D8C PUSH2 0x2D84 DUP6 PUSH2 0x2C4C JUMP JUMPDEST DUP4 ADD DUP3 PUSH2 0x2D2C JUMP JUMPDEST POP POP JUMPDEST POP POP POP JUMP JUMPDEST PUSH0 DUP3 DUP3 SHR SWAP1 POP SWAP3 SWAP2 POP POP JUMP JUMPDEST PUSH0 PUSH2 0x2DAF PUSH0 NOT DUP5 PUSH1 0x8 MUL PUSH2 0x2D94 JUMP JUMPDEST NOT DUP1 DUP4 AND SWAP2 POP POP SWAP3 SWAP2 POP POP JUMP JUMPDEST PUSH0 PUSH2 0x2DC7 DUP4 DUP4 PUSH2 0x2DA0 JUMP JUMPDEST SWAP2 POP DUP3 PUSH1 0x2 MUL DUP3 OR SWAP1 POP SWAP3 SWAP2 POP POP JUMP JUMPDEST PUSH2 0x2DE0 DUP3 PUSH2 0x2215 JUMP JUMPDEST PUSH8 0xFFFFFFFFFFFFFFFF DUP2 GT ISZERO PUSH2 0x2DF9 JUMPI PUSH2 0x2DF8 PUSH2 0x1F90 JUMP JUMPDEST JUMPDEST PUSH2 0x2E03 DUP3 SLOAD PUSH2 0x2C0A JUMP JUMPDEST PUSH2 0x2E0E DUP3 DUP3 DUP6 PUSH2 0x2D4E JUMP JUMPDEST PUSH0 PUSH1 0x20 SWAP1 POP PUSH1 0x1F DUP4 GT PUSH1 0x1 DUP2 EQ PUSH2 0x2E3F JUMPI PUSH0 DUP5 ISZERO PUSH2 0x2E2D JUMPI DUP3 DUP8 ADD MLOAD SWAP1 POP JUMPDEST PUSH2 0x2E37 DUP6 DUP3 PUSH2 0x2DBC JUMP JUMPDEST DUP7 SSTORE POP PUSH2 0x2E9E JUMP JUMPDEST PUSH1 0x1F NOT DUP5 AND PUSH2 0x2E4D DUP7 PUSH2 0x2C3A JUMP JUMPDEST PUSH0 JUMPDEST DUP3 DUP2 LT ISZERO PUSH2 0x2E74 JUMPI DUP5 DUP10 ADD MLOAD DUP3 SSTORE PUSH1 0x1 DUP3 ADD SWAP2 POP PUSH1 0x20 DUP6 ADD SWAP5 POP PUSH1 0x20 DUP2 ADD SWAP1 POP PUSH2 0x2E4F JUMP JUMPDEST DUP7 DUP4 LT ISZERO PUSH2 0x2E91 JUMPI DUP5 DUP10 ADD MLOAD PUSH2 0x2E8D PUSH1 0x1F DUP10 AND DUP3 PUSH2 0x2DA0 JUMP JUMPDEST DUP4 SSTORE POP JUMPDEST PUSH1 0x1 PUSH1 0x2 DUP9 MUL ADD DUP9 SSTORE POP POP POP JUMPDEST POP POP POP POP POP POP JUMP JUMPDEST PUSH0 PUSH1 0x40 DUP3 ADD SWAP1 POP DUP2 DUP2 SUB PUSH0 DUP4 ADD MSTORE PUSH2 0x2EBE DUP2 DUP6 PUSH2 0x25B9 JUMP JUMPDEST SWAP1 POP DUP2 DUP2 SUB PUSH1 0x20 DUP4 ADD MSTORE PUSH2 0x2ED2 DUP2 DUP5 PUSH2 0x25B9 JUMP JUMPDEST SWAP1 POP SWAP4 SWAP3 POP POP POP JUMP JUMPDEST PUSH32 0x4E487B7100000000000000000000000000000000000000000000000000000000 PUSH0 MSTORE PUSH1 0x32 PUSH1 0x4 MSTORE PUSH1 0x24 PUSH0 REVERT JUMPDEST PUSH32 0x4F6E6C792061646D696E2063616E2063616C6C20746869732066756E6374696F PUSH0 DUP3 ADD MSTORE PUSH32 0x6E00000000000000000000000000000000000000000000000000000000000000 PUSH1 0x20 DUP3 ADD MSTORE POP JUMP JUMPDEST PUSH0 PUSH2 0x2F62 PUSH1 0x21 DUP4 PUSH2 0x25A9 JUMP JUMPDEST SWAP2 POP PUSH2 0x2F6D DUP3 PUSH2 0x2F08 JUMP JUMPDEST PUSH1 0x40 DUP3 ADD SWAP1 POP SWAP2 SWAP1 POP JUMP JUMPDEST PUSH0 PUSH1 0x20 DUP3 ADD SWAP1 POP DUP2 DUP2 SUB PUSH0 DUP4 ADD MSTORE PUSH2 0x2F8F DUP2 PUSH2 0x2F56 JUMP JUMPDEST SWAP1 POP SWAP2 SWAP1 POP JUMP JUMPDEST PUSH32 0x436F6D706C61696E7420697320616C7265616479207265736F6C766564000000 PUSH0 DUP3 ADD MSTORE POP JUMP JUMPDEST PUSH0 PUSH2 0x2FCA PUSH1 0x1D DUP4 PUSH2 0x25A9 JUMP JUMPDEST SWAP2 POP PUSH2 0x2FD5 DUP3 PUSH2 0x2F96 JUMP JUMPDEST PUSH1 0x20 DUP3 ADD SWAP1 POP SWAP2 SWAP1 POP JUMP JUMPDEST PUSH0 PUSH1 0x20 DUP3 ADD SWAP1 POP DUP2 DUP2 SUB PUSH0 DUP4 ADD MSTORE PUSH2 0x2FF7 DUP2 PUSH2 0x2FBE JUMP JUMPDEST SWAP1 POP SWAP2 SWAP1 POP JUMP JUMPDEST PUSH0 PUSH1 0x20 DUP3 ADD SWAP1 POP DUP2 DUP2 SUB PUSH0 DUP4 ADD MSTORE PUSH2 0x3016 DUP2 DUP5 PUSH2 0x25B9 JUMP JUMPDEST SWAP1 POP SWAP3 SWAP2 POP POP JUMP JUMPDEST PUSH0 PUSH1 0x40 DUP3 ADD SWAP1 POP PUSH2 0x3031 PUSH0 DUP4 ADD DUP6 PUSH2 0x2881 JUMP JUMPDEST PUSH2 0x303E PUSH1 0x20 DUP4 ADD DUP5 PUSH2 0x25F1 JUMP JUMPDEST SWAP4 SWAP3 POP POP POP JUMP INVALID LOG2 PUSH5 0x6970667358 0x22 SLT KECCAK256 PUSH10 0x5557C40689A906E5FD4 SGT 0xEE PUSH21 0xC951CA4086C130863DC6F29A7433D97A880864736F PUSH13 0x63430008140033000000000000 "},"gasEstimates":{"creation":{"codeDepositCost":"2482200","executionCost":"2671","totalCost":"2484871"},"external":{"accessComplaint(uint256)":"infinite","complaintCount()":"2492","complaints(uint256)":"infinite","createComplaint(string,string,string)":"infinite","getComplaintById(uint256)":"infinite","getRepliesById(uint256)":"infinite","getTransactionsById(uint256)":"infinite","getUnresolvedComplaints()":"infinite","getUserComplaints(address)":"infinite","getUserReplies(address)":"infinite","isAdmin(address)":"2855","isUser(address)":"2944","registerAdmin()":"25723","registerUser()":"25679","replies(uint256,uint256)":"infinite","replyToComplaint(uint256,string)":"infinite","resolveComplaint(uint256,string)":"infinite","transactions(uint256,uint256)":"infinite"},"internal":{"_addTransaction(uint256,address,enum ComplaintSystem.Action)":"infinite"}},"methodIdentifiers":{"accessComplaint(uint256)":"6d7196eb","complaintCount()":"2edea294","complaints(uint256)":"7e69e912","createComplaint(string,string,string)":"0da3f37e","getComplaintById(uint256)":"168f7a4b","getRepliesById(uint256)":"f7ddd7a4","getTransactionsById(uint256)":"a9a9ddf1","getUnresolvedComplaints()":"3ae7db25","getUserComplaints(address)":"d395fc04","getUserReplies(address)":"152e1e32","isAdmin(address)":"24d7806c","isUser(address)":"4209fff1","registerAdmin()":"5ab6f71b","registerUser()":"4d3820eb","replies(uint256,uint256)":"204f257c","replyToComplaint(uint256,string)":"deb514ff","resolveComplaint(uint256,string)":"26019e7f","transactions(uint256,uint256)":"4eaf9db6"}},"storageLayout":{"storage":[{"astId":5,"contract":"ComplaintSystem.sol:ComplaintSystem","label":"isAdmin","offset":0,"slot":"0","type":"t_mapping(t_address,t_bool)"},{"astId":9,"contract":"ComplaintSystem.sol:ComplaintSystem","label":"isUser","offset":0,"slot":"1","type":"t_mapping(t_address,t_bool)"},{"astId":56,"contract":"ComplaintSystem.sol:ComplaintSystem","label":"complaints","offset":0,"slot":"2","type":"t_mapping(t_uint256,t_struct(Complaint)44_storage)"},{"astId":62,"contract":"ComplaintSystem.sol:ComplaintSystem","label":"transactions","offset":0,"slot":"3","type":"t_mapping(t_uint256,t_array(t_struct(Transaction)24_storage)dyn_storage)"},{"astId":68,"contract":"ComplaintSystem.sol:ComplaintSystem","label":"replies","offset":0,"slot":"4","type":"t_mapping(t_uint256,t_array(t_struct(Reply)51_storage)dyn_storage)"},{"astId":70,"contract":"ComplaintSystem.sol:ComplaintSystem","label":"complaintCount","offset":0,"slot":"5","type":"t_uint256"}],"types":{"t_address":{"encoding":"inplace","label":"address","numberOfBytes":"20"},"t_array(t_struct(Reply)51_storage)dyn_storage":{"base":"t_struct(Reply)51_storage","encoding":"dynamic_array","label":"struct ComplaintSystem.Reply[]","numberOfBytes":"32"},"t_array(t_struct(Transaction)24_storage)dyn_storage":{"base":"t_struct(Transaction)24_storage","encoding":"dynamic_array","label":"struct ComplaintSystem.Transaction[]","numberOfBytes":"32"},"t_bool":{"encoding":"inplace","label":"bool","numberOfBytes":"1"},"t_enum(Action)16":{"encoding":"inplace","label":"enum ComplaintSystem.Action","numberOfBytes":"1"},"t_enum(ComplaintStatus)12":{"encoding":"inplace","label":"enum ComplaintSystem.ComplaintStatus","numberOfBytes":"1"},"t_mapping(t_address,t_bool)":{"encoding":"mapping","key":"t_address","label":"mapping(address => bool)","numberOfBytes":"32","value":"t_bool"},"t_mapping(t_uint256,t_array(t_struct(Reply)51_storage)dyn_storage)":{"encoding":"mapping","key":"t_uint256","label":"mapping(uint256 => struct ComplaintSystem.Reply[])","numberOfBytes":"32","value":"t_array(t_struct(Reply)51_storage)dyn_storage"},"t_mapping(t_uint256,t_array(t_struct(Transaction)24_storage)dyn_storage)":{"encoding":"mapping","key":"t_uint256","label":"mapping(uint256 => struct ComplaintSystem.Transaction[])","numberOfBytes":"32","value":"t_array(t_struct(Transaction)24_storage)dyn_storage"},"t_mapping(t_uint256,t_struct(Complaint)44_storage)":{"encoding":"mapping","key":"t_uint256","label":"mapping(uint256 => struct ComplaintSystem.Complaint)","numberOfBytes":"32","value":"t_struct(Complaint)44_storage"},"t_string_storage":{"encoding":"bytes","label":"string","numberOfBytes":"32"},"t_struct(Complaint)44_storage":{"encoding":"inplace","label":"struct ComplaintSystem.Complaint","members":[{"astId":31,"contract":"ComplaintSystem.sol:ComplaintSystem","label":"id","offset":0,"slot":"0","type":"t_uint256"},{"astId":33,"contract":"ComplaintSystem.sol:ComplaintSystem","label":"complainant","offset":0,"slot":"1","type":"t_address"},{"astId":35,"contract":"ComplaintSystem.sol:ComplaintSystem","label":"description","offset":0,"slot":"2","type":"t_string_storage"},{"astId":38,"contract":"ComplaintSystem.sol:ComplaintSystem","label":"status","offset":0,"slot":"3","type":"t_enum(ComplaintStatus)12"},{"astId":41,"contract":"ComplaintSystem.sol:ComplaintSystem","label":"file","offset":0,"slot":"4","type":"t_struct(File)29_storage"},{"astId":43,"contract":"ComplaintSystem.sol:ComplaintSystem","label":"timestamp","offset":0,"slot":"6","type":"t_uint256"}],"numberOfBytes":"224"},"t_struct(File)29_storage":{"encoding":"inplace","label":"struct ComplaintSystem.File","members":[{"astId":26,"contract":"ComplaintSystem.sol:ComplaintSystem","label":"ipfsHash","offset":0,"slot":"0","type":"t_string_storage"},{"astId":28,"contract":"ComplaintSystem.sol:ComplaintSystem","label":"name","offset":0,"slot":"1","type":"t_string_storage"}],"numberOfBytes":"64"},"t_struct(Reply)51_storage":{"encoding":"inplace","label":"struct ComplaintSystem.Reply","members":[{"astId":46,"contract":"ComplaintSystem.sol:ComplaintSystem","label":"senderAddress","offset":0,"slot":"0","type":"t_address"},{"astId":48,"contract":"ComplaintSystem.sol:ComplaintSystem","label":"replyText","offset":0,"slot":"1","type":"t_string_storage"},{"astId":50,"contract":"ComplaintSystem.sol:ComplaintSystem","label":"timestamp","offset":0,"slot":"2","type":"t_uint256"}],"numberOfBytes":"96"},"t_struct(Transaction)24_storage":{"encoding":"inplace","label":"struct ComplaintSystem.Transaction","members":[{"astId":18,"contract":"ComplaintSystem.sol:ComplaintSystem","label":"accessor","offset":0,"slot":"0","type":"t_address"},{"astId":21,"contract":"ComplaintSystem.sol:ComplaintSystem","label":"actionType","offset":20,"slot":"0","type":"t_enum(Action)16"},{"astId":23,"contract":"ComplaintSystem.sol:ComplaintSystem","label":"timestamp","offset":0,"slot":"1","type":"t_uint256"}],"numberOfBytes":"64"},"t_uint256":{"encoding":"inplace","label":"uint256","numberOfBytes":"32"}}},"userdoc":{"kind":"user","methods":{},"version":1}}